{
  "contractName": "MomentMarket",
  "abi": [
    {
      "inputs": [],
      "stateMutability": "nonpayable",
      "type": "constructor"
    },
    {
      "anonymous": false,
      "inputs": [
        {
          "indexed": true,
          "internalType": "address",
          "name": "owner",
          "type": "address"
        },
        {
          "indexed": true,
          "internalType": "address",
          "name": "approved",
          "type": "address"
        },
        {
          "indexed": true,
          "internalType": "uint256",
          "name": "tokenId",
          "type": "uint256"
        }
      ],
      "name": "Approval",
      "type": "event"
    },
    {
      "anonymous": false,
      "inputs": [
        {
          "indexed": true,
          "internalType": "address",
          "name": "owner",
          "type": "address"
        },
        {
          "indexed": true,
          "internalType": "address",
          "name": "operator",
          "type": "address"
        },
        {
          "indexed": false,
          "internalType": "bool",
          "name": "approved",
          "type": "bool"
        }
      ],
      "name": "ApprovalForAll",
      "type": "event"
    },
    {
      "anonymous": false,
      "inputs": [
        {
          "indexed": true,
          "internalType": "address",
          "name": "_seller",
          "type": "address"
        },
        {
          "indexed": true,
          "internalType": "uint256",
          "name": "_tokenId",
          "type": "uint256"
        },
        {
          "indexed": false,
          "internalType": "uint256",
          "name": "_orderId",
          "type": "uint256"
        }
      ],
      "name": "OrderClosed",
      "type": "event"
    },
    {
      "anonymous": false,
      "inputs": [
        {
          "indexed": true,
          "internalType": "address",
          "name": "_seller",
          "type": "address"
        },
        {
          "indexed": true,
          "internalType": "uint256",
          "name": "_tokenId",
          "type": "uint256"
        },
        {
          "indexed": false,
          "internalType": "uint256",
          "name": "_orderId",
          "type": "uint256"
        }
      ],
      "name": "OrderCreated",
      "type": "event"
    },
    {
      "anonymous": false,
      "inputs": [
        {
          "indexed": true,
          "internalType": "address",
          "name": "_seller",
          "type": "address"
        },
        {
          "indexed": true,
          "internalType": "address",
          "name": "_buyer",
          "type": "address"
        },
        {
          "indexed": true,
          "internalType": "uint256",
          "name": "_tokenId",
          "type": "uint256"
        },
        {
          "indexed": false,
          "internalType": "uint256",
          "name": "_orderId",
          "type": "uint256"
        },
        {
          "indexed": false,
          "internalType": "uint256",
          "name": "_fee",
          "type": "uint256"
        }
      ],
      "name": "OrderSuccessful",
      "type": "event"
    },
    {
      "anonymous": false,
      "inputs": [
        {
          "indexed": true,
          "internalType": "address",
          "name": "previousOwner",
          "type": "address"
        },
        {
          "indexed": true,
          "internalType": "address",
          "name": "newOwner",
          "type": "address"
        }
      ],
      "name": "OwnershipTransferred",
      "type": "event"
    },
    {
      "anonymous": false,
      "inputs": [
        {
          "indexed": true,
          "internalType": "address",
          "name": "from",
          "type": "address"
        },
        {
          "indexed": true,
          "internalType": "address",
          "name": "to",
          "type": "address"
        },
        {
          "indexed": true,
          "internalType": "uint256",
          "name": "tokenId",
          "type": "uint256"
        }
      ],
      "name": "Transfer",
      "type": "event"
    },
    {
      "inputs": [
        {
          "internalType": "address",
          "name": "to",
          "type": "address"
        },
        {
          "internalType": "uint256",
          "name": "tokenId",
          "type": "uint256"
        }
      ],
      "name": "approve",
      "outputs": [],
      "stateMutability": "nonpayable",
      "type": "function"
    },
    {
      "inputs": [
        {
          "internalType": "address",
          "name": "owner",
          "type": "address"
        }
      ],
      "name": "balanceOf",
      "outputs": [
        {
          "internalType": "uint256",
          "name": "",
          "type": "uint256"
        }
      ],
      "stateMutability": "view",
      "type": "function"
    },
    {
      "inputs": [
        {
          "internalType": "string",
          "name": "_url",
          "type": "string"
        },
        {
          "internalType": "string",
          "name": "_meta_url",
          "type": "string"
        }
      ],
      "name": "createMoment",
      "outputs": [],
      "stateMutability": "nonpayable",
      "type": "function"
    },
    {
      "inputs": [
        {
          "internalType": "uint256",
          "name": "tokenId",
          "type": "uint256"
        }
      ],
      "name": "getApproved",
      "outputs": [
        {
          "internalType": "address",
          "name": "",
          "type": "address"
        }
      ],
      "stateMutability": "view",
      "type": "function"
    },
    {
      "inputs": [
        {
          "internalType": "address",
          "name": "owner",
          "type": "address"
        },
        {
          "internalType": "address",
          "name": "operator",
          "type": "address"
        }
      ],
      "name": "isApprovedForAll",
      "outputs": [
        {
          "internalType": "bool",
          "name": "",
          "type": "bool"
        }
      ],
      "stateMutability": "view",
      "type": "function"
    },
    {
      "inputs": [
        {
          "internalType": "uint256",
          "name": "",
          "type": "uint256"
        }
      ],
      "name": "moments",
      "outputs": [
        {
          "internalType": "string",
          "name": "url",
          "type": "string"
        },
        {
          "internalType": "string",
          "name": "meta_url",
          "type": "string"
        },
        {
          "internalType": "uint256",
          "name": "created_at",
          "type": "uint256"
        }
      ],
      "stateMutability": "view",
      "type": "function"
    },
    {
      "inputs": [],
      "name": "name",
      "outputs": [
        {
          "internalType": "string",
          "name": "",
          "type": "string"
        }
      ],
      "stateMutability": "view",
      "type": "function"
    },
    {
      "inputs": [
        {
          "internalType": "uint256",
          "name": "",
          "type": "uint256"
        }
      ],
      "name": "orders",
      "outputs": [
        {
          "internalType": "address",
          "name": "seller",
          "type": "address"
        },
        {
          "internalType": "uint256",
          "name": "price",
          "type": "uint256"
        },
        {
          "internalType": "uint256",
          "name": "createdAt",
          "type": "uint256"
        },
        {
          "internalType": "string",
          "name": "currency",
          "type": "string"
        },
        {
          "internalType": "uint256",
          "name": "tokenId",
          "type": "uint256"
        },
        {
          "internalType": "bool",
          "name": "successful",
          "type": "bool"
        },
        {
          "internalType": "bool",
          "name": "closed",
          "type": "bool"
        }
      ],
      "stateMutability": "view",
      "type": "function"
    },
    {
      "inputs": [],
      "name": "owner",
      "outputs": [
        {
          "internalType": "address",
          "name": "",
          "type": "address"
        }
      ],
      "stateMutability": "view",
      "type": "function"
    },
    {
      "inputs": [
        {
          "internalType": "uint256",
          "name": "tokenId",
          "type": "uint256"
        }
      ],
      "name": "ownerOf",
      "outputs": [
        {
          "internalType": "address",
          "name": "",
          "type": "address"
        }
      ],
      "stateMutability": "view",
      "type": "function"
    },
    {
      "inputs": [],
      "name": "renounceOwnership",
      "outputs": [],
      "stateMutability": "nonpayable",
      "type": "function"
    },
    {
      "inputs": [
        {
          "internalType": "address",
          "name": "from",
          "type": "address"
        },
        {
          "internalType": "address",
          "name": "to",
          "type": "address"
        },
        {
          "internalType": "uint256",
          "name": "tokenId",
          "type": "uint256"
        }
      ],
      "name": "safeTransferFrom",
      "outputs": [],
      "stateMutability": "nonpayable",
      "type": "function"
    },
    {
      "inputs": [
        {
          "internalType": "address",
          "name": "from",
          "type": "address"
        },
        {
          "internalType": "address",
          "name": "to",
          "type": "address"
        },
        {
          "internalType": "uint256",
          "name": "tokenId",
          "type": "uint256"
        },
        {
          "internalType": "bytes",
          "name": "_data",
          "type": "bytes"
        }
      ],
      "name": "safeTransferFrom",
      "outputs": [],
      "stateMutability": "nonpayable",
      "type": "function"
    },
    {
      "inputs": [
        {
          "internalType": "address",
          "name": "operator",
          "type": "address"
        },
        {
          "internalType": "bool",
          "name": "approved",
          "type": "bool"
        }
      ],
      "name": "setApprovalForAll",
      "outputs": [],
      "stateMutability": "nonpayable",
      "type": "function"
    },
    {
      "inputs": [
        {
          "internalType": "bytes4",
          "name": "interfaceId",
          "type": "bytes4"
        }
      ],
      "name": "supportsInterface",
      "outputs": [
        {
          "internalType": "bool",
          "name": "",
          "type": "bool"
        }
      ],
      "stateMutability": "view",
      "type": "function"
    },
    {
      "inputs": [],
      "name": "symbol",
      "outputs": [
        {
          "internalType": "string",
          "name": "",
          "type": "string"
        }
      ],
      "stateMutability": "view",
      "type": "function"
    },
    {
      "inputs": [
        {
          "internalType": "uint256",
          "name": "tokenId",
          "type": "uint256"
        }
      ],
      "name": "tokenURI",
      "outputs": [
        {
          "internalType": "string",
          "name": "",
          "type": "string"
        }
      ],
      "stateMutability": "view",
      "type": "function"
    },
    {
      "inputs": [
        {
          "internalType": "address",
          "name": "from",
          "type": "address"
        },
        {
          "internalType": "address",
          "name": "to",
          "type": "address"
        },
        {
          "internalType": "uint256",
          "name": "tokenId",
          "type": "uint256"
        }
      ],
      "name": "transferFrom",
      "outputs": [],
      "stateMutability": "nonpayable",
      "type": "function"
    },
    {
      "inputs": [
        {
          "internalType": "address",
          "name": "newOwner",
          "type": "address"
        }
      ],
      "name": "transferOwnership",
      "outputs": [],
      "stateMutability": "nonpayable",
      "type": "function"
    },
    {
      "inputs": [
        {
          "internalType": "uint256",
          "name": "_tokenId",
          "type": "uint256"
        },
        {
          "internalType": "uint256",
          "name": "_price",
          "type": "uint256"
        },
        {
          "internalType": "string",
          "name": "_currency",
          "type": "string"
        }
      ],
      "name": "createOrder",
      "outputs": [],
      "stateMutability": "nonpayable",
      "type": "function"
    },
    {
      "inputs": [
        {
          "internalType": "uint256",
          "name": "_orderId",
          "type": "uint256"
        }
      ],
      "name": "closeOrder",
      "outputs": [],
      "stateMutability": "nonpayable",
      "type": "function"
    },
    {
      "inputs": [
        {
          "internalType": "uint256",
          "name": "_orderId",
          "type": "uint256"
        }
      ],
      "name": "byeOrder",
      "outputs": [],
      "stateMutability": "payable",
      "type": "function"
    },
    {
      "inputs": [
        {
          "internalType": "address",
          "name": "_to",
          "type": "address"
        },
        {
          "internalType": "uint256",
          "name": "_value",
          "type": "uint256"
        }
      ],
      "name": "transferMoney",
      "outputs": [],
      "stateMutability": "nonpayable",
      "type": "function"
    },
    {
      "inputs": [],
      "name": "kill",
      "outputs": [],
      "stateMutability": "nonpayable",
      "type": "function"
    }
  ],
  "bytecode": "0x60806040523480156200001157600080fd5b506040518060400160405280600681526020017f4d6f6d656e7400000000000000000000000000000000000000000000000000008152506040518060400160405280600381526020017f4d4d54000000000000000000000000000000000000000000000000000000000081525081600090805190602001906200009692919062000171565b508060019080519060200190620000af92919062000171565b5050506000620000c46200016960201b60201c565b905080600760006101000a81548173ffffffffffffffffffffffffffffffffffffffff021916908373ffffffffffffffffffffffffffffffffffffffff1602179055508073ffffffffffffffffffffffffffffffffffffffff16600073ffffffffffffffffffffffffffffffffffffffff167f8be0079c531659141344cd1fd0a4f28419497f9722a3daafe3b4186f6b6457e060405160405180910390a35062000286565b600033905090565b8280546200017f9062000221565b90600052602060002090601f016020900481019282620001a35760008555620001ef565b82601f10620001be57805160ff1916838001178555620001ef565b82800160010185558215620001ef579182015b82811115620001ee578251825591602001919060010190620001d1565b5b509050620001fe919062000202565b5090565b5b808211156200021d57600081600090555060010162000203565b5090565b600060028204905060018216806200023a57607f821691505b6020821081141562000251576200025062000257565b5b50919050565b7f4e487b7100000000000000000000000000000000000000000000000000000000600052602260045260246000fd5b613fbd80620002966000396000f3fe60806040526004361061014b5760003560e01c806370a08231116100b6578063a85c38ef1161006f578063a85c38ef1461046d578063b88d4fde146104b0578063c87b56dd146104d9578063e985e9c514610516578063f2fde38b14610553578063fee666ad1461057c5761014b565b806370a082311461035b578063715018a6146103985780638da5cb5b146103af57806395d89b41146103da5780639c4ff9c714610405578063a22cb465146104445761014b565b80632850a3df116101085780632850a3df1461027057806341c0e1b51461028c57806342842e0e146102a357806353c3a0ba146102cc5780636061f754146102f55780636352211e1461031e5761014b565b806301ffc9a714610150578063069d6d1c1461018d57806306fdde03146101b6578063081812fc146101e1578063095ea7b31461021e57806323b872dd14610247575b600080fd5b34801561015c57600080fd5b5061017760048036038101906101729190612eb8565b6105a5565b6040516101849190613416565b60405180910390f35b34801561019957600080fd5b506101b460048036038101906101af9190612f76565b610687565b005b3480156101c257600080fd5b506101cb6108bd565b6040516101d89190613431565b60405180910390f35b3480156101ed57600080fd5b5061020860048036038101906102039190612f76565b61094f565b6040516102159190613339565b60405180910390f35b34801561022a57600080fd5b5061024560048036038101906102409190612e7c565b6109d4565b005b34801561025357600080fd5b5061026e60048036038101906102699190612d76565b610aec565b005b61028a60048036038101906102859190612f76565b610b4c565b005b34801561029857600080fd5b506102a1610c71565b005b3480156102af57600080fd5b506102ca60048036038101906102c59190612d76565b610d12565b005b3480156102d857600080fd5b506102f360048036038101906102ee9190612f0a565b610d32565b005b34801561030157600080fd5b5061031c60048036038101906103179190612f9f565b610de3565b005b34801561032a57600080fd5b5061034560048036038101906103409190612f76565b611089565b6040516103529190613339565b60405180910390f35b34801561036757600080fd5b50610382600480360381019061037d9190612d11565b61113b565b60405161038f9190613698565b60405180910390f35b3480156103a457600080fd5b506103ad6111f3565b005b3480156103bb57600080fd5b506103c4611330565b6040516103d19190613339565b60405180910390f35b3480156103e657600080fd5b506103ef61135a565b6040516103fc9190613431565b60405180910390f35b34801561041157600080fd5b5061042c60048036038101906104279190612f76565b6113ec565b60405161043b93929190613453565b60405180910390f35b34801561045057600080fd5b5061046b60048036038101906104669190612e40565b611536565b005b34801561047957600080fd5b50610494600480360381019061048f9190612f76565b6116b7565b6040516104a797969594939291906133a0565b60405180910390f35b3480156104bc57600080fd5b506104d760048036038101906104d29190612dc5565b6117cb565b005b3480156104e557600080fd5b5061050060048036038101906104fb9190612f76565b61182d565b60405161050d9190613431565b60405180910390f35b34801561052257600080fd5b5061053d60048036038101906105389190612d3a565b6118d4565b60405161054a9190613416565b60405180910390f35b34801561055f57600080fd5b5061057a60048036038101906105759190612d11565b611968565b005b34801561058857600080fd5b506105a3600480360381019061059e9190612e7c565b611b14565b005b60007f80ac58cd000000000000000000000000000000000000000000000000000000007bffffffffffffffffffffffffffffffffffffffffffffffffffffffff1916827bffffffffffffffffffffffffffffffffffffffffffffffffffffffff1916148061067057507f5b5e139f000000000000000000000000000000000000000000000000000000007bffffffffffffffffffffffffffffffffffffffffffffffffffffffff1916827bffffffffffffffffffffffffffffffffffffffffffffffffffffffff1916145b80610680575061067f82611b65565b5b9050919050565b80600073ffffffffffffffffffffffffffffffffffffffff163373ffffffffffffffffffffffffffffffffffffffff1614801561072257506009600082815260200190815260200160002060009054906101000a900473ffffffffffffffffffffffffffffffffffffffff1673ffffffffffffffffffffffffffffffffffffffff163373ffffffffffffffffffffffffffffffffffffffff16145b61072b57600080fd5b81600060088281548110610768577f4e487b7100000000000000000000000000000000000000000000000000000000600052603260045260246000fd5b9060005260206000209060060201600201541180156107e3575060001515600882815481106107c0577f4e487b7100000000000000000000000000000000000000000000000000000000600052603260045260246000fd5b906000526020600020906006020160050160019054906101000a900460ff161515145b6107ec57600080fd5b600060088481548110610828577f4e487b7100000000000000000000000000000000000000000000000000000000600052603260045260246000fd5b9060005260206000209060060201905060018160050160016101000a81548160ff02191690831515021790555061086430338360040154611bcf565b80600401543373ffffffffffffffffffffffffffffffffffffffff167fdd1bdc77e3cc244141600de256428e5a4fa93f9ba200229891d4911139069222866040516108af9190613698565b60405180910390a350505050565b6060600080546108cc90613929565b80601f01602080910402602001604051908101604052809291908181526020018280546108f890613929565b80156109455780601f1061091a57610100808354040283529160200191610945565b820191906000526020600020905b81548152906001019060200180831161092857829003601f168201915b5050505050905090565b600061095a82611e2b565b610999576040517f08c379a0000000000000000000000000000000000000000000000000000000008152600401610990906135d8565b60405180910390fd5b6004600083815260200190815260200160002060009054906101000a900473ffffffffffffffffffffffffffffffffffffffff169050919050565b60006109df82611089565b90508073ffffffffffffffffffffffffffffffffffffffff168373ffffffffffffffffffffffffffffffffffffffff161415610a50576040517f08c379a0000000000000000000000000000000000000000000000000000000008152600401610a4790613658565b60405180910390fd5b8073ffffffffffffffffffffffffffffffffffffffff16610a6f611e97565b73ffffffffffffffffffffffffffffffffffffffff161480610a9e5750610a9d81610a98611e97565b6118d4565b5b610add576040517f08c379a0000000000000000000000000000000000000000000000000000000008152600401610ad490613558565b60405180910390fd5b610ae78383611e9f565b505050565b610afd610af7611e97565b82611f58565b610b3c576040517f08c379a0000000000000000000000000000000000000000000000000000000008152600401610b3390613678565b60405180910390fd5b610b47838383611bcf565b505050565b80600060088281548110610b89577f4e487b7100000000000000000000000000000000000000000000000000000000600052603260045260246000fd5b906000526020600020906006020160020154118015610c0457506000151560088281548110610be1577f4e487b7100000000000000000000000000000000000000000000000000000000600052603260045260246000fd5b906000526020600020906006020160050160019054906101000a900460ff161515145b610c0d57600080fd5b610c178234612036565b610c6d303360088581548110610c56577f4e487b7100000000000000000000000000000000000000000000000000000000600052603260045260246000fd5b906000526020600020906006020160040154611bcf565b5050565b610c79611e97565b73ffffffffffffffffffffffffffffffffffffffff16610c97611330565b73ffffffffffffffffffffffffffffffffffffffff1614610ced576040517f08c379a0000000000000000000000000000000000000000000000000000000008152600401610ce4906135f8565b60405180910390fd5b6000610cf7611330565b90508073ffffffffffffffffffffffffffffffffffffffff16ff5b610d2d838383604051806020016040528060008152506117cb565b505050565b600660405180606001604052808481526020018381526020014281525090806001815401808255809150506001900390600052602060002090600302016000909190919091506000820151816000019080519060200190610d94929190612af5565b506020820151816001019080519060200190610db1929190612af5565b5060408201518160020155505060006001600680549050610dd2919061382d565b9050610dde3382612181565b505050565b82610ded81611089565b73ffffffffffffffffffffffffffffffffffffffff163373ffffffffffffffffffffffffffffffffffffffff1614610e2457600080fd5b600033905060006040518060e001604052808373ffffffffffffffffffffffffffffffffffffffff168152602001868152602001428152602001858152602001878152602001600015158152602001600015158152509050600881908060018154018082558091505060019003906000526020600020906006020160009091909190915060008201518160000160006101000a81548173ffffffffffffffffffffffffffffffffffffffff021916908373ffffffffffffffffffffffffffffffffffffffff16021790555060208201518160010155604082015181600201556060820151816003019080519060200190610f1f929190612af5565b506080820151816004015560a08201518160050160006101000a81548160ff02191690831515021790555060c08201518160050160016101000a81548160ff021916908315150217905550505060006001600880549050610f80919061382d565b9050826009600083815260200190815260200160002060006101000a81548173ffffffffffffffffffffffffffffffffffffffff021916908373ffffffffffffffffffffffffffffffffffffffff16021790555061102581600a60008673ffffffffffffffffffffffffffffffffffffffff1673ffffffffffffffffffffffffffffffffffffffff16815260200190815260200160002061234f90919063ffffffff16565b50611031833089611bcf565b868373ffffffffffffffffffffffffffffffffffffffff167fbb4cd350108fec46a02c87acb34a38f6c465fb2dc050687359c97229703bb8f4836040516110789190613698565b60405180910390a350505050505050565b6000806002600084815260200190815260200160002060009054906101000a900473ffffffffffffffffffffffffffffffffffffffff169050600073ffffffffffffffffffffffffffffffffffffffff168173ffffffffffffffffffffffffffffffffffffffff161415611132576040517f08c379a000000000000000000000000000000000000000000000000000000000815260040161112990613598565b60405180910390fd5b80915050919050565b60008073ffffffffffffffffffffffffffffffffffffffff168273ffffffffffffffffffffffffffffffffffffffff1614156111ac576040517f08c379a00000000000000000000000000000000000000000000000000000000081526004016111a390613578565b60405180910390fd5b600360008373ffffffffffffffffffffffffffffffffffffffff1673ffffffffffffffffffffffffffffffffffffffff168152602001908152602001600020549050919050565b6111fb611e97565b73ffffffffffffffffffffffffffffffffffffffff16611219611330565b73ffffffffffffffffffffffffffffffffffffffff161461126f576040517f08c379a0000000000000000000000000000000000000000000000000000000008152600401611266906135f8565b60405180910390fd5b600073ffffffffffffffffffffffffffffffffffffffff16600760009054906101000a900473ffffffffffffffffffffffffffffffffffffffff1673ffffffffffffffffffffffffffffffffffffffff167f8be0079c531659141344cd1fd0a4f28419497f9722a3daafe3b4186f6b6457e060405160405180910390a36000600760006101000a81548173ffffffffffffffffffffffffffffffffffffffff021916908373ffffffffffffffffffffffffffffffffffffffff160217905550565b6000600760009054906101000a900473ffffffffffffffffffffffffffffffffffffffff16905090565b60606001805461136990613929565b80601f016020809104026020016040519081016040528092919081815260200182805461139590613929565b80156113e25780601f106113b7576101008083540402835291602001916113e2565b820191906000526020600020905b8154815290600101906020018083116113c557829003601f168201915b5050505050905090565b600681815481106113fc57600080fd5b906000526020600020906003020160009150905080600001805461141f90613929565b80601f016020809104026020016040519081016040528092919081815260200182805461144b90613929565b80156114985780601f1061146d57610100808354040283529160200191611498565b820191906000526020600020905b81548152906001019060200180831161147b57829003601f168201915b5050505050908060010180546114ad90613929565b80601f01602080910402602001604051908101604052809291908181526020018280546114d990613929565b80156115265780601f106114fb57610100808354040283529160200191611526565b820191906000526020600020905b81548152906001019060200180831161150957829003601f168201915b5050505050908060020154905083565b61153e611e97565b73ffffffffffffffffffffffffffffffffffffffff168273ffffffffffffffffffffffffffffffffffffffff1614156115ac576040517f08c379a00000000000000000000000000000000000000000000000000000000081526004016115a390613518565b60405180910390fd5b80600560006115b9611e97565b73ffffffffffffffffffffffffffffffffffffffff1673ffffffffffffffffffffffffffffffffffffffff16815260200190815260200160002060008473ffffffffffffffffffffffffffffffffffffffff1673ffffffffffffffffffffffffffffffffffffffff16815260200190815260200160002060006101000a81548160ff0219169083151502179055508173ffffffffffffffffffffffffffffffffffffffff16611666611e97565b73ffffffffffffffffffffffffffffffffffffffff167f17307eab39ab6107e8899845ad3d59bd9653f200f220920489ca2b5937696c31836040516116ab9190613416565b60405180910390a35050565b600881815481106116c757600080fd5b90600052602060002090600602016000915090508060000160009054906101000a900473ffffffffffffffffffffffffffffffffffffffff169080600101549080600201549080600301805461171c90613929565b80601f016020809104026020016040519081016040528092919081815260200182805461174890613929565b80156117955780601f1061176a57610100808354040283529160200191611795565b820191906000526020600020905b81548152906001019060200180831161177857829003601f168201915b5050505050908060040154908060050160009054906101000a900460ff16908060050160019054906101000a900460ff16905087565b6117dc6117d6611e97565b83611f58565b61181b576040517f08c379a000000000000000000000000000000000000000000000000000000000815260040161181290613678565b60405180910390fd5b61182784848484612369565b50505050565b606061183882611e2b565b611877576040517f08c379a000000000000000000000000000000000000000000000000000000000815260040161186e90613638565b60405180910390fd5b60006118816123c5565b905060008151116118a157604051806020016040528060008152506118cc565b806118ab846123dc565b6040516020016118bc929190613315565b6040516020818303038152906040525b915050919050565b6000600560008473ffffffffffffffffffffffffffffffffffffffff1673ffffffffffffffffffffffffffffffffffffffff16815260200190815260200160002060008373ffffffffffffffffffffffffffffffffffffffff1673ffffffffffffffffffffffffffffffffffffffff16815260200190815260200160002060009054906101000a900460ff16905092915050565b611970611e97565b73ffffffffffffffffffffffffffffffffffffffff1661198e611330565b73ffffffffffffffffffffffffffffffffffffffff16146119e4576040517f08c379a00000000000000000000000000000000000000000000000000000000081526004016119db906135f8565b60405180910390fd5b600073ffffffffffffffffffffffffffffffffffffffff168173ffffffffffffffffffffffffffffffffffffffff161415611a54576040517f08c379a0000000000000000000000000000000000000000000000000000000008152600401611a4b906134b8565b60405180910390fd5b8073ffffffffffffffffffffffffffffffffffffffff16600760009054906101000a900473ffffffffffffffffffffffffffffffffffffffff1673ffffffffffffffffffffffffffffffffffffffff167f8be0079c531659141344cd1fd0a4f28419497f9722a3daafe3b4186f6b6457e060405160405180910390a380600760006101000a81548173ffffffffffffffffffffffffffffffffffffffff021916908373ffffffffffffffffffffffffffffffffffffffff16021790555050565b60008290508073ffffffffffffffffffffffffffffffffffffffff166108fc839081150290604051600060405180830381858888f19350505050158015611b5f573d6000803e3d6000fd5b50505050565b60007f01ffc9a7000000000000000000000000000000000000000000000000000000007bffffffffffffffffffffffffffffffffffffffffffffffffffffffff1916827bffffffffffffffffffffffffffffffffffffffffffffffffffffffff1916149050919050565b8273ffffffffffffffffffffffffffffffffffffffff16611bef82611089565b73ffffffffffffffffffffffffffffffffffffffff1614611c45576040517f08c379a0000000000000000000000000000000000000000000000000000000008152600401611c3c90613618565b60405180910390fd5b600073ffffffffffffffffffffffffffffffffffffffff168273ffffffffffffffffffffffffffffffffffffffff161415611cb5576040517f08c379a0000000000000000000000000000000000000000000000000000000008152600401611cac906134f8565b60405180910390fd5b611cc0838383612589565b611ccb600082611e9f565b6001600360008573ffffffffffffffffffffffffffffffffffffffff1673ffffffffffffffffffffffffffffffffffffffff1681526020019081526020016000206000828254611d1b919061382d565b925050819055506001600360008473ffffffffffffffffffffffffffffffffffffffff1673ffffffffffffffffffffffffffffffffffffffff1681526020019081526020016000206000828254611d7291906137a6565b92505081905550816002600083815260200190815260200160002060006101000a81548173ffffffffffffffffffffffffffffffffffffffff021916908373ffffffffffffffffffffffffffffffffffffffff160217905550808273ffffffffffffffffffffffffffffffffffffffff168473ffffffffffffffffffffffffffffffffffffffff167fddf252ad1be2c89b69c2b068fc378daa952ba7f163c4a11628f55a4df523b3ef60405160405180910390a4505050565b60008073ffffffffffffffffffffffffffffffffffffffff166002600084815260200190815260200160002060009054906101000a900473ffffffffffffffffffffffffffffffffffffffff1673ffffffffffffffffffffffffffffffffffffffff1614159050919050565b600033905090565b816004600083815260200190815260200160002060006101000a81548173ffffffffffffffffffffffffffffffffffffffff021916908373ffffffffffffffffffffffffffffffffffffffff160217905550808273ffffffffffffffffffffffffffffffffffffffff16611f1283611089565b73ffffffffffffffffffffffffffffffffffffffff167f8c5be1e5ebec7d5bd14f71427d1e84f3dd0314c0f7b2291e5b200ac8c7c3b92560405160405180910390a45050565b6000611f6382611e2b565b611fa2576040517f08c379a0000000000000000000000000000000000000000000000000000000008152600401611f9990613538565b60405180910390fd5b6000611fad83611089565b90508073ffffffffffffffffffffffffffffffffffffffff168473ffffffffffffffffffffffffffffffffffffffff16148061201c57508373ffffffffffffffffffffffffffffffffffffffff166120048461094f565b73ffffffffffffffffffffffffffffffffffffffff16145b8061202d575061202c81856118d4565b5b91505092915050565b600060088381548110612072577f4e487b7100000000000000000000000000000000000000000000000000000000600052603260045260246000fd5b90600052602060002090600602019050806001015482101561209357600080fd5b60008160000160009054906101000a900473ffffffffffffffffffffffffffffffffffffffff1690506000826001015490506000836004015490506120d78661258e565b6000851115612110576120ea8383611b14565b600082866120f8919061382d565b9050600081111561210e5761210d3382611b14565b5b505b803373ffffffffffffffffffffffffffffffffffffffff168473ffffffffffffffffffffffffffffffffffffffff167f09e188971dbdbef2aee7a6707aa7640ddbc064491d979f7b4d02b12e877e71b18960006040516121719291906136b3565b60405180910390a4505050505050565b600073ffffffffffffffffffffffffffffffffffffffff168273ffffffffffffffffffffffffffffffffffffffff1614156121f1576040517f08c379a00000000000000000000000000000000000000000000000000000000081526004016121e8906135b8565b60405180910390fd5b6121fa81611e2b565b1561223a576040517f08c379a0000000000000000000000000000000000000000000000000000000008152600401612231906134d8565b60405180910390fd5b61224660008383612589565b6001600360008473ffffffffffffffffffffffffffffffffffffffff1673ffffffffffffffffffffffffffffffffffffffff168152602001908152602001600020600082825461229691906137a6565b92505081905550816002600083815260200190815260200160002060006101000a81548173ffffffffffffffffffffffffffffffffffffffff021916908373ffffffffffffffffffffffffffffffffffffffff160217905550808273ffffffffffffffffffffffffffffffffffffffff16600073ffffffffffffffffffffffffffffffffffffffff167fddf252ad1be2c89b69c2b068fc378daa952ba7f163c4a11628f55a4df523b3ef60405160405180910390a45050565b6000612361836000018360001b612714565b905092915050565b612374848484611bcf565b61238084848484612784565b6123bf576040517f08c379a00000000000000000000000000000000000000000000000000000000081526004016123b690613498565b60405180910390fd5b50505050565b606060405180602001604052806000815250905090565b60606000821415612424576040518060400160405280600181526020017f30000000000000000000000000000000000000000000000000000000000000008152509050612584565b600082905060005b6000821461245657808061243f9061398c565b915050600a8261244f91906137fc565b915061242c565b60008167ffffffffffffffff811115612498577f4e487b7100000000000000000000000000000000000000000000000000000000600052604160045260246000fd5b6040519080825280601f01601f1916602001820160405280156124ca5781602001600182028036833780820191505090505b5090505b6000851461257d576001826124e3919061382d565b9150600a856124f291906139d5565b60306124fe91906137a6565b60f81b81838151811061253a577f4e487b7100000000000000000000000000000000000000000000000000000000600052603260045260246000fd5b60200101907effffffffffffffffffffffffffffffffffffffffffffffffffffffffffffff1916908160001a905350600a8561257691906137fc565b94506124ce565b8093505050505b919050565b505050565b600881815481106125c8577f4e487b7100000000000000000000000000000000000000000000000000000000600052603260045260246000fd5b9060005260206000209060060201600080820160006101000a81549073ffffffffffffffffffffffffffffffffffffffff02191690556001820160009055600282016000905560038201600061261e9190612b7b565b60048201600090556005820160006101000a81549060ff02191690556005820160016101000a81549060ff0219169055505060006009600083815260200190815260200160002060009054906101000a900473ffffffffffffffffffffffffffffffffffffffff1690506126d982600a60008473ffffffffffffffffffffffffffffffffffffffff1673ffffffffffffffffffffffffffffffffffffffff16815260200190815260200160002061291b90919063ffffffff16565b506009600083815260200190815260200160002060006101000a81549073ffffffffffffffffffffffffffffffffffffffff02191690555050565b60006127208383612935565b61277957826000018290806001815401808255809150506001900390600052602060002001600090919091909150558260000180549050836001016000848152602001908152602001600020819055506001905061277e565b600090505b92915050565b60006127a58473ffffffffffffffffffffffffffffffffffffffff16612958565b1561290e578373ffffffffffffffffffffffffffffffffffffffff1663150b7a026127ce611e97565b8786866040518563ffffffff1660e01b81526004016127f09493929190613354565b602060405180830381600087803b15801561280a57600080fd5b505af192505050801561283b57506040513d601f19601f820116820180604052508101906128389190612ee1565b60015b6128be573d806000811461286b576040519150601f19603f3d011682016040523d82523d6000602084013e612870565b606091505b506000815114156128b6576040517f08c379a00000000000000000000000000000000000000000000000000000000081526004016128ad90613498565b60405180910390fd5b805181602001fd5b63150b7a0260e01b7bffffffffffffffffffffffffffffffffffffffffffffffffffffffff1916817bffffffffffffffffffffffffffffffffffffffffffffffffffffffff191614915050612913565b600190505b949350505050565b600061292d836000018360001b61296b565b905092915050565b600080836001016000848152602001908152602001600020541415905092915050565b600080823b905060008111915050919050565b60008083600101600084815260200190815260200160002054905060008114612ae957600060018261299d919061382d565b90506000600186600001805490506129b5919061382d565b905060008660000182815481106129f5577f4e487b7100000000000000000000000000000000000000000000000000000000600052603260045260246000fd5b9060005260206000200154905080876000018481548110612a3f577f4e487b7100000000000000000000000000000000000000000000000000000000600052603260045260246000fd5b9060005260206000200181905550600183612a5a91906137a6565b8760010160008381526020019081526020016000208190555086600001805480612aad577f4e487b7100000000000000000000000000000000000000000000000000000000600052603160045260246000fd5b60019003818190600052602060002001600090559055866001016000878152602001908152602001600020600090556001945050505050612aef565b60009150505b92915050565b828054612b0190613929565b90600052602060002090601f016020900481019282612b235760008555612b6a565b82601f10612b3c57805160ff1916838001178555612b6a565b82800160010185558215612b6a579182015b82811115612b69578251825591602001919060010190612b4e565b5b509050612b779190612bbb565b5090565b508054612b8790613929565b6000825580601f10612b995750612bb8565b601f016020900490600052602060002090810190612bb79190612bbb565b5b50565b5b80821115612bd4576000816000905550600101612bbc565b5090565b6000612beb612be684613701565b6136dc565b905082815260208101848484011115612c0357600080fd5b612c0e8482856138e7565b509392505050565b6000612c29612c2484613732565b6136dc565b905082815260208101848484011115612c4157600080fd5b612c4c8482856138e7565b509392505050565b600081359050612c6381613f2b565b92915050565b600081359050612c7881613f42565b92915050565b600081359050612c8d81613f59565b92915050565b600081519050612ca281613f59565b92915050565b600082601f830112612cb957600080fd5b8135612cc9848260208601612bd8565b91505092915050565b600082601f830112612ce357600080fd5b8135612cf3848260208601612c16565b91505092915050565b600081359050612d0b81613f70565b92915050565b600060208284031215612d2357600080fd5b6000612d3184828501612c54565b91505092915050565b60008060408385031215612d4d57600080fd5b6000612d5b85828601612c54565b9250506020612d6c85828601612c54565b9150509250929050565b600080600060608486031215612d8b57600080fd5b6000612d9986828701612c54565b9350506020612daa86828701612c54565b9250506040612dbb86828701612cfc565b9150509250925092565b60008060008060808587031215612ddb57600080fd5b6000612de987828801612c54565b9450506020612dfa87828801612c54565b9350506040612e0b87828801612cfc565b925050606085013567ffffffffffffffff811115612e2857600080fd5b612e3487828801612ca8565b91505092959194509250565b60008060408385031215612e5357600080fd5b6000612e6185828601612c54565b9250506020612e7285828601612c69565b9150509250929050565b60008060408385031215612e8f57600080fd5b6000612e9d85828601612c54565b9250506020612eae85828601612cfc565b9150509250929050565b600060208284031215612eca57600080fd5b6000612ed884828501612c7e565b91505092915050565b600060208284031215612ef357600080fd5b6000612f0184828501612c93565b91505092915050565b60008060408385031215612f1d57600080fd5b600083013567ffffffffffffffff811115612f3757600080fd5b612f4385828601612cd2565b925050602083013567ffffffffffffffff811115612f6057600080fd5b612f6c85828601612cd2565b9150509250929050565b600060208284031215612f8857600080fd5b6000612f9684828501612cfc565b91505092915050565b600080600060608486031215612fb457600080fd5b6000612fc286828701612cfc565b9350506020612fd386828701612cfc565b925050604084013567ffffffffffffffff811115612ff057600080fd5b612ffc86828701612cd2565b9150509250925092565b61300f81613861565b82525050565b61301e81613873565b82525050565b600061302f82613763565b6130398185613779565b93506130498185602086016138f6565b61305281613ac2565b840191505092915050565b613066816138d5565b82525050565b60006130778261376e565b613081818561378a565b93506130918185602086016138f6565b61309a81613ac2565b840191505092915050565b60006130b08261376e565b6130ba818561379b565b93506130ca8185602086016138f6565b80840191505092915050565b60006130e360328361378a565b91506130ee82613ad3565b604082019050919050565b600061310660268361378a565b915061311182613b22565b604082019050919050565b6000613129601c8361378a565b915061313482613b71565b602082019050919050565b600061314c60248361378a565b915061315782613b9a565b604082019050919050565b600061316f60198361378a565b915061317a82613be9565b602082019050919050565b6000613192602c8361378a565b915061319d82613c12565b604082019050919050565b60006131b560388361378a565b91506131c082613c61565b604082019050919050565b60006131d8602a8361378a565b91506131e382613cb0565b604082019050919050565b60006131fb60298361378a565b915061320682613cff565b604082019050919050565b600061321e60208361378a565b915061322982613d4e565b602082019050919050565b6000613241602c8361378a565b915061324c82613d77565b604082019050919050565b600061326460208361378a565b915061326f82613dc6565b602082019050919050565b600061328760298361378a565b915061329282613def565b604082019050919050565b60006132aa602f8361378a565b91506132b582613e3e565b604082019050919050565b60006132cd60218361378a565b91506132d882613e8d565b604082019050919050565b60006132f060318361378a565b91506132fb82613edc565b604082019050919050565b61330f816138cb565b82525050565b600061332182856130a5565b915061332d82846130a5565b91508190509392505050565b600060208201905061334e6000830184613006565b92915050565b60006080820190506133696000830187613006565b6133766020830186613006565b6133836040830185613306565b81810360608301526133958184613024565b905095945050505050565b600060e0820190506133b5600083018a613006565b6133c26020830189613306565b6133cf6040830188613306565b81810360608301526133e1818761306c565b90506133f06080830186613306565b6133fd60a0830185613015565b61340a60c0830184613015565b98975050505050505050565b600060208201905061342b6000830184613015565b92915050565b6000602082019050818103600083015261344b818461306c565b905092915050565b6000606082019050818103600083015261346d818661306c565b90508181036020830152613481818561306c565b90506134906040830184613306565b949350505050565b600060208201905081810360008301526134b1816130d6565b9050919050565b600060208201905081810360008301526134d1816130f9565b9050919050565b600060208201905081810360008301526134f18161311c565b9050919050565b600060208201905081810360008301526135118161313f565b9050919050565b6000602082019050818103600083015261353181613162565b9050919050565b6000602082019050818103600083015261355181613185565b9050919050565b60006020820190508181036000830152613571816131a8565b9050919050565b60006020820190508181036000830152613591816131cb565b9050919050565b600060208201905081810360008301526135b1816131ee565b9050919050565b600060208201905081810360008301526135d181613211565b9050919050565b600060208201905081810360008301526135f181613234565b9050919050565b6000602082019050818103600083015261361181613257565b9050919050565b600060208201905081810360008301526136318161327a565b9050919050565b600060208201905081810360008301526136518161329d565b9050919050565b60006020820190508181036000830152613671816132c0565b9050919050565b60006020820190508181036000830152613691816132e3565b9050919050565b60006020820190506136ad6000830184613306565b92915050565b60006040820190506136c86000830185613306565b6136d5602083018461305d565b9392505050565b60006136e66136f7565b90506136f2828261395b565b919050565b6000604051905090565b600067ffffffffffffffff82111561371c5761371b613a93565b5b61372582613ac2565b9050602081019050919050565b600067ffffffffffffffff82111561374d5761374c613a93565b5b61375682613ac2565b9050602081019050919050565b600081519050919050565b600081519050919050565b600082825260208201905092915050565b600082825260208201905092915050565b600081905092915050565b60006137b1826138cb565b91506137bc836138cb565b9250827fffffffffffffffffffffffffffffffffffffffffffffffffffffffffffffffff038211156137f1576137f0613a06565b5b828201905092915050565b6000613807826138cb565b9150613812836138cb565b92508261382257613821613a35565b5b828204905092915050565b6000613838826138cb565b9150613843836138cb565b92508282101561385657613855613a06565b5b828203905092915050565b600061386c826138ab565b9050919050565b60008115159050919050565b60007fffffffff0000000000000000000000000000000000000000000000000000000082169050919050565b600073ffffffffffffffffffffffffffffffffffffffff82169050919050565b6000819050919050565b60006138e0826138cb565b9050919050565b82818337600083830152505050565b60005b838110156139145780820151818401526020810190506138f9565b83811115613923576000848401525b50505050565b6000600282049050600182168061394157607f821691505b6020821081141561395557613954613a64565b5b50919050565b61396482613ac2565b810181811067ffffffffffffffff8211171561398357613982613a93565b5b80604052505050565b6000613997826138cb565b91507fffffffffffffffffffffffffffffffffffffffffffffffffffffffffffffffff8214156139ca576139c9613a06565b5b600182019050919050565b60006139e0826138cb565b91506139eb836138cb565b9250826139fb576139fa613a35565b5b828206905092915050565b7f4e487b7100000000000000000000000000000000000000000000000000000000600052601160045260246000fd5b7f4e487b7100000000000000000000000000000000000000000000000000000000600052601260045260246000fd5b7f4e487b7100000000000000000000000000000000000000000000000000000000600052602260045260246000fd5b7f4e487b7100000000000000000000000000000000000000000000000000000000600052604160045260246000fd5b6000601f19601f8301169050919050565b7f4552433732313a207472616e7366657220746f206e6f6e20455243373231526560008201527f63656976657220696d706c656d656e7465720000000000000000000000000000602082015250565b7f4f776e61626c653a206e6577206f776e657220697320746865207a65726f206160008201527f6464726573730000000000000000000000000000000000000000000000000000602082015250565b7f4552433732313a20746f6b656e20616c7265616479206d696e74656400000000600082015250565b7f4552433732313a207472616e7366657220746f20746865207a65726f2061646460008201527f7265737300000000000000000000000000000000000000000000000000000000602082015250565b7f4552433732313a20617070726f766520746f2063616c6c657200000000000000600082015250565b7f4552433732313a206f70657261746f7220717565727920666f72206e6f6e657860008201527f697374656e7420746f6b656e0000000000000000000000000000000000000000602082015250565b7f4552433732313a20617070726f76652063616c6c6572206973206e6f74206f7760008201527f6e6572206e6f7220617070726f76656420666f7220616c6c0000000000000000602082015250565b7f4552433732313a2062616c616e636520717565727920666f7220746865207a6560008201527f726f206164647265737300000000000000000000000000000000000000000000602082015250565b7f4552433732313a206f776e657220717565727920666f72206e6f6e657869737460008201527f656e7420746f6b656e0000000000000000000000000000000000000000000000602082015250565b7f4552433732313a206d696e7420746f20746865207a65726f2061646472657373600082015250565b7f4552433732313a20617070726f76656420717565727920666f72206e6f6e657860008201527f697374656e7420746f6b656e0000000000000000000000000000000000000000602082015250565b7f4f776e61626c653a2063616c6c6572206973206e6f7420746865206f776e6572600082015250565b7f4552433732313a207472616e73666572206f6620746f6b656e2074686174206960008201527f73206e6f74206f776e0000000000000000000000000000000000000000000000602082015250565b7f4552433732314d657461646174613a2055524920717565727920666f72206e6f60008201527f6e6578697374656e7420746f6b656e0000000000000000000000000000000000602082015250565b7f4552433732313a20617070726f76616c20746f2063757272656e74206f776e6560008201527f7200000000000000000000000000000000000000000000000000000000000000602082015250565b7f4552433732313a207472616e736665722063616c6c6572206973206e6f74206f60008201527f776e6572206e6f7220617070726f766564000000000000000000000000000000602082015250565b613f3481613861565b8114613f3f57600080fd5b50565b613f4b81613873565b8114613f5657600080fd5b50565b613f628161387f565b8114613f6d57600080fd5b50565b613f79816138cb565b8114613f8457600080fd5b5056fea264697066735822122011101da0bf5ed55db7a5740e2c3a53d1f01761e0fbb82a20d059f37b758a559864736f6c63430008010033",
  "immutableReferences": {},
  "source": "// SPDX-License-Identifier: MIT\r\n\r\npragma solidity >=0.6.0 <0.8.2;\r\n\r\nimport './MomentFactory.sol';\r\nimport \"@openzeppelin/contracts/utils/structs/EnumerableSet.sol\";\r\nimport \"@openzeppelin/contracts/access/Ownable.sol\";\r\n\r\n// up\r\n\r\ncontract MomentMarket is MomentFactory, Ownable {\r\n\tusing EnumerableSet for EnumerableSet.UintSet;\r\n\r\n\tconstructor() {}\r\n\r\n\tevent OrderCreated(\r\n\t\taddress indexed _seller,\r\n\t\tuint256 indexed _tokenId,\r\n\t\tuint256 _orderId\r\n\t);\r\n\r\n\tevent OrderClosed(\r\n\t\taddress indexed _seller,\r\n\t\tuint256 indexed _tokenId,\r\n\t\tuint256 _orderId\r\n\t);\r\n\r\n\tevent OrderSuccessful(\r\n\t\taddress indexed _seller,\r\n\t\taddress indexed _buyer,\r\n\t\tuint256 indexed _tokenId,\r\n\t\tuint256 _orderId,\r\n\t\tuint256 _fee\r\n\t);\r\n\r\n\tstruct Order {\r\n\t\taddress seller;\r\n\t\tuint256 price;\r\n\t\tuint256 createdAt;\r\n\t\tstring currency;\r\n\t\tuint tokenId;\r\n\t\tbool successful;\r\n\t\tbool closed;\r\n\t}\r\n\r\n\tOrder[] public orders;\r\n\r\n\tmapping (uint256 => address) private _orderToOwner;\r\n\tmapping (address => EnumerableSet.UintSet) private _ownerOrders;\r\n\r\n\tmodifier onlyOwnerOfOrder(uint _orderId) {\r\n\t\trequire(msg.sender == address(0) && msg.sender == _orderToOwner[_orderId]);\r\n\t\t_;\r\n\t}\r\n\tmodifier onlyOrderIsOpen(uint _orderId) {\r\n\t\trequire(orders[_orderId].createdAt > 0 && orders[_orderId].closed == false);\r\n\t\t_;\r\n\t}\r\n\r\n\tfunction createOrder(\r\n\t\tuint256 _tokenId, \r\n\t\tuint256 _price, \r\n\t\tstring memory _currency\r\n\t) \r\n\t\texternal \r\n\t\tonlyOwnerOf(_tokenId) \r\n\t{\r\n\t\taddress _seller = msg.sender;\r\n\t\tOrder memory _order = Order(\r\n\t\t\t_seller,\r\n\t\t\t_price,\r\n\t\t\tblock.timestamp,\r\n\t\t\t_currency,\r\n\t\t\t_tokenId,\r\n\t\t\tfalse,\r\n\t\t\tfalse\r\n\t\t);\r\n\r\n\t\torders.push(_order);\r\n\t\tuint _id = orders.length - 1;\r\n\r\n\t\t_orderToOwner[_id] = _seller;\r\n\t\t_ownerOrders[_seller].add(_id);\r\n\r\n\t\t_transfer(_seller, address(this), _tokenId);\r\n\t\t\r\n\t\tOrderCreated(\r\n\t\t\t_seller,\r\n\t\t\t_tokenId,\r\n\t\t\t_id\r\n\t\t);\r\n  \t}\r\n\r\n\tfunction closeOrder(\r\n\t\tuint256 _orderId\r\n\t)\r\n\t\texternal\r\n\t\tonlyOwnerOfOrder(_orderId)\r\n\t\tonlyOrderIsOpen(_orderId)\r\n\t{\r\n\t\tOrder storage _order = orders[_orderId];\r\n\t\t_order.closed = true;\r\n\r\n\t\t_transfer(address(this), msg.sender, _order.tokenId);\r\n\r\n\t\tOrderClosed(\r\n\t\t\tmsg.sender,\r\n\t\t\t_order.tokenId,\r\n\t\t\t_orderId\r\n\t\t);\r\n\t}\r\n\r\n\tfunction byeOrder(\r\n\t\tuint256 _orderId\r\n\t)\r\n\t\texternal\r\n\t\tpayable\r\n\t\tonlyOrderIsOpen(_orderId)\r\n\t{\r\n\t\t_byeOrder(_orderId, msg.value);\r\n\t\t_transfer(address(this), msg.sender, orders[_orderId].tokenId);\r\n\t}\r\n\r\n\tfunction _byeOrder(\r\n\t\tuint256 _orderId,\r\n\t\tuint256 _amount\r\n\t)\r\n\t\tinternal\r\n\t{\r\n\t\tOrder storage _order = orders[_orderId];\r\n\t\trequire(_amount >= _order.price);\r\n\r\n\t\taddress _seller = _order.seller;\r\n\t\tuint256 _price = _order.price;\r\n\t\tuint256 _tokenId = _order.tokenId;\r\n\r\n\t\t_removeOrder(_orderId);\r\n\r\n\t\t// _order.closed = true;\r\n\t\t// _order.successful = true;\r\n\r\n\r\n\t\tif (_amount > 0) {\r\n\t\t\t// We'll be able to add fee\r\n\t\t\ttransferMoney(_seller, _price);\r\n\r\n\t\t\tuint256 _difference = _amount - _price;\r\n\t\t\tif (_difference > 0) {\r\n\t\t\t\ttransferMoney(msg.sender, _difference);\r\n\t\t\t}\r\n\t\t}\r\n\r\n\t\tOrderSuccessful(\r\n\t\t\t_seller,\r\n\t\t\tmsg.sender,\r\n\t\t\t_tokenId,\r\n\t\t\t_orderId,\r\n\t\t\t0\r\n\t\t);\r\n\t}\r\n\r\n\tfunction _removeOrder(uint256 _orderId) internal {\r\n\t\tdelete orders[_orderId];\r\n\t\taddress owner = _orderToOwner[_orderId];\r\n\t\t_ownerOrders[owner].remove(_orderId);\r\n\t\tdelete _orderToOwner[_orderId];\r\n\t}\r\n\r\n\tfunction transferMoney(address _to, uint256 _value) public {\r\n\t\t// address(uint160(_to)).transfer(_value);\r\n\t\taddress payable wallet = payable(_to);\r\n\t\twallet.transfer(_value);\r\n\t\treturn;\r\n\t}\r\n\r\n\t// Temp\r\n\tfunction kill() public onlyOwner {\r\n\t\taddress payable wallet = payable(owner());\r\n\t\tselfdestruct(wallet);\r\n\t}\r\n}",
  "sourcePath": "D:/workspace/node_project/moment/contracts/MomentMarket.sol",
  "compiler": {
    "name": "solc",
    "version": "0.8.1+commit.df193b15.Emscripten.clang"
  },
  "schemaVersion": "3.3.3",
  "updatedAt": "2021-04-07T11:14:34.802Z",
  "devdoc": {
    "kind": "dev",
    "methods": {
      "approve(address,uint256)": {
        "details": "See {IERC721-approve}."
      },
      "balanceOf(address)": {
        "details": "See {IERC721-balanceOf}."
      },
      "getApproved(uint256)": {
        "details": "See {IERC721-getApproved}."
      },
      "isApprovedForAll(address,address)": {
        "details": "See {IERC721-isApprovedForAll}."
      },
      "name()": {
        "details": "See {IERC721Metadata-name}."
      },
      "owner()": {
        "details": "Returns the address of the current owner."
      },
      "ownerOf(uint256)": {
        "details": "See {IERC721-ownerOf}."
      },
      "renounceOwnership()": {
        "details": "Leaves the contract without owner. It will not be possible to call `onlyOwner` functions anymore. Can only be called by the current owner. NOTE: Renouncing ownership will leave the contract without an owner, thereby removing any functionality that is only available to the owner."
      },
      "safeTransferFrom(address,address,uint256)": {
        "details": "See {IERC721-safeTransferFrom}."
      },
      "safeTransferFrom(address,address,uint256,bytes)": {
        "details": "See {IERC721-safeTransferFrom}."
      },
      "setApprovalForAll(address,bool)": {
        "details": "See {IERC721-setApprovalForAll}."
      },
      "supportsInterface(bytes4)": {
        "details": "See {IERC165-supportsInterface}."
      },
      "symbol()": {
        "details": "See {IERC721Metadata-symbol}."
      },
      "tokenURI(uint256)": {
        "details": "See {IERC721Metadata-tokenURI}."
      },
      "transferFrom(address,address,uint256)": {
        "details": "See {IERC721-transferFrom}."
      },
      "transferOwnership(address)": {
        "details": "Transfers ownership of the contract to a new account (`newOwner`). Can only be called by the current owner."
      }
    },
    "version": 1
  },
  "userdoc": {
    "kind": "user",
    "methods": {},
    "version": 1
  }
}