{
  "contractName": "MomentMarket",
  "abi": [
    {
      "inputs": [],
      "stateMutability": "nonpayable",
      "type": "constructor"
    },
    {
      "anonymous": false,
      "inputs": [
        {
          "indexed": true,
          "internalType": "address",
          "name": "owner",
          "type": "address"
        },
        {
          "indexed": true,
          "internalType": "address",
          "name": "approved",
          "type": "address"
        },
        {
          "indexed": true,
          "internalType": "uint256",
          "name": "tokenId",
          "type": "uint256"
        }
      ],
      "name": "Approval",
      "type": "event"
    },
    {
      "anonymous": false,
      "inputs": [
        {
          "indexed": true,
          "internalType": "address",
          "name": "owner",
          "type": "address"
        },
        {
          "indexed": true,
          "internalType": "address",
          "name": "operator",
          "type": "address"
        },
        {
          "indexed": false,
          "internalType": "bool",
          "name": "approved",
          "type": "bool"
        }
      ],
      "name": "ApprovalForAll",
      "type": "event"
    },
    {
      "anonymous": false,
      "inputs": [
        {
          "indexed": true,
          "internalType": "address",
          "name": "_seller",
          "type": "address"
        },
        {
          "indexed": true,
          "internalType": "uint256",
          "name": "_tokenId",
          "type": "uint256"
        },
        {
          "indexed": false,
          "internalType": "uint256",
          "name": "_orderId",
          "type": "uint256"
        }
      ],
      "name": "OrderClosed",
      "type": "event"
    },
    {
      "anonymous": false,
      "inputs": [
        {
          "indexed": true,
          "internalType": "address",
          "name": "_seller",
          "type": "address"
        },
        {
          "indexed": true,
          "internalType": "uint256",
          "name": "_tokenId",
          "type": "uint256"
        },
        {
          "indexed": false,
          "internalType": "uint256",
          "name": "_orderId",
          "type": "uint256"
        }
      ],
      "name": "OrderCreated",
      "type": "event"
    },
    {
      "anonymous": false,
      "inputs": [
        {
          "indexed": true,
          "internalType": "address",
          "name": "_seller",
          "type": "address"
        },
        {
          "indexed": true,
          "internalType": "address",
          "name": "_buyer",
          "type": "address"
        },
        {
          "indexed": true,
          "internalType": "uint256",
          "name": "_tokenId",
          "type": "uint256"
        },
        {
          "indexed": false,
          "internalType": "uint256",
          "name": "_orderId",
          "type": "uint256"
        },
        {
          "indexed": false,
          "internalType": "uint256",
          "name": "_fee",
          "type": "uint256"
        }
      ],
      "name": "OrderSuccessful",
      "type": "event"
    },
    {
      "anonymous": false,
      "inputs": [
        {
          "indexed": true,
          "internalType": "address",
          "name": "previousOwner",
          "type": "address"
        },
        {
          "indexed": true,
          "internalType": "address",
          "name": "newOwner",
          "type": "address"
        }
      ],
      "name": "OwnershipTransferred",
      "type": "event"
    },
    {
      "anonymous": false,
      "inputs": [
        {
          "indexed": true,
          "internalType": "address",
          "name": "from",
          "type": "address"
        },
        {
          "indexed": true,
          "internalType": "address",
          "name": "to",
          "type": "address"
        },
        {
          "indexed": true,
          "internalType": "uint256",
          "name": "tokenId",
          "type": "uint256"
        }
      ],
      "name": "Transfer",
      "type": "event"
    },
    {
      "inputs": [
        {
          "internalType": "address",
          "name": "to",
          "type": "address"
        },
        {
          "internalType": "uint256",
          "name": "tokenId",
          "type": "uint256"
        }
      ],
      "name": "approve",
      "outputs": [],
      "stateMutability": "nonpayable",
      "type": "function"
    },
    {
      "inputs": [
        {
          "internalType": "address",
          "name": "owner",
          "type": "address"
        }
      ],
      "name": "balanceOf",
      "outputs": [
        {
          "internalType": "uint256",
          "name": "",
          "type": "uint256"
        }
      ],
      "stateMutability": "view",
      "type": "function"
    },
    {
      "inputs": [],
      "name": "baseURI",
      "outputs": [
        {
          "internalType": "string",
          "name": "",
          "type": "string"
        }
      ],
      "stateMutability": "view",
      "type": "function"
    },
    {
      "inputs": [
        {
          "internalType": "string",
          "name": "_url",
          "type": "string"
        }
      ],
      "name": "createMoment",
      "outputs": [],
      "stateMutability": "nonpayable",
      "type": "function"
    },
    {
      "inputs": [
        {
          "internalType": "uint256",
          "name": "tokenId",
          "type": "uint256"
        }
      ],
      "name": "getApproved",
      "outputs": [
        {
          "internalType": "address",
          "name": "",
          "type": "address"
        }
      ],
      "stateMutability": "view",
      "type": "function"
    },
    {
      "inputs": [
        {
          "internalType": "address",
          "name": "owner",
          "type": "address"
        },
        {
          "internalType": "address",
          "name": "operator",
          "type": "address"
        }
      ],
      "name": "isApprovedForAll",
      "outputs": [
        {
          "internalType": "bool",
          "name": "",
          "type": "bool"
        }
      ],
      "stateMutability": "view",
      "type": "function"
    },
    {
      "inputs": [
        {
          "internalType": "uint256",
          "name": "",
          "type": "uint256"
        }
      ],
      "name": "moments",
      "outputs": [
        {
          "internalType": "string",
          "name": "url",
          "type": "string"
        },
        {
          "internalType": "uint256",
          "name": "created_at",
          "type": "uint256"
        }
      ],
      "stateMutability": "view",
      "type": "function"
    },
    {
      "inputs": [],
      "name": "name",
      "outputs": [
        {
          "internalType": "string",
          "name": "",
          "type": "string"
        }
      ],
      "stateMutability": "view",
      "type": "function"
    },
    {
      "inputs": [
        {
          "internalType": "uint256",
          "name": "",
          "type": "uint256"
        }
      ],
      "name": "orders",
      "outputs": [
        {
          "internalType": "address",
          "name": "seller",
          "type": "address"
        },
        {
          "internalType": "uint256",
          "name": "price",
          "type": "uint256"
        },
        {
          "internalType": "uint256",
          "name": "createdAt",
          "type": "uint256"
        },
        {
          "internalType": "string",
          "name": "currency",
          "type": "string"
        },
        {
          "internalType": "uint256",
          "name": "tokenId",
          "type": "uint256"
        },
        {
          "internalType": "bool",
          "name": "successful",
          "type": "bool"
        },
        {
          "internalType": "bool",
          "name": "closed",
          "type": "bool"
        }
      ],
      "stateMutability": "view",
      "type": "function"
    },
    {
      "inputs": [],
      "name": "owner",
      "outputs": [
        {
          "internalType": "address",
          "name": "",
          "type": "address"
        }
      ],
      "stateMutability": "view",
      "type": "function"
    },
    {
      "inputs": [
        {
          "internalType": "uint256",
          "name": "tokenId",
          "type": "uint256"
        }
      ],
      "name": "ownerOf",
      "outputs": [
        {
          "internalType": "address",
          "name": "",
          "type": "address"
        }
      ],
      "stateMutability": "view",
      "type": "function"
    },
    {
      "inputs": [],
      "name": "renounceOwnership",
      "outputs": [],
      "stateMutability": "nonpayable",
      "type": "function"
    },
    {
      "inputs": [
        {
          "internalType": "address",
          "name": "from",
          "type": "address"
        },
        {
          "internalType": "address",
          "name": "to",
          "type": "address"
        },
        {
          "internalType": "uint256",
          "name": "tokenId",
          "type": "uint256"
        }
      ],
      "name": "safeTransferFrom",
      "outputs": [],
      "stateMutability": "nonpayable",
      "type": "function"
    },
    {
      "inputs": [
        {
          "internalType": "address",
          "name": "from",
          "type": "address"
        },
        {
          "internalType": "address",
          "name": "to",
          "type": "address"
        },
        {
          "internalType": "uint256",
          "name": "tokenId",
          "type": "uint256"
        },
        {
          "internalType": "bytes",
          "name": "_data",
          "type": "bytes"
        }
      ],
      "name": "safeTransferFrom",
      "outputs": [],
      "stateMutability": "nonpayable",
      "type": "function"
    },
    {
      "inputs": [
        {
          "internalType": "address",
          "name": "operator",
          "type": "address"
        },
        {
          "internalType": "bool",
          "name": "approved",
          "type": "bool"
        }
      ],
      "name": "setApprovalForAll",
      "outputs": [],
      "stateMutability": "nonpayable",
      "type": "function"
    },
    {
      "inputs": [
        {
          "internalType": "bytes4",
          "name": "interfaceId",
          "type": "bytes4"
        }
      ],
      "name": "supportsInterface",
      "outputs": [
        {
          "internalType": "bool",
          "name": "",
          "type": "bool"
        }
      ],
      "stateMutability": "view",
      "type": "function"
    },
    {
      "inputs": [],
      "name": "symbol",
      "outputs": [
        {
          "internalType": "string",
          "name": "",
          "type": "string"
        }
      ],
      "stateMutability": "view",
      "type": "function"
    },
    {
      "inputs": [
        {
          "internalType": "uint256",
          "name": "index",
          "type": "uint256"
        }
      ],
      "name": "tokenByIndex",
      "outputs": [
        {
          "internalType": "uint256",
          "name": "",
          "type": "uint256"
        }
      ],
      "stateMutability": "view",
      "type": "function"
    },
    {
      "inputs": [
        {
          "internalType": "address",
          "name": "owner",
          "type": "address"
        },
        {
          "internalType": "uint256",
          "name": "index",
          "type": "uint256"
        }
      ],
      "name": "tokenOfOwnerByIndex",
      "outputs": [
        {
          "internalType": "uint256",
          "name": "",
          "type": "uint256"
        }
      ],
      "stateMutability": "view",
      "type": "function"
    },
    {
      "inputs": [
        {
          "internalType": "uint256",
          "name": "tokenId",
          "type": "uint256"
        }
      ],
      "name": "tokenURI",
      "outputs": [
        {
          "internalType": "string",
          "name": "",
          "type": "string"
        }
      ],
      "stateMutability": "view",
      "type": "function"
    },
    {
      "inputs": [],
      "name": "totalSupply",
      "outputs": [
        {
          "internalType": "uint256",
          "name": "",
          "type": "uint256"
        }
      ],
      "stateMutability": "view",
      "type": "function"
    },
    {
      "inputs": [
        {
          "internalType": "address",
          "name": "from",
          "type": "address"
        },
        {
          "internalType": "address",
          "name": "to",
          "type": "address"
        },
        {
          "internalType": "uint256",
          "name": "tokenId",
          "type": "uint256"
        }
      ],
      "name": "transferFrom",
      "outputs": [],
      "stateMutability": "nonpayable",
      "type": "function"
    },
    {
      "inputs": [
        {
          "internalType": "address",
          "name": "newOwner",
          "type": "address"
        }
      ],
      "name": "transferOwnership",
      "outputs": [],
      "stateMutability": "nonpayable",
      "type": "function"
    },
    {
      "inputs": [
        {
          "internalType": "uint256",
          "name": "_tokenId",
          "type": "uint256"
        },
        {
          "internalType": "uint256",
          "name": "_price",
          "type": "uint256"
        },
        {
          "internalType": "string",
          "name": "_currency",
          "type": "string"
        }
      ],
      "name": "createOrder",
      "outputs": [],
      "stateMutability": "nonpayable",
      "type": "function"
    },
    {
      "inputs": [
        {
          "internalType": "uint256",
          "name": "_orderId",
          "type": "uint256"
        }
      ],
      "name": "closeOrder",
      "outputs": [],
      "stateMutability": "nonpayable",
      "type": "function"
    },
    {
      "inputs": [
        {
          "internalType": "uint256",
          "name": "_orderId",
          "type": "uint256"
        }
      ],
      "name": "byeOrder",
      "outputs": [],
      "stateMutability": "payable",
      "type": "function"
    },
    {
      "inputs": [
        {
          "internalType": "address",
          "name": "_to",
          "type": "address"
        },
        {
          "internalType": "uint256",
          "name": "_value",
          "type": "uint256"
        }
      ],
      "name": "transferMoney",
      "outputs": [],
      "stateMutability": "nonpayable",
      "type": "function"
    },
    {
      "inputs": [],
      "name": "kill",
      "outputs": [],
      "stateMutability": "nonpayable",
      "type": "function"
    }
  ],
  "bytecode": "0x60806040523480156200001157600080fd5b506040518060400160405280600681526020017f4d6f6d656e7400000000000000000000000000000000000000000000000000008152506040518060400160405280600381526020017f4d4d540000000000000000000000000000000000000000000000000000000000815250620000966301ffc9a760e01b620001c960201b60201c565b8160069080519060200190620000ae929190620002da565b508060079080519060200190620000c7929190620002da565b50620000e06380ac58cd60e01b620001c960201b60201c565b620000f8635b5e139f60e01b620001c960201b60201c565b6200011063780e9d6360e01b620001c960201b60201c565b5050600062000124620002d260201b60201c565b905080600b60006101000a81548173ffffffffffffffffffffffffffffffffffffffff021916908373ffffffffffffffffffffffffffffffffffffffff1602179055508073ffffffffffffffffffffffffffffffffffffffff16600073ffffffffffffffffffffffffffffffffffffffff167f8be0079c531659141344cd1fd0a4f28419497f9722a3daafe3b4186f6b6457e060405160405180910390a35062000390565b63ffffffff60e01b817bffffffffffffffffffffffffffffffffffffffffffffffffffffffff1916141562000266576040517f08c379a000000000000000000000000000000000000000000000000000000000815260040180806020018281038252601c8152602001807f4552433136353a20696e76616c696420696e746572666163652069640000000081525060200191505060405180910390fd5b6001600080837bffffffffffffffffffffffffffffffffffffffffffffffffffffffff19167bffffffffffffffffffffffffffffffffffffffffffffffffffffffff1916815260200190815260200160002060006101000a81548160ff02191690831515021790555050565b600033905090565b828054600181600116156101000203166002900490600052602060002090601f0160209004810192826200031257600085556200035e565b82601f106200032d57805160ff19168380011785556200035e565b828001600101855582156200035e579182015b828111156200035d57825182559160200191906001019062000340565b5b5090506200036d919062000371565b5090565b5b808211156200038c57600081600090555060010162000372565b5090565b613d9f80620003a06000396000f3fe6080604052600436106101b65760003560e01c80636352211e116100ec578063a22cb4651161008a578063c87b56dd11610064578063c87b56dd14610ce2578063e985e9c514610d96578063f2fde38b14610e1d578063fee666ad14610e6e576101b6565b8063a22cb46514610a7b578063a85c38ef14610ad8578063b88d4fde14610bd0576101b6565b8063715018a6116100c6578063715018a6146108d85780638da5cb5b146108ef57806395d89b41146109305780639c4ff9c7146109c0576101b6565b80636352211e1461077e5780636c0360eb146107e357806370a0823114610873576101b6565b806323b872dd1161015957806341c0e1b51161013357806341c0e1b5146105c157806342842e0e146105d85780634f6ccce7146106535780636061f754146106a2576101b6565b806323b872dd146104a95780632850a3df146105245780632f745c5914610552576101b6565b806306fdde031161019557806306fdde031461032e578063081812fc146103be578063095ea7b31461042357806318160ddd1461047e576101b6565b8062e7203e146101bb57806301ffc9a714610283578063069d6d1c146102f3575b600080fd5b3480156101c757600080fd5b50610281600480360360208110156101de57600080fd5b81019080803590602001906401000000008111156101fb57600080fd5b82018360208201111561020d57600080fd5b8035906020019184600183028401116401000000008311171561022f57600080fd5b91908080601f016020809104026020016040519081016040528093929190818152602001838380828437600081840152601f19601f820116905080830192505050505050509192919290505050610ec9565b005b34801561028f57600080fd5b506102db600480360360208110156102a657600080fd5b8101908080357bffffffffffffffffffffffffffffffffffffffffffffffffffffffff19169060200190929190505050610f4d565b60405180821515815260200191505060405180910390f35b3480156102ff57600080fd5b5061032c6004803603602081101561031657600080fd5b8101908080359060200190929190505050610fb4565b005b34801561033a57600080fd5b50610343611163565b6040518080602001828103825283818151815260200191508051906020019080838360005b83811015610383578082015181840152602081019050610368565b50505050905090810190601f1680156103b05780820380516001836020036101000a031916815260200191505b509250505060405180910390f35b3480156103ca57600080fd5b506103f7600480360360208110156103e157600080fd5b8101908080359060200190929190505050611205565b604051808273ffffffffffffffffffffffffffffffffffffffff16815260200191505060405180910390f35b34801561042f57600080fd5b5061047c6004803603604081101561044657600080fd5b81019080803573ffffffffffffffffffffffffffffffffffffffff169060200190929190803590602001909291905050506112a0565b005b34801561048a57600080fd5b506104936113e4565b6040518082815260200191505060405180910390f35b3480156104b557600080fd5b50610522600480360360608110156104cc57600080fd5b81019080803573ffffffffffffffffffffffffffffffffffffffff169060200190929190803573ffffffffffffffffffffffffffffffffffffffff169060200190929190803590602001909291905050506113f5565b005b6105506004803603602081101561053a57600080fd5b810190808035906020019092919050505061146b565b005b34801561055e57600080fd5b506105ab6004803603604081101561057557600080fd5b81019080803573ffffffffffffffffffffffffffffffffffffffff16906020019092919080359060200190929190505050611509565b6040518082815260200191505060405180910390f35b3480156105cd57600080fd5b506105d6611564565b005b3480156105e457600080fd5b50610651600480360360608110156105fb57600080fd5b81019080803573ffffffffffffffffffffffffffffffffffffffff169060200190929190803573ffffffffffffffffffffffffffffffffffffffff16906020019092919080359060200190929190505050611633565b005b34801561065f57600080fd5b5061068c6004803603602081101561067657600080fd5b8101908080359060200190929190505050611653565b6040518082815260200191505060405180910390f35b3480156106ae57600080fd5b5061077c600480360360608110156106c557600080fd5b810190808035906020019092919080359060200190929190803590602001906401000000008111156106f657600080fd5b82018360208201111561070857600080fd5b8035906020019184600183028401116401000000008311171561072a57600080fd5b91908080601f016020809104026020016040519081016040528093929190818152602001838380828437600081840152601f19601f820116905080830192505050505050509192919290505050611676565b005b34801561078a57600080fd5b506107b7600480360360208110156107a157600080fd5b8101908080359060200190929190505050611913565b604051808273ffffffffffffffffffffffffffffffffffffffff16815260200191505060405180910390f35b3480156107ef57600080fd5b506107f861194a565b6040518080602001828103825283818151815260200191508051906020019080838360005b8381101561083857808201518184015260208101905061081d565b50505050905090810190601f1680156108655780820380516001836020036101000a031916815260200191505b509250505060405180910390f35b34801561087f57600080fd5b506108c26004803603602081101561089657600080fd5b81019080803573ffffffffffffffffffffffffffffffffffffffff1690602001909291905050506119ec565b6040518082815260200191505060405180910390f35b3480156108e457600080fd5b506108ed611ac1565b005b3480156108fb57600080fd5b50610904611c31565b604051808273ffffffffffffffffffffffffffffffffffffffff16815260200191505060405180910390f35b34801561093c57600080fd5b50610945611c5b565b6040518080602001828103825283818151815260200191508051906020019080838360005b8381101561098557808201518184015260208101905061096a565b50505050905090810190601f1680156109b25780820380516001836020036101000a031916815260200191505b509250505060405180910390f35b3480156109cc57600080fd5b506109f9600480360360208110156109e357600080fd5b8101908080359060200190929190505050611cfd565b6040518080602001838152602001828103825284818151815260200191508051906020019080838360005b83811015610a3f578082015181840152602081019050610a24565b50505050905090810190601f168015610a6c5780820380516001836020036101000a031916815260200191505b50935050505060405180910390f35b348015610a8757600080fd5b50610ad660048036036040811015610a9e57600080fd5b81019080803573ffffffffffffffffffffffffffffffffffffffff169060200190929190803515159060200190929190505050611dc9565b005b348015610ae457600080fd5b50610b1160048036036020811015610afb57600080fd5b8101908080359060200190929190505050611f7f565b604051808873ffffffffffffffffffffffffffffffffffffffff1681526020018781526020018681526020018060200185815260200184151581526020018315158152602001828103825286818151815260200191508051906020019080838360005b83811015610b8f578082015181840152602081019050610b74565b50505050905090810190601f168015610bbc5780820380516001836020036101000a031916815260200191505b509850505050505050505060405180910390f35b348015610bdc57600080fd5b50610ce060048036036080811015610bf357600080fd5b81019080803573ffffffffffffffffffffffffffffffffffffffff169060200190929190803573ffffffffffffffffffffffffffffffffffffffff1690602001909291908035906020019092919080359060200190640100000000811115610c5a57600080fd5b820183602082011115610c6c57600080fd5b80359060200191846001830284011164010000000083111715610c8e57600080fd5b91908080601f016020809104026020016040519081016040528093929190818152602001838380828437600081840152601f19601f8201169050808301925050505050505091929192905050506120a3565b005b348015610cee57600080fd5b50610d1b60048036036020811015610d0557600080fd5b810190808035906020019092919050505061211b565b6040518080602001828103825283818151815260200191508051906020019080838360005b83811015610d5b578082015181840152602081019050610d40565b50505050905090810190601f168015610d885780820380516001836020036101000a031916815260200191505b509250505060405180910390f35b348015610da257600080fd5b50610e0560048036036040811015610db957600080fd5b81019080803573ffffffffffffffffffffffffffffffffffffffff169060200190929190803573ffffffffffffffffffffffffffffffffffffffff1690602001909291905050506123ec565b60405180821515815260200191505060405180910390f35b348015610e2957600080fd5b50610e6c60048036036020811015610e4057600080fd5b81019080803573ffffffffffffffffffffffffffffffffffffffff169060200190929190505050612480565b005b348015610e7a57600080fd5b50610ec760048036036040811015610e9157600080fd5b81019080803573ffffffffffffffffffffffffffffffffffffffff16906020019092919080359060200190929190505050612675565b005b600a60405180604001604052808381526020014281525090806001815401808255809150506001900390600052602060002090600202016000909190919091506000820151816000019080519060200190610f25929190613a4b565b5060208201518160010155505060006001600a80549050039050610f4933826126c0565b5050565b6000806000837bffffffffffffffffffffffffffffffffffffffffffffffffffffffff19167bffffffffffffffffffffffffffffffffffffffffffffffffffffffff1916815260200190815260200160002060009054906101000a900460ff169050919050565b80600073ffffffffffffffffffffffffffffffffffffffff163373ffffffffffffffffffffffffffffffffffffffff1614801561104f5750600d600082815260200190815260200160002060009054906101000a900473ffffffffffffffffffffffffffffffffffffffff1673ffffffffffffffffffffffffffffffffffffffff163373ffffffffffffffffffffffffffffffffffffffff16145b61105857600080fd5b816000600c828154811061106857fe5b9060005260206000209060060201600201541180156110b6575060001515600c828154811061109357fe5b906000526020600020906006020160050160019054906101000a900460ff161515145b6110bf57600080fd5b6000600c84815481106110ce57fe5b9060005260206000209060060201905060018160050160016101000a81548160ff02191690831515021790555061110a303383600401546128b4565b80600401543373ffffffffffffffffffffffffffffffffffffffff167fdd1bdc77e3cc244141600de256428e5a4fa93f9ba200229891d4911139069222866040518082815260200191505060405180910390a350505050565b606060068054600181600116156101000203166002900480601f0160208091040260200160405190810160405280929190818152602001828054600181600116156101000203166002900480156111fb5780601f106111d0576101008083540402835291602001916111fb565b820191906000526020600020905b8154815290600101906020018083116111de57829003601f168201915b5050505050905090565b600061121082612af7565b611265576040517f08c379a000000000000000000000000000000000000000000000000000000000815260040180806020018281038252602c815260200180613c94602c913960400191505060405180910390fd5b6004600083815260200190815260200160002060009054906101000a900473ffffffffffffffffffffffffffffffffffffffff169050919050565b60006112ab82611913565b90508073ffffffffffffffffffffffffffffffffffffffff168373ffffffffffffffffffffffffffffffffffffffff161415611332576040517f08c379a0000000000000000000000000000000000000000000000000000000008152600401808060200182810382526021815260200180613d186021913960400191505060405180910390fd5b8073ffffffffffffffffffffffffffffffffffffffff16611351612b14565b73ffffffffffffffffffffffffffffffffffffffff161480611380575061137f8161137a612b14565b6123ec565b5b6113d5576040517f08c379a0000000000000000000000000000000000000000000000000000000008152600401808060200182810382526038815260200180613be76038913960400191505060405180910390fd5b6113df8383612b1c565b505050565b60006113f06002612bd5565b905090565b611406611400612b14565b82612bea565b61145b576040517f08c379a0000000000000000000000000000000000000000000000000000000008152600401808060200182810382526031815260200180613d396031913960400191505060405180910390fd5b6114668383836128b4565b505050565b806000600c828154811061147b57fe5b9060005260206000209060060201600201541180156114c9575060001515600c82815481106114a657fe5b906000526020600020906006020160050160019054906101000a900460ff161515145b6114d257600080fd5b6114dc8234612cde565b6115053033600c85815481106114ee57fe5b9060005260206000209060060201600401546128b4565b5050565b600061155c82600160008673ffffffffffffffffffffffffffffffffffffffff1673ffffffffffffffffffffffffffffffffffffffff168152602001908152602001600020612e2a90919063ffffffff16565b905092915050565b61156c612b14565b73ffffffffffffffffffffffffffffffffffffffff1661158a611c31565b73ffffffffffffffffffffffffffffffffffffffff1614611613576040517f08c379a00000000000000000000000000000000000000000000000000000000081526004018080602001828103825260208152602001807f4f776e61626c653a2063616c6c6572206973206e6f7420746865206f776e657281525060200191505060405180910390fd5b61161b611c31565b73ffffffffffffffffffffffffffffffffffffffff16ff5b61164e838383604051806020016040528060008152506120a3565b505050565b60008061166a836002612e4490919063ffffffff16565b50905080915050919050565b8261168081611913565b73ffffffffffffffffffffffffffffffffffffffff163373ffffffffffffffffffffffffffffffffffffffff16146116b757600080fd5b600033905060006040518060e001604052808373ffffffffffffffffffffffffffffffffffffffff168152602001868152602001428152602001858152602001878152602001600015158152602001600015158152509050600c81908060018154018082558091505060019003906000526020600020906006020160009091909190915060008201518160000160006101000a81548173ffffffffffffffffffffffffffffffffffffffff021916908373ffffffffffffffffffffffffffffffffffffffff160217905550602082015181600101556040820151816002015560608201518160030190805190602001906117b2929190613a4b565b506080820151816004015560a08201518160050160006101000a81548160ff02191690831515021790555060c08201518160050160016101000a81548160ff021916908315150217905550505060006001600c8054905003905082600d600083815260200190815260200160002060006101000a81548173ffffffffffffffffffffffffffffffffffffffff021916908373ffffffffffffffffffffffffffffffffffffffff1602179055506118af81600e60008673ffffffffffffffffffffffffffffffffffffffff1673ffffffffffffffffffffffffffffffffffffffff168152602001908152602001600020612e7090919063ffffffff16565b506118bb8330896128b4565b868373ffffffffffffffffffffffffffffffffffffffff167fbb4cd350108fec46a02c87acb34a38f6c465fb2dc050687359c97229703bb8f4836040518082815260200191505060405180910390a350505050505050565b600061194382604051806060016040528060298152602001613c49602991396002612e8a9092919063ffffffff16565b9050919050565b606060098054600181600116156101000203166002900480601f0160208091040260200160405190810160405280929190818152602001828054600181600116156101000203166002900480156119e25780601f106119b7576101008083540402835291602001916119e2565b820191906000526020600020905b8154815290600101906020018083116119c557829003601f168201915b5050505050905090565b60008073ffffffffffffffffffffffffffffffffffffffff168273ffffffffffffffffffffffffffffffffffffffff161415611a73576040517f08c379a000000000000000000000000000000000000000000000000000000000815260040180806020018281038252602a815260200180613c1f602a913960400191505060405180910390fd5b611aba600160008473ffffffffffffffffffffffffffffffffffffffff1673ffffffffffffffffffffffffffffffffffffffff168152602001908152602001600020612ea9565b9050919050565b611ac9612b14565b73ffffffffffffffffffffffffffffffffffffffff16611ae7611c31565b73ffffffffffffffffffffffffffffffffffffffff1614611b70576040517f08c379a00000000000000000000000000000000000000000000000000000000081526004018080602001828103825260208152602001807f4f776e61626c653a2063616c6c6572206973206e6f7420746865206f776e657281525060200191505060405180910390fd5b600073ffffffffffffffffffffffffffffffffffffffff16600b60009054906101000a900473ffffffffffffffffffffffffffffffffffffffff1673ffffffffffffffffffffffffffffffffffffffff167f8be0079c531659141344cd1fd0a4f28419497f9722a3daafe3b4186f6b6457e060405160405180910390a36000600b60006101000a81548173ffffffffffffffffffffffffffffffffffffffff021916908373ffffffffffffffffffffffffffffffffffffffff160217905550565b6000600b60009054906101000a900473ffffffffffffffffffffffffffffffffffffffff16905090565b606060078054600181600116156101000203166002900480601f016020809104026020016040519081016040528092919081815260200182805460018160011615610100020316600290048015611cf35780601f10611cc857610100808354040283529160200191611cf3565b820191906000526020600020905b815481529060010190602001808311611cd657829003601f168201915b5050505050905090565b600a8181548110611d0d57600080fd5b9060005260206000209060020201600091509050806000018054600181600116156101000203166002900480601f016020809104026020016040519081016040528092919081815260200182805460018160011615610100020316600290048015611db95780601f10611d8e57610100808354040283529160200191611db9565b820191906000526020600020905b815481529060010190602001808311611d9c57829003601f168201915b5050505050908060010154905082565b611dd1612b14565b73ffffffffffffffffffffffffffffffffffffffff168273ffffffffffffffffffffffffffffffffffffffff161415611e72576040517f08c379a00000000000000000000000000000000000000000000000000000000081526004018080602001828103825260198152602001807f4552433732313a20617070726f766520746f2063616c6c65720000000000000081525060200191505060405180910390fd5b8060056000611e7f612b14565b73ffffffffffffffffffffffffffffffffffffffff1673ffffffffffffffffffffffffffffffffffffffff16815260200190815260200160002060008473ffffffffffffffffffffffffffffffffffffffff1673ffffffffffffffffffffffffffffffffffffffff16815260200190815260200160002060006101000a81548160ff0219169083151502179055508173ffffffffffffffffffffffffffffffffffffffff16611f2c612b14565b73ffffffffffffffffffffffffffffffffffffffff167f17307eab39ab6107e8899845ad3d59bd9653f200f220920489ca2b5937696c318360405180821515815260200191505060405180910390a35050565b600c8181548110611f8f57600080fd5b90600052602060002090600602016000915090508060000160009054906101000a900473ffffffffffffffffffffffffffffffffffffffff1690806001015490806002015490806003018054600181600116156101000203166002900480601f01602080910402602001604051908101604052809291908181526020018280546001816001161561010002031660029004801561206d5780601f106120425761010080835404028352916020019161206d565b820191906000526020600020905b81548152906001019060200180831161205057829003601f168201915b5050505050908060040154908060050160009054906101000a900460ff16908060050160019054906101000a900460ff16905087565b6120b46120ae612b14565b83612bea565b612109576040517f08c379a0000000000000000000000000000000000000000000000000000000008152600401808060200182810382526031815260200180613d396031913960400191505060405180910390fd5b61211584848484612ebe565b50505050565b606061212682612af7565b61217b576040517f08c379a000000000000000000000000000000000000000000000000000000000815260040180806020018281038252602f815260200180613ce9602f913960400191505060405180910390fd5b6000600860008481526020019081526020016000208054600181600116156101000203166002900480601f0160208091040260200160405190810160405280929190818152602001828054600181600116156101000203166002900480156122245780601f106121f957610100808354040283529160200191612224565b820191906000526020600020905b81548152906001019060200180831161220757829003601f168201915b50505050509050600061223561194a565b905060008151141561224b5781925050506123e7565b60008251111561231c5780826040516020018083805190602001908083835b6020831061228d578051825260208201915060208101905060208303925061226a565b6001836020036101000a03801982511681845116808217855250505050505090500182805190602001908083835b602083106122de57805182526020820191506020810190506020830392506122bb565b6001836020036101000a03801982511681845116808217855250505050505090500192505050604051602081830303815290604052925050506123e7565b8061232685612f30565b6040516020018083805190602001908083835b6020831061235c5780518252602082019150602081019050602083039250612339565b6001836020036101000a03801982511681845116808217855250505050505090500182805190602001908083835b602083106123ad578051825260208201915060208101905060208303925061238a565b6001836020036101000a03801982511681845116808217855250505050505090500192505050604051602081830303815290604052925050505b919050565b6000600560008473ffffffffffffffffffffffffffffffffffffffff1673ffffffffffffffffffffffffffffffffffffffff16815260200190815260200160002060008373ffffffffffffffffffffffffffffffffffffffff1673ffffffffffffffffffffffffffffffffffffffff16815260200190815260200160002060009054906101000a900460ff16905092915050565b612488612b14565b73ffffffffffffffffffffffffffffffffffffffff166124a6611c31565b73ffffffffffffffffffffffffffffffffffffffff161461252f576040517f08c379a00000000000000000000000000000000000000000000000000000000081526004018080602001828103825260208152602001807f4f776e61626c653a2063616c6c6572206973206e6f7420746865206f776e657281525060200191505060405180910390fd5b600073ffffffffffffffffffffffffffffffffffffffff168173ffffffffffffffffffffffffffffffffffffffff1614156125b5576040517f08c379a0000000000000000000000000000000000000000000000000000000008152600401808060200182810382526026815260200180613b4b6026913960400191505060405180910390fd5b8073ffffffffffffffffffffffffffffffffffffffff16600b60009054906101000a900473ffffffffffffffffffffffffffffffffffffffff1673ffffffffffffffffffffffffffffffffffffffff167f8be0079c531659141344cd1fd0a4f28419497f9722a3daafe3b4186f6b6457e060405160405180910390a380600b60006101000a81548173ffffffffffffffffffffffffffffffffffffffff021916908373ffffffffffffffffffffffffffffffffffffffff16021790555050565b8173ffffffffffffffffffffffffffffffffffffffff166108fc829081150290604051600060405180830381858888f193505050501580156126bb573d6000803e3d6000fd5b505050565b600073ffffffffffffffffffffffffffffffffffffffff168273ffffffffffffffffffffffffffffffffffffffff161415612763576040517f08c379a00000000000000000000000000000000000000000000000000000000081526004018080602001828103825260208152602001807f4552433732313a206d696e7420746f20746865207a65726f206164647265737381525060200191505060405180910390fd5b61276c81612af7565b156127df576040517f08c379a000000000000000000000000000000000000000000000000000000000815260040180806020018281038252601c8152602001807f4552433732313a20746f6b656e20616c7265616479206d696e7465640000000081525060200191505060405180910390fd5b6127eb60008383613077565b61283c81600160008573ffffffffffffffffffffffffffffffffffffffff1673ffffffffffffffffffffffffffffffffffffffff168152602001908152602001600020612e7090919063ffffffff16565b506128538183600261307c9092919063ffffffff16565b50808273ffffffffffffffffffffffffffffffffffffffff16600073ffffffffffffffffffffffffffffffffffffffff167fddf252ad1be2c89b69c2b068fc378daa952ba7f163c4a11628f55a4df523b3ef60405160405180910390a45050565b8273ffffffffffffffffffffffffffffffffffffffff166128d482611913565b73ffffffffffffffffffffffffffffffffffffffff1614612940576040517f08c379a0000000000000000000000000000000000000000000000000000000008152600401808060200182810382526029815260200180613cc06029913960400191505060405180910390fd5b600073ffffffffffffffffffffffffffffffffffffffff168273ffffffffffffffffffffffffffffffffffffffff1614156129c6576040517f08c379a0000000000000000000000000000000000000000000000000000000008152600401808060200182810382526024815260200180613b716024913960400191505060405180910390fd5b6129d1838383613077565b6129dc600082612b1c565b612a2d81600160008673ffffffffffffffffffffffffffffffffffffffff1673ffffffffffffffffffffffffffffffffffffffff1681526020019081526020016000206130b190919063ffffffff16565b50612a7f81600160008573ffffffffffffffffffffffffffffffffffffffff1673ffffffffffffffffffffffffffffffffffffffff168152602001908152602001600020612e7090919063ffffffff16565b50612a968183600261307c9092919063ffffffff16565b50808273ffffffffffffffffffffffffffffffffffffffff168473ffffffffffffffffffffffffffffffffffffffff167fddf252ad1be2c89b69c2b068fc378daa952ba7f163c4a11628f55a4df523b3ef60405160405180910390a4505050565b6000612b0d8260026130cb90919063ffffffff16565b9050919050565b600033905090565b816004600083815260200190815260200160002060006101000a81548173ffffffffffffffffffffffffffffffffffffffff021916908373ffffffffffffffffffffffffffffffffffffffff160217905550808273ffffffffffffffffffffffffffffffffffffffff16612b8f83611913565b73ffffffffffffffffffffffffffffffffffffffff167f8c5be1e5ebec7d5bd14f71427d1e84f3dd0314c0f7b2291e5b200ac8c7c3b92560405160405180910390a45050565b6000612be3826000016130e5565b9050919050565b6000612bf582612af7565b612c4a576040517f08c379a000000000000000000000000000000000000000000000000000000000815260040180806020018281038252602c815260200180613bbb602c913960400191505060405180910390fd5b6000612c5583611913565b90508073ffffffffffffffffffffffffffffffffffffffff168473ffffffffffffffffffffffffffffffffffffffff161480612cc457508373ffffffffffffffffffffffffffffffffffffffff16612cac84611205565b73ffffffffffffffffffffffffffffffffffffffff16145b80612cd55750612cd481856123ec565b5b91505092915050565b6000600c8381548110612ced57fe5b906000526020600020906006020190508060010154821015612d0e57600080fd5b60008160000160009054906101000a900473ffffffffffffffffffffffffffffffffffffffff16905060008260010154905060008360040154905060018460050160016101000a81548160ff02191690831515021790555060018460050160006101000a81548160ff0219169083151502179055506000851115612db357612d968383612675565b600082860390506000811115612db157612db03382612675565b5b505b803373ffffffffffffffffffffffffffffffffffffffff168473ffffffffffffffffffffffffffffffffffffffff167f09e188971dbdbef2aee7a6707aa7640ddbc064491d979f7b4d02b12e877e71b1896000604051808381526020018281526020019250505060405180910390a4505050505050565b6000612e3983600001836130f6565b60001c905092915050565b600080600080612e578660000186613179565b915091508160001c8160001c9350935050509250929050565b6000612e82836000018360001b613212565b905092915050565b6000612e9d846000018460001b84613282565b60001c90509392505050565b6000612eb782600001613378565b9050919050565b612ec98484846128b4565b612ed584848484613389565b612f2a576040517f08c379a0000000000000000000000000000000000000000000000000000000008152600401808060200182810382526032815260200180613b196032913960400191505060405180910390fd5b50505050565b60606000821415612f78576040518060400160405280600181526020017f30000000000000000000000000000000000000000000000000000000000000008152509050613072565b600082905060005b60008214612fa2578080600101915050600a8281612f9a57fe5b049150612f80565b60008167ffffffffffffffff81118015612fbb57600080fd5b506040519080825280601f01601f191660200182016040528015612fee5781602001600182028036833780820191505090505b50905060006001830390508593505b6000841461306a57600a848161300f57fe5b0660300160f81b8282806001900393508151811061302957fe5b60200101907effffffffffffffffffffffffffffffffffffffffffffffffffffffffffffff1916908160001a905350600a848161306257fe5b049350612ffd565b819450505050505b919050565b505050565b60006130a8846000018460001b8473ffffffffffffffffffffffffffffffffffffffff1660001b6135a2565b90509392505050565b60006130c3836000018360001b61367e565b905092915050565b60006130dd836000018360001b613766565b905092915050565b600081600001805490509050919050565b600081836000018054905011613157576040517f08c379a0000000000000000000000000000000000000000000000000000000008152600401808060200182810382526022815260200180613af76022913960400191505060405180910390fd5b82600001828154811061316657fe5b9060005260206000200154905092915050565b600080828460000180549050116131db576040517f08c379a0000000000000000000000000000000000000000000000000000000008152600401808060200182810382526022815260200180613c726022913960400191505060405180910390fd5b60008460000184815481106131ec57fe5b906000526020600020906002020190508060000154816001015492509250509250929050565b600061321e8383613789565b61327757826000018290806001815401808255809150506001900390600052602060002001600090919091909150558260000180549050836001016000848152602001908152602001600020819055506001905061327c565b600090505b92915050565b60008084600101600085815260200190815260200160002054905060008114158390613349576040517f08c379a00000000000000000000000000000000000000000000000000000000081526004018080602001828103825283818151815260200191508051906020019080838360005b8381101561330e5780820151818401526020810190506132f3565b50505050905090810190601f16801561333b5780820380516001836020036101000a031916815260200191505b509250505060405180910390fd5b5084600001600182038154811061335c57fe5b9060005260206000209060020201600101549150509392505050565b600081600001805490509050919050565b60006133aa8473ffffffffffffffffffffffffffffffffffffffff166137ac565b6133b7576001905061359a565b600061352163150b7a0260e01b6133cc612b14565b888787604051602401808573ffffffffffffffffffffffffffffffffffffffff1681526020018473ffffffffffffffffffffffffffffffffffffffff16815260200183815260200180602001828103825283818151815260200191508051906020019080838360005b83811015613450578082015181840152602081019050613435565b50505050905090810190601f16801561347d5780820380516001836020036101000a031916815260200191505b5095505050505050604051602081830303815290604052907bffffffffffffffffffffffffffffffffffffffffffffffffffffffff19166020820180517bffffffffffffffffffffffffffffffffffffffffffffffffffffffff8381831617835250505050604051806060016040528060328152602001613b19603291398773ffffffffffffffffffffffffffffffffffffffff166137bf9092919063ffffffff16565b9050600081806020019051602081101561353a57600080fd5b8101908080519060200190929190505050905063150b7a0260e01b7bffffffffffffffffffffffffffffffffffffffffffffffffffffffff1916817bffffffffffffffffffffffffffffffffffffffffffffffffffffffff191614925050505b949350505050565b600080846001016000858152602001908152602001600020549050600081141561364957846000016040518060400160405280868152602001858152509080600181540180825580915050600190039060005260206000209060020201600090919091909150600082015181600001556020820151816001015550508460000180549050856001016000868152602001908152602001600020819055506001915050613677565b8285600001600183038154811061365c57fe5b90600052602060002090600202016001018190555060009150505b9392505050565b6000808360010160008481526020019081526020016000205490506000811461375a57600060018203905060006001866000018054905003905060008660000182815481106136c957fe5b90600052602060002001549050808760000184815481106136e657fe5b906000526020600020018190555060018301876001016000838152602001908152602001600020819055508660000180548061371e57fe5b60019003818190600052602060002001600090559055866001016000878152602001908152602001600020600090556001945050505050613760565b60009150505b92915050565b600080836001016000848152602001908152602001600020541415905092915050565b600080836001016000848152602001908152602001600020541415905092915050565b600080823b905060008111915050919050565b60606137ce84846000856137d7565b90509392505050565b606082471015613832576040517f08c379a0000000000000000000000000000000000000000000000000000000008152600401808060200182810382526026815260200180613b956026913960400191505060405180910390fd5b61383b856137ac565b6138ad576040517f08c379a000000000000000000000000000000000000000000000000000000000815260040180806020018281038252601d8152602001807f416464726573733a2063616c6c20746f206e6f6e2d636f6e747261637400000081525060200191505060405180910390fd5b6000808673ffffffffffffffffffffffffffffffffffffffff1685876040518082805190602001908083835b602083106138fc57805182526020820191506020810190506020830392506138d9565b6001836020036101000a03801982511681845116808217855250505050505090500191505060006040518083038185875af1925050503d806000811461395e576040519150601f19603f3d011682016040523d82523d6000602084013e613963565b606091505b509150915061397382828661397f565b92505050949350505050565b6060831561398f57829050613a44565b6000835111156139a25782518084602001fd5b816040517f08c379a00000000000000000000000000000000000000000000000000000000081526004018080602001828103825283818151815260200191508051906020019080838360005b83811015613a095780820151818401526020810190506139ee565b50505050905090810190601f168015613a365780820380516001836020036101000a031916815260200191505b509250505060405180910390fd5b9392505050565b828054600181600116156101000203166002900490600052602060002090601f016020900481019282613a815760008555613ac8565b82601f10613a9a57805160ff1916838001178555613ac8565b82800160010185558215613ac8579182015b82811115613ac7578251825591602001919060010190613aac565b5b509050613ad59190613ad9565b5090565b5b80821115613af2576000816000905550600101613ada565b509056fe456e756d657261626c655365743a20696e646578206f7574206f6620626f756e64734552433732313a207472616e7366657220746f206e6f6e20455243373231526563656976657220696d706c656d656e7465724f776e61626c653a206e6577206f776e657220697320746865207a65726f20616464726573734552433732313a207472616e7366657220746f20746865207a65726f2061646472657373416464726573733a20696e73756666696369656e742062616c616e636520666f722063616c6c4552433732313a206f70657261746f7220717565727920666f72206e6f6e6578697374656e7420746f6b656e4552433732313a20617070726f76652063616c6c6572206973206e6f74206f776e6572206e6f7220617070726f76656420666f7220616c6c4552433732313a2062616c616e636520717565727920666f7220746865207a65726f20616464726573734552433732313a206f776e657220717565727920666f72206e6f6e6578697374656e7420746f6b656e456e756d657261626c654d61703a20696e646578206f7574206f6620626f756e64734552433732313a20617070726f76656420717565727920666f72206e6f6e6578697374656e7420746f6b656e4552433732313a207472616e73666572206f6620746f6b656e2074686174206973206e6f74206f776e4552433732314d657461646174613a2055524920717565727920666f72206e6f6e6578697374656e7420746f6b656e4552433732313a20617070726f76616c20746f2063757272656e74206f776e65724552433732313a207472616e736665722063616c6c6572206973206e6f74206f776e6572206e6f7220617070726f766564a26469706673582212206fb59597e554e676e720ace60536de81e4df15c6641d5eecf5a2632df3a6bcc464736f6c63430007060033",
  "immutableReferences": {},
  "source": "// SPDX-License-Identifier: MIT\r\n\r\npragma solidity >=0.6.0 <0.8.0;\r\n\r\nimport './MomentFactory.sol';\r\nimport \"@openzeppelin/contracts/utils/EnumerableSet.sol\";\r\nimport \"@openzeppelin/contracts/access/Ownable.sol\";\r\n\r\ncontract MomentMarket is MomentFactory, Ownable {\r\n\tusing EnumerableSet for EnumerableSet.UintSet;\r\n\r\n\tconstructor() {}\r\n\r\n\tevent OrderCreated(\r\n\t\taddress indexed _seller,\r\n\t\tuint256 indexed _tokenId,\r\n\t\tuint256 _orderId\r\n\t);\r\n\r\n\tevent OrderClosed(\r\n\t\taddress indexed _seller,\r\n\t\tuint256 indexed _tokenId,\r\n\t\tuint256 _orderId\r\n\t);\r\n\r\n\tevent OrderSuccessful(\r\n\t\taddress indexed _seller,\r\n\t\taddress indexed _buyer,\r\n\t\tuint256 indexed _tokenId,\r\n\t\tuint256 _orderId,\r\n\t\tuint256 _fee\r\n\t);\r\n\r\n\tstruct Order {\r\n\t\taddress seller;\r\n\t\tuint256 price;\r\n\t\tuint256 createdAt;\r\n\t\tstring currency;\r\n\t\tuint tokenId;\r\n\t\tbool successful;\r\n\t\tbool closed;\r\n\t}\r\n\r\n\tOrder[] public orders;\r\n\r\n\tmapping (uint256 => address) private _orderToOwner;\r\n\tmapping (address => EnumerableSet.UintSet) private _ownerOrders;\r\n\r\n\tmodifier onlyOwnerOfOrder(uint _orderId) {\r\n\t\trequire(msg.sender == address(0) && msg.sender == _orderToOwner[_orderId]);\r\n\t\t_;\r\n\t}\r\n\tmodifier onlyOrderIsOpen(uint _orderId) {\r\n\t\trequire(orders[_orderId].createdAt > 0 && orders[_orderId].closed == false);\r\n\t\t_;\r\n\t}\r\n\r\n\tfunction createOrder(\r\n\t\tuint256 _tokenId, \r\n\t\tuint256 _price, \r\n\t\tstring memory _currency\r\n\t) \r\n\t\texternal \r\n\t\tonlyOwnerOf(_tokenId) \r\n\t{\r\n\t\taddress _seller = msg.sender;\r\n\t\tOrder memory _order = Order(\r\n\t\t\t_seller,\r\n\t\t\t_price,\r\n\t\t\tblock.timestamp,\r\n\t\t\t_currency,\r\n\t\t\t_tokenId,\r\n\t\t\tfalse,\r\n\t\t\tfalse\r\n\t\t);\r\n\r\n\t\torders.push(_order);\r\n\t\tuint _id = orders.length - 1;\r\n\r\n\t\t_orderToOwner[_id] = _seller;\r\n\t\t_ownerOrders[_seller].add(_id);\r\n\r\n\t\t_transfer(_seller, address(this), _tokenId);\r\n\t\t\r\n\t\tOrderCreated(\r\n\t\t\t_seller,\r\n\t\t\t_tokenId,\r\n\t\t\t_id\r\n\t\t);\r\n  \t}\r\n\r\n\tfunction closeOrder(\r\n\t\tuint256 _orderId\r\n\t)\r\n\t\texternal\r\n\t\tonlyOwnerOfOrder(_orderId)\r\n\t\tonlyOrderIsOpen(_orderId)\r\n\t{\r\n\t\tOrder storage _order = orders[_orderId];\r\n\t\t_order.closed = true;\r\n\r\n\t\t_transfer(address(this), msg.sender, _order.tokenId);\r\n\r\n\t\tOrderClosed(\r\n\t\t\tmsg.sender,\r\n\t\t\t_order.tokenId,\r\n\t\t\t_orderId\r\n\t\t);\r\n\t}\r\n\r\n\tfunction byeOrder(\r\n\t\tuint256 _orderId\r\n\t)\r\n\t\texternal\r\n\t\tpayable\r\n\t\tonlyOrderIsOpen(_orderId)\r\n\t{\r\n\t\t_byeOrder(_orderId, msg.value);\r\n\t\t_transfer(address(this), msg.sender, orders[_orderId].tokenId);\r\n\t}\r\n\r\n\tfunction _byeOrder(\r\n\t\tuint256 _orderId,\r\n\t\tuint256 _amount\r\n\t)\r\n\t\tinternal\r\n\t{\r\n\t\tOrder storage _order = orders[_orderId];\r\n\t\trequire(_amount >= _order.price);\r\n\r\n\t\taddress _seller = _order.seller;\r\n\t\tuint256 _price = _order.price;\r\n\t\tuint256 _tokenId = _order.tokenId;\r\n\r\n\t\t// _removeOrder(_orderId);\r\n\r\n\t\t_order.closed = true;\r\n\t\t_order.successful = true;\r\n\r\n\r\n\t\tif (_amount > 0) {\r\n\t\t\t// We'll be able to add fee\r\n\t\t\ttransferMoney(_seller, _price);\r\n\r\n\t\t\tuint256 _difference = _amount - _price;\r\n\t\t\tif (_difference > 0) {\r\n\t\t\t\ttransferMoney(msg.sender, _difference);\r\n\t\t\t}\r\n\t\t}\r\n\r\n\t\tOrderSuccessful(\r\n\t\t\t_seller,\r\n\t\t\tmsg.sender,\r\n\t\t\t_tokenId,\r\n\t\t\t_orderId,\r\n\t\t\t0\r\n\t\t);\r\n\t}\r\n\r\n\tfunction _removeOrder(uint256 _orderId) internal {\r\n\t\tdelete orders[_orderId];\r\n\t\taddress owner = _orderToOwner[_orderId];\r\n\t\t_ownerOrders[owner].remove(_orderId);\r\n\t\tdelete _orderToOwner[_orderId];\r\n\t}\r\n\r\n\tfunction transferMoney(address _to, uint256 _value) public {\r\n\t\taddress(uint160(_to)).transfer(_value);\r\n\t\treturn;\r\n\t}\r\n\r\n\t// Temp\r\n\tfunction kill() public onlyOwner {\r\n\t\tselfdestruct(address(uint160(owner())));\r\n\t}\r\n}",
  "sourcePath": "D:/workspace/node_project/moment/contracts/MomentMarket.sol",
  "compiler": {
    "name": "solc",
    "version": "0.7.6+commit.7338295f.Emscripten.clang"
  },
  "schemaVersion": "3.3.3",
  "updatedAt": "2021-03-26T08:59:41.217Z",
  "devdoc": {
    "kind": "dev",
    "methods": {
      "approve(address,uint256)": {
        "details": "See {IERC721-approve}."
      },
      "balanceOf(address)": {
        "details": "See {IERC721-balanceOf}."
      },
      "baseURI()": {
        "details": "Returns the base URI set via {_setBaseURI}. This will be automatically added as a prefix in {tokenURI} to each token's URI, or to the token ID if no specific URI is set for that token ID."
      },
      "getApproved(uint256)": {
        "details": "See {IERC721-getApproved}."
      },
      "isApprovedForAll(address,address)": {
        "details": "See {IERC721-isApprovedForAll}."
      },
      "name()": {
        "details": "See {IERC721Metadata-name}."
      },
      "owner()": {
        "details": "Returns the address of the current owner."
      },
      "ownerOf(uint256)": {
        "details": "See {IERC721-ownerOf}."
      },
      "renounceOwnership()": {
        "details": "Leaves the contract without owner. It will not be possible to call `onlyOwner` functions anymore. Can only be called by the current owner. NOTE: Renouncing ownership will leave the contract without an owner, thereby removing any functionality that is only available to the owner."
      },
      "safeTransferFrom(address,address,uint256)": {
        "details": "See {IERC721-safeTransferFrom}."
      },
      "safeTransferFrom(address,address,uint256,bytes)": {
        "details": "See {IERC721-safeTransferFrom}."
      },
      "setApprovalForAll(address,bool)": {
        "details": "See {IERC721-setApprovalForAll}."
      },
      "supportsInterface(bytes4)": {
        "details": "See {IERC165-supportsInterface}. Time complexity O(1), guaranteed to always use less than 30 000 gas."
      },
      "symbol()": {
        "details": "See {IERC721Metadata-symbol}."
      },
      "tokenByIndex(uint256)": {
        "details": "See {IERC721Enumerable-tokenByIndex}."
      },
      "tokenOfOwnerByIndex(address,uint256)": {
        "details": "See {IERC721Enumerable-tokenOfOwnerByIndex}."
      },
      "tokenURI(uint256)": {
        "details": "See {IERC721Metadata-tokenURI}."
      },
      "totalSupply()": {
        "details": "See {IERC721Enumerable-totalSupply}."
      },
      "transferFrom(address,address,uint256)": {
        "details": "See {IERC721-transferFrom}."
      },
      "transferOwnership(address)": {
        "details": "Transfers ownership of the contract to a new account (`newOwner`). Can only be called by the current owner."
      }
    },
    "version": 1
  },
  "userdoc": {
    "kind": "user",
    "methods": {},
    "version": 1
  }
}