{
  "contractName": "MomentFactory",
  "abi": [
    {
      "inputs": [],
      "stateMutability": "nonpayable",
      "type": "constructor"
    },
    {
      "anonymous": false,
      "inputs": [
        {
          "indexed": true,
          "internalType": "address",
          "name": "owner",
          "type": "address"
        },
        {
          "indexed": true,
          "internalType": "address",
          "name": "approved",
          "type": "address"
        },
        {
          "indexed": true,
          "internalType": "uint256",
          "name": "tokenId",
          "type": "uint256"
        }
      ],
      "name": "Approval",
      "type": "event"
    },
    {
      "anonymous": false,
      "inputs": [
        {
          "indexed": true,
          "internalType": "address",
          "name": "owner",
          "type": "address"
        },
        {
          "indexed": true,
          "internalType": "address",
          "name": "operator",
          "type": "address"
        },
        {
          "indexed": false,
          "internalType": "bool",
          "name": "approved",
          "type": "bool"
        }
      ],
      "name": "ApprovalForAll",
      "type": "event"
    },
    {
      "anonymous": false,
      "inputs": [
        {
          "indexed": true,
          "internalType": "address",
          "name": "from",
          "type": "address"
        },
        {
          "indexed": true,
          "internalType": "address",
          "name": "to",
          "type": "address"
        },
        {
          "indexed": true,
          "internalType": "uint256",
          "name": "tokenId",
          "type": "uint256"
        }
      ],
      "name": "Transfer",
      "type": "event"
    },
    {
      "inputs": [
        {
          "internalType": "address",
          "name": "to",
          "type": "address"
        },
        {
          "internalType": "uint256",
          "name": "tokenId",
          "type": "uint256"
        }
      ],
      "name": "approve",
      "outputs": [],
      "stateMutability": "nonpayable",
      "type": "function"
    },
    {
      "inputs": [
        {
          "internalType": "address",
          "name": "owner",
          "type": "address"
        }
      ],
      "name": "balanceOf",
      "outputs": [
        {
          "internalType": "uint256",
          "name": "",
          "type": "uint256"
        }
      ],
      "stateMutability": "view",
      "type": "function"
    },
    {
      "inputs": [
        {
          "internalType": "uint256",
          "name": "tokenId",
          "type": "uint256"
        }
      ],
      "name": "getApproved",
      "outputs": [
        {
          "internalType": "address",
          "name": "",
          "type": "address"
        }
      ],
      "stateMutability": "view",
      "type": "function"
    },
    {
      "inputs": [
        {
          "internalType": "address",
          "name": "owner",
          "type": "address"
        },
        {
          "internalType": "address",
          "name": "operator",
          "type": "address"
        }
      ],
      "name": "isApprovedForAll",
      "outputs": [
        {
          "internalType": "bool",
          "name": "",
          "type": "bool"
        }
      ],
      "stateMutability": "view",
      "type": "function"
    },
    {
      "inputs": [
        {
          "internalType": "uint256",
          "name": "",
          "type": "uint256"
        }
      ],
      "name": "moments",
      "outputs": [
        {
          "internalType": "string",
          "name": "url",
          "type": "string"
        },
        {
          "internalType": "string",
          "name": "meta_url",
          "type": "string"
        },
        {
          "internalType": "uint256",
          "name": "created_at",
          "type": "uint256"
        }
      ],
      "stateMutability": "view",
      "type": "function"
    },
    {
      "inputs": [],
      "name": "name",
      "outputs": [
        {
          "internalType": "string",
          "name": "",
          "type": "string"
        }
      ],
      "stateMutability": "view",
      "type": "function"
    },
    {
      "inputs": [
        {
          "internalType": "uint256",
          "name": "tokenId",
          "type": "uint256"
        }
      ],
      "name": "ownerOf",
      "outputs": [
        {
          "internalType": "address",
          "name": "",
          "type": "address"
        }
      ],
      "stateMutability": "view",
      "type": "function"
    },
    {
      "inputs": [
        {
          "internalType": "address",
          "name": "from",
          "type": "address"
        },
        {
          "internalType": "address",
          "name": "to",
          "type": "address"
        },
        {
          "internalType": "uint256",
          "name": "tokenId",
          "type": "uint256"
        }
      ],
      "name": "safeTransferFrom",
      "outputs": [],
      "stateMutability": "nonpayable",
      "type": "function"
    },
    {
      "inputs": [
        {
          "internalType": "address",
          "name": "from",
          "type": "address"
        },
        {
          "internalType": "address",
          "name": "to",
          "type": "address"
        },
        {
          "internalType": "uint256",
          "name": "tokenId",
          "type": "uint256"
        },
        {
          "internalType": "bytes",
          "name": "_data",
          "type": "bytes"
        }
      ],
      "name": "safeTransferFrom",
      "outputs": [],
      "stateMutability": "nonpayable",
      "type": "function"
    },
    {
      "inputs": [
        {
          "internalType": "address",
          "name": "operator",
          "type": "address"
        },
        {
          "internalType": "bool",
          "name": "approved",
          "type": "bool"
        }
      ],
      "name": "setApprovalForAll",
      "outputs": [],
      "stateMutability": "nonpayable",
      "type": "function"
    },
    {
      "inputs": [
        {
          "internalType": "bytes4",
          "name": "interfaceId",
          "type": "bytes4"
        }
      ],
      "name": "supportsInterface",
      "outputs": [
        {
          "internalType": "bool",
          "name": "",
          "type": "bool"
        }
      ],
      "stateMutability": "view",
      "type": "function"
    },
    {
      "inputs": [],
      "name": "symbol",
      "outputs": [
        {
          "internalType": "string",
          "name": "",
          "type": "string"
        }
      ],
      "stateMutability": "view",
      "type": "function"
    },
    {
      "inputs": [
        {
          "internalType": "uint256",
          "name": "tokenId",
          "type": "uint256"
        }
      ],
      "name": "tokenURI",
      "outputs": [
        {
          "internalType": "string",
          "name": "",
          "type": "string"
        }
      ],
      "stateMutability": "view",
      "type": "function"
    },
    {
      "inputs": [
        {
          "internalType": "address",
          "name": "from",
          "type": "address"
        },
        {
          "internalType": "address",
          "name": "to",
          "type": "address"
        },
        {
          "internalType": "uint256",
          "name": "tokenId",
          "type": "uint256"
        }
      ],
      "name": "transferFrom",
      "outputs": [],
      "stateMutability": "nonpayable",
      "type": "function"
    },
    {
      "inputs": [
        {
          "internalType": "string",
          "name": "_url",
          "type": "string"
        },
        {
          "internalType": "string",
          "name": "_meta_url",
          "type": "string"
        }
      ],
      "name": "createMoment",
      "outputs": [],
      "stateMutability": "nonpayable",
      "type": "function"
    },
    {
      "inputs": [
        {
          "internalType": "address",
          "name": "_owner",
          "type": "address"
        }
      ],
      "name": "tokensOfOwner",
      "outputs": [
        {
          "internalType": "uint256[]",
          "name": "ownerTokens",
          "type": "uint256[]"
        }
      ],
      "stateMutability": "view",
      "type": "function"
    }
  ],
  "bytecode": "0x60806040523480156200001157600080fd5b506040518060400160405280600681526020017f4d6f6d656e7400000000000000000000000000000000000000000000000000008152506040518060400160405280600381526020017f4d4d540000000000000000000000000000000000000000000000000000000000815250816000908051906020019062000096929190620000b8565b508060019080519060200190620000af929190620000b8565b505050620001cd565b828054620000c69062000168565b90600052602060002090601f016020900481019282620000ea576000855562000136565b82601f106200010557805160ff191683800117855562000136565b8280016001018555821562000136579182015b828111156200013557825182559160200191906001019062000118565b5b50905062000145919062000149565b5090565b5b80821115620001645760008160009055506001016200014a565b5090565b600060028204905060018216806200018157607f821691505b602082108114156200019857620001976200019e565b5b50919050565b7f4e487b7100000000000000000000000000000000000000000000000000000000600052602260045260246000fd5b612d9880620001dd6000396000f3fe608060405234801561001057600080fd5b50600436106101005760003560e01c806370a0823111610097578063a22cb46511610066578063a22cb465146102d3578063b88d4fde146102ef578063c87b56dd1461030b578063e985e9c51461033b57610100565b806370a08231146102235780638462151c1461025357806395d89b41146102835780639c4ff9c7146102a157610100565b806323b872dd116100d357806323b872dd1461019f57806342842e0e146101bb57806353c3a0ba146101d75780636352211e146101f357610100565b806301ffc9a71461010557806306fdde0314610135578063081812fc14610153578063095ea7b314610183575b600080fd5b61011f600480360381019061011a9190611dd8565b61036b565b60405161012c91906122ab565b60405180910390f35b61013d61044d565b60405161014a91906122c6565b60405180910390f35b61016d60048036038101906101689190611e96565b6104df565b60405161017a9190612222565b60405180910390f35b61019d60048036038101906101989190611d9c565b610564565b005b6101b960048036038101906101b49190611c96565b61067c565b005b6101d560048036038101906101d09190611c96565b6106dc565b005b6101f160048036038101906101ec9190611e2a565b6106fc565b005b61020d60048036038101906102089190611e96565b6107ad565b60405161021a9190612222565b60405180910390f35b61023d60048036038101906102389190611c31565b61085f565b60405161024a91906124ed565b60405180910390f35b61026d60048036038101906102689190611c31565b610917565b60405161027a9190612289565b60405180910390f35b61028b610aed565b60405161029891906122c6565b60405180910390f35b6102bb60048036038101906102b69190611e96565b610b7f565b6040516102ca939291906122e8565b60405180910390f35b6102ed60048036038101906102e89190611d60565b610cc9565b005b61030960048036038101906103049190611ce5565b610e4a565b005b61032560048036038101906103209190611e96565b610eac565b60405161033291906122c6565b60405180910390f35b61035560048036038101906103509190611c5a565b610f53565b60405161036291906122ab565b60405180910390f35b60007f80ac58cd000000000000000000000000000000000000000000000000000000007bffffffffffffffffffffffffffffffffffffffffffffffffffffffff1916827bffffffffffffffffffffffffffffffffffffffffffffffffffffffff1916148061043657507f5b5e139f000000000000000000000000000000000000000000000000000000007bffffffffffffffffffffffffffffffffffffffffffffffffffffffff1916827bffffffffffffffffffffffffffffffffffffffffffffffffffffffff1916145b80610446575061044582610fe7565b5b9050919050565b60606000805461045c9061277c565b80601f01602080910402602001604051908101604052809291908181526020018280546104889061277c565b80156104d55780601f106104aa576101008083540402835291602001916104d5565b820191906000526020600020905b8154815290600101906020018083116104b857829003601f168201915b5050505050905090565b60006104ea82611051565b610529576040517f08c379a00000000000000000000000000000000000000000000000000000000081526004016105209061244d565b60405180910390fd5b6004600083815260200190815260200160002060009054906101000a900473ffffffffffffffffffffffffffffffffffffffff169050919050565b600061056f826107ad565b90508073ffffffffffffffffffffffffffffffffffffffff168373ffffffffffffffffffffffffffffffffffffffff1614156105e0576040517f08c379a00000000000000000000000000000000000000000000000000000000081526004016105d7906124ad565b60405180910390fd5b8073ffffffffffffffffffffffffffffffffffffffff166105ff6110bd565b73ffffffffffffffffffffffffffffffffffffffff16148061062e575061062d816106286110bd565b610f53565b5b61066d576040517f08c379a0000000000000000000000000000000000000000000000000000000008152600401610664906123cd565b60405180910390fd5b61067783836110c5565b505050565b61068d6106876110bd565b8261117e565b6106cc576040517f08c379a00000000000000000000000000000000000000000000000000000000081526004016106c3906124cd565b60405180910390fd5b6106d783838361125c565b505050565b6106f783838360405180602001604052806000815250610e4a565b505050565b60066040518060600160405280848152602001838152602001428152509080600181540180825580915050600190039060005260206000209060030201600090919091909150600082015181600001908051906020019061075e929190611a55565b50602082015181600101908051906020019061077b929190611a55565b506040820151816002015550506000600160068054905061079c9190612692565b90506107a833826114b8565b505050565b6000806002600084815260200190815260200160002060009054906101000a900473ffffffffffffffffffffffffffffffffffffffff169050600073ffffffffffffffffffffffffffffffffffffffff168173ffffffffffffffffffffffffffffffffffffffff161415610856576040517f08c379a000000000000000000000000000000000000000000000000000000000815260040161084d9061240d565b60405180910390fd5b80915050919050565b60008073ffffffffffffffffffffffffffffffffffffffff168273ffffffffffffffffffffffffffffffffffffffff1614156108d0576040517f08c379a00000000000000000000000000000000000000000000000000000000081526004016108c7906123ed565b60405180910390fd5b600360008373ffffffffffffffffffffffffffffffffffffffff1673ffffffffffffffffffffffffffffffffffffffff168152602001908152602001600020549050919050565b606060006109248361085f565b905060008114156109a757600067ffffffffffffffff811115610970577f4e487b7100000000000000000000000000000000000000000000000000000000600052604160045260246000fd5b60405190808252806020026020018201604052801561099e5781602001602082028036833780820191505090505b50915050610ae8565b60008167ffffffffffffffff8111156109e9577f4e487b7100000000000000000000000000000000000000000000000000000000600052604160045260246000fd5b604051908082528060200260200182016040528015610a175781602001602082028036833780820191505090505b50905060006001600680549050610a2e9190612692565b90506000805b828111610adf578673ffffffffffffffffffffffffffffffffffffffff16610a5b826107ad565b73ffffffffffffffffffffffffffffffffffffffff161415610acc5780848381518110610ab1577f4e487b7100000000000000000000000000000000000000000000000000000000600052603260045260246000fd5b6020026020010181815250508180610ac8906127df565b9250505b8080610ad7906127df565b915050610a34565b83955050505050505b919050565b606060018054610afc9061277c565b80601f0160208091040260200160405190810160405280929190818152602001828054610b289061277c565b8015610b755780601f10610b4a57610100808354040283529160200191610b75565b820191906000526020600020905b815481529060010190602001808311610b5857829003601f168201915b5050505050905090565b60068181548110610b8f57600080fd5b9060005260206000209060030201600091509050806000018054610bb29061277c565b80601f0160208091040260200160405190810160405280929190818152602001828054610bde9061277c565b8015610c2b5780601f10610c0057610100808354040283529160200191610c2b565b820191906000526020600020905b815481529060010190602001808311610c0e57829003601f168201915b505050505090806001018054610c409061277c565b80601f0160208091040260200160405190810160405280929190818152602001828054610c6c9061277c565b8015610cb95780601f10610c8e57610100808354040283529160200191610cb9565b820191906000526020600020905b815481529060010190602001808311610c9c57829003601f168201915b5050505050908060020154905083565b610cd16110bd565b73ffffffffffffffffffffffffffffffffffffffff168273ffffffffffffffffffffffffffffffffffffffff161415610d3f576040517f08c379a0000000000000000000000000000000000000000000000000000000008152600401610d369061238d565b60405180910390fd5b8060056000610d4c6110bd565b73ffffffffffffffffffffffffffffffffffffffff1673ffffffffffffffffffffffffffffffffffffffff16815260200190815260200160002060008473ffffffffffffffffffffffffffffffffffffffff1673ffffffffffffffffffffffffffffffffffffffff16815260200190815260200160002060006101000a81548160ff0219169083151502179055508173ffffffffffffffffffffffffffffffffffffffff16610df96110bd565b73ffffffffffffffffffffffffffffffffffffffff167f17307eab39ab6107e8899845ad3d59bd9653f200f220920489ca2b5937696c3183604051610e3e91906122ab565b60405180910390a35050565b610e5b610e556110bd565b8361117e565b610e9a576040517f08c379a0000000000000000000000000000000000000000000000000000000008152600401610e91906124cd565b60405180910390fd5b610ea684848484611686565b50505050565b6060610eb782611051565b610ef6576040517f08c379a0000000000000000000000000000000000000000000000000000000008152600401610eed9061248d565b60405180910390fd5b6000610f006116e2565b90506000815111610f205760405180602001604052806000815250610f4b565b80610f2a846116f9565b604051602001610f3b9291906121fe565b6040516020818303038152906040525b915050919050565b6000600560008473ffffffffffffffffffffffffffffffffffffffff1673ffffffffffffffffffffffffffffffffffffffff16815260200190815260200160002060008373ffffffffffffffffffffffffffffffffffffffff1673ffffffffffffffffffffffffffffffffffffffff16815260200190815260200160002060009054906101000a900460ff16905092915050565b60007f01ffc9a7000000000000000000000000000000000000000000000000000000007bffffffffffffffffffffffffffffffffffffffffffffffffffffffff1916827bffffffffffffffffffffffffffffffffffffffffffffffffffffffff1916149050919050565b60008073ffffffffffffffffffffffffffffffffffffffff166002600084815260200190815260200160002060009054906101000a900473ffffffffffffffffffffffffffffffffffffffff1673ffffffffffffffffffffffffffffffffffffffff1614159050919050565b600033905090565b816004600083815260200190815260200160002060006101000a81548173ffffffffffffffffffffffffffffffffffffffff021916908373ffffffffffffffffffffffffffffffffffffffff160217905550808273ffffffffffffffffffffffffffffffffffffffff16611138836107ad565b73ffffffffffffffffffffffffffffffffffffffff167f8c5be1e5ebec7d5bd14f71427d1e84f3dd0314c0f7b2291e5b200ac8c7c3b92560405160405180910390a45050565b600061118982611051565b6111c8576040517f08c379a00000000000000000000000000000000000000000000000000000000081526004016111bf906123ad565b60405180910390fd5b60006111d3836107ad565b90508073ffffffffffffffffffffffffffffffffffffffff168473ffffffffffffffffffffffffffffffffffffffff16148061124257508373ffffffffffffffffffffffffffffffffffffffff1661122a846104df565b73ffffffffffffffffffffffffffffffffffffffff16145b8061125357506112528185610f53565b5b91505092915050565b8273ffffffffffffffffffffffffffffffffffffffff1661127c826107ad565b73ffffffffffffffffffffffffffffffffffffffff16146112d2576040517f08c379a00000000000000000000000000000000000000000000000000000000081526004016112c99061246d565b60405180910390fd5b600073ffffffffffffffffffffffffffffffffffffffff168273ffffffffffffffffffffffffffffffffffffffff161415611342576040517f08c379a00000000000000000000000000000000000000000000000000000000081526004016113399061236d565b60405180910390fd5b61134d8383836118a6565b6113586000826110c5565b6001600360008573ffffffffffffffffffffffffffffffffffffffff1673ffffffffffffffffffffffffffffffffffffffff16815260200190815260200160002060008282546113a89190612692565b925050819055506001600360008473ffffffffffffffffffffffffffffffffffffffff1673ffffffffffffffffffffffffffffffffffffffff16815260200190815260200160002060008282546113ff919061260b565b92505081905550816002600083815260200190815260200160002060006101000a81548173ffffffffffffffffffffffffffffffffffffffff021916908373ffffffffffffffffffffffffffffffffffffffff160217905550808273ffffffffffffffffffffffffffffffffffffffff168473ffffffffffffffffffffffffffffffffffffffff167fddf252ad1be2c89b69c2b068fc378daa952ba7f163c4a11628f55a4df523b3ef60405160405180910390a4505050565b600073ffffffffffffffffffffffffffffffffffffffff168273ffffffffffffffffffffffffffffffffffffffff161415611528576040517f08c379a000000000000000000000000000000000000000000000000000000000815260040161151f9061242d565b60405180910390fd5b61153181611051565b15611571576040517f08c379a00000000000000000000000000000000000000000000000000000000081526004016115689061234d565b60405180910390fd5b61157d600083836118a6565b6001600360008473ffffffffffffffffffffffffffffffffffffffff1673ffffffffffffffffffffffffffffffffffffffff16815260200190815260200160002060008282546115cd919061260b565b92505081905550816002600083815260200190815260200160002060006101000a81548173ffffffffffffffffffffffffffffffffffffffff021916908373ffffffffffffffffffffffffffffffffffffffff160217905550808273ffffffffffffffffffffffffffffffffffffffff16600073ffffffffffffffffffffffffffffffffffffffff167fddf252ad1be2c89b69c2b068fc378daa952ba7f163c4a11628f55a4df523b3ef60405160405180910390a45050565b61169184848461125c565b61169d848484846118ab565b6116dc576040517f08c379a00000000000000000000000000000000000000000000000000000000081526004016116d39061232d565b60405180910390fd5b50505050565b606060405180602001604052806000815250905090565b60606000821415611741576040518060400160405280600181526020017f300000000000000000000000000000000000000000000000000000000000000081525090506118a1565b600082905060005b6000821461177357808061175c906127df565b915050600a8261176c9190612661565b9150611749565b60008167ffffffffffffffff8111156117b5577f4e487b7100000000000000000000000000000000000000000000000000000000600052604160045260246000fd5b6040519080825280601f01601f1916602001820160405280156117e75781602001600182028036833780820191505090505b5090505b6000851461189a576001826118009190612692565b9150600a8561180f9190612828565b603061181b919061260b565b60f81b818381518110611857577f4e487b7100000000000000000000000000000000000000000000000000000000600052603260045260246000fd5b60200101907effffffffffffffffffffffffffffffffffffffffffffffffffffffffffffff1916908160001a905350600a856118939190612661565b94506117eb565b8093505050505b919050565b505050565b60006118cc8473ffffffffffffffffffffffffffffffffffffffff16611a42565b15611a35578373ffffffffffffffffffffffffffffffffffffffff1663150b7a026118f56110bd565b8786866040518563ffffffff1660e01b8152600401611917949392919061223d565b602060405180830381600087803b15801561193157600080fd5b505af192505050801561196257506040513d601f19601f8201168201806040525081019061195f9190611e01565b60015b6119e5573d8060008114611992576040519150601f19603f3d011682016040523d82523d6000602084013e611997565b606091505b506000815114156119dd576040517f08c379a00000000000000000000000000000000000000000000000000000000081526004016119d49061232d565b60405180910390fd5b805181602001fd5b63150b7a0260e01b7bffffffffffffffffffffffffffffffffffffffffffffffffffffffff1916817bffffffffffffffffffffffffffffffffffffffffffffffffffffffff191614915050611a3a565b600190505b949350505050565b600080823b905060008111915050919050565b828054611a619061277c565b90600052602060002090601f016020900481019282611a835760008555611aca565b82601f10611a9c57805160ff1916838001178555611aca565b82800160010185558215611aca579182015b82811115611ac9578251825591602001919060010190611aae565b5b509050611ad79190611adb565b5090565b5b80821115611af4576000816000905550600101611adc565b5090565b6000611b0b611b068461252d565b612508565b905082815260208101848484011115611b2357600080fd5b611b2e84828561273a565b509392505050565b6000611b49611b448461255e565b612508565b905082815260208101848484011115611b6157600080fd5b611b6c84828561273a565b509392505050565b600081359050611b8381612d06565b92915050565b600081359050611b9881612d1d565b92915050565b600081359050611bad81612d34565b92915050565b600081519050611bc281612d34565b92915050565b600082601f830112611bd957600080fd5b8135611be9848260208601611af8565b91505092915050565b600082601f830112611c0357600080fd5b8135611c13848260208601611b36565b91505092915050565b600081359050611c2b81612d4b565b92915050565b600060208284031215611c4357600080fd5b6000611c5184828501611b74565b91505092915050565b60008060408385031215611c6d57600080fd5b6000611c7b85828601611b74565b9250506020611c8c85828601611b74565b9150509250929050565b600080600060608486031215611cab57600080fd5b6000611cb986828701611b74565b9350506020611cca86828701611b74565b9250506040611cdb86828701611c1c565b9150509250925092565b60008060008060808587031215611cfb57600080fd5b6000611d0987828801611b74565b9450506020611d1a87828801611b74565b9350506040611d2b87828801611c1c565b925050606085013567ffffffffffffffff811115611d4857600080fd5b611d5487828801611bc8565b91505092959194509250565b60008060408385031215611d7357600080fd5b6000611d8185828601611b74565b9250506020611d9285828601611b89565b9150509250929050565b60008060408385031215611daf57600080fd5b6000611dbd85828601611b74565b9250506020611dce85828601611c1c565b9150509250929050565b600060208284031215611dea57600080fd5b6000611df884828501611b9e565b91505092915050565b600060208284031215611e1357600080fd5b6000611e2184828501611bb3565b91505092915050565b60008060408385031215611e3d57600080fd5b600083013567ffffffffffffffff811115611e5757600080fd5b611e6385828601611bf2565b925050602083013567ffffffffffffffff811115611e8057600080fd5b611e8c85828601611bf2565b9150509250929050565b600060208284031215611ea857600080fd5b6000611eb684828501611c1c565b91505092915050565b6000611ecb83836121e0565b60208301905092915050565b611ee0816126c6565b82525050565b6000611ef18261259f565b611efb81856125cd565b9350611f068361258f565b8060005b83811015611f37578151611f1e8882611ebf565b9750611f29836125c0565b925050600181019050611f0a565b5085935050505092915050565b611f4d816126d8565b82525050565b6000611f5e826125aa565b611f6881856125de565b9350611f78818560208601612749565b611f8181612915565b840191505092915050565b6000611f97826125b5565b611fa181856125ef565b9350611fb1818560208601612749565b611fba81612915565b840191505092915050565b6000611fd0826125b5565b611fda8185612600565b9350611fea818560208601612749565b80840191505092915050565b60006120036032836125ef565b915061200e82612926565b604082019050919050565b6000612026601c836125ef565b915061203182612975565b602082019050919050565b60006120496024836125ef565b91506120548261299e565b604082019050919050565b600061206c6019836125ef565b9150612077826129ed565b602082019050919050565b600061208f602c836125ef565b915061209a82612a16565b604082019050919050565b60006120b26038836125ef565b91506120bd82612a65565b604082019050919050565b60006120d5602a836125ef565b91506120e082612ab4565b604082019050919050565b60006120f86029836125ef565b915061210382612b03565b604082019050919050565b600061211b6020836125ef565b915061212682612b52565b602082019050919050565b600061213e602c836125ef565b915061214982612b7b565b604082019050919050565b60006121616029836125ef565b915061216c82612bca565b604082019050919050565b6000612184602f836125ef565b915061218f82612c19565b604082019050919050565b60006121a76021836125ef565b91506121b282612c68565b604082019050919050565b60006121ca6031836125ef565b91506121d582612cb7565b604082019050919050565b6121e981612730565b82525050565b6121f881612730565b82525050565b600061220a8285611fc5565b91506122168284611fc5565b91508190509392505050565b60006020820190506122376000830184611ed7565b92915050565b60006080820190506122526000830187611ed7565b61225f6020830186611ed7565b61226c60408301856121ef565b818103606083015261227e8184611f53565b905095945050505050565b600060208201905081810360008301526122a38184611ee6565b905092915050565b60006020820190506122c06000830184611f44565b92915050565b600060208201905081810360008301526122e08184611f8c565b905092915050565b600060608201905081810360008301526123028186611f8c565b905081810360208301526123168185611f8c565b905061232560408301846121ef565b949350505050565b6000602082019050818103600083015261234681611ff6565b9050919050565b6000602082019050818103600083015261236681612019565b9050919050565b600060208201905081810360008301526123868161203c565b9050919050565b600060208201905081810360008301526123a68161205f565b9050919050565b600060208201905081810360008301526123c681612082565b9050919050565b600060208201905081810360008301526123e6816120a5565b9050919050565b60006020820190508181036000830152612406816120c8565b9050919050565b60006020820190508181036000830152612426816120eb565b9050919050565b600060208201905081810360008301526124468161210e565b9050919050565b6000602082019050818103600083015261246681612131565b9050919050565b6000602082019050818103600083015261248681612154565b9050919050565b600060208201905081810360008301526124a681612177565b9050919050565b600060208201905081810360008301526124c68161219a565b9050919050565b600060208201905081810360008301526124e6816121bd565b9050919050565b600060208201905061250260008301846121ef565b92915050565b6000612512612523565b905061251e82826127ae565b919050565b6000604051905090565b600067ffffffffffffffff821115612548576125476128e6565b5b61255182612915565b9050602081019050919050565b600067ffffffffffffffff821115612579576125786128e6565b5b61258282612915565b9050602081019050919050565b6000819050602082019050919050565b600081519050919050565b600081519050919050565b600081519050919050565b6000602082019050919050565b600082825260208201905092915050565b600082825260208201905092915050565b600082825260208201905092915050565b600081905092915050565b600061261682612730565b915061262183612730565b9250827fffffffffffffffffffffffffffffffffffffffffffffffffffffffffffffffff0382111561265657612655612859565b5b828201905092915050565b600061266c82612730565b915061267783612730565b92508261268757612686612888565b5b828204905092915050565b600061269d82612730565b91506126a883612730565b9250828210156126bb576126ba612859565b5b828203905092915050565b60006126d182612710565b9050919050565b60008115159050919050565b60007fffffffff0000000000000000000000000000000000000000000000000000000082169050919050565b600073ffffffffffffffffffffffffffffffffffffffff82169050919050565b6000819050919050565b82818337600083830152505050565b60005b8381101561276757808201518184015260208101905061274c565b83811115612776576000848401525b50505050565b6000600282049050600182168061279457607f821691505b602082108114156127a8576127a76128b7565b5b50919050565b6127b782612915565b810181811067ffffffffffffffff821117156127d6576127d56128e6565b5b80604052505050565b60006127ea82612730565b91507fffffffffffffffffffffffffffffffffffffffffffffffffffffffffffffffff82141561281d5761281c612859565b5b600182019050919050565b600061283382612730565b915061283e83612730565b92508261284e5761284d612888565b5b828206905092915050565b7f4e487b7100000000000000000000000000000000000000000000000000000000600052601160045260246000fd5b7f4e487b7100000000000000000000000000000000000000000000000000000000600052601260045260246000fd5b7f4e487b7100000000000000000000000000000000000000000000000000000000600052602260045260246000fd5b7f4e487b7100000000000000000000000000000000000000000000000000000000600052604160045260246000fd5b6000601f19601f8301169050919050565b7f4552433732313a207472616e7366657220746f206e6f6e20455243373231526560008201527f63656976657220696d706c656d656e7465720000000000000000000000000000602082015250565b7f4552433732313a20746f6b656e20616c7265616479206d696e74656400000000600082015250565b7f4552433732313a207472616e7366657220746f20746865207a65726f2061646460008201527f7265737300000000000000000000000000000000000000000000000000000000602082015250565b7f4552433732313a20617070726f766520746f2063616c6c657200000000000000600082015250565b7f4552433732313a206f70657261746f7220717565727920666f72206e6f6e657860008201527f697374656e7420746f6b656e0000000000000000000000000000000000000000602082015250565b7f4552433732313a20617070726f76652063616c6c6572206973206e6f74206f7760008201527f6e6572206e6f7220617070726f76656420666f7220616c6c0000000000000000602082015250565b7f4552433732313a2062616c616e636520717565727920666f7220746865207a6560008201527f726f206164647265737300000000000000000000000000000000000000000000602082015250565b7f4552433732313a206f776e657220717565727920666f72206e6f6e657869737460008201527f656e7420746f6b656e0000000000000000000000000000000000000000000000602082015250565b7f4552433732313a206d696e7420746f20746865207a65726f2061646472657373600082015250565b7f4552433732313a20617070726f76656420717565727920666f72206e6f6e657860008201527f697374656e7420746f6b656e0000000000000000000000000000000000000000602082015250565b7f4552433732313a207472616e73666572206f6620746f6b656e2074686174206960008201527f73206e6f74206f776e0000000000000000000000000000000000000000000000602082015250565b7f4552433732314d657461646174613a2055524920717565727920666f72206e6f60008201527f6e6578697374656e7420746f6b656e0000000000000000000000000000000000602082015250565b7f4552433732313a20617070726f76616c20746f2063757272656e74206f776e6560008201527f7200000000000000000000000000000000000000000000000000000000000000602082015250565b7f4552433732313a207472616e736665722063616c6c6572206973206e6f74206f60008201527f776e6572206e6f7220617070726f766564000000000000000000000000000000602082015250565b612d0f816126c6565b8114612d1a57600080fd5b50565b612d26816126d8565b8114612d3157600080fd5b50565b612d3d816126e4565b8114612d4857600080fd5b50565b612d5481612730565b8114612d5f57600080fd5b5056fea264697066735822122060f8c3b30eaeff6005396eb48de137fcc55add01e35c342194977b353123f1cb64736f6c63430008010033",
  "immutableReferences": {},
  "source": "// SPDX-License-Identifier: MIT\r\n\r\npragma solidity >=0.6.0 <0.8.2;\r\n\r\nimport \"@openzeppelin/contracts/token/ERC721/ERC721.sol\";\r\n\r\ncontract MomentFactory is ERC721 {\r\n\tconstructor() ERC721(\"Moment\", \"MMT\") {}\r\n\t\r\n    struct Moment {\r\n\t\tstring url;\r\n\t\tstring meta_url;\r\n\t\tuint created_at;\r\n\t}\r\n\r\n\tMoment[] public moments;\r\n\r\n\tmodifier onlyOwnerOf(uint _tokenId) {\r\n\t\trequire(msg.sender == ownerOf(_tokenId));\r\n\t\t_;\r\n\t}\r\n\r\n\tfunction createMoment (string memory _url, string memory _meta_url) public {\r\n\t\tmoments.push(Moment(_url, _meta_url, block.timestamp));\r\n\t\tuint id = moments.length - 1;\r\n\t\t_mint(msg.sender, id);\r\n\t}\r\n\r\n\t/// @notice Returns a list of all moments IDs assigned to an address.\r\n    /// @param _owner The owner whose moments we are interested in.\r\n    function tokensOfOwner(address _owner) external view returns(uint256[] memory ownerTokens) {\r\n        uint256 tokenCount = balanceOf(_owner);\r\n\r\n        if (tokenCount == 0) {\r\n            return new uint256[](0);\r\n        } else {\r\n            uint256[] memory result = new uint256[](tokenCount);\r\n            uint256 totalMoments = moments.length - 1;\r\n            uint256 resultIndex = 0;\r\n            uint256 momentId;\r\n\r\n            for (momentId = 0; momentId <= totalMoments; momentId++) {\r\n                if (ownerOf(momentId) == _owner) {\r\n                    result[resultIndex] = momentId;\r\n                    resultIndex++;\r\n                }\r\n            }\r\n\r\n            return result;\r\n        }\r\n    }\r\n}",
  "sourcePath": "D:\\workspace\\node_project\\moment\\contracts\\MomentFactory.sol",
  "compiler": {
    "name": "solc",
    "version": "0.8.1+commit.df193b15.Emscripten.clang"
  },
  "schemaVersion": "3.3.3",
  "updatedAt": "2021-04-07T14:30:53.221Z",
  "devdoc": {
    "kind": "dev",
    "methods": {
      "approve(address,uint256)": {
        "details": "See {IERC721-approve}."
      },
      "balanceOf(address)": {
        "details": "See {IERC721-balanceOf}."
      },
      "getApproved(uint256)": {
        "details": "See {IERC721-getApproved}."
      },
      "isApprovedForAll(address,address)": {
        "details": "See {IERC721-isApprovedForAll}."
      },
      "name()": {
        "details": "See {IERC721Metadata-name}."
      },
      "ownerOf(uint256)": {
        "details": "See {IERC721-ownerOf}."
      },
      "safeTransferFrom(address,address,uint256)": {
        "details": "See {IERC721-safeTransferFrom}."
      },
      "safeTransferFrom(address,address,uint256,bytes)": {
        "details": "See {IERC721-safeTransferFrom}."
      },
      "setApprovalForAll(address,bool)": {
        "details": "See {IERC721-setApprovalForAll}."
      },
      "supportsInterface(bytes4)": {
        "details": "See {IERC165-supportsInterface}."
      },
      "symbol()": {
        "details": "See {IERC721Metadata-symbol}."
      },
      "tokenURI(uint256)": {
        "details": "See {IERC721Metadata-tokenURI}."
      },
      "tokensOfOwner(address)": {
        "params": {
          "_owner": "The owner whose moments we are interested in."
        }
      },
      "transferFrom(address,address,uint256)": {
        "details": "See {IERC721-transferFrom}."
      }
    },
    "version": 1
  },
  "userdoc": {
    "kind": "user",
    "methods": {
      "tokensOfOwner(address)": {
        "notice": "Returns a list of all moments IDs assigned to an address."
      }
    },
    "version": 1
  }
}