{
  "contractName": "MomentMarket",
  "abi": [
    {
      "inputs": [],
      "stateMutability": "nonpayable",
      "type": "constructor"
    },
    {
      "anonymous": false,
      "inputs": [
        {
          "indexed": true,
          "internalType": "address",
          "name": "owner",
          "type": "address"
        },
        {
          "indexed": true,
          "internalType": "address",
          "name": "approved",
          "type": "address"
        },
        {
          "indexed": true,
          "internalType": "uint256",
          "name": "tokenId",
          "type": "uint256"
        }
      ],
      "name": "Approval",
      "type": "event"
    },
    {
      "anonymous": false,
      "inputs": [
        {
          "indexed": true,
          "internalType": "address",
          "name": "owner",
          "type": "address"
        },
        {
          "indexed": true,
          "internalType": "address",
          "name": "operator",
          "type": "address"
        },
        {
          "indexed": false,
          "internalType": "bool",
          "name": "approved",
          "type": "bool"
        }
      ],
      "name": "ApprovalForAll",
      "type": "event"
    },
    {
      "anonymous": false,
      "inputs": [
        {
          "indexed": true,
          "internalType": "address",
          "name": "_seller",
          "type": "address"
        },
        {
          "indexed": true,
          "internalType": "uint256",
          "name": "_tokenId",
          "type": "uint256"
        },
        {
          "indexed": false,
          "internalType": "uint256",
          "name": "_orderId",
          "type": "uint256"
        }
      ],
      "name": "OrderClosed",
      "type": "event"
    },
    {
      "anonymous": false,
      "inputs": [
        {
          "indexed": true,
          "internalType": "address",
          "name": "_seller",
          "type": "address"
        },
        {
          "indexed": true,
          "internalType": "uint256",
          "name": "_tokenId",
          "type": "uint256"
        },
        {
          "indexed": false,
          "internalType": "uint256",
          "name": "_orderId",
          "type": "uint256"
        }
      ],
      "name": "OrderCreated",
      "type": "event"
    },
    {
      "anonymous": false,
      "inputs": [
        {
          "indexed": true,
          "internalType": "address",
          "name": "_seller",
          "type": "address"
        },
        {
          "indexed": true,
          "internalType": "address",
          "name": "_buyer",
          "type": "address"
        },
        {
          "indexed": true,
          "internalType": "uint256",
          "name": "_tokenId",
          "type": "uint256"
        },
        {
          "indexed": false,
          "internalType": "uint256",
          "name": "_orderId",
          "type": "uint256"
        },
        {
          "indexed": false,
          "internalType": "uint256",
          "name": "_fee",
          "type": "uint256"
        }
      ],
      "name": "OrderSuccessful",
      "type": "event"
    },
    {
      "anonymous": false,
      "inputs": [
        {
          "indexed": true,
          "internalType": "address",
          "name": "previousOwner",
          "type": "address"
        },
        {
          "indexed": true,
          "internalType": "address",
          "name": "newOwner",
          "type": "address"
        }
      ],
      "name": "OwnershipTransferred",
      "type": "event"
    },
    {
      "anonymous": false,
      "inputs": [
        {
          "indexed": true,
          "internalType": "address",
          "name": "from",
          "type": "address"
        },
        {
          "indexed": true,
          "internalType": "address",
          "name": "to",
          "type": "address"
        },
        {
          "indexed": true,
          "internalType": "uint256",
          "name": "tokenId",
          "type": "uint256"
        }
      ],
      "name": "Transfer",
      "type": "event"
    },
    {
      "inputs": [],
      "name": "DOMAIN_SEPARATOR",
      "outputs": [
        {
          "internalType": "bytes32",
          "name": "",
          "type": "bytes32"
        }
      ],
      "stateMutability": "view",
      "type": "function",
      "constant": true
    },
    {
      "inputs": [],
      "name": "PERMIT_TYPEHASH",
      "outputs": [
        {
          "internalType": "bytes32",
          "name": "",
          "type": "bytes32"
        }
      ],
      "stateMutability": "view",
      "type": "function",
      "constant": true
    },
    {
      "inputs": [
        {
          "internalType": "address",
          "name": "to",
          "type": "address"
        },
        {
          "internalType": "uint256",
          "name": "tokenId",
          "type": "uint256"
        }
      ],
      "name": "approve",
      "outputs": [],
      "stateMutability": "nonpayable",
      "type": "function"
    },
    {
      "inputs": [
        {
          "internalType": "address",
          "name": "owner",
          "type": "address"
        }
      ],
      "name": "balanceOf",
      "outputs": [
        {
          "internalType": "uint256",
          "name": "",
          "type": "uint256"
        }
      ],
      "stateMutability": "view",
      "type": "function",
      "constant": true
    },
    {
      "inputs": [
        {
          "internalType": "string",
          "name": "_url",
          "type": "string"
        },
        {
          "internalType": "string",
          "name": "_meta_url",
          "type": "string"
        }
      ],
      "name": "createMoment",
      "outputs": [],
      "stateMutability": "nonpayable",
      "type": "function"
    },
    {
      "inputs": [
        {
          "internalType": "uint256",
          "name": "tokenId",
          "type": "uint256"
        }
      ],
      "name": "getApproved",
      "outputs": [
        {
          "internalType": "address",
          "name": "",
          "type": "address"
        }
      ],
      "stateMutability": "view",
      "type": "function",
      "constant": true
    },
    {
      "inputs": [
        {
          "internalType": "address",
          "name": "owner",
          "type": "address"
        },
        {
          "internalType": "address",
          "name": "operator",
          "type": "address"
        }
      ],
      "name": "isApprovedForAll",
      "outputs": [
        {
          "internalType": "bool",
          "name": "",
          "type": "bool"
        }
      ],
      "stateMutability": "view",
      "type": "function",
      "constant": true
    },
    {
      "inputs": [
        {
          "internalType": "address",
          "name": "",
          "type": "address"
        }
      ],
      "name": "lastCreated",
      "outputs": [
        {
          "internalType": "uint256",
          "name": "",
          "type": "uint256"
        }
      ],
      "stateMutability": "view",
      "type": "function",
      "constant": true
    },
    {
      "inputs": [
        {
          "internalType": "uint256",
          "name": "",
          "type": "uint256"
        }
      ],
      "name": "moments",
      "outputs": [
        {
          "internalType": "string",
          "name": "url",
          "type": "string"
        },
        {
          "internalType": "string",
          "name": "meta_url",
          "type": "string"
        },
        {
          "internalType": "uint256",
          "name": "created_at",
          "type": "uint256"
        }
      ],
      "stateMutability": "view",
      "type": "function",
      "constant": true
    },
    {
      "inputs": [],
      "name": "name",
      "outputs": [
        {
          "internalType": "string",
          "name": "",
          "type": "string"
        }
      ],
      "stateMutability": "view",
      "type": "function",
      "constant": true
    },
    {
      "inputs": [
        {
          "internalType": "address",
          "name": "",
          "type": "address"
        }
      ],
      "name": "nonces",
      "outputs": [
        {
          "internalType": "uint256",
          "name": "",
          "type": "uint256"
        }
      ],
      "stateMutability": "view",
      "type": "function",
      "constant": true
    },
    {
      "inputs": [
        {
          "internalType": "uint256",
          "name": "",
          "type": "uint256"
        }
      ],
      "name": "orders",
      "outputs": [
        {
          "internalType": "address",
          "name": "seller",
          "type": "address"
        },
        {
          "internalType": "uint256",
          "name": "price",
          "type": "uint256"
        },
        {
          "internalType": "uint256",
          "name": "createdAt",
          "type": "uint256"
        },
        {
          "internalType": "string",
          "name": "currency",
          "type": "string"
        },
        {
          "internalType": "uint256",
          "name": "tokenId",
          "type": "uint256"
        },
        {
          "internalType": "bool",
          "name": "successful",
          "type": "bool"
        },
        {
          "internalType": "bool",
          "name": "closed",
          "type": "bool"
        }
      ],
      "stateMutability": "view",
      "type": "function",
      "constant": true
    },
    {
      "inputs": [],
      "name": "owner",
      "outputs": [
        {
          "internalType": "address",
          "name": "",
          "type": "address"
        }
      ],
      "stateMutability": "view",
      "type": "function",
      "constant": true
    },
    {
      "inputs": [
        {
          "internalType": "uint256",
          "name": "tokenId",
          "type": "uint256"
        }
      ],
      "name": "ownerOf",
      "outputs": [
        {
          "internalType": "address",
          "name": "",
          "type": "address"
        }
      ],
      "stateMutability": "view",
      "type": "function",
      "constant": true
    },
    {
      "inputs": [
        {
          "internalType": "address",
          "name": "holder",
          "type": "address"
        },
        {
          "internalType": "string",
          "name": "_url",
          "type": "string"
        },
        {
          "internalType": "string",
          "name": "_meta_url",
          "type": "string"
        },
        {
          "internalType": "uint256",
          "name": "nonce",
          "type": "uint256"
        },
        {
          "internalType": "uint256",
          "name": "expiry",
          "type": "uint256"
        },
        {
          "internalType": "uint8",
          "name": "v",
          "type": "uint8"
        },
        {
          "internalType": "bytes32",
          "name": "r",
          "type": "bytes32"
        },
        {
          "internalType": "bytes32",
          "name": "s",
          "type": "bytes32"
        }
      ],
      "name": "permit",
      "outputs": [],
      "stateMutability": "nonpayable",
      "type": "function"
    },
    {
      "inputs": [],
      "name": "renounceOwnership",
      "outputs": [],
      "stateMutability": "nonpayable",
      "type": "function"
    },
    {
      "inputs": [
        {
          "internalType": "address",
          "name": "from",
          "type": "address"
        },
        {
          "internalType": "address",
          "name": "to",
          "type": "address"
        },
        {
          "internalType": "uint256",
          "name": "tokenId",
          "type": "uint256"
        }
      ],
      "name": "safeTransferFrom",
      "outputs": [],
      "stateMutability": "nonpayable",
      "type": "function"
    },
    {
      "inputs": [
        {
          "internalType": "address",
          "name": "from",
          "type": "address"
        },
        {
          "internalType": "address",
          "name": "to",
          "type": "address"
        },
        {
          "internalType": "uint256",
          "name": "tokenId",
          "type": "uint256"
        },
        {
          "internalType": "bytes",
          "name": "_data",
          "type": "bytes"
        }
      ],
      "name": "safeTransferFrom",
      "outputs": [],
      "stateMutability": "nonpayable",
      "type": "function"
    },
    {
      "inputs": [
        {
          "internalType": "address",
          "name": "operator",
          "type": "address"
        },
        {
          "internalType": "bool",
          "name": "approved",
          "type": "bool"
        }
      ],
      "name": "setApprovalForAll",
      "outputs": [],
      "stateMutability": "nonpayable",
      "type": "function"
    },
    {
      "inputs": [
        {
          "internalType": "bytes4",
          "name": "interfaceId",
          "type": "bytes4"
        }
      ],
      "name": "supportsInterface",
      "outputs": [
        {
          "internalType": "bool",
          "name": "",
          "type": "bool"
        }
      ],
      "stateMutability": "view",
      "type": "function",
      "constant": true
    },
    {
      "inputs": [],
      "name": "symbol",
      "outputs": [
        {
          "internalType": "string",
          "name": "",
          "type": "string"
        }
      ],
      "stateMutability": "view",
      "type": "function",
      "constant": true
    },
    {
      "inputs": [
        {
          "internalType": "uint256",
          "name": "tokenId",
          "type": "uint256"
        }
      ],
      "name": "tokenURI",
      "outputs": [
        {
          "internalType": "string",
          "name": "",
          "type": "string"
        }
      ],
      "stateMutability": "view",
      "type": "function",
      "constant": true
    },
    {
      "inputs": [
        {
          "internalType": "address",
          "name": "_owner",
          "type": "address"
        }
      ],
      "name": "tokensOfOwner",
      "outputs": [
        {
          "internalType": "uint256[]",
          "name": "ownerTokens",
          "type": "uint256[]"
        }
      ],
      "stateMutability": "view",
      "type": "function",
      "constant": true
    },
    {
      "inputs": [
        {
          "internalType": "address",
          "name": "from",
          "type": "address"
        },
        {
          "internalType": "address",
          "name": "to",
          "type": "address"
        },
        {
          "internalType": "uint256",
          "name": "tokenId",
          "type": "uint256"
        }
      ],
      "name": "transferFrom",
      "outputs": [],
      "stateMutability": "nonpayable",
      "type": "function"
    },
    {
      "inputs": [
        {
          "internalType": "address",
          "name": "newOwner",
          "type": "address"
        }
      ],
      "name": "transferOwnership",
      "outputs": [],
      "stateMutability": "nonpayable",
      "type": "function"
    },
    {
      "inputs": [],
      "name": "version",
      "outputs": [
        {
          "internalType": "string",
          "name": "",
          "type": "string"
        }
      ],
      "stateMutability": "pure",
      "type": "function",
      "constant": true
    },
    {
      "inputs": [
        {
          "internalType": "uint256",
          "name": "_tokenId",
          "type": "uint256"
        },
        {
          "internalType": "uint256",
          "name": "_price",
          "type": "uint256"
        },
        {
          "internalType": "string",
          "name": "_currency",
          "type": "string"
        }
      ],
      "name": "createOrder",
      "outputs": [],
      "stateMutability": "nonpayable",
      "type": "function"
    },
    {
      "inputs": [
        {
          "internalType": "uint256",
          "name": "_orderId",
          "type": "uint256"
        }
      ],
      "name": "closeOrder",
      "outputs": [],
      "stateMutability": "nonpayable",
      "type": "function"
    },
    {
      "inputs": [
        {
          "internalType": "uint256",
          "name": "_orderId",
          "type": "uint256"
        }
      ],
      "name": "buyOrder",
      "outputs": [],
      "stateMutability": "payable",
      "type": "function",
      "payable": true
    },
    {
      "inputs": [
        {
          "internalType": "address",
          "name": "_to",
          "type": "address"
        },
        {
          "internalType": "uint256",
          "name": "_value",
          "type": "uint256"
        }
      ],
      "name": "transferMoney",
      "outputs": [],
      "stateMutability": "nonpayable",
      "type": "function"
    },
    {
      "inputs": [],
      "name": "kill",
      "outputs": [],
      "stateMutability": "nonpayable",
      "type": "function"
    }
  ],
  "bytecode": "0x60a0604052620151806007553480156200001857600080fd5b50610ad36040518060400160405280600681526020017f4d6f6d656e7400000000000000000000000000000000000000000000000000008152506040518060400160405280600381526020017f4d4d5400000000000000000000000000000000000000000000000000000000008152508160009080519060200190620000a0929190620002d7565b508060019080519060200190620000b9929190620002d7565b5050507f8b73c3c69bb8fe3d512ecc4cf759cc79239f7b179b0ffacaa9a75d522b39400f620000ed620001f860201b60201c565b80519060200120620001046200029260201b60201c565b80519060200120833060405160200162000123959493929190620003ba565b604051602081830303815290604052805190602001206080818152505050600062000153620002cf60201b60201c565b905080600a60006101000a81548173ffffffffffffffffffffffffffffffffffffffff021916908373ffffffffffffffffffffffffffffffffffffffff1602179055508073ffffffffffffffffffffffffffffffffffffffff16600073ffffffffffffffffffffffffffffffffffffffff167f8be0079c531659141344cd1fd0a4f28419497f9722a3daafe3b4186f6b6457e060405160405180910390a350620004c4565b60606000805462000209906200045f565b80601f016020809104026020016040519081016040528092919081815260200182805462000237906200045f565b8015620002885780601f106200025c5761010080835404028352916020019162000288565b820191906000526020600020905b8154815290600101906020018083116200026a57829003601f168201915b5050505050905090565b60606040518060400160405280600181526020017f3100000000000000000000000000000000000000000000000000000000000000815250905090565b600033905090565b828054620002e5906200045f565b90600052602060002090601f01602090048101928262000309576000855562000355565b82601f106200032457805160ff191683800117855562000355565b8280016001018555821562000355579182015b828111156200035457825182559160200191906001019062000337565b5b50905062000364919062000368565b5090565b5b808211156200038357600081600090555060010162000369565b5090565b620003928162000417565b82525050565b620003a3816200042b565b82525050565b620003b48162000455565b82525050565b600060a082019050620003d1600083018862000398565b620003e0602083018762000398565b620003ef604083018662000398565b620003fe6060830185620003a9565b6200040d608083018462000387565b9695505050505050565b6000620004248262000435565b9050919050565b6000819050919050565b600073ffffffffffffffffffffffffffffffffffffffff82169050919050565b6000819050919050565b600060028204905060018216806200047857607f821691505b602082108114156200048f576200048e62000495565b5b50919050565b7f4e487b7100000000000000000000000000000000000000000000000000000000600052602260045260246000fd5b608051614da7620004e760003960008181610e8501526113ca0152614da76000f3fe6080604052600436106101d85760003560e01c80636c713c8f116101025780639c4ff9c711610095578063c87b56dd11610064578063c87b56dd146106c7578063e985e9c514610704578063f2fde38b14610741578063fee666ad1461076a576101d8565b80639c4ff9c7146105f3578063a22cb46514610632578063a85c38ef1461065b578063b88d4fde1461069e576101d8565b80637ecebe00116100d15780637ecebe00146105235780638462151c146105605780638da5cb5b1461059d57806395d89b41146105c8576101d8565b80636c713c8f1461046957806370453f35146104a657806370a08231146104cf578063715018a61461050c576101d8565b806330adf81f1161017a57806353c3a0ba1161014957806353c3a0ba146103af57806354fd4d50146103d85780636061f754146104035780636352211e1461042c576101d8565b806330adf81f146103195780633644e5151461034457806341c0e1b51461036f57806342842e0e14610386576101d8565b8063081812fc116101b6578063081812fc1461026e578063095ea7b3146102ab57806322f85eaa146102d457806323b872dd146102f0576101d8565b806301ffc9a7146101dd578063069d6d1c1461021a57806306fdde0314610243575b600080fd5b3480156101e957600080fd5b5061020460048036038101906101ff91906137d0565b610793565b6040516102119190613f13565b60405180910390f35b34801561022657600080fd5b50610241600480360381019061023c919061388e565b610875565b005b34801561024f57600080fd5b50610258610aab565b6040516102659190613ffd565b60405180910390f35b34801561027a57600080fd5b506102956004803603810190610290919061388e565b610b3d565b6040516102a29190613e14565b60405180910390f35b3480156102b757600080fd5b506102d260048036038101906102cd9190613794565b610bc2565b005b6102ee60048036038101906102e9919061388e565b610cda565b005b3480156102fc57600080fd5b50610317600480360381019061031291906135ac565b610dff565b005b34801561032557600080fd5b5061032e610e5f565b60405161033b9190613f2e565b60405180910390f35b34801561035057600080fd5b50610359610e83565b6040516103669190613f2e565b60405180910390f35b34801561037b57600080fd5b50610384610ea7565b005b34801561039257600080fd5b506103ad60048036038101906103a891906135ac565b610f48565b005b3480156103bb57600080fd5b506103d660048036038101906103d19190613822565b610f68565b005b3480156103e457600080fd5b506103ed611019565b6040516103fa9190613ffd565b60405180910390f35b34801561040f57600080fd5b5061042a600480360381019061042591906138b7565b611056565b005b34801561043857600080fd5b50610453600480360381019061044e919061388e565b6112fc565b6040516104609190613e14565b60405180910390f35b34801561047557600080fd5b50610490600480360381019061048b9190613547565b6113ae565b60405161049d9190614304565b60405180910390f35b3480156104b257600080fd5b506104cd60048036038101906104c891906136b2565b6113c6565b005b3480156104db57600080fd5b506104f660048036038101906104f19190613547565b611759565b6040516105039190614304565b60405180910390f35b34801561051857600080fd5b50610521611811565b005b34801561052f57600080fd5b5061054a60048036038101906105459190613547565b61194e565b6040516105579190614304565b60405180910390f35b34801561056c57600080fd5b5061058760048036038101906105829190613547565b611966565b6040516105949190613ef1565b60405180910390f35b3480156105a957600080fd5b506105b2611b3c565b6040516105bf9190613e14565b60405180910390f35b3480156105d457600080fd5b506105dd611b66565b6040516105ea9190613ffd565b60405180910390f35b3480156105ff57600080fd5b5061061a6004803603810190610615919061388e565b611bf8565b6040516106299392919061401f565b60405180910390f35b34801561063e57600080fd5b5061065960048036038101906106549190613676565b611d42565b005b34801561066757600080fd5b50610682600480360381019061067d919061388e565b611ec3565b6040516106959796959493929190613e7b565b60405180910390f35b3480156106aa57600080fd5b506106c560048036038101906106c091906135fb565b611fd7565b005b3480156106d357600080fd5b506106ee60048036038101906106e9919061388e565b612039565b6040516106fb9190613ffd565b60405180910390f35b34801561071057600080fd5b5061072b60048036038101906107269190613570565b6120e0565b6040516107389190613f13565b60405180910390f35b34801561074d57600080fd5b5061076860048036038101906107639190613547565b612174565b005b34801561077657600080fd5b50610791600480360381019061078c9190613794565b612320565b005b60007f80ac58cd000000000000000000000000000000000000000000000000000000007bffffffffffffffffffffffffffffffffffffffffffffffffffffffff1916827bffffffffffffffffffffffffffffffffffffffffffffffffffffffff1916148061085e57507f5b5e139f000000000000000000000000000000000000000000000000000000007bffffffffffffffffffffffffffffffffffffffffffffffffffffffff1916827bffffffffffffffffffffffffffffffffffffffffffffffffffffffff1916145b8061086e575061086d82612371565b5b9050919050565b80600073ffffffffffffffffffffffffffffffffffffffff163373ffffffffffffffffffffffffffffffffffffffff161480156109105750600c600082815260200190815260200160002060009054906101000a900473ffffffffffffffffffffffffffffffffffffffff1673ffffffffffffffffffffffffffffffffffffffff163373ffffffffffffffffffffffffffffffffffffffff16145b61091957600080fd5b816000600b8281548110610956577f4e487b7100000000000000000000000000000000000000000000000000000000600052603260045260246000fd5b9060005260206000209060060201600201541180156109d1575060001515600b82815481106109ae577f4e487b7100000000000000000000000000000000000000000000000000000000600052603260045260246000fd5b906000526020600020906006020160050160019054906101000a900460ff161515145b6109da57600080fd5b6000600b8481548110610a16577f4e487b7100000000000000000000000000000000000000000000000000000000600052603260045260246000fd5b9060005260206000209060060201905060018160050160016101000a81548160ff021916908315150217905550610a52303383600401546123db565b80600401543373ffffffffffffffffffffffffffffffffffffffff167fdd1bdc77e3cc244141600de256428e5a4fa93f9ba200229891d491113906922286604051610a9d9190614304565b60405180910390a350505050565b606060008054610aba906145e5565b80601f0160208091040260200160405190810160405280929190818152602001828054610ae6906145e5565b8015610b335780601f10610b0857610100808354040283529160200191610b33565b820191906000526020600020905b815481529060010190602001808311610b1657829003601f168201915b5050505050905090565b6000610b4882612637565b610b87576040517f08c379a0000000000000000000000000000000000000000000000000000000008152600401610b7e906141e4565b60405180910390fd5b6004600083815260200190815260200160002060009054906101000a900473ffffffffffffffffffffffffffffffffffffffff169050919050565b6000610bcd826112fc565b90508073ffffffffffffffffffffffffffffffffffffffff168373ffffffffffffffffffffffffffffffffffffffff161415610c3e576040517f08c379a0000000000000000000000000000000000000000000000000000000008152600401610c3590614284565b60405180910390fd5b8073ffffffffffffffffffffffffffffffffffffffff16610c5d6126a3565b73ffffffffffffffffffffffffffffffffffffffff161480610c8c5750610c8b81610c866126a3565b6120e0565b5b610ccb576040517f08c379a0000000000000000000000000000000000000000000000000000000008152600401610cc290614164565b60405180910390fd5b610cd583836126ab565b505050565b806000600b8281548110610d17577f4e487b7100000000000000000000000000000000000000000000000000000000600052603260045260246000fd5b906000526020600020906006020160020154118015610d92575060001515600b8281548110610d6f577f4e487b7100000000000000000000000000000000000000000000000000000000600052603260045260246000fd5b906000526020600020906006020160050160019054906101000a900460ff161515145b610d9b57600080fd5b610da58234612764565b610dfb3033600b8581548110610de4577f4e487b7100000000000000000000000000000000000000000000000000000000600052603260045260246000fd5b9060005260206000209060060201600401546123db565b5050565b610e10610e0a6126a3565b826128af565b610e4f576040517f08c379a0000000000000000000000000000000000000000000000000000000008152600401610e46906142c4565b60405180910390fd5b610e5a8383836123db565b505050565b7fe3d5705ffb140c9ae666bde85812da3f9712d99865b9b2cf7f32cfcad0ee038d81565b7f000000000000000000000000000000000000000000000000000000000000000081565b610eaf6126a3565b73ffffffffffffffffffffffffffffffffffffffff16610ecd611b3c565b73ffffffffffffffffffffffffffffffffffffffff1614610f23576040517f08c379a0000000000000000000000000000000000000000000000000000000008152600401610f1a90614204565b60405180910390fd5b6000610f2d611b3c565b90508073ffffffffffffffffffffffffffffffffffffffff16ff5b610f6383838360405180602001604052806000815250611fd7565b505050565b600660405180606001604052808481526020018381526020014281525090806001815401808255809150506001900390600052602060002090600302016000909190919091506000820151816000019080519060200190610fca929190613301565b506020820151816001019080519060200190610fe7929190613301565b506040820151816002015550506000600160068054905061100891906144d2565b9050611014338261298d565b505050565b60606040518060400160405280600181526020017f3100000000000000000000000000000000000000000000000000000000000000815250905090565b82611060816112fc565b73ffffffffffffffffffffffffffffffffffffffff163373ffffffffffffffffffffffffffffffffffffffff161461109757600080fd5b600033905060006040518060e001604052808373ffffffffffffffffffffffffffffffffffffffff168152602001868152602001428152602001858152602001878152602001600015158152602001600015158152509050600b81908060018154018082558091505060019003906000526020600020906006020160009091909190915060008201518160000160006101000a81548173ffffffffffffffffffffffffffffffffffffffff021916908373ffffffffffffffffffffffffffffffffffffffff16021790555060208201518160010155604082015181600201556060820151816003019080519060200190611192929190613301565b506080820151816004015560a08201518160050160006101000a81548160ff02191690831515021790555060c08201518160050160016101000a81548160ff021916908315150217905550505060006001600b805490506111f391906144d2565b905082600c600083815260200190815260200160002060006101000a81548173ffffffffffffffffffffffffffffffffffffffff021916908373ffffffffffffffffffffffffffffffffffffffff16021790555061129881600d60008673ffffffffffffffffffffffffffffffffffffffff1673ffffffffffffffffffffffffffffffffffffffff168152602001908152602001600020612b5b90919063ffffffff16565b506112a48330896123db565b868373ffffffffffffffffffffffffffffffffffffffff167fbb4cd350108fec46a02c87acb34a38f6c465fb2dc050687359c97229703bb8f4836040516112eb9190614304565b60405180910390a350505050505050565b6000806002600084815260200190815260200160002060009054906101000a900473ffffffffffffffffffffffffffffffffffffffff169050600073ffffffffffffffffffffffffffffffffffffffff168173ffffffffffffffffffffffffffffffffffffffff1614156113a5576040517f08c379a000000000000000000000000000000000000000000000000000000000815260040161139c906141a4565b60405180910390fd5b80915050919050565b60096020528060005260406000206000915090505481565b60007f00000000000000000000000000000000000000000000000000000000000000007fe3d5705ffb140c9ae666bde85812da3f9712d99865b9b2cf7f32cfcad0ee038d8a8a8a8a8a60405160200161142496959493929190613f49565b6040516020818303038152906040528051906020012060405160200161144b929190613ddd565b604051602081830303815290604052805190602001209050600073ffffffffffffffffffffffffffffffffffffffff168973ffffffffffffffffffffffffffffffffffffffff1614156114d3576040517f08c379a00000000000000000000000000000000000000000000000000000000081526004016114ca90614124565b60405180910390fd5b600181858585604051600081526020016040526040516114f69493929190613fb8565b6020604051602081039080840390855afa158015611518573d6000803e3d6000fd5b5050506020604051035173ffffffffffffffffffffffffffffffffffffffff168973ffffffffffffffffffffffffffffffffffffffff161461158f576040517f08c379a000000000000000000000000000000000000000000000000000000000815260040161158690614264565b60405180910390fd5b600085148061159e5750844211155b6115dd576040517f08c379a00000000000000000000000000000000000000000000000000000000081526004016115d4906142e4565b60405180910390fd5b600860008a73ffffffffffffffffffffffffffffffffffffffff1673ffffffffffffffffffffffffffffffffffffffff168152602001908152602001600020600081548092919061162d90614648565b919050558614611672576040517f08c379a0000000000000000000000000000000000000000000000000000000008152600401611669906142a4565b60405180910390fd5b600960008a73ffffffffffffffffffffffffffffffffffffffff1673ffffffffffffffffffffffffffffffffffffffff16815260200190815260200160002054426116bd91906144d2565b60075410611700576040517f08c379a00000000000000000000000000000000000000000000000000000000081526004016116f790614064565b60405180910390fd5b61170a8888610f68565b42600960008b73ffffffffffffffffffffffffffffffffffffffff1673ffffffffffffffffffffffffffffffffffffffff16815260200190815260200160002081905550505050505050505050565b60008073ffffffffffffffffffffffffffffffffffffffff168273ffffffffffffffffffffffffffffffffffffffff1614156117ca576040517f08c379a00000000000000000000000000000000000000000000000000000000081526004016117c190614184565b60405180910390fd5b600360008373ffffffffffffffffffffffffffffffffffffffff1673ffffffffffffffffffffffffffffffffffffffff168152602001908152602001600020549050919050565b6118196126a3565b73ffffffffffffffffffffffffffffffffffffffff16611837611b3c565b73ffffffffffffffffffffffffffffffffffffffff161461188d576040517f08c379a000000000000000000000000000000000000000000000000000000000815260040161188490614204565b60405180910390fd5b600073ffffffffffffffffffffffffffffffffffffffff16600a60009054906101000a900473ffffffffffffffffffffffffffffffffffffffff1673ffffffffffffffffffffffffffffffffffffffff167f8be0079c531659141344cd1fd0a4f28419497f9722a3daafe3b4186f6b6457e060405160405180910390a36000600a60006101000a81548173ffffffffffffffffffffffffffffffffffffffff021916908373ffffffffffffffffffffffffffffffffffffffff160217905550565b60086020528060005260406000206000915090505481565b6060600061197383611759565b905060008114156119f657600067ffffffffffffffff8111156119bf577f4e487b7100000000000000000000000000000000000000000000000000000000600052604160045260246000fd5b6040519080825280602002602001820160405280156119ed5781602001602082028036833780820191505090505b50915050611b37565b60008167ffffffffffffffff811115611a38577f4e487b7100000000000000000000000000000000000000000000000000000000600052604160045260246000fd5b604051908082528060200260200182016040528015611a665781602001602082028036833780820191505090505b50905060006001600680549050611a7d91906144d2565b90506000805b828111611b2e578673ffffffffffffffffffffffffffffffffffffffff16611aaa826112fc565b73ffffffffffffffffffffffffffffffffffffffff161415611b1b5780848381518110611b00577f4e487b7100000000000000000000000000000000000000000000000000000000600052603260045260246000fd5b6020026020010181815250508180611b1790614648565b9250505b8080611b2690614648565b915050611a83565b83955050505050505b919050565b6000600a60009054906101000a900473ffffffffffffffffffffffffffffffffffffffff16905090565b606060018054611b75906145e5565b80601f0160208091040260200160405190810160405280929190818152602001828054611ba1906145e5565b8015611bee5780601f10611bc357610100808354040283529160200191611bee565b820191906000526020600020905b815481529060010190602001808311611bd157829003601f168201915b5050505050905090565b60068181548110611c0857600080fd5b9060005260206000209060030201600091509050806000018054611c2b906145e5565b80601f0160208091040260200160405190810160405280929190818152602001828054611c57906145e5565b8015611ca45780601f10611c7957610100808354040283529160200191611ca4565b820191906000526020600020905b815481529060010190602001808311611c8757829003601f168201915b505050505090806001018054611cb9906145e5565b80601f0160208091040260200160405190810160405280929190818152602001828054611ce5906145e5565b8015611d325780601f10611d0757610100808354040283529160200191611d32565b820191906000526020600020905b815481529060010190602001808311611d1557829003601f168201915b5050505050908060020154905083565b611d4a6126a3565b73ffffffffffffffffffffffffffffffffffffffff168273ffffffffffffffffffffffffffffffffffffffff161415611db8576040517f08c379a0000000000000000000000000000000000000000000000000000000008152600401611daf90614104565b60405180910390fd5b8060056000611dc56126a3565b73ffffffffffffffffffffffffffffffffffffffff1673ffffffffffffffffffffffffffffffffffffffff16815260200190815260200160002060008473ffffffffffffffffffffffffffffffffffffffff1673ffffffffffffffffffffffffffffffffffffffff16815260200190815260200160002060006101000a81548160ff0219169083151502179055508173ffffffffffffffffffffffffffffffffffffffff16611e726126a3565b73ffffffffffffffffffffffffffffffffffffffff167f17307eab39ab6107e8899845ad3d59bd9653f200f220920489ca2b5937696c3183604051611eb79190613f13565b60405180910390a35050565b600b8181548110611ed357600080fd5b90600052602060002090600602016000915090508060000160009054906101000a900473ffffffffffffffffffffffffffffffffffffffff1690806001015490806002015490806003018054611f28906145e5565b80601f0160208091040260200160405190810160405280929190818152602001828054611f54906145e5565b8015611fa15780601f10611f7657610100808354040283529160200191611fa1565b820191906000526020600020905b815481529060010190602001808311611f8457829003601f168201915b5050505050908060040154908060050160009054906101000a900460ff16908060050160019054906101000a900460ff16905087565b611fe8611fe26126a3565b836128af565b612027576040517f08c379a000000000000000000000000000000000000000000000000000000000815260040161201e906142c4565b60405180910390fd5b61203384848484612b75565b50505050565b606061204482612637565b612083576040517f08c379a000000000000000000000000000000000000000000000000000000000815260040161207a90614244565b60405180910390fd5b600061208d612bd1565b905060008151116120ad57604051806020016040528060008152506120d8565b806120b784612be8565b6040516020016120c8929190613db9565b6040516020818303038152906040525b915050919050565b6000600560008473ffffffffffffffffffffffffffffffffffffffff1673ffffffffffffffffffffffffffffffffffffffff16815260200190815260200160002060008373ffffffffffffffffffffffffffffffffffffffff1673ffffffffffffffffffffffffffffffffffffffff16815260200190815260200160002060009054906101000a900460ff16905092915050565b61217c6126a3565b73ffffffffffffffffffffffffffffffffffffffff1661219a611b3c565b73ffffffffffffffffffffffffffffffffffffffff16146121f0576040517f08c379a00000000000000000000000000000000000000000000000000000000081526004016121e790614204565b60405180910390fd5b600073ffffffffffffffffffffffffffffffffffffffff168173ffffffffffffffffffffffffffffffffffffffff161415612260576040517f08c379a0000000000000000000000000000000000000000000000000000000008152600401612257906140a4565b60405180910390fd5b8073ffffffffffffffffffffffffffffffffffffffff16600a60009054906101000a900473ffffffffffffffffffffffffffffffffffffffff1673ffffffffffffffffffffffffffffffffffffffff167f8be0079c531659141344cd1fd0a4f28419497f9722a3daafe3b4186f6b6457e060405160405180910390a380600a60006101000a81548173ffffffffffffffffffffffffffffffffffffffff021916908373ffffffffffffffffffffffffffffffffffffffff16021790555050565b60008290508073ffffffffffffffffffffffffffffffffffffffff166108fc839081150290604051600060405180830381858888f1935050505015801561236b573d6000803e3d6000fd5b50505050565b60007f01ffc9a7000000000000000000000000000000000000000000000000000000007bffffffffffffffffffffffffffffffffffffffffffffffffffffffff1916827bffffffffffffffffffffffffffffffffffffffffffffffffffffffff1916149050919050565b8273ffffffffffffffffffffffffffffffffffffffff166123fb826112fc565b73ffffffffffffffffffffffffffffffffffffffff1614612451576040517f08c379a000000000000000000000000000000000000000000000000000000000815260040161244890614224565b60405180910390fd5b600073ffffffffffffffffffffffffffffffffffffffff168273ffffffffffffffffffffffffffffffffffffffff1614156124c1576040517f08c379a00000000000000000000000000000000000000000000000000000000081526004016124b8906140e4565b60405180910390fd5b6124cc838383612d95565b6124d76000826126ab565b6001600360008573ffffffffffffffffffffffffffffffffffffffff1673ffffffffffffffffffffffffffffffffffffffff168152602001908152602001600020600082825461252791906144d2565b925050819055506001600360008473ffffffffffffffffffffffffffffffffffffffff1673ffffffffffffffffffffffffffffffffffffffff168152602001908152602001600020600082825461257e919061444b565b92505081905550816002600083815260200190815260200160002060006101000a81548173ffffffffffffffffffffffffffffffffffffffff021916908373ffffffffffffffffffffffffffffffffffffffff160217905550808273ffffffffffffffffffffffffffffffffffffffff168473ffffffffffffffffffffffffffffffffffffffff167fddf252ad1be2c89b69c2b068fc378daa952ba7f163c4a11628f55a4df523b3ef60405160405180910390a4505050565b60008073ffffffffffffffffffffffffffffffffffffffff166002600084815260200190815260200160002060009054906101000a900473ffffffffffffffffffffffffffffffffffffffff1673ffffffffffffffffffffffffffffffffffffffff1614159050919050565b600033905090565b816004600083815260200190815260200160002060006101000a81548173ffffffffffffffffffffffffffffffffffffffff021916908373ffffffffffffffffffffffffffffffffffffffff160217905550808273ffffffffffffffffffffffffffffffffffffffff1661271e836112fc565b73ffffffffffffffffffffffffffffffffffffffff167f8c5be1e5ebec7d5bd14f71427d1e84f3dd0314c0f7b2291e5b200ac8c7c3b92560405160405180910390a45050565b6000600b83815481106127a0577f4e487b7100000000000000000000000000000000000000000000000000000000600052603260045260246000fd5b9060005260206000209060060201905080600101548210156127c157600080fd5b60008160000160009054906101000a900473ffffffffffffffffffffffffffffffffffffffff16905060008260010154905060008360040154905061280586612d9a565b600085111561283e576128188383612320565b6000828661282691906144d2565b9050600081111561283c5761283b3382612320565b5b505b803373ffffffffffffffffffffffffffffffffffffffff168473ffffffffffffffffffffffffffffffffffffffff167f09e188971dbdbef2aee7a6707aa7640ddbc064491d979f7b4d02b12e877e71b189600060405161289f92919061431f565b60405180910390a4505050505050565b60006128ba82612637565b6128f9576040517f08c379a00000000000000000000000000000000000000000000000000000000081526004016128f090614144565b60405180910390fd5b6000612904836112fc565b90508073ffffffffffffffffffffffffffffffffffffffff168473ffffffffffffffffffffffffffffffffffffffff16148061297357508373ffffffffffffffffffffffffffffffffffffffff1661295b84610b3d565b73ffffffffffffffffffffffffffffffffffffffff16145b80612984575061298381856120e0565b5b91505092915050565b600073ffffffffffffffffffffffffffffffffffffffff168273ffffffffffffffffffffffffffffffffffffffff1614156129fd576040517f08c379a00000000000000000000000000000000000000000000000000000000081526004016129f4906141c4565b60405180910390fd5b612a0681612637565b15612a46576040517f08c379a0000000000000000000000000000000000000000000000000000000008152600401612a3d906140c4565b60405180910390fd5b612a5260008383612d95565b6001600360008473ffffffffffffffffffffffffffffffffffffffff1673ffffffffffffffffffffffffffffffffffffffff1681526020019081526020016000206000828254612aa2919061444b565b92505081905550816002600083815260200190815260200160002060006101000a81548173ffffffffffffffffffffffffffffffffffffffff021916908373ffffffffffffffffffffffffffffffffffffffff160217905550808273ffffffffffffffffffffffffffffffffffffffff16600073ffffffffffffffffffffffffffffffffffffffff167fddf252ad1be2c89b69c2b068fc378daa952ba7f163c4a11628f55a4df523b3ef60405160405180910390a45050565b6000612b6d836000018360001b612f20565b905092915050565b612b808484846123db565b612b8c84848484612f90565b612bcb576040517f08c379a0000000000000000000000000000000000000000000000000000000008152600401612bc290614084565b60405180910390fd5b50505050565b606060405180602001604052806000815250905090565b60606000821415612c30576040518060400160405280600181526020017f30000000000000000000000000000000000000000000000000000000000000008152509050612d90565b600082905060005b60008214612c62578080612c4b90614648565b915050600a82612c5b91906144a1565b9150612c38565b60008167ffffffffffffffff811115612ca4577f4e487b7100000000000000000000000000000000000000000000000000000000600052604160045260246000fd5b6040519080825280601f01601f191660200182016040528015612cd65781602001600182028036833780820191505090505b5090505b60008514612d8957600182612cef91906144d2565b9150600a85612cfe919061469b565b6030612d0a919061444b565b60f81b818381518110612d46577f4e487b7100000000000000000000000000000000000000000000000000000000600052603260045260246000fd5b60200101907effffffffffffffffffffffffffffffffffffffffffffffffffffffffffffff1916908160001a905350600a85612d8291906144a1565b9450612cda565b8093505050505b919050565b505050565b600b8181548110612dd4577f4e487b7100000000000000000000000000000000000000000000000000000000600052603260045260246000fd5b9060005260206000209060060201600080820160006101000a81549073ffffffffffffffffffffffffffffffffffffffff021916905560018201600090556002820160009055600382016000612e2a9190613387565b60048201600090556005820160006101000a81549060ff02191690556005820160016101000a81549060ff021916905550506000600c600083815260200190815260200160002060009054906101000a900473ffffffffffffffffffffffffffffffffffffffff169050612ee582600d60008473ffffffffffffffffffffffffffffffffffffffff1673ffffffffffffffffffffffffffffffffffffffff16815260200190815260200160002061312790919063ffffffff16565b50600c600083815260200190815260200160002060006101000a81549073ffffffffffffffffffffffffffffffffffffffff02191690555050565b6000612f2c8383613141565b612f85578260000182908060018154018082558091505060019003906000526020600020016000909190919091505582600001805490508360010160008481526020019081526020016000208190555060019050612f8a565b600090505b92915050565b6000612fb18473ffffffffffffffffffffffffffffffffffffffff16613164565b1561311a578373ffffffffffffffffffffffffffffffffffffffff1663150b7a02612fda6126a3565b8786866040518563ffffffff1660e01b8152600401612ffc9493929190613e2f565b602060405180830381600087803b15801561301657600080fd5b505af192505050801561304757506040513d601f19601f8201168201806040525081019061304491906137f9565b60015b6130ca573d8060008114613077576040519150601f19603f3d011682016040523d82523d6000602084013e61307c565b606091505b506000815114156130c2576040517f08c379a00000000000000000000000000000000000000000000000000000000081526004016130b990614084565b60405180910390fd5b805181602001fd5b63150b7a0260e01b7bffffffffffffffffffffffffffffffffffffffffffffffffffffffff1916817bffffffffffffffffffffffffffffffffffffffffffffffffffffffff19161491505061311f565b600190505b949350505050565b6000613139836000018360001b613177565b905092915050565b600080836001016000848152602001908152602001600020541415905092915050565b600080823b905060008111915050919050565b600080836001016000848152602001908152602001600020549050600081146132f55760006001826131a991906144d2565b90506000600186600001805490506131c191906144d2565b90506000866000018281548110613201577f4e487b7100000000000000000000000000000000000000000000000000000000600052603260045260246000fd5b906000526020600020015490508087600001848154811061324b577f4e487b7100000000000000000000000000000000000000000000000000000000600052603260045260246000fd5b9060005260206000200181905550600183613266919061444b565b87600101600083815260200190815260200160002081905550866000018054806132b9577f4e487b7100000000000000000000000000000000000000000000000000000000600052603160045260246000fd5b600190038181906000526020600020016000905590558660010160008781526020019081526020016000206000905560019450505050506132fb565b60009150505b92915050565b82805461330d906145e5565b90600052602060002090601f01602090048101928261332f5760008555613376565b82601f1061334857805160ff1916838001178555613376565b82800160010185558215613376579182015b8281111561337557825182559160200191906001019061335a565b5b50905061338391906133c7565b5090565b508054613393906145e5565b6000825580601f106133a557506133c4565b601f0160209004906000526020600020908101906133c391906133c7565b5b50565b5b808211156133e05760008160009055506001016133c8565b5090565b60006133f76133f28461436d565b614348565b90508281526020810184848401111561340f57600080fd5b61341a8482856145a3565b509392505050565b60006134356134308461439e565b614348565b90508281526020810184848401111561344d57600080fd5b6134588482856145a3565b509392505050565b60008135905061346f81614ce7565b92915050565b60008135905061348481614cfe565b92915050565b60008135905061349981614d15565b92915050565b6000813590506134ae81614d2c565b92915050565b6000815190506134c381614d2c565b92915050565b600082601f8301126134da57600080fd5b81356134ea8482602086016133e4565b91505092915050565b600082601f83011261350457600080fd5b8135613514848260208601613422565b91505092915050565b60008135905061352c81614d43565b92915050565b60008135905061354181614d5a565b92915050565b60006020828403121561355957600080fd5b600061356784828501613460565b91505092915050565b6000806040838503121561358357600080fd5b600061359185828601613460565b92505060206135a285828601613460565b9150509250929050565b6000806000606084860312156135c157600080fd5b60006135cf86828701613460565b93505060206135e086828701613460565b92505060406135f18682870161351d565b9150509250925092565b6000806000806080858703121561361157600080fd5b600061361f87828801613460565b945050602061363087828801613460565b93505060406136418782880161351d565b925050606085013567ffffffffffffffff81111561365e57600080fd5b61366a878288016134c9565b91505092959194509250565b6000806040838503121561368957600080fd5b600061369785828601613460565b92505060206136a885828601613475565b9150509250929050565b600080600080600080600080610100898b0312156136cf57600080fd5b60006136dd8b828c01613460565b985050602089013567ffffffffffffffff8111156136fa57600080fd5b6137068b828c016134f3565b975050604089013567ffffffffffffffff81111561372357600080fd5b61372f8b828c016134f3565b96505060606137408b828c0161351d565b95505060806137518b828c0161351d565b94505060a06137628b828c01613532565b93505060c06137738b828c0161348a565b92505060e06137848b828c0161348a565b9150509295985092959890939650565b600080604083850312156137a757600080fd5b60006137b585828601613460565b92505060206137c68582860161351d565b9150509250929050565b6000602082840312156137e257600080fd5b60006137f08482850161349f565b91505092915050565b60006020828403121561380b57600080fd5b6000613819848285016134b4565b91505092915050565b6000806040838503121561383557600080fd5b600083013567ffffffffffffffff81111561384f57600080fd5b61385b858286016134f3565b925050602083013567ffffffffffffffff81111561387857600080fd5b613884858286016134f3565b9150509250929050565b6000602082840312156138a057600080fd5b60006138ae8482850161351d565b91505092915050565b6000806000606084860312156138cc57600080fd5b60006138da8682870161351d565b93505060206138eb8682870161351d565b925050604084013567ffffffffffffffff81111561390857600080fd5b613914868287016134f3565b9150509250925092565b600061392a8383613d8c565b60208301905092915050565b61393f81614506565b82525050565b6000613950826143df565b61395a818561440d565b9350613965836143cf565b8060005b8381101561399657815161397d888261391e565b975061398883614400565b925050600181019050613969565b5085935050505092915050565b6139ac81614518565b82525050565b6139bb81614524565b82525050565b6139d26139cd82614524565b614691565b82525050565b60006139e3826143ea565b6139ed818561441e565b93506139fd8185602086016145b2565b613a0681614788565b840191505092915050565b613a1a81614591565b82525050565b6000613a2b826143f5565b613a35818561442f565b9350613a458185602086016145b2565b613a4e81614788565b840191505092915050565b6000613a64826143f5565b613a6e8185614440565b9350613a7e8185602086016145b2565b80840191505092915050565b6000613a9760138361442f565b9150613aa282614799565b602082019050919050565b6000613aba60328361442f565b9150613ac5826147c2565b604082019050919050565b6000613add60268361442f565b9150613ae882614811565b604082019050919050565b6000613b00601c8361442f565b9150613b0b82614860565b602082019050919050565b6000613b23600283614440565b9150613b2e82614889565b600282019050919050565b6000613b4660248361442f565b9150613b51826148b2565b604082019050919050565b6000613b6960198361442f565b9150613b7482614901565b602082019050919050565b6000613b8c60118361442f565b9150613b978261492a565b602082019050919050565b6000613baf602c8361442f565b9150613bba82614953565b604082019050919050565b6000613bd260388361442f565b9150613bdd826149a2565b604082019050919050565b6000613bf5602a8361442f565b9150613c00826149f1565b604082019050919050565b6000613c1860298361442f565b9150613c2382614a40565b604082019050919050565b6000613c3b60208361442f565b9150613c4682614a8f565b602082019050919050565b6000613c5e602c8361442f565b9150613c6982614ab8565b604082019050919050565b6000613c8160208361442f565b9150613c8c82614b07565b602082019050919050565b6000613ca460298361442f565b9150613caf82614b30565b604082019050919050565b6000613cc7602f8361442f565b9150613cd282614b7f565b604082019050919050565b6000613cea600e8361442f565b9150613cf582614bce565b602082019050919050565b6000613d0d60218361442f565b9150613d1882614bf7565b604082019050919050565b6000613d30600d8361442f565b9150613d3b82614c46565b602082019050919050565b6000613d5360318361442f565b9150613d5e82614c6f565b604082019050919050565b6000613d76600e8361442f565b9150613d8182614cbe565b602082019050919050565b613d958161457a565b82525050565b613da48161457a565b82525050565b613db381614584565b82525050565b6000613dc58285613a59565b9150613dd18284613a59565b91508190509392505050565b6000613de882613b16565b9150613df482856139c1565b602082019150613e0482846139c1565b6020820191508190509392505050565b6000602082019050613e296000830184613936565b92915050565b6000608082019050613e446000830187613936565b613e516020830186613936565b613e5e6040830185613d9b565b8181036060830152613e7081846139d8565b905095945050505050565b600060e082019050613e90600083018a613936565b613e9d6020830189613d9b565b613eaa6040830188613d9b565b8181036060830152613ebc8187613a20565b9050613ecb6080830186613d9b565b613ed860a08301856139a3565b613ee560c08301846139a3565b98975050505050505050565b60006020820190508181036000830152613f0b8184613945565b905092915050565b6000602082019050613f2860008301846139a3565b92915050565b6000602082019050613f4360008301846139b2565b92915050565b600060c082019050613f5e60008301896139b2565b613f6b6020830188613936565b8181036040830152613f7d8187613a20565b90508181036060830152613f918186613a20565b9050613fa06080830185613d9b565b613fad60a0830184613d9b565b979650505050505050565b6000608082019050613fcd60008301876139b2565b613fda6020830186613daa565b613fe760408301856139b2565b613ff460608301846139b2565b95945050505050565b600060208201905081810360008301526140178184613a20565b905092915050565b600060608201905081810360008301526140398186613a20565b9050818103602083015261404d8185613a20565b905061405c6040830184613d9b565b949350505050565b6000602082019050818103600083015261407d81613a8a565b9050919050565b6000602082019050818103600083015261409d81613aad565b9050919050565b600060208201905081810360008301526140bd81613ad0565b9050919050565b600060208201905081810360008301526140dd81613af3565b9050919050565b600060208201905081810360008301526140fd81613b39565b9050919050565b6000602082019050818103600083015261411d81613b5c565b9050919050565b6000602082019050818103600083015261413d81613b7f565b9050919050565b6000602082019050818103600083015261415d81613ba2565b9050919050565b6000602082019050818103600083015261417d81613bc5565b9050919050565b6000602082019050818103600083015261419d81613be8565b9050919050565b600060208201905081810360008301526141bd81613c0b565b9050919050565b600060208201905081810360008301526141dd81613c2e565b9050919050565b600060208201905081810360008301526141fd81613c51565b9050919050565b6000602082019050818103600083015261421d81613c74565b9050919050565b6000602082019050818103600083015261423d81613c97565b9050919050565b6000602082019050818103600083015261425d81613cba565b9050919050565b6000602082019050818103600083015261427d81613cdd565b9050919050565b6000602082019050818103600083015261429d81613d00565b9050919050565b600060208201905081810360008301526142bd81613d23565b9050919050565b600060208201905081810360008301526142dd81613d46565b9050919050565b600060208201905081810360008301526142fd81613d69565b9050919050565b60006020820190506143196000830184613d9b565b92915050565b60006040820190506143346000830185613d9b565b6143416020830184613a11565b9392505050565b6000614352614363565b905061435e8282614617565b919050565b6000604051905090565b600067ffffffffffffffff82111561438857614387614759565b5b61439182614788565b9050602081019050919050565b600067ffffffffffffffff8211156143b9576143b8614759565b5b6143c282614788565b9050602081019050919050565b6000819050602082019050919050565b600081519050919050565b600081519050919050565b600081519050919050565b6000602082019050919050565b600082825260208201905092915050565b600082825260208201905092915050565b600082825260208201905092915050565b600081905092915050565b60006144568261457a565b91506144618361457a565b9250827fffffffffffffffffffffffffffffffffffffffffffffffffffffffffffffffff03821115614496576144956146cc565b5b828201905092915050565b60006144ac8261457a565b91506144b78361457a565b9250826144c7576144c66146fb565b5b828204905092915050565b60006144dd8261457a565b91506144e88361457a565b9250828210156144fb576144fa6146cc565b5b828203905092915050565b60006145118261455a565b9050919050565b60008115159050919050565b6000819050919050565b60007fffffffff0000000000000000000000000000000000000000000000000000000082169050919050565b600073ffffffffffffffffffffffffffffffffffffffff82169050919050565b6000819050919050565b600060ff82169050919050565b600061459c8261457a565b9050919050565b82818337600083830152505050565b60005b838110156145d05780820151818401526020810190506145b5565b838111156145df576000848401525b50505050565b600060028204905060018216806145fd57607f821691505b602082108114156146115761461061472a565b5b50919050565b61462082614788565b810181811067ffffffffffffffff8211171561463f5761463e614759565b5b80604052505050565b60006146538261457a565b91507fffffffffffffffffffffffffffffffffffffffffffffffffffffffffffffffff821415614686576146856146cc565b5b600182019050919050565b6000819050919050565b60006146a68261457a565b91506146b18361457a565b9250826146c1576146c06146fb565b5b828206905092915050565b7f4e487b7100000000000000000000000000000000000000000000000000000000600052601160045260246000fd5b7f4e487b7100000000000000000000000000000000000000000000000000000000600052601260045260246000fd5b7f4e487b7100000000000000000000000000000000000000000000000000000000600052602260045260246000fd5b7f4e487b7100000000000000000000000000000000000000000000000000000000600052604160045260246000fd5b6000601f19601f8301169050919050565b7f636f6f6c646f776e2d6e6f742d65787069726500000000000000000000000000600082015250565b7f4552433732313a207472616e7366657220746f206e6f6e20455243373231526560008201527f63656976657220696d706c656d656e7465720000000000000000000000000000602082015250565b7f4f776e61626c653a206e6577206f776e657220697320746865207a65726f206160008201527f6464726573730000000000000000000000000000000000000000000000000000602082015250565b7f4552433732313a20746f6b656e20616c7265616479206d696e74656400000000600082015250565b7f1901000000000000000000000000000000000000000000000000000000000000600082015250565b7f4552433732313a207472616e7366657220746f20746865207a65726f2061646460008201527f7265737300000000000000000000000000000000000000000000000000000000602082015250565b7f4552433732313a20617070726f766520746f2063616c6c657200000000000000600082015250565b7f696e76616c69642d616464726573732d30000000000000000000000000000000600082015250565b7f4552433732313a206f70657261746f7220717565727920666f72206e6f6e657860008201527f697374656e7420746f6b656e0000000000000000000000000000000000000000602082015250565b7f4552433732313a20617070726f76652063616c6c6572206973206e6f74206f7760008201527f6e6572206e6f7220617070726f76656420666f7220616c6c0000000000000000602082015250565b7f4552433732313a2062616c616e636520717565727920666f7220746865207a6560008201527f726f206164647265737300000000000000000000000000000000000000000000602082015250565b7f4552433732313a206f776e657220717565727920666f72206e6f6e657869737460008201527f656e7420746f6b656e0000000000000000000000000000000000000000000000602082015250565b7f4552433732313a206d696e7420746f20746865207a65726f2061646472657373600082015250565b7f4552433732313a20617070726f76656420717565727920666f72206e6f6e657860008201527f697374656e7420746f6b656e0000000000000000000000000000000000000000602082015250565b7f4f776e61626c653a2063616c6c6572206973206e6f7420746865206f776e6572600082015250565b7f4552433732313a207472616e73666572206f6620746f6b656e2074686174206960008201527f73206e6f74206f776e0000000000000000000000000000000000000000000000602082015250565b7f4552433732314d657461646174613a2055524920717565727920666f72206e6f60008201527f6e6578697374656e7420746f6b656e0000000000000000000000000000000000602082015250565b7f696e76616c69642d7065726d6974000000000000000000000000000000000000600082015250565b7f4552433732313a20617070726f76616c20746f2063757272656e74206f776e6560008201527f7200000000000000000000000000000000000000000000000000000000000000602082015250565b7f696e76616c69642d6e6f6e636500000000000000000000000000000000000000600082015250565b7f4552433732313a207472616e736665722063616c6c6572206973206e6f74206f60008201527f776e6572206e6f7220617070726f766564000000000000000000000000000000602082015250565b7f7065726d69742d65787069726564000000000000000000000000000000000000600082015250565b614cf081614506565b8114614cfb57600080fd5b50565b614d0781614518565b8114614d1257600080fd5b50565b614d1e81614524565b8114614d2957600080fd5b50565b614d358161452e565b8114614d4057600080fd5b50565b614d4c8161457a565b8114614d5757600080fd5b50565b614d6381614584565b8114614d6e57600080fd5b5056fea26469706673582212206785dece0002152e8feac5e602c46f8a5cb0b796bcf2a3c857e9a80d15035f6f64736f6c63430008010033",
  "immutableReferences": {
    "782": [
      {
        "length": 32,
        "start": 3717
      },
      {
        "length": 32,
        "start": 5066
      }
    ]
  },
  "source": "// SPDX-License-Identifier: MIT\r\n\r\npragma solidity >=0.6.0 <0.8.2;\r\n\r\nimport './NFTPermit.sol';\r\nimport \"@openzeppelin/contracts/utils/structs/EnumerableSet.sol\";\r\nimport \"@openzeppelin/contracts/access/Ownable.sol\";\r\n\r\ncontract MomentMarket is NFTPermit, Ownable {\r\n\tusing EnumerableSet for EnumerableSet.UintSet;\r\n\r\n\tconstructor() NFTPermit(2771) {}\r\n\r\n\tevent OrderCreated(\r\n\t\taddress indexed _seller,\r\n\t\tuint256 indexed _tokenId,\r\n\t\tuint256 _orderId\r\n\t);\r\n\r\n\tevent OrderClosed(\r\n\t\taddress indexed _seller,\r\n\t\tuint256 indexed _tokenId,\r\n\t\tuint256 _orderId\r\n\t);\r\n\r\n\tevent OrderSuccessful(\r\n\t\taddress indexed _seller,\r\n\t\taddress indexed _buyer,\r\n\t\tuint256 indexed _tokenId,\r\n\t\tuint256 _orderId,\r\n\t\tuint256 _fee\r\n\t);\r\n\r\n\tstruct Order {\r\n\t\taddress seller;\r\n\t\tuint256 price;\r\n\t\tuint256 createdAt;\r\n\t\tstring currency;\r\n\t\tuint tokenId;\r\n\t\tbool successful;\r\n\t\tbool closed;\r\n\t}\r\n\r\n\tOrder[] public orders;\r\n\r\n\tmapping (uint256 => address) private _orderToOwner;\r\n\tmapping (address => EnumerableSet.UintSet) private _ownerOrders;\r\n\r\n\tmodifier onlyOwnerOfOrder(uint _orderId) {\r\n\t\trequire(msg.sender == address(0) && msg.sender == _orderToOwner[_orderId]);\r\n\t\t_;\r\n\t}\r\n\tmodifier onlyOrderIsOpen(uint _orderId) {\r\n\t\trequire(orders[_orderId].createdAt > 0 && orders[_orderId].closed == false);\r\n\t\t_;\r\n\t}\r\n\r\n\tfunction createOrder(\r\n\t\tuint256 _tokenId, \r\n\t\tuint256 _price, \r\n\t\tstring memory _currency\r\n\t) \r\n\t\texternal \r\n\t\tonlyOwnerOf(_tokenId) \r\n\t{\r\n\t\taddress _seller = msg.sender;\r\n\t\tOrder memory _order = Order(\r\n\t\t\t_seller,\r\n\t\t\t_price,\r\n\t\t\tblock.timestamp,\r\n\t\t\t_currency,\r\n\t\t\t_tokenId,\r\n\t\t\tfalse,\r\n\t\t\tfalse\r\n\t\t);\r\n\r\n\t\torders.push(_order);\r\n\t\tuint _id = orders.length - 1;\r\n\r\n\t\t_orderToOwner[_id] = _seller;\r\n\t\t_ownerOrders[_seller].add(_id);\r\n\r\n\t\t_transfer(_seller, address(this), _tokenId);\r\n\t\t\r\n\t\tOrderCreated(\r\n\t\t\t_seller,\r\n\t\t\t_tokenId,\r\n\t\t\t_id\r\n\t\t);\r\n  \t}\r\n\r\n\tfunction closeOrder(\r\n\t\tuint256 _orderId\r\n\t)\r\n\t\texternal\r\n\t\tonlyOwnerOfOrder(_orderId)\r\n\t\tonlyOrderIsOpen(_orderId)\r\n\t{\r\n\t\tOrder storage _order = orders[_orderId];\r\n\t\t_order.closed = true;\r\n\r\n\t\t_transfer(address(this), msg.sender, _order.tokenId);\r\n\r\n\t\tOrderClosed(\r\n\t\t\tmsg.sender,\r\n\t\t\t_order.tokenId,\r\n\t\t\t_orderId\r\n\t\t);\r\n\t}\r\n\r\n\tfunction buyOrder(\r\n\t\tuint256 _orderId\r\n\t)\r\n\t\texternal\r\n\t\tpayable\r\n\t\tonlyOrderIsOpen(_orderId)\r\n\t{\r\n\t\t_buyOrder(_orderId, msg.value);\r\n\t\t_transfer(address(this), msg.sender, orders[_orderId].tokenId);\r\n\t}\r\n\r\n\tfunction _buyOrder(\r\n\t\tuint256 _orderId,\r\n\t\tuint256 _amount\r\n\t)\r\n\t\tinternal\r\n\t{\r\n\t\tOrder storage _order = orders[_orderId];\r\n\t\trequire(_amount >= _order.price);\r\n\r\n\t\taddress _seller = _order.seller;\r\n\t\tuint256 _price = _order.price;\r\n\t\tuint256 _tokenId = _order.tokenId;\r\n\r\n\t\t_removeOrder(_orderId);\r\n\r\n\t\t// _order.closed = true;\r\n\t\t// _order.successful = true;\r\n\r\n\r\n\t\tif (_amount > 0) {\r\n\t\t\t// We'll be able to add fee\r\n\t\t\ttransferMoney(_seller, _price);\r\n\r\n\t\t\tuint256 _difference = _amount - _price;\r\n\t\t\tif (_difference > 0) {\r\n\t\t\t\ttransferMoney(msg.sender, _difference);\r\n\t\t\t}\r\n\t\t}\r\n\r\n\t\tOrderSuccessful(\r\n\t\t\t_seller,\r\n\t\t\tmsg.sender,\r\n\t\t\t_tokenId,\r\n\t\t\t_orderId,\r\n\t\t\t0\r\n\t\t);\r\n\t}\r\n\r\n\tfunction _removeOrder(uint256 _orderId) internal {\r\n\t\tdelete orders[_orderId];\r\n\t\taddress owner = _orderToOwner[_orderId];\r\n\t\t_ownerOrders[owner].remove(_orderId);\r\n\t\tdelete _orderToOwner[_orderId];\r\n\t}\r\n\r\n\tfunction transferMoney(address _to, uint256 _value) public {\r\n\t\t// address(uint160(_to)).transfer(_value);\r\n\t\taddress payable wallet = payable(_to);\r\n\t\twallet.transfer(_value);\r\n\t\treturn;\r\n\t}\r\n\r\n\t// Temp\r\n\tfunction kill() public onlyOwner {\r\n\t\taddress payable wallet = payable(owner());\r\n\t\tselfdestruct(wallet);\r\n\t}\r\n}",
  "sourcePath": "D:/workspace/node_project/moment/contracts/MomentMarket.sol",
  "compiler": {
    "name": "solc",
    "version": "0.8.1+commit.df193b15.Emscripten.clang"
  },
  "schemaVersion": "3.3.3",
  "updatedAt": "2021-04-14T16:02:39.477Z",
  "networkType": "ethereum",
  "devdoc": {
    "kind": "dev",
    "methods": {
      "approve(address,uint256)": {
        "details": "See {IERC721-approve}."
      },
      "balanceOf(address)": {
        "details": "See {IERC721-balanceOf}."
      },
      "getApproved(uint256)": {
        "details": "See {IERC721-getApproved}."
      },
      "isApprovedForAll(address,address)": {
        "details": "See {IERC721-isApprovedForAll}."
      },
      "name()": {
        "details": "See {IERC721Metadata-name}."
      },
      "owner()": {
        "details": "Returns the address of the current owner."
      },
      "ownerOf(uint256)": {
        "details": "See {IERC721-ownerOf}."
      },
      "renounceOwnership()": {
        "details": "Leaves the contract without owner. It will not be possible to call `onlyOwner` functions anymore. Can only be called by the current owner. NOTE: Renouncing ownership will leave the contract without an owner, thereby removing any functionality that is only available to the owner."
      },
      "safeTransferFrom(address,address,uint256)": {
        "details": "See {IERC721-safeTransferFrom}."
      },
      "safeTransferFrom(address,address,uint256,bytes)": {
        "details": "See {IERC721-safeTransferFrom}."
      },
      "setApprovalForAll(address,bool)": {
        "details": "See {IERC721-setApprovalForAll}."
      },
      "supportsInterface(bytes4)": {
        "details": "See {IERC165-supportsInterface}."
      },
      "symbol()": {
        "details": "See {IERC721Metadata-symbol}."
      },
      "tokenURI(uint256)": {
        "details": "See {IERC721Metadata-tokenURI}."
      },
      "transferFrom(address,address,uint256)": {
        "details": "See {IERC721-transferFrom}."
      },
      "transferOwnership(address)": {
        "details": "Transfers ownership of the contract to a new account (`newOwner`). Can only be called by the current owner."
      },
      "version()": {
        "details": "Setting the version as a function so that it can be overriden"
      }
    },
    "version": 1
  },
  "userdoc": {
    "kind": "user",
    "methods": {},
    "version": 1
  }
}