{
  "contractName": "MomentMarket",
  "abi": [
    {
      "inputs": [],
      "stateMutability": "nonpayable",
      "type": "constructor"
    },
    {
      "anonymous": false,
      "inputs": [
        {
          "indexed": true,
          "internalType": "address",
          "name": "owner",
          "type": "address"
        },
        {
          "indexed": true,
          "internalType": "address",
          "name": "approved",
          "type": "address"
        },
        {
          "indexed": true,
          "internalType": "uint256",
          "name": "tokenId",
          "type": "uint256"
        }
      ],
      "name": "Approval",
      "type": "event"
    },
    {
      "anonymous": false,
      "inputs": [
        {
          "indexed": true,
          "internalType": "address",
          "name": "owner",
          "type": "address"
        },
        {
          "indexed": true,
          "internalType": "address",
          "name": "operator",
          "type": "address"
        },
        {
          "indexed": false,
          "internalType": "bool",
          "name": "approved",
          "type": "bool"
        }
      ],
      "name": "ApprovalForAll",
      "type": "event"
    },
    {
      "anonymous": false,
      "inputs": [
        {
          "indexed": true,
          "internalType": "address",
          "name": "_seller",
          "type": "address"
        },
        {
          "indexed": true,
          "internalType": "uint256",
          "name": "_tokenId",
          "type": "uint256"
        },
        {
          "indexed": false,
          "internalType": "uint256",
          "name": "_orderId",
          "type": "uint256"
        }
      ],
      "name": "OrderClosed",
      "type": "event"
    },
    {
      "anonymous": false,
      "inputs": [
        {
          "indexed": true,
          "internalType": "address",
          "name": "_seller",
          "type": "address"
        },
        {
          "indexed": true,
          "internalType": "uint256",
          "name": "_tokenId",
          "type": "uint256"
        },
        {
          "indexed": false,
          "internalType": "uint256",
          "name": "_orderId",
          "type": "uint256"
        }
      ],
      "name": "OrderCreated",
      "type": "event"
    },
    {
      "anonymous": false,
      "inputs": [
        {
          "indexed": true,
          "internalType": "address",
          "name": "_seller",
          "type": "address"
        },
        {
          "indexed": true,
          "internalType": "address",
          "name": "_buyer",
          "type": "address"
        },
        {
          "indexed": true,
          "internalType": "uint256",
          "name": "_tokenId",
          "type": "uint256"
        },
        {
          "indexed": false,
          "internalType": "uint256",
          "name": "_orderId",
          "type": "uint256"
        },
        {
          "indexed": false,
          "internalType": "uint256",
          "name": "_fee",
          "type": "uint256"
        }
      ],
      "name": "OrderSuccessful",
      "type": "event"
    },
    {
      "anonymous": false,
      "inputs": [
        {
          "indexed": true,
          "internalType": "address",
          "name": "previousOwner",
          "type": "address"
        },
        {
          "indexed": true,
          "internalType": "address",
          "name": "newOwner",
          "type": "address"
        }
      ],
      "name": "OwnershipTransferred",
      "type": "event"
    },
    {
      "anonymous": false,
      "inputs": [
        {
          "indexed": true,
          "internalType": "address",
          "name": "from",
          "type": "address"
        },
        {
          "indexed": true,
          "internalType": "address",
          "name": "to",
          "type": "address"
        },
        {
          "indexed": true,
          "internalType": "uint256",
          "name": "tokenId",
          "type": "uint256"
        }
      ],
      "name": "Transfer",
      "type": "event"
    },
    {
      "inputs": [
        {
          "internalType": "address",
          "name": "to",
          "type": "address"
        },
        {
          "internalType": "uint256",
          "name": "tokenId",
          "type": "uint256"
        }
      ],
      "name": "approve",
      "outputs": [],
      "stateMutability": "nonpayable",
      "type": "function"
    },
    {
      "inputs": [
        {
          "internalType": "address",
          "name": "owner",
          "type": "address"
        }
      ],
      "name": "balanceOf",
      "outputs": [
        {
          "internalType": "uint256",
          "name": "",
          "type": "uint256"
        }
      ],
      "stateMutability": "view",
      "type": "function",
      "constant": true
    },
    {
      "inputs": [
        {
          "internalType": "string",
          "name": "_url",
          "type": "string"
        },
        {
          "internalType": "string",
          "name": "_meta_url",
          "type": "string"
        }
      ],
      "name": "createMoment",
      "outputs": [],
      "stateMutability": "nonpayable",
      "type": "function"
    },
    {
      "inputs": [
        {
          "internalType": "uint256",
          "name": "tokenId",
          "type": "uint256"
        }
      ],
      "name": "getApproved",
      "outputs": [
        {
          "internalType": "address",
          "name": "",
          "type": "address"
        }
      ],
      "stateMutability": "view",
      "type": "function",
      "constant": true
    },
    {
      "inputs": [
        {
          "internalType": "address",
          "name": "owner",
          "type": "address"
        },
        {
          "internalType": "address",
          "name": "operator",
          "type": "address"
        }
      ],
      "name": "isApprovedForAll",
      "outputs": [
        {
          "internalType": "bool",
          "name": "",
          "type": "bool"
        }
      ],
      "stateMutability": "view",
      "type": "function",
      "constant": true
    },
    {
      "inputs": [
        {
          "internalType": "uint256",
          "name": "",
          "type": "uint256"
        }
      ],
      "name": "moments",
      "outputs": [
        {
          "internalType": "string",
          "name": "url",
          "type": "string"
        },
        {
          "internalType": "string",
          "name": "meta_url",
          "type": "string"
        },
        {
          "internalType": "uint256",
          "name": "created_at",
          "type": "uint256"
        }
      ],
      "stateMutability": "view",
      "type": "function",
      "constant": true
    },
    {
      "inputs": [],
      "name": "name",
      "outputs": [
        {
          "internalType": "string",
          "name": "",
          "type": "string"
        }
      ],
      "stateMutability": "view",
      "type": "function",
      "constant": true
    },
    {
      "inputs": [
        {
          "internalType": "uint256",
          "name": "",
          "type": "uint256"
        }
      ],
      "name": "orders",
      "outputs": [
        {
          "internalType": "address",
          "name": "seller",
          "type": "address"
        },
        {
          "internalType": "uint256",
          "name": "price",
          "type": "uint256"
        },
        {
          "internalType": "uint256",
          "name": "createdAt",
          "type": "uint256"
        },
        {
          "internalType": "string",
          "name": "currency",
          "type": "string"
        },
        {
          "internalType": "uint256",
          "name": "tokenId",
          "type": "uint256"
        },
        {
          "internalType": "bool",
          "name": "successful",
          "type": "bool"
        },
        {
          "internalType": "bool",
          "name": "closed",
          "type": "bool"
        }
      ],
      "stateMutability": "view",
      "type": "function",
      "constant": true
    },
    {
      "inputs": [],
      "name": "owner",
      "outputs": [
        {
          "internalType": "address",
          "name": "",
          "type": "address"
        }
      ],
      "stateMutability": "view",
      "type": "function",
      "constant": true
    },
    {
      "inputs": [
        {
          "internalType": "uint256",
          "name": "tokenId",
          "type": "uint256"
        }
      ],
      "name": "ownerOf",
      "outputs": [
        {
          "internalType": "address",
          "name": "",
          "type": "address"
        }
      ],
      "stateMutability": "view",
      "type": "function",
      "constant": true
    },
    {
      "inputs": [],
      "name": "renounceOwnership",
      "outputs": [],
      "stateMutability": "nonpayable",
      "type": "function"
    },
    {
      "inputs": [
        {
          "internalType": "address",
          "name": "from",
          "type": "address"
        },
        {
          "internalType": "address",
          "name": "to",
          "type": "address"
        },
        {
          "internalType": "uint256",
          "name": "tokenId",
          "type": "uint256"
        }
      ],
      "name": "safeTransferFrom",
      "outputs": [],
      "stateMutability": "nonpayable",
      "type": "function"
    },
    {
      "inputs": [
        {
          "internalType": "address",
          "name": "from",
          "type": "address"
        },
        {
          "internalType": "address",
          "name": "to",
          "type": "address"
        },
        {
          "internalType": "uint256",
          "name": "tokenId",
          "type": "uint256"
        },
        {
          "internalType": "bytes",
          "name": "_data",
          "type": "bytes"
        }
      ],
      "name": "safeTransferFrom",
      "outputs": [],
      "stateMutability": "nonpayable",
      "type": "function"
    },
    {
      "inputs": [
        {
          "internalType": "address",
          "name": "operator",
          "type": "address"
        },
        {
          "internalType": "bool",
          "name": "approved",
          "type": "bool"
        }
      ],
      "name": "setApprovalForAll",
      "outputs": [],
      "stateMutability": "nonpayable",
      "type": "function"
    },
    {
      "inputs": [
        {
          "internalType": "bytes4",
          "name": "interfaceId",
          "type": "bytes4"
        }
      ],
      "name": "supportsInterface",
      "outputs": [
        {
          "internalType": "bool",
          "name": "",
          "type": "bool"
        }
      ],
      "stateMutability": "view",
      "type": "function",
      "constant": true
    },
    {
      "inputs": [],
      "name": "symbol",
      "outputs": [
        {
          "internalType": "string",
          "name": "",
          "type": "string"
        }
      ],
      "stateMutability": "view",
      "type": "function",
      "constant": true
    },
    {
      "inputs": [
        {
          "internalType": "uint256",
          "name": "tokenId",
          "type": "uint256"
        }
      ],
      "name": "tokenURI",
      "outputs": [
        {
          "internalType": "string",
          "name": "",
          "type": "string"
        }
      ],
      "stateMutability": "view",
      "type": "function",
      "constant": true
    },
    {
      "inputs": [
        {
          "internalType": "address",
          "name": "_owner",
          "type": "address"
        }
      ],
      "name": "tokensOfOwner",
      "outputs": [
        {
          "internalType": "uint256[]",
          "name": "ownerTokens",
          "type": "uint256[]"
        }
      ],
      "stateMutability": "view",
      "type": "function",
      "constant": true
    },
    {
      "inputs": [
        {
          "internalType": "address",
          "name": "from",
          "type": "address"
        },
        {
          "internalType": "address",
          "name": "to",
          "type": "address"
        },
        {
          "internalType": "uint256",
          "name": "tokenId",
          "type": "uint256"
        }
      ],
      "name": "transferFrom",
      "outputs": [],
      "stateMutability": "nonpayable",
      "type": "function"
    },
    {
      "inputs": [
        {
          "internalType": "address",
          "name": "newOwner",
          "type": "address"
        }
      ],
      "name": "transferOwnership",
      "outputs": [],
      "stateMutability": "nonpayable",
      "type": "function"
    },
    {
      "inputs": [
        {
          "internalType": "uint256",
          "name": "_tokenId",
          "type": "uint256"
        },
        {
          "internalType": "uint256",
          "name": "_price",
          "type": "uint256"
        },
        {
          "internalType": "string",
          "name": "_currency",
          "type": "string"
        }
      ],
      "name": "createOrder",
      "outputs": [],
      "stateMutability": "nonpayable",
      "type": "function"
    },
    {
      "inputs": [
        {
          "internalType": "uint256",
          "name": "_orderId",
          "type": "uint256"
        }
      ],
      "name": "closeOrder",
      "outputs": [],
      "stateMutability": "nonpayable",
      "type": "function"
    },
    {
      "inputs": [
        {
          "internalType": "uint256",
          "name": "_orderId",
          "type": "uint256"
        }
      ],
      "name": "buyOrder",
      "outputs": [],
      "stateMutability": "payable",
      "type": "function",
      "payable": true
    },
    {
      "inputs": [
        {
          "internalType": "address",
          "name": "_to",
          "type": "address"
        },
        {
          "internalType": "uint256",
          "name": "_value",
          "type": "uint256"
        }
      ],
      "name": "transferMoney",
      "outputs": [],
      "stateMutability": "nonpayable",
      "type": "function"
    },
    {
      "inputs": [],
      "name": "kill",
      "outputs": [],
      "stateMutability": "nonpayable",
      "type": "function"
    }
  ],
  "bytecode": "0x60806040523480156200001157600080fd5b506040518060400160405280600681526020017f4d6f6d656e7400000000000000000000000000000000000000000000000000008152506040518060400160405280600381526020017f4d4d54000000000000000000000000000000000000000000000000000000000081525081600090805190602001906200009692919062000171565b508060019080519060200190620000af92919062000171565b5050506000620000c46200016960201b60201c565b905080600760006101000a81548173ffffffffffffffffffffffffffffffffffffffff021916908373ffffffffffffffffffffffffffffffffffffffff1602179055508073ffffffffffffffffffffffffffffffffffffffff16600073ffffffffffffffffffffffffffffffffffffffff167f8be0079c531659141344cd1fd0a4f28419497f9722a3daafe3b4186f6b6457e060405160405180910390a35062000286565b600033905090565b8280546200017f9062000221565b90600052602060002090601f016020900481019282620001a35760008555620001ef565b82601f10620001be57805160ff1916838001178555620001ef565b82800160010185558215620001ef579182015b82811115620001ee578251825591602001919060010190620001d1565b5b509050620001fe919062000202565b5090565b5b808211156200021d57600081600090555060010162000203565b5090565b600060028204905060018216806200023a57607f821691505b6020821081141562000251576200025062000257565b5b50919050565b7f4e487b7100000000000000000000000000000000000000000000000000000000600052602260045260246000fd5b6142cb80620002966000396000f3fe6080604052600436106101665760003560e01c806370a08231116100d1578063a22cb4651161008a578063c87b56dd11610064578063c87b56dd14610531578063e985e9c51461056e578063f2fde38b146105ab578063fee666ad146105d457610166565b8063a22cb4651461049c578063a85c38ef146104c5578063b88d4fde1461050857610166565b806370a0823114610376578063715018a6146103b35780638462151c146103ca5780638da5cb5b1461040757806395d89b41146104325780639c4ff9c71461045d57610166565b806323b872dd1161012357806323b872dd1461027e57806341c0e1b5146102a757806342842e0e146102be57806353c3a0ba146102e75780636061f754146103105780636352211e1461033957610166565b806301ffc9a71461016b578063069d6d1c146101a857806306fdde03146101d1578063081812fc146101fc578063095ea7b31461023957806322f85eaa14610262575b600080fd5b34801561017757600080fd5b50610192600480360381019061018d91906130e6565b6105fd565b60405161019f91906136eb565b60405180910390f35b3480156101b457600080fd5b506101cf60048036038101906101ca91906131a4565b6106df565b005b3480156101dd57600080fd5b506101e6610915565b6040516101f39190613706565b60405180910390f35b34801561020857600080fd5b50610223600480360381019061021e91906131a4565b6109a7565b60405161023091906135ec565b60405180910390f35b34801561024557600080fd5b50610260600480360381019061025b91906130aa565b610a2c565b005b61027c600480360381019061027791906131a4565b610b44565b005b34801561028a57600080fd5b506102a560048036038101906102a09190612fa4565b610c69565b005b3480156102b357600080fd5b506102bc610cc9565b005b3480156102ca57600080fd5b506102e560048036038101906102e09190612fa4565b610d6a565b005b3480156102f357600080fd5b5061030e60048036038101906103099190613138565b610d8a565b005b34801561031c57600080fd5b50610337600480360381019061033291906131cd565b610e3b565b005b34801561034557600080fd5b50610360600480360381019061035b91906131a4565b6110e1565b60405161036d91906135ec565b60405180910390f35b34801561038257600080fd5b5061039d60048036038101906103989190612f3f565b611193565b6040516103aa919061396d565b60405180910390f35b3480156103bf57600080fd5b506103c861124b565b005b3480156103d657600080fd5b506103f160048036038101906103ec9190612f3f565b611388565b6040516103fe91906136c9565b60405180910390f35b34801561041357600080fd5b5061041c61155e565b60405161042991906135ec565b60405180910390f35b34801561043e57600080fd5b50610447611588565b6040516104549190613706565b60405180910390f35b34801561046957600080fd5b50610484600480360381019061047f91906131a4565b61161a565b60405161049393929190613728565b60405180910390f35b3480156104a857600080fd5b506104c360048036038101906104be919061306e565b611764565b005b3480156104d157600080fd5b506104ec60048036038101906104e791906131a4565b6118e5565b6040516104ff9796959493929190613653565b60405180910390f35b34801561051457600080fd5b5061052f600480360381019061052a9190612ff3565b6119f9565b005b34801561053d57600080fd5b50610558600480360381019061055391906131a4565b611a5b565b6040516105659190613706565b60405180910390f35b34801561057a57600080fd5b5061059560048036038101906105909190612f68565b611b02565b6040516105a291906136eb565b60405180910390f35b3480156105b757600080fd5b506105d260048036038101906105cd9190612f3f565b611b96565b005b3480156105e057600080fd5b506105fb60048036038101906105f691906130aa565b611d42565b005b60007f80ac58cd000000000000000000000000000000000000000000000000000000007bffffffffffffffffffffffffffffffffffffffffffffffffffffffff1916827bffffffffffffffffffffffffffffffffffffffffffffffffffffffff191614806106c857507f5b5e139f000000000000000000000000000000000000000000000000000000007bffffffffffffffffffffffffffffffffffffffffffffffffffffffff1916827bffffffffffffffffffffffffffffffffffffffffffffffffffffffff1916145b806106d857506106d782611d93565b5b9050919050565b80600073ffffffffffffffffffffffffffffffffffffffff163373ffffffffffffffffffffffffffffffffffffffff1614801561077a57506009600082815260200190815260200160002060009054906101000a900473ffffffffffffffffffffffffffffffffffffffff1673ffffffffffffffffffffffffffffffffffffffff163373ffffffffffffffffffffffffffffffffffffffff16145b61078357600080fd5b816000600882815481106107c0577f4e487b7100000000000000000000000000000000000000000000000000000000600052603260045260246000fd5b90600052602060002090600602016002015411801561083b57506000151560088281548110610818577f4e487b7100000000000000000000000000000000000000000000000000000000600052603260045260246000fd5b906000526020600020906006020160050160019054906101000a900460ff161515145b61084457600080fd5b600060088481548110610880577f4e487b7100000000000000000000000000000000000000000000000000000000600052603260045260246000fd5b9060005260206000209060060201905060018160050160016101000a81548160ff0219169083151502179055506108bc30338360040154611dfd565b80600401543373ffffffffffffffffffffffffffffffffffffffff167fdd1bdc77e3cc244141600de256428e5a4fa93f9ba200229891d491113906922286604051610907919061396d565b60405180910390a350505050565b60606000805461092490613c37565b80601f016020809104026020016040519081016040528092919081815260200182805461095090613c37565b801561099d5780601f106109725761010080835404028352916020019161099d565b820191906000526020600020905b81548152906001019060200180831161098057829003601f168201915b5050505050905090565b60006109b282612059565b6109f1576040517f08c379a00000000000000000000000000000000000000000000000000000000081526004016109e8906138ad565b60405180910390fd5b6004600083815260200190815260200160002060009054906101000a900473ffffffffffffffffffffffffffffffffffffffff169050919050565b6000610a37826110e1565b90508073ffffffffffffffffffffffffffffffffffffffff168373ffffffffffffffffffffffffffffffffffffffff161415610aa8576040517f08c379a0000000000000000000000000000000000000000000000000000000008152600401610a9f9061392d565b60405180910390fd5b8073ffffffffffffffffffffffffffffffffffffffff16610ac76120c5565b73ffffffffffffffffffffffffffffffffffffffff161480610af65750610af581610af06120c5565b611b02565b5b610b35576040517f08c379a0000000000000000000000000000000000000000000000000000000008152600401610b2c9061382d565b60405180910390fd5b610b3f83836120cd565b505050565b80600060088281548110610b81577f4e487b7100000000000000000000000000000000000000000000000000000000600052603260045260246000fd5b906000526020600020906006020160020154118015610bfc57506000151560088281548110610bd9577f4e487b7100000000000000000000000000000000000000000000000000000000600052603260045260246000fd5b906000526020600020906006020160050160019054906101000a900460ff161515145b610c0557600080fd5b610c0f8234612186565b610c65303360088581548110610c4e577f4e487b7100000000000000000000000000000000000000000000000000000000600052603260045260246000fd5b906000526020600020906006020160040154611dfd565b5050565b610c7a610c746120c5565b826122d1565b610cb9576040517f08c379a0000000000000000000000000000000000000000000000000000000008152600401610cb09061394d565b60405180910390fd5b610cc4838383611dfd565b505050565b610cd16120c5565b73ffffffffffffffffffffffffffffffffffffffff16610cef61155e565b73ffffffffffffffffffffffffffffffffffffffff1614610d45576040517f08c379a0000000000000000000000000000000000000000000000000000000008152600401610d3c906138cd565b60405180910390fd5b6000610d4f61155e565b90508073ffffffffffffffffffffffffffffffffffffffff16ff5b610d85838383604051806020016040528060008152506119f9565b505050565b600660405180606001604052808481526020018381526020014281525090806001815401808255809150506001900390600052602060002090600302016000909190919091506000820151816000019080519060200190610dec929190612d23565b506020820151816001019080519060200190610e09929190612d23565b5060408201518160020155505060006001600680549050610e2a9190613b3b565b9050610e3633826123af565b505050565b82610e45816110e1565b73ffffffffffffffffffffffffffffffffffffffff163373ffffffffffffffffffffffffffffffffffffffff1614610e7c57600080fd5b600033905060006040518060e001604052808373ffffffffffffffffffffffffffffffffffffffff168152602001868152602001428152602001858152602001878152602001600015158152602001600015158152509050600881908060018154018082558091505060019003906000526020600020906006020160009091909190915060008201518160000160006101000a81548173ffffffffffffffffffffffffffffffffffffffff021916908373ffffffffffffffffffffffffffffffffffffffff16021790555060208201518160010155604082015181600201556060820151816003019080519060200190610f77929190612d23565b506080820151816004015560a08201518160050160006101000a81548160ff02191690831515021790555060c08201518160050160016101000a81548160ff021916908315150217905550505060006001600880549050610fd89190613b3b565b9050826009600083815260200190815260200160002060006101000a81548173ffffffffffffffffffffffffffffffffffffffff021916908373ffffffffffffffffffffffffffffffffffffffff16021790555061107d81600a60008673ffffffffffffffffffffffffffffffffffffffff1673ffffffffffffffffffffffffffffffffffffffff16815260200190815260200160002061257d90919063ffffffff16565b50611089833089611dfd565b868373ffffffffffffffffffffffffffffffffffffffff167fbb4cd350108fec46a02c87acb34a38f6c465fb2dc050687359c97229703bb8f4836040516110d0919061396d565b60405180910390a350505050505050565b6000806002600084815260200190815260200160002060009054906101000a900473ffffffffffffffffffffffffffffffffffffffff169050600073ffffffffffffffffffffffffffffffffffffffff168173ffffffffffffffffffffffffffffffffffffffff16141561118a576040517f08c379a00000000000000000000000000000000000000000000000000000000081526004016111819061386d565b60405180910390fd5b80915050919050565b60008073ffffffffffffffffffffffffffffffffffffffff168273ffffffffffffffffffffffffffffffffffffffff161415611204576040517f08c379a00000000000000000000000000000000000000000000000000000000081526004016111fb9061384d565b60405180910390fd5b600360008373ffffffffffffffffffffffffffffffffffffffff1673ffffffffffffffffffffffffffffffffffffffff168152602001908152602001600020549050919050565b6112536120c5565b73ffffffffffffffffffffffffffffffffffffffff1661127161155e565b73ffffffffffffffffffffffffffffffffffffffff16146112c7576040517f08c379a00000000000000000000000000000000000000000000000000000000081526004016112be906138cd565b60405180910390fd5b600073ffffffffffffffffffffffffffffffffffffffff16600760009054906101000a900473ffffffffffffffffffffffffffffffffffffffff1673ffffffffffffffffffffffffffffffffffffffff167f8be0079c531659141344cd1fd0a4f28419497f9722a3daafe3b4186f6b6457e060405160405180910390a36000600760006101000a81548173ffffffffffffffffffffffffffffffffffffffff021916908373ffffffffffffffffffffffffffffffffffffffff160217905550565b6060600061139583611193565b9050600081141561141857600067ffffffffffffffff8111156113e1577f4e487b7100000000000000000000000000000000000000000000000000000000600052604160045260246000fd5b60405190808252806020026020018201604052801561140f5781602001602082028036833780820191505090505b50915050611559565b60008167ffffffffffffffff81111561145a577f4e487b7100000000000000000000000000000000000000000000000000000000600052604160045260246000fd5b6040519080825280602002602001820160405280156114885781602001602082028036833780820191505090505b5090506000600160068054905061149f9190613b3b565b90506000805b828111611550578673ffffffffffffffffffffffffffffffffffffffff166114cc826110e1565b73ffffffffffffffffffffffffffffffffffffffff16141561153d5780848381518110611522577f4e487b7100000000000000000000000000000000000000000000000000000000600052603260045260246000fd5b602002602001018181525050818061153990613c9a565b9250505b808061154890613c9a565b9150506114a5565b83955050505050505b919050565b6000600760009054906101000a900473ffffffffffffffffffffffffffffffffffffffff16905090565b60606001805461159790613c37565b80601f01602080910402602001604051908101604052809291908181526020018280546115c390613c37565b80156116105780601f106115e557610100808354040283529160200191611610565b820191906000526020600020905b8154815290600101906020018083116115f357829003601f168201915b5050505050905090565b6006818154811061162a57600080fd5b906000526020600020906003020160009150905080600001805461164d90613c37565b80601f016020809104026020016040519081016040528092919081815260200182805461167990613c37565b80156116c65780601f1061169b576101008083540402835291602001916116c6565b820191906000526020600020905b8154815290600101906020018083116116a957829003601f168201915b5050505050908060010180546116db90613c37565b80601f016020809104026020016040519081016040528092919081815260200182805461170790613c37565b80156117545780601f1061172957610100808354040283529160200191611754565b820191906000526020600020905b81548152906001019060200180831161173757829003601f168201915b5050505050908060020154905083565b61176c6120c5565b73ffffffffffffffffffffffffffffffffffffffff168273ffffffffffffffffffffffffffffffffffffffff1614156117da576040517f08c379a00000000000000000000000000000000000000000000000000000000081526004016117d1906137ed565b60405180910390fd5b80600560006117e76120c5565b73ffffffffffffffffffffffffffffffffffffffff1673ffffffffffffffffffffffffffffffffffffffff16815260200190815260200160002060008473ffffffffffffffffffffffffffffffffffffffff1673ffffffffffffffffffffffffffffffffffffffff16815260200190815260200160002060006101000a81548160ff0219169083151502179055508173ffffffffffffffffffffffffffffffffffffffff166118946120c5565b73ffffffffffffffffffffffffffffffffffffffff167f17307eab39ab6107e8899845ad3d59bd9653f200f220920489ca2b5937696c31836040516118d991906136eb565b60405180910390a35050565b600881815481106118f557600080fd5b90600052602060002090600602016000915090508060000160009054906101000a900473ffffffffffffffffffffffffffffffffffffffff169080600101549080600201549080600301805461194a90613c37565b80601f016020809104026020016040519081016040528092919081815260200182805461197690613c37565b80156119c35780601f10611998576101008083540402835291602001916119c3565b820191906000526020600020905b8154815290600101906020018083116119a657829003601f168201915b5050505050908060040154908060050160009054906101000a900460ff16908060050160019054906101000a900460ff16905087565b611a0a611a046120c5565b836122d1565b611a49576040517f08c379a0000000000000000000000000000000000000000000000000000000008152600401611a409061394d565b60405180910390fd5b611a5584848484612597565b50505050565b6060611a6682612059565b611aa5576040517f08c379a0000000000000000000000000000000000000000000000000000000008152600401611a9c9061390d565b60405180910390fd5b6000611aaf6125f3565b90506000815111611acf5760405180602001604052806000815250611afa565b80611ad98461260a565b604051602001611aea9291906135c8565b6040516020818303038152906040525b915050919050565b6000600560008473ffffffffffffffffffffffffffffffffffffffff1673ffffffffffffffffffffffffffffffffffffffff16815260200190815260200160002060008373ffffffffffffffffffffffffffffffffffffffff1673ffffffffffffffffffffffffffffffffffffffff16815260200190815260200160002060009054906101000a900460ff16905092915050565b611b9e6120c5565b73ffffffffffffffffffffffffffffffffffffffff16611bbc61155e565b73ffffffffffffffffffffffffffffffffffffffff1614611c12576040517f08c379a0000000000000000000000000000000000000000000000000000000008152600401611c09906138cd565b60405180910390fd5b600073ffffffffffffffffffffffffffffffffffffffff168173ffffffffffffffffffffffffffffffffffffffff161415611c82576040517f08c379a0000000000000000000000000000000000000000000000000000000008152600401611c799061378d565b60405180910390fd5b8073ffffffffffffffffffffffffffffffffffffffff16600760009054906101000a900473ffffffffffffffffffffffffffffffffffffffff1673ffffffffffffffffffffffffffffffffffffffff167f8be0079c531659141344cd1fd0a4f28419497f9722a3daafe3b4186f6b6457e060405160405180910390a380600760006101000a81548173ffffffffffffffffffffffffffffffffffffffff021916908373ffffffffffffffffffffffffffffffffffffffff16021790555050565b60008290508073ffffffffffffffffffffffffffffffffffffffff166108fc839081150290604051600060405180830381858888f19350505050158015611d8d573d6000803e3d6000fd5b50505050565b60007f01ffc9a7000000000000000000000000000000000000000000000000000000007bffffffffffffffffffffffffffffffffffffffffffffffffffffffff1916827bffffffffffffffffffffffffffffffffffffffffffffffffffffffff1916149050919050565b8273ffffffffffffffffffffffffffffffffffffffff16611e1d826110e1565b73ffffffffffffffffffffffffffffffffffffffff1614611e73576040517f08c379a0000000000000000000000000000000000000000000000000000000008152600401611e6a906138ed565b60405180910390fd5b600073ffffffffffffffffffffffffffffffffffffffff168273ffffffffffffffffffffffffffffffffffffffff161415611ee3576040517f08c379a0000000000000000000000000000000000000000000000000000000008152600401611eda906137cd565b60405180910390fd5b611eee8383836127b7565b611ef96000826120cd565b6001600360008573ffffffffffffffffffffffffffffffffffffffff1673ffffffffffffffffffffffffffffffffffffffff1681526020019081526020016000206000828254611f499190613b3b565b925050819055506001600360008473ffffffffffffffffffffffffffffffffffffffff1673ffffffffffffffffffffffffffffffffffffffff1681526020019081526020016000206000828254611fa09190613ab4565b92505081905550816002600083815260200190815260200160002060006101000a81548173ffffffffffffffffffffffffffffffffffffffff021916908373ffffffffffffffffffffffffffffffffffffffff160217905550808273ffffffffffffffffffffffffffffffffffffffff168473ffffffffffffffffffffffffffffffffffffffff167fddf252ad1be2c89b69c2b068fc378daa952ba7f163c4a11628f55a4df523b3ef60405160405180910390a4505050565b60008073ffffffffffffffffffffffffffffffffffffffff166002600084815260200190815260200160002060009054906101000a900473ffffffffffffffffffffffffffffffffffffffff1673ffffffffffffffffffffffffffffffffffffffff1614159050919050565b600033905090565b816004600083815260200190815260200160002060006101000a81548173ffffffffffffffffffffffffffffffffffffffff021916908373ffffffffffffffffffffffffffffffffffffffff160217905550808273ffffffffffffffffffffffffffffffffffffffff16612140836110e1565b73ffffffffffffffffffffffffffffffffffffffff167f8c5be1e5ebec7d5bd14f71427d1e84f3dd0314c0f7b2291e5b200ac8c7c3b92560405160405180910390a45050565b6000600883815481106121c2577f4e487b7100000000000000000000000000000000000000000000000000000000600052603260045260246000fd5b9060005260206000209060060201905080600101548210156121e357600080fd5b60008160000160009054906101000a900473ffffffffffffffffffffffffffffffffffffffff169050600082600101549050600083600401549050612227866127bc565b60008511156122605761223a8383611d42565b600082866122489190613b3b565b9050600081111561225e5761225d3382611d42565b5b505b803373ffffffffffffffffffffffffffffffffffffffff168473ffffffffffffffffffffffffffffffffffffffff167f09e188971dbdbef2aee7a6707aa7640ddbc064491d979f7b4d02b12e877e71b18960006040516122c1929190613988565b60405180910390a4505050505050565b60006122dc82612059565b61231b576040517f08c379a00000000000000000000000000000000000000000000000000000000081526004016123129061380d565b60405180910390fd5b6000612326836110e1565b90508073ffffffffffffffffffffffffffffffffffffffff168473ffffffffffffffffffffffffffffffffffffffff16148061239557508373ffffffffffffffffffffffffffffffffffffffff1661237d846109a7565b73ffffffffffffffffffffffffffffffffffffffff16145b806123a657506123a58185611b02565b5b91505092915050565b600073ffffffffffffffffffffffffffffffffffffffff168273ffffffffffffffffffffffffffffffffffffffff16141561241f576040517f08c379a00000000000000000000000000000000000000000000000000000000081526004016124169061388d565b60405180910390fd5b61242881612059565b15612468576040517f08c379a000000000000000000000000000000000000000000000000000000000815260040161245f906137ad565b60405180910390fd5b612474600083836127b7565b6001600360008473ffffffffffffffffffffffffffffffffffffffff1673ffffffffffffffffffffffffffffffffffffffff16815260200190815260200160002060008282546124c49190613ab4565b92505081905550816002600083815260200190815260200160002060006101000a81548173ffffffffffffffffffffffffffffffffffffffff021916908373ffffffffffffffffffffffffffffffffffffffff160217905550808273ffffffffffffffffffffffffffffffffffffffff16600073ffffffffffffffffffffffffffffffffffffffff167fddf252ad1be2c89b69c2b068fc378daa952ba7f163c4a11628f55a4df523b3ef60405160405180910390a45050565b600061258f836000018360001b612942565b905092915050565b6125a2848484611dfd565b6125ae848484846129b2565b6125ed576040517f08c379a00000000000000000000000000000000000000000000000000000000081526004016125e49061376d565b60405180910390fd5b50505050565b606060405180602001604052806000815250905090565b60606000821415612652576040518060400160405280600181526020017f300000000000000000000000000000000000000000000000000000000000000081525090506127b2565b600082905060005b6000821461268457808061266d90613c9a565b915050600a8261267d9190613b0a565b915061265a565b60008167ffffffffffffffff8111156126c6577f4e487b7100000000000000000000000000000000000000000000000000000000600052604160045260246000fd5b6040519080825280601f01601f1916602001820160405280156126f85781602001600182028036833780820191505090505b5090505b600085146127ab576001826127119190613b3b565b9150600a856127209190613ce3565b603061272c9190613ab4565b60f81b818381518110612768577f4e487b7100000000000000000000000000000000000000000000000000000000600052603260045260246000fd5b60200101907effffffffffffffffffffffffffffffffffffffffffffffffffffffffffffff1916908160001a905350600a856127a49190613b0a565b94506126fc565b8093505050505b919050565b505050565b600881815481106127f6577f4e487b7100000000000000000000000000000000000000000000000000000000600052603260045260246000fd5b9060005260206000209060060201600080820160006101000a81549073ffffffffffffffffffffffffffffffffffffffff02191690556001820160009055600282016000905560038201600061284c9190612da9565b60048201600090556005820160006101000a81549060ff02191690556005820160016101000a81549060ff0219169055505060006009600083815260200190815260200160002060009054906101000a900473ffffffffffffffffffffffffffffffffffffffff16905061290782600a60008473ffffffffffffffffffffffffffffffffffffffff1673ffffffffffffffffffffffffffffffffffffffff168152602001908152602001600020612b4990919063ffffffff16565b506009600083815260200190815260200160002060006101000a81549073ffffffffffffffffffffffffffffffffffffffff02191690555050565b600061294e8383612b63565b6129a75782600001829080600181540180825580915050600190039060005260206000200160009091909190915055826000018054905083600101600084815260200190815260200160002081905550600190506129ac565b600090505b92915050565b60006129d38473ffffffffffffffffffffffffffffffffffffffff16612b86565b15612b3c578373ffffffffffffffffffffffffffffffffffffffff1663150b7a026129fc6120c5565b8786866040518563ffffffff1660e01b8152600401612a1e9493929190613607565b602060405180830381600087803b158015612a3857600080fd5b505af1925050508015612a6957506040513d601f19601f82011682018060405250810190612a66919061310f565b60015b612aec573d8060008114612a99576040519150601f19603f3d011682016040523d82523d6000602084013e612a9e565b606091505b50600081511415612ae4576040517f08c379a0000000000000000000000000000000000000000000000000000000008152600401612adb9061376d565b60405180910390fd5b805181602001fd5b63150b7a0260e01b7bffffffffffffffffffffffffffffffffffffffffffffffffffffffff1916817bffffffffffffffffffffffffffffffffffffffffffffffffffffffff191614915050612b41565b600190505b949350505050565b6000612b5b836000018360001b612b99565b905092915050565b600080836001016000848152602001908152602001600020541415905092915050565b600080823b905060008111915050919050565b60008083600101600084815260200190815260200160002054905060008114612d17576000600182612bcb9190613b3b565b9050600060018660000180549050612be39190613b3b565b90506000866000018281548110612c23577f4e487b7100000000000000000000000000000000000000000000000000000000600052603260045260246000fd5b9060005260206000200154905080876000018481548110612c6d577f4e487b7100000000000000000000000000000000000000000000000000000000600052603260045260246000fd5b9060005260206000200181905550600183612c889190613ab4565b8760010160008381526020019081526020016000208190555086600001805480612cdb577f4e487b7100000000000000000000000000000000000000000000000000000000600052603160045260246000fd5b60019003818190600052602060002001600090559055866001016000878152602001908152602001600020600090556001945050505050612d1d565b60009150505b92915050565b828054612d2f90613c37565b90600052602060002090601f016020900481019282612d515760008555612d98565b82601f10612d6a57805160ff1916838001178555612d98565b82800160010185558215612d98579182015b82811115612d97578251825591602001919060010190612d7c565b5b509050612da59190612de9565b5090565b508054612db590613c37565b6000825580601f10612dc75750612de6565b601f016020900490600052602060002090810190612de59190612de9565b5b50565b5b80821115612e02576000816000905550600101612dea565b5090565b6000612e19612e14846139d6565b6139b1565b905082815260208101848484011115612e3157600080fd5b612e3c848285613bf5565b509392505050565b6000612e57612e5284613a07565b6139b1565b905082815260208101848484011115612e6f57600080fd5b612e7a848285613bf5565b509392505050565b600081359050612e9181614239565b92915050565b600081359050612ea681614250565b92915050565b600081359050612ebb81614267565b92915050565b600081519050612ed081614267565b92915050565b600082601f830112612ee757600080fd5b8135612ef7848260208601612e06565b91505092915050565b600082601f830112612f1157600080fd5b8135612f21848260208601612e44565b91505092915050565b600081359050612f398161427e565b92915050565b600060208284031215612f5157600080fd5b6000612f5f84828501612e82565b91505092915050565b60008060408385031215612f7b57600080fd5b6000612f8985828601612e82565b9250506020612f9a85828601612e82565b9150509250929050565b600080600060608486031215612fb957600080fd5b6000612fc786828701612e82565b9350506020612fd886828701612e82565b9250506040612fe986828701612f2a565b9150509250925092565b6000806000806080858703121561300957600080fd5b600061301787828801612e82565b945050602061302887828801612e82565b935050604061303987828801612f2a565b925050606085013567ffffffffffffffff81111561305657600080fd5b61306287828801612ed6565b91505092959194509250565b6000806040838503121561308157600080fd5b600061308f85828601612e82565b92505060206130a085828601612e97565b9150509250929050565b600080604083850312156130bd57600080fd5b60006130cb85828601612e82565b92505060206130dc85828601612f2a565b9150509250929050565b6000602082840312156130f857600080fd5b600061310684828501612eac565b91505092915050565b60006020828403121561312157600080fd5b600061312f84828501612ec1565b91505092915050565b6000806040838503121561314b57600080fd5b600083013567ffffffffffffffff81111561316557600080fd5b61317185828601612f00565b925050602083013567ffffffffffffffff81111561318e57600080fd5b61319a85828601612f00565b9150509250929050565b6000602082840312156131b657600080fd5b60006131c484828501612f2a565b91505092915050565b6000806000606084860312156131e257600080fd5b60006131f086828701612f2a565b935050602061320186828701612f2a565b925050604084013567ffffffffffffffff81111561321e57600080fd5b61322a86828701612f00565b9150509250925092565b600061324083836135aa565b60208301905092915050565b61325581613b6f565b82525050565b600061326682613a48565b6132708185613a76565b935061327b83613a38565b8060005b838110156132ac5781516132938882613234565b975061329e83613a69565b92505060018101905061327f565b5085935050505092915050565b6132c281613b81565b82525050565b60006132d382613a53565b6132dd8185613a87565b93506132ed818560208601613c04565b6132f681613dd0565b840191505092915050565b61330a81613be3565b82525050565b600061331b82613a5e565b6133258185613a98565b9350613335818560208601613c04565b61333e81613dd0565b840191505092915050565b600061335482613a5e565b61335e8185613aa9565b935061336e818560208601613c04565b80840191505092915050565b6000613387603283613a98565b915061339282613de1565b604082019050919050565b60006133aa602683613a98565b91506133b582613e30565b604082019050919050565b60006133cd601c83613a98565b91506133d882613e7f565b602082019050919050565b60006133f0602483613a98565b91506133fb82613ea8565b604082019050919050565b6000613413601983613a98565b915061341e82613ef7565b602082019050919050565b6000613436602c83613a98565b915061344182613f20565b604082019050919050565b6000613459603883613a98565b915061346482613f6f565b604082019050919050565b600061347c602a83613a98565b915061348782613fbe565b604082019050919050565b600061349f602983613a98565b91506134aa8261400d565b604082019050919050565b60006134c2602083613a98565b91506134cd8261405c565b602082019050919050565b60006134e5602c83613a98565b91506134f082614085565b604082019050919050565b6000613508602083613a98565b9150613513826140d4565b602082019050919050565b600061352b602983613a98565b9150613536826140fd565b604082019050919050565b600061354e602f83613a98565b91506135598261414c565b604082019050919050565b6000613571602183613a98565b915061357c8261419b565b604082019050919050565b6000613594603183613a98565b915061359f826141ea565b604082019050919050565b6135b381613bd9565b82525050565b6135c281613bd9565b82525050565b60006135d48285613349565b91506135e08284613349565b91508190509392505050565b6000602082019050613601600083018461324c565b92915050565b600060808201905061361c600083018761324c565b613629602083018661324c565b61363660408301856135b9565b818103606083015261364881846132c8565b905095945050505050565b600060e082019050613668600083018a61324c565b61367560208301896135b9565b61368260408301886135b9565b81810360608301526136948187613310565b90506136a360808301866135b9565b6136b060a08301856132b9565b6136bd60c08301846132b9565b98975050505050505050565b600060208201905081810360008301526136e3818461325b565b905092915050565b600060208201905061370060008301846132b9565b92915050565b600060208201905081810360008301526137208184613310565b905092915050565b600060608201905081810360008301526137428186613310565b905081810360208301526137568185613310565b905061376560408301846135b9565b949350505050565b600060208201905081810360008301526137868161337a565b9050919050565b600060208201905081810360008301526137a68161339d565b9050919050565b600060208201905081810360008301526137c6816133c0565b9050919050565b600060208201905081810360008301526137e6816133e3565b9050919050565b6000602082019050818103600083015261380681613406565b9050919050565b6000602082019050818103600083015261382681613429565b9050919050565b600060208201905081810360008301526138468161344c565b9050919050565b600060208201905081810360008301526138668161346f565b9050919050565b6000602082019050818103600083015261388681613492565b9050919050565b600060208201905081810360008301526138a6816134b5565b9050919050565b600060208201905081810360008301526138c6816134d8565b9050919050565b600060208201905081810360008301526138e6816134fb565b9050919050565b600060208201905081810360008301526139068161351e565b9050919050565b6000602082019050818103600083015261392681613541565b9050919050565b6000602082019050818103600083015261394681613564565b9050919050565b6000602082019050818103600083015261396681613587565b9050919050565b600060208201905061398260008301846135b9565b92915050565b600060408201905061399d60008301856135b9565b6139aa6020830184613301565b9392505050565b60006139bb6139cc565b90506139c78282613c69565b919050565b6000604051905090565b600067ffffffffffffffff8211156139f1576139f0613da1565b5b6139fa82613dd0565b9050602081019050919050565b600067ffffffffffffffff821115613a2257613a21613da1565b5b613a2b82613dd0565b9050602081019050919050565b6000819050602082019050919050565b600081519050919050565b600081519050919050565b600081519050919050565b6000602082019050919050565b600082825260208201905092915050565b600082825260208201905092915050565b600082825260208201905092915050565b600081905092915050565b6000613abf82613bd9565b9150613aca83613bd9565b9250827fffffffffffffffffffffffffffffffffffffffffffffffffffffffffffffffff03821115613aff57613afe613d14565b5b828201905092915050565b6000613b1582613bd9565b9150613b2083613bd9565b925082613b3057613b2f613d43565b5b828204905092915050565b6000613b4682613bd9565b9150613b5183613bd9565b925082821015613b6457613b63613d14565b5b828203905092915050565b6000613b7a82613bb9565b9050919050565b60008115159050919050565b60007fffffffff0000000000000000000000000000000000000000000000000000000082169050919050565b600073ffffffffffffffffffffffffffffffffffffffff82169050919050565b6000819050919050565b6000613bee82613bd9565b9050919050565b82818337600083830152505050565b60005b83811015613c22578082015181840152602081019050613c07565b83811115613c31576000848401525b50505050565b60006002820490506001821680613c4f57607f821691505b60208210811415613c6357613c62613d72565b5b50919050565b613c7282613dd0565b810181811067ffffffffffffffff82111715613c9157613c90613da1565b5b80604052505050565b6000613ca582613bd9565b91507fffffffffffffffffffffffffffffffffffffffffffffffffffffffffffffffff821415613cd857613cd7613d14565b5b600182019050919050565b6000613cee82613bd9565b9150613cf983613bd9565b925082613d0957613d08613d43565b5b828206905092915050565b7f4e487b7100000000000000000000000000000000000000000000000000000000600052601160045260246000fd5b7f4e487b7100000000000000000000000000000000000000000000000000000000600052601260045260246000fd5b7f4e487b7100000000000000000000000000000000000000000000000000000000600052602260045260246000fd5b7f4e487b7100000000000000000000000000000000000000000000000000000000600052604160045260246000fd5b6000601f19601f8301169050919050565b7f4552433732313a207472616e7366657220746f206e6f6e20455243373231526560008201527f63656976657220696d706c656d656e7465720000000000000000000000000000602082015250565b7f4f776e61626c653a206e6577206f776e657220697320746865207a65726f206160008201527f6464726573730000000000000000000000000000000000000000000000000000602082015250565b7f4552433732313a20746f6b656e20616c7265616479206d696e74656400000000600082015250565b7f4552433732313a207472616e7366657220746f20746865207a65726f2061646460008201527f7265737300000000000000000000000000000000000000000000000000000000602082015250565b7f4552433732313a20617070726f766520746f2063616c6c657200000000000000600082015250565b7f4552433732313a206f70657261746f7220717565727920666f72206e6f6e657860008201527f697374656e7420746f6b656e0000000000000000000000000000000000000000602082015250565b7f4552433732313a20617070726f76652063616c6c6572206973206e6f74206f7760008201527f6e6572206e6f7220617070726f76656420666f7220616c6c0000000000000000602082015250565b7f4552433732313a2062616c616e636520717565727920666f7220746865207a6560008201527f726f206164647265737300000000000000000000000000000000000000000000602082015250565b7f4552433732313a206f776e657220717565727920666f72206e6f6e657869737460008201527f656e7420746f6b656e0000000000000000000000000000000000000000000000602082015250565b7f4552433732313a206d696e7420746f20746865207a65726f2061646472657373600082015250565b7f4552433732313a20617070726f76656420717565727920666f72206e6f6e657860008201527f697374656e7420746f6b656e0000000000000000000000000000000000000000602082015250565b7f4f776e61626c653a2063616c6c6572206973206e6f7420746865206f776e6572600082015250565b7f4552433732313a207472616e73666572206f6620746f6b656e2074686174206960008201527f73206e6f74206f776e0000000000000000000000000000000000000000000000602082015250565b7f4552433732314d657461646174613a2055524920717565727920666f72206e6f60008201527f6e6578697374656e7420746f6b656e0000000000000000000000000000000000602082015250565b7f4552433732313a20617070726f76616c20746f2063757272656e74206f776e6560008201527f7200000000000000000000000000000000000000000000000000000000000000602082015250565b7f4552433732313a207472616e736665722063616c6c6572206973206e6f74206f60008201527f776e6572206e6f7220617070726f766564000000000000000000000000000000602082015250565b61424281613b6f565b811461424d57600080fd5b50565b61425981613b81565b811461426457600080fd5b50565b61427081613b8d565b811461427b57600080fd5b50565b61428781613bd9565b811461429257600080fd5b5056fea2646970667358221220ad4debe070a91f0f9cfe540587631dac2507909dd8aeaef480d6b7437b620c7e64736f6c63430008010033",
  "immutableReferences": {},
  "source": "// SPDX-License-Identifier: MIT\r\n\r\npragma solidity >=0.6.0 <0.8.2;\r\n\r\nimport './MomentFactory.sol';\r\nimport \"@openzeppelin/contracts/utils/structs/EnumerableSet.sol\";\r\nimport \"@openzeppelin/contracts/access/Ownable.sol\";\r\n\r\ncontract MomentMarket is MomentFactory, Ownable {\r\n\tusing EnumerableSet for EnumerableSet.UintSet;\r\n\r\n\tconstructor() {}\r\n\r\n\tevent OrderCreated(\r\n\t\taddress indexed _seller,\r\n\t\tuint256 indexed _tokenId,\r\n\t\tuint256 _orderId\r\n\t);\r\n\r\n\tevent OrderClosed(\r\n\t\taddress indexed _seller,\r\n\t\tuint256 indexed _tokenId,\r\n\t\tuint256 _orderId\r\n\t);\r\n\r\n\tevent OrderSuccessful(\r\n\t\taddress indexed _seller,\r\n\t\taddress indexed _buyer,\r\n\t\tuint256 indexed _tokenId,\r\n\t\tuint256 _orderId,\r\n\t\tuint256 _fee\r\n\t);\r\n\r\n\tstruct Order {\r\n\t\taddress seller;\r\n\t\tuint256 price;\r\n\t\tuint256 createdAt;\r\n\t\tstring currency;\r\n\t\tuint tokenId;\r\n\t\tbool successful;\r\n\t\tbool closed;\r\n\t}\r\n\r\n\tOrder[] public orders;\r\n\r\n\tmapping (uint256 => address) private _orderToOwner;\r\n\tmapping (address => EnumerableSet.UintSet) private _ownerOrders;\r\n\r\n\tmodifier onlyOwnerOfOrder(uint _orderId) {\r\n\t\trequire(msg.sender == address(0) && msg.sender == _orderToOwner[_orderId]);\r\n\t\t_;\r\n\t}\r\n\tmodifier onlyOrderIsOpen(uint _orderId) {\r\n\t\trequire(orders[_orderId].createdAt > 0 && orders[_orderId].closed == false);\r\n\t\t_;\r\n\t}\r\n\r\n\tfunction createOrder(\r\n\t\tuint256 _tokenId, \r\n\t\tuint256 _price, \r\n\t\tstring memory _currency\r\n\t) \r\n\t\texternal \r\n\t\tonlyOwnerOf(_tokenId) \r\n\t{\r\n\t\taddress _seller = msg.sender;\r\n\t\tOrder memory _order = Order(\r\n\t\t\t_seller,\r\n\t\t\t_price,\r\n\t\t\tblock.timestamp,\r\n\t\t\t_currency,\r\n\t\t\t_tokenId,\r\n\t\t\tfalse,\r\n\t\t\tfalse\r\n\t\t);\r\n\r\n\t\torders.push(_order);\r\n\t\tuint _id = orders.length - 1;\r\n\r\n\t\t_orderToOwner[_id] = _seller;\r\n\t\t_ownerOrders[_seller].add(_id);\r\n\r\n\t\t_transfer(_seller, address(this), _tokenId);\r\n\t\t\r\n\t\tOrderCreated(\r\n\t\t\t_seller,\r\n\t\t\t_tokenId,\r\n\t\t\t_id\r\n\t\t);\r\n  \t}\r\n\r\n\tfunction closeOrder(\r\n\t\tuint256 _orderId\r\n\t)\r\n\t\texternal\r\n\t\tonlyOwnerOfOrder(_orderId)\r\n\t\tonlyOrderIsOpen(_orderId)\r\n\t{\r\n\t\tOrder storage _order = orders[_orderId];\r\n\t\t_order.closed = true;\r\n\r\n\t\t_transfer(address(this), msg.sender, _order.tokenId);\r\n\r\n\t\tOrderClosed(\r\n\t\t\tmsg.sender,\r\n\t\t\t_order.tokenId,\r\n\t\t\t_orderId\r\n\t\t);\r\n\t}\r\n\r\n\tfunction buyOrder(\r\n\t\tuint256 _orderId\r\n\t)\r\n\t\texternal\r\n\t\tpayable\r\n\t\tonlyOrderIsOpen(_orderId)\r\n\t{\r\n\t\t_buyOrder(_orderId, msg.value);\r\n\t\t_transfer(address(this), msg.sender, orders[_orderId].tokenId);\r\n\t}\r\n\r\n\tfunction _buyOrder(\r\n\t\tuint256 _orderId,\r\n\t\tuint256 _amount\r\n\t)\r\n\t\tinternal\r\n\t{\r\n\t\tOrder storage _order = orders[_orderId];\r\n\t\trequire(_amount >= _order.price);\r\n\r\n\t\taddress _seller = _order.seller;\r\n\t\tuint256 _price = _order.price;\r\n\t\tuint256 _tokenId = _order.tokenId;\r\n\r\n\t\t_removeOrder(_orderId);\r\n\r\n\t\t// _order.closed = true;\r\n\t\t// _order.successful = true;\r\n\r\n\r\n\t\tif (_amount > 0) {\r\n\t\t\t// We'll be able to add fee\r\n\t\t\ttransferMoney(_seller, _price);\r\n\r\n\t\t\tuint256 _difference = _amount - _price;\r\n\t\t\tif (_difference > 0) {\r\n\t\t\t\ttransferMoney(msg.sender, _difference);\r\n\t\t\t}\r\n\t\t}\r\n\r\n\t\tOrderSuccessful(\r\n\t\t\t_seller,\r\n\t\t\tmsg.sender,\r\n\t\t\t_tokenId,\r\n\t\t\t_orderId,\r\n\t\t\t0\r\n\t\t);\r\n\t}\r\n\r\n\tfunction _removeOrder(uint256 _orderId) internal {\r\n\t\tdelete orders[_orderId];\r\n\t\taddress owner = _orderToOwner[_orderId];\r\n\t\t_ownerOrders[owner].remove(_orderId);\r\n\t\tdelete _orderToOwner[_orderId];\r\n\t}\r\n\r\n\tfunction transferMoney(address _to, uint256 _value) public {\r\n\t\t// address(uint160(_to)).transfer(_value);\r\n\t\taddress payable wallet = payable(_to);\r\n\t\twallet.transfer(_value);\r\n\t\treturn;\r\n\t}\r\n\r\n\t// Temp\r\n\tfunction kill() public onlyOwner {\r\n\t\taddress payable wallet = payable(owner());\r\n\t\tselfdestruct(wallet);\r\n\t}\r\n}",
  "sourcePath": "D:/workspace/node_project/moment/contracts/MomentMarket.sol",
  "compiler": {
    "name": "solc",
    "version": "0.8.1+commit.df193b15.Emscripten.clang"
  },
  "schemaVersion": "3.3.3",
  "updatedAt": "2021-04-07T15:50:48.578Z",
  "networkType": "ethereum",
  "devdoc": {
    "kind": "dev",
    "methods": {
      "approve(address,uint256)": {
        "details": "See {IERC721-approve}."
      },
      "balanceOf(address)": {
        "details": "See {IERC721-balanceOf}."
      },
      "getApproved(uint256)": {
        "details": "See {IERC721-getApproved}."
      },
      "isApprovedForAll(address,address)": {
        "details": "See {IERC721-isApprovedForAll}."
      },
      "name()": {
        "details": "See {IERC721Metadata-name}."
      },
      "owner()": {
        "details": "Returns the address of the current owner."
      },
      "ownerOf(uint256)": {
        "details": "See {IERC721-ownerOf}."
      },
      "renounceOwnership()": {
        "details": "Leaves the contract without owner. It will not be possible to call `onlyOwner` functions anymore. Can only be called by the current owner. NOTE: Renouncing ownership will leave the contract without an owner, thereby removing any functionality that is only available to the owner."
      },
      "safeTransferFrom(address,address,uint256)": {
        "details": "See {IERC721-safeTransferFrom}."
      },
      "safeTransferFrom(address,address,uint256,bytes)": {
        "details": "See {IERC721-safeTransferFrom}."
      },
      "setApprovalForAll(address,bool)": {
        "details": "See {IERC721-setApprovalForAll}."
      },
      "supportsInterface(bytes4)": {
        "details": "See {IERC165-supportsInterface}."
      },
      "symbol()": {
        "details": "See {IERC721Metadata-symbol}."
      },
      "tokenURI(uint256)": {
        "details": "See {IERC721Metadata-tokenURI}."
      },
      "tokensOfOwner(address)": {
        "params": {
          "_owner": "The owner whose moments we are interested in."
        }
      },
      "transferFrom(address,address,uint256)": {
        "details": "See {IERC721-transferFrom}."
      },
      "transferOwnership(address)": {
        "details": "Transfers ownership of the contract to a new account (`newOwner`). Can only be called by the current owner."
      }
    },
    "version": 1
  },
  "userdoc": {
    "kind": "user",
    "methods": {
      "tokensOfOwner(address)": {
        "notice": "Returns a list of all moments IDs assigned to an address."
      }
    },
    "version": 1
  }
}