{
  "contractName": "MomentFactory",
  "abi": [
    {
      "inputs": [],
      "stateMutability": "nonpayable",
      "type": "constructor"
    },
    {
      "anonymous": false,
      "inputs": [
        {
          "indexed": true,
          "internalType": "address",
          "name": "owner",
          "type": "address"
        },
        {
          "indexed": true,
          "internalType": "address",
          "name": "approved",
          "type": "address"
        },
        {
          "indexed": true,
          "internalType": "uint256",
          "name": "tokenId",
          "type": "uint256"
        }
      ],
      "name": "Approval",
      "type": "event"
    },
    {
      "anonymous": false,
      "inputs": [
        {
          "indexed": true,
          "internalType": "address",
          "name": "owner",
          "type": "address"
        },
        {
          "indexed": true,
          "internalType": "address",
          "name": "operator",
          "type": "address"
        },
        {
          "indexed": false,
          "internalType": "bool",
          "name": "approved",
          "type": "bool"
        }
      ],
      "name": "ApprovalForAll",
      "type": "event"
    },
    {
      "anonymous": false,
      "inputs": [
        {
          "indexed": true,
          "internalType": "address",
          "name": "from",
          "type": "address"
        },
        {
          "indexed": true,
          "internalType": "address",
          "name": "to",
          "type": "address"
        },
        {
          "indexed": true,
          "internalType": "uint256",
          "name": "tokenId",
          "type": "uint256"
        }
      ],
      "name": "Transfer",
      "type": "event"
    },
    {
      "inputs": [
        {
          "internalType": "address",
          "name": "to",
          "type": "address"
        },
        {
          "internalType": "uint256",
          "name": "tokenId",
          "type": "uint256"
        }
      ],
      "name": "approve",
      "outputs": [],
      "stateMutability": "nonpayable",
      "type": "function"
    },
    {
      "inputs": [
        {
          "internalType": "address",
          "name": "owner",
          "type": "address"
        }
      ],
      "name": "balanceOf",
      "outputs": [
        {
          "internalType": "uint256",
          "name": "",
          "type": "uint256"
        }
      ],
      "stateMutability": "view",
      "type": "function"
    },
    {
      "inputs": [
        {
          "internalType": "uint256",
          "name": "tokenId",
          "type": "uint256"
        }
      ],
      "name": "getApproved",
      "outputs": [
        {
          "internalType": "address",
          "name": "",
          "type": "address"
        }
      ],
      "stateMutability": "view",
      "type": "function"
    },
    {
      "inputs": [
        {
          "internalType": "address",
          "name": "owner",
          "type": "address"
        },
        {
          "internalType": "address",
          "name": "operator",
          "type": "address"
        }
      ],
      "name": "isApprovedForAll",
      "outputs": [
        {
          "internalType": "bool",
          "name": "",
          "type": "bool"
        }
      ],
      "stateMutability": "view",
      "type": "function"
    },
    {
      "inputs": [
        {
          "internalType": "uint256",
          "name": "",
          "type": "uint256"
        }
      ],
      "name": "moments",
      "outputs": [
        {
          "internalType": "string",
          "name": "name",
          "type": "string"
        },
        {
          "internalType": "string",
          "name": "url",
          "type": "string"
        },
        {
          "internalType": "string",
          "name": "meta_url",
          "type": "string"
        },
        {
          "internalType": "uint256",
          "name": "created_at",
          "type": "uint256"
        }
      ],
      "stateMutability": "view",
      "type": "function"
    },
    {
      "inputs": [],
      "name": "name",
      "outputs": [
        {
          "internalType": "string",
          "name": "",
          "type": "string"
        }
      ],
      "stateMutability": "view",
      "type": "function"
    },
    {
      "inputs": [
        {
          "internalType": "uint256",
          "name": "tokenId",
          "type": "uint256"
        }
      ],
      "name": "ownerOf",
      "outputs": [
        {
          "internalType": "address",
          "name": "",
          "type": "address"
        }
      ],
      "stateMutability": "view",
      "type": "function"
    },
    {
      "inputs": [
        {
          "internalType": "address",
          "name": "from",
          "type": "address"
        },
        {
          "internalType": "address",
          "name": "to",
          "type": "address"
        },
        {
          "internalType": "uint256",
          "name": "tokenId",
          "type": "uint256"
        }
      ],
      "name": "safeTransferFrom",
      "outputs": [],
      "stateMutability": "nonpayable",
      "type": "function"
    },
    {
      "inputs": [
        {
          "internalType": "address",
          "name": "from",
          "type": "address"
        },
        {
          "internalType": "address",
          "name": "to",
          "type": "address"
        },
        {
          "internalType": "uint256",
          "name": "tokenId",
          "type": "uint256"
        },
        {
          "internalType": "bytes",
          "name": "_data",
          "type": "bytes"
        }
      ],
      "name": "safeTransferFrom",
      "outputs": [],
      "stateMutability": "nonpayable",
      "type": "function"
    },
    {
      "inputs": [
        {
          "internalType": "address",
          "name": "operator",
          "type": "address"
        },
        {
          "internalType": "bool",
          "name": "approved",
          "type": "bool"
        }
      ],
      "name": "setApprovalForAll",
      "outputs": [],
      "stateMutability": "nonpayable",
      "type": "function"
    },
    {
      "inputs": [
        {
          "internalType": "bytes4",
          "name": "interfaceId",
          "type": "bytes4"
        }
      ],
      "name": "supportsInterface",
      "outputs": [
        {
          "internalType": "bool",
          "name": "",
          "type": "bool"
        }
      ],
      "stateMutability": "view",
      "type": "function"
    },
    {
      "inputs": [],
      "name": "symbol",
      "outputs": [
        {
          "internalType": "string",
          "name": "",
          "type": "string"
        }
      ],
      "stateMutability": "view",
      "type": "function"
    },
    {
      "inputs": [
        {
          "internalType": "uint256",
          "name": "tokenId",
          "type": "uint256"
        }
      ],
      "name": "tokenURI",
      "outputs": [
        {
          "internalType": "string",
          "name": "",
          "type": "string"
        }
      ],
      "stateMutability": "view",
      "type": "function"
    },
    {
      "inputs": [
        {
          "internalType": "address",
          "name": "from",
          "type": "address"
        },
        {
          "internalType": "address",
          "name": "to",
          "type": "address"
        },
        {
          "internalType": "uint256",
          "name": "tokenId",
          "type": "uint256"
        }
      ],
      "name": "transferFrom",
      "outputs": [],
      "stateMutability": "nonpayable",
      "type": "function"
    },
    {
      "inputs": [
        {
          "internalType": "string",
          "name": "_url",
          "type": "string"
        },
        {
          "internalType": "string",
          "name": "_meta_url",
          "type": "string"
        },
        {
          "internalType": "string",
          "name": "_name",
          "type": "string"
        }
      ],
      "name": "createMoment",
      "outputs": [],
      "stateMutability": "nonpayable",
      "type": "function"
    }
  ],
  "bytecode": "0x60806040523480156200001157600080fd5b506040518060400160405280600681526020017f4d6f6d656e7400000000000000000000000000000000000000000000000000008152506040518060400160405280600381526020017f4d4d540000000000000000000000000000000000000000000000000000000000815250816000908051906020019062000096929190620000b8565b508060019080519060200190620000af929190620000b8565b505050620001cd565b828054620000c69062000168565b90600052602060002090601f016020900481019282620000ea576000855562000136565b82601f106200010557805160ff191683800117855562000136565b8280016001018555821562000136579182015b828111156200013557825182559160200191906001019062000118565b5b50905062000145919062000149565b5090565b5b80821115620001645760008160009055506001016200014a565b5090565b600060028204905060018216806200018157607f821691505b602082108114156200019857620001976200019e565b5b50919050565b7f4e487b7100000000000000000000000000000000000000000000000000000000600052602260045260246000fd5b612b9a80620001dd6000396000f3fe608060405234801561001057600080fd5b50600436106100f55760003560e01c80636352211e11610097578063a22cb46511610066578063a22cb46514610299578063b88d4fde146102b5578063c87b56dd146102d1578063e985e9c514610301576100f5565b80636352211e146101e857806370a082311461021857806395d89b41146102485780639c4ff9c714610266576100f5565b8063095ea7b3116100d3578063095ea7b314610178578063136ba4e51461019457806323b872dd146101b057806342842e0e146101cc576100f5565b806301ffc9a7146100fa57806306fdde031461012a578063081812fc14610148575b600080fd5b610114600480360381019061010f9190611c7a565b610331565b60405161012191906120d1565b60405180910390f35b610132610413565b60405161013f91906120ec565b60405180910390f35b610162600480360381019061015d9190611d63565b6104a5565b60405161016f919061206a565b60405180910390f35b610192600480360381019061018d9190611c3e565b61052a565b005b6101ae60048036038101906101a99190611ccc565b610642565b005b6101ca60048036038101906101c59190611b38565b610717565b005b6101e660048036038101906101e19190611b38565b610777565b005b61020260048036038101906101fd9190611d63565b610797565b60405161020f919061206a565b60405180910390f35b610232600480360381019061022d9190611ad3565b610849565b60405161023f9190612328565b60405180910390f35b610250610901565b60405161025d91906120ec565b60405180910390f35b610280600480360381019061027b9190611d63565b610993565b604051610290949392919061210e565b60405180910390f35b6102b360048036038101906102ae9190611c02565b610b6b565b005b6102cf60048036038101906102ca9190611b87565b610cec565b005b6102eb60048036038101906102e69190611d63565b610d4e565b6040516102f891906120ec565b60405180910390f35b61031b60048036038101906103169190611afc565b610df5565b60405161032891906120d1565b60405180910390f35b60007f80ac58cd000000000000000000000000000000000000000000000000000000007bffffffffffffffffffffffffffffffffffffffffffffffffffffffff1916827bffffffffffffffffffffffffffffffffffffffffffffffffffffffff191614806103fc57507f5b5e139f000000000000000000000000000000000000000000000000000000007bffffffffffffffffffffffffffffffffffffffffffffffffffffffff1916827bffffffffffffffffffffffffffffffffffffffffffffffffffffffff1916145b8061040c575061040b82610e89565b5b9050919050565b6060600080546104229061257e565b80601f016020809104026020016040519081016040528092919081815260200182805461044e9061257e565b801561049b5780601f106104705761010080835404028352916020019161049b565b820191906000526020600020905b81548152906001019060200180831161047e57829003601f168201915b5050505050905090565b60006104b082610ef3565b6104ef576040517f08c379a00000000000000000000000000000000000000000000000000000000081526004016104e690612288565b60405180910390fd5b6004600083815260200190815260200160002060009054906101000a900473ffffffffffffffffffffffffffffffffffffffff169050919050565b600061053582610797565b90508073ffffffffffffffffffffffffffffffffffffffff168373ffffffffffffffffffffffffffffffffffffffff1614156105a6576040517f08c379a000000000000000000000000000000000000000000000000000000000815260040161059d906122e8565b60405180910390fd5b8073ffffffffffffffffffffffffffffffffffffffff166105c5610f5f565b73ffffffffffffffffffffffffffffffffffffffff1614806105f457506105f3816105ee610f5f565b610df5565b5b610633576040517f08c379a000000000000000000000000000000000000000000000000000000000815260040161062a90612208565b60405180910390fd5b61063d8383610f67565b505050565b6006604051806080016040528083815260200185815260200184815260200142815250908060018154018082558091505060019003906000526020600020906004020160009091909190915060008201518160000190805190602001906106aa9291906118f7565b5060208201518160010190805190602001906106c79291906118f7565b5060408201518160020190805190602001906106e49291906118f7565b50606082015181600301555050600060016006805490506107059190612494565b90506107113382611020565b50505050565b610728610722610f5f565b826111ee565b610767576040517f08c379a000000000000000000000000000000000000000000000000000000000815260040161075e90612308565b60405180910390fd5b6107728383836112cc565b505050565b61079283838360405180602001604052806000815250610cec565b505050565b6000806002600084815260200190815260200160002060009054906101000a900473ffffffffffffffffffffffffffffffffffffffff169050600073ffffffffffffffffffffffffffffffffffffffff168173ffffffffffffffffffffffffffffffffffffffff161415610840576040517f08c379a000000000000000000000000000000000000000000000000000000000815260040161083790612248565b60405180910390fd5b80915050919050565b60008073ffffffffffffffffffffffffffffffffffffffff168273ffffffffffffffffffffffffffffffffffffffff1614156108ba576040517f08c379a00000000000000000000000000000000000000000000000000000000081526004016108b190612228565b60405180910390fd5b600360008373ffffffffffffffffffffffffffffffffffffffff1673ffffffffffffffffffffffffffffffffffffffff168152602001908152602001600020549050919050565b6060600180546109109061257e565b80601f016020809104026020016040519081016040528092919081815260200182805461093c9061257e565b80156109895780601f1061095e57610100808354040283529160200191610989565b820191906000526020600020905b81548152906001019060200180831161096c57829003601f168201915b5050505050905090565b600681815481106109a357600080fd5b90600052602060002090600402016000915090508060000180546109c69061257e565b80601f01602080910402602001604051908101604052809291908181526020018280546109f29061257e565b8015610a3f5780601f10610a1457610100808354040283529160200191610a3f565b820191906000526020600020905b815481529060010190602001808311610a2257829003601f168201915b505050505090806001018054610a549061257e565b80601f0160208091040260200160405190810160405280929190818152602001828054610a809061257e565b8015610acd5780601f10610aa257610100808354040283529160200191610acd565b820191906000526020600020905b815481529060010190602001808311610ab057829003601f168201915b505050505090806002018054610ae29061257e565b80601f0160208091040260200160405190810160405280929190818152602001828054610b0e9061257e565b8015610b5b5780601f10610b3057610100808354040283529160200191610b5b565b820191906000526020600020905b815481529060010190602001808311610b3e57829003601f168201915b5050505050908060030154905084565b610b73610f5f565b73ffffffffffffffffffffffffffffffffffffffff168273ffffffffffffffffffffffffffffffffffffffff161415610be1576040517f08c379a0000000000000000000000000000000000000000000000000000000008152600401610bd8906121c8565b60405180910390fd5b8060056000610bee610f5f565b73ffffffffffffffffffffffffffffffffffffffff1673ffffffffffffffffffffffffffffffffffffffff16815260200190815260200160002060008473ffffffffffffffffffffffffffffffffffffffff1673ffffffffffffffffffffffffffffffffffffffff16815260200190815260200160002060006101000a81548160ff0219169083151502179055508173ffffffffffffffffffffffffffffffffffffffff16610c9b610f5f565b73ffffffffffffffffffffffffffffffffffffffff167f17307eab39ab6107e8899845ad3d59bd9653f200f220920489ca2b5937696c3183604051610ce091906120d1565b60405180910390a35050565b610cfd610cf7610f5f565b836111ee565b610d3c576040517f08c379a0000000000000000000000000000000000000000000000000000000008152600401610d3390612308565b60405180910390fd5b610d4884848484611528565b50505050565b6060610d5982610ef3565b610d98576040517f08c379a0000000000000000000000000000000000000000000000000000000008152600401610d8f906122c8565b60405180910390fd5b6000610da2611584565b90506000815111610dc25760405180602001604052806000815250610ded565b80610dcc8461159b565b604051602001610ddd929190612046565b6040516020818303038152906040525b915050919050565b6000600560008473ffffffffffffffffffffffffffffffffffffffff1673ffffffffffffffffffffffffffffffffffffffff16815260200190815260200160002060008373ffffffffffffffffffffffffffffffffffffffff1673ffffffffffffffffffffffffffffffffffffffff16815260200190815260200160002060009054906101000a900460ff16905092915050565b60007f01ffc9a7000000000000000000000000000000000000000000000000000000007bffffffffffffffffffffffffffffffffffffffffffffffffffffffff1916827bffffffffffffffffffffffffffffffffffffffffffffffffffffffff1916149050919050565b60008073ffffffffffffffffffffffffffffffffffffffff166002600084815260200190815260200160002060009054906101000a900473ffffffffffffffffffffffffffffffffffffffff1673ffffffffffffffffffffffffffffffffffffffff1614159050919050565b600033905090565b816004600083815260200190815260200160002060006101000a81548173ffffffffffffffffffffffffffffffffffffffff021916908373ffffffffffffffffffffffffffffffffffffffff160217905550808273ffffffffffffffffffffffffffffffffffffffff16610fda83610797565b73ffffffffffffffffffffffffffffffffffffffff167f8c5be1e5ebec7d5bd14f71427d1e84f3dd0314c0f7b2291e5b200ac8c7c3b92560405160405180910390a45050565b600073ffffffffffffffffffffffffffffffffffffffff168273ffffffffffffffffffffffffffffffffffffffff161415611090576040517f08c379a000000000000000000000000000000000000000000000000000000000815260040161108790612268565b60405180910390fd5b61109981610ef3565b156110d9576040517f08c379a00000000000000000000000000000000000000000000000000000000081526004016110d090612188565b60405180910390fd5b6110e560008383611748565b6001600360008473ffffffffffffffffffffffffffffffffffffffff1673ffffffffffffffffffffffffffffffffffffffff1681526020019081526020016000206000828254611135919061240d565b92505081905550816002600083815260200190815260200160002060006101000a81548173ffffffffffffffffffffffffffffffffffffffff021916908373ffffffffffffffffffffffffffffffffffffffff160217905550808273ffffffffffffffffffffffffffffffffffffffff16600073ffffffffffffffffffffffffffffffffffffffff167fddf252ad1be2c89b69c2b068fc378daa952ba7f163c4a11628f55a4df523b3ef60405160405180910390a45050565b60006111f982610ef3565b611238576040517f08c379a000000000000000000000000000000000000000000000000000000000815260040161122f906121e8565b60405180910390fd5b600061124383610797565b90508073ffffffffffffffffffffffffffffffffffffffff168473ffffffffffffffffffffffffffffffffffffffff1614806112b257508373ffffffffffffffffffffffffffffffffffffffff1661129a846104a5565b73ffffffffffffffffffffffffffffffffffffffff16145b806112c357506112c28185610df5565b5b91505092915050565b8273ffffffffffffffffffffffffffffffffffffffff166112ec82610797565b73ffffffffffffffffffffffffffffffffffffffff1614611342576040517f08c379a0000000000000000000000000000000000000000000000000000000008152600401611339906122a8565b60405180910390fd5b600073ffffffffffffffffffffffffffffffffffffffff168273ffffffffffffffffffffffffffffffffffffffff1614156113b2576040517f08c379a00000000000000000000000000000000000000000000000000000000081526004016113a9906121a8565b60405180910390fd5b6113bd838383611748565b6113c8600082610f67565b6001600360008573ffffffffffffffffffffffffffffffffffffffff1673ffffffffffffffffffffffffffffffffffffffff16815260200190815260200160002060008282546114189190612494565b925050819055506001600360008473ffffffffffffffffffffffffffffffffffffffff1673ffffffffffffffffffffffffffffffffffffffff168152602001908152602001600020600082825461146f919061240d565b92505081905550816002600083815260200190815260200160002060006101000a81548173ffffffffffffffffffffffffffffffffffffffff021916908373ffffffffffffffffffffffffffffffffffffffff160217905550808273ffffffffffffffffffffffffffffffffffffffff168473ffffffffffffffffffffffffffffffffffffffff167fddf252ad1be2c89b69c2b068fc378daa952ba7f163c4a11628f55a4df523b3ef60405160405180910390a4505050565b6115338484846112cc565b61153f8484848461174d565b61157e576040517f08c379a000000000000000000000000000000000000000000000000000000000815260040161157590612168565b60405180910390fd5b50505050565b606060405180602001604052806000815250905090565b606060008214156115e3576040518060400160405280600181526020017f30000000000000000000000000000000000000000000000000000000000000008152509050611743565b600082905060005b600082146116155780806115fe906125e1565b915050600a8261160e9190612463565b91506115eb565b60008167ffffffffffffffff811115611657577f4e487b7100000000000000000000000000000000000000000000000000000000600052604160045260246000fd5b6040519080825280601f01601f1916602001820160405280156116895781602001600182028036833780820191505090505b5090505b6000851461173c576001826116a29190612494565b9150600a856116b1919061262a565b60306116bd919061240d565b60f81b8183815181106116f9577f4e487b7100000000000000000000000000000000000000000000000000000000600052603260045260246000fd5b60200101907effffffffffffffffffffffffffffffffffffffffffffffffffffffffffffff1916908160001a905350600a856117359190612463565b945061168d565b8093505050505b919050565b505050565b600061176e8473ffffffffffffffffffffffffffffffffffffffff166118e4565b156118d7578373ffffffffffffffffffffffffffffffffffffffff1663150b7a02611797610f5f565b8786866040518563ffffffff1660e01b81526004016117b99493929190612085565b602060405180830381600087803b1580156117d357600080fd5b505af192505050801561180457506040513d601f19601f820116820180604052508101906118019190611ca3565b60015b611887573d8060008114611834576040519150601f19603f3d011682016040523d82523d6000602084013e611839565b606091505b5060008151141561187f576040517f08c379a000000000000000000000000000000000000000000000000000000000815260040161187690612168565b60405180910390fd5b805181602001fd5b63150b7a0260e01b7bffffffffffffffffffffffffffffffffffffffffffffffffffffffff1916817bffffffffffffffffffffffffffffffffffffffffffffffffffffffff1916149150506118dc565b600190505b949350505050565b600080823b905060008111915050919050565b8280546119039061257e565b90600052602060002090601f016020900481019282611925576000855561196c565b82601f1061193e57805160ff191683800117855561196c565b8280016001018555821561196c579182015b8281111561196b578251825591602001919060010190611950565b5b509050611979919061197d565b5090565b5b8082111561199657600081600090555060010161197e565b5090565b60006119ad6119a884612368565b612343565b9050828152602081018484840111156119c557600080fd5b6119d084828561253c565b509392505050565b60006119eb6119e684612399565b612343565b905082815260208101848484011115611a0357600080fd5b611a0e84828561253c565b509392505050565b600081359050611a2581612b08565b92915050565b600081359050611a3a81612b1f565b92915050565b600081359050611a4f81612b36565b92915050565b600081519050611a6481612b36565b92915050565b600082601f830112611a7b57600080fd5b8135611a8b84826020860161199a565b91505092915050565b600082601f830112611aa557600080fd5b8135611ab58482602086016119d8565b91505092915050565b600081359050611acd81612b4d565b92915050565b600060208284031215611ae557600080fd5b6000611af384828501611a16565b91505092915050565b60008060408385031215611b0f57600080fd5b6000611b1d85828601611a16565b9250506020611b2e85828601611a16565b9150509250929050565b600080600060608486031215611b4d57600080fd5b6000611b5b86828701611a16565b9350506020611b6c86828701611a16565b9250506040611b7d86828701611abe565b9150509250925092565b60008060008060808587031215611b9d57600080fd5b6000611bab87828801611a16565b9450506020611bbc87828801611a16565b9350506040611bcd87828801611abe565b925050606085013567ffffffffffffffff811115611bea57600080fd5b611bf687828801611a6a565b91505092959194509250565b60008060408385031215611c1557600080fd5b6000611c2385828601611a16565b9250506020611c3485828601611a2b565b9150509250929050565b60008060408385031215611c5157600080fd5b6000611c5f85828601611a16565b9250506020611c7085828601611abe565b9150509250929050565b600060208284031215611c8c57600080fd5b6000611c9a84828501611a40565b91505092915050565b600060208284031215611cb557600080fd5b6000611cc384828501611a55565b91505092915050565b600080600060608486031215611ce157600080fd5b600084013567ffffffffffffffff811115611cfb57600080fd5b611d0786828701611a94565b935050602084013567ffffffffffffffff811115611d2457600080fd5b611d3086828701611a94565b925050604084013567ffffffffffffffff811115611d4d57600080fd5b611d5986828701611a94565b9150509250925092565b600060208284031215611d7557600080fd5b6000611d8384828501611abe565b91505092915050565b611d95816124c8565b82525050565b611da4816124da565b82525050565b6000611db5826123ca565b611dbf81856123e0565b9350611dcf81856020860161254b565b611dd881612717565b840191505092915050565b6000611dee826123d5565b611df881856123f1565b9350611e0881856020860161254b565b611e1181612717565b840191505092915050565b6000611e27826123d5565b611e318185612402565b9350611e4181856020860161254b565b80840191505092915050565b6000611e5a6032836123f1565b9150611e6582612728565b604082019050919050565b6000611e7d601c836123f1565b9150611e8882612777565b602082019050919050565b6000611ea06024836123f1565b9150611eab826127a0565b604082019050919050565b6000611ec36019836123f1565b9150611ece826127ef565b602082019050919050565b6000611ee6602c836123f1565b9150611ef182612818565b604082019050919050565b6000611f096038836123f1565b9150611f1482612867565b604082019050919050565b6000611f2c602a836123f1565b9150611f37826128b6565b604082019050919050565b6000611f4f6029836123f1565b9150611f5a82612905565b604082019050919050565b6000611f726020836123f1565b9150611f7d82612954565b602082019050919050565b6000611f95602c836123f1565b9150611fa08261297d565b604082019050919050565b6000611fb86029836123f1565b9150611fc3826129cc565b604082019050919050565b6000611fdb602f836123f1565b9150611fe682612a1b565b604082019050919050565b6000611ffe6021836123f1565b915061200982612a6a565b604082019050919050565b60006120216031836123f1565b915061202c82612ab9565b604082019050919050565b61204081612532565b82525050565b60006120528285611e1c565b915061205e8284611e1c565b91508190509392505050565b600060208201905061207f6000830184611d8c565b92915050565b600060808201905061209a6000830187611d8c565b6120a76020830186611d8c565b6120b46040830185612037565b81810360608301526120c68184611daa565b905095945050505050565b60006020820190506120e66000830184611d9b565b92915050565b600060208201905081810360008301526121068184611de3565b905092915050565b600060808201905081810360008301526121288187611de3565b9050818103602083015261213c8186611de3565b905081810360408301526121508185611de3565b905061215f6060830184612037565b95945050505050565b6000602082019050818103600083015261218181611e4d565b9050919050565b600060208201905081810360008301526121a181611e70565b9050919050565b600060208201905081810360008301526121c181611e93565b9050919050565b600060208201905081810360008301526121e181611eb6565b9050919050565b6000602082019050818103600083015261220181611ed9565b9050919050565b6000602082019050818103600083015261222181611efc565b9050919050565b6000602082019050818103600083015261224181611f1f565b9050919050565b6000602082019050818103600083015261226181611f42565b9050919050565b6000602082019050818103600083015261228181611f65565b9050919050565b600060208201905081810360008301526122a181611f88565b9050919050565b600060208201905081810360008301526122c181611fab565b9050919050565b600060208201905081810360008301526122e181611fce565b9050919050565b6000602082019050818103600083015261230181611ff1565b9050919050565b6000602082019050818103600083015261232181612014565b9050919050565b600060208201905061233d6000830184612037565b92915050565b600061234d61235e565b905061235982826125b0565b919050565b6000604051905090565b600067ffffffffffffffff821115612383576123826126e8565b5b61238c82612717565b9050602081019050919050565b600067ffffffffffffffff8211156123b4576123b36126e8565b5b6123bd82612717565b9050602081019050919050565b600081519050919050565b600081519050919050565b600082825260208201905092915050565b600082825260208201905092915050565b600081905092915050565b600061241882612532565b915061242383612532565b9250827fffffffffffffffffffffffffffffffffffffffffffffffffffffffffffffffff038211156124585761245761265b565b5b828201905092915050565b600061246e82612532565b915061247983612532565b9250826124895761248861268a565b5b828204905092915050565b600061249f82612532565b91506124aa83612532565b9250828210156124bd576124bc61265b565b5b828203905092915050565b60006124d382612512565b9050919050565b60008115159050919050565b60007fffffffff0000000000000000000000000000000000000000000000000000000082169050919050565b600073ffffffffffffffffffffffffffffffffffffffff82169050919050565b6000819050919050565b82818337600083830152505050565b60005b8381101561256957808201518184015260208101905061254e565b83811115612578576000848401525b50505050565b6000600282049050600182168061259657607f821691505b602082108114156125aa576125a96126b9565b5b50919050565b6125b982612717565b810181811067ffffffffffffffff821117156125d8576125d76126e8565b5b80604052505050565b60006125ec82612532565b91507fffffffffffffffffffffffffffffffffffffffffffffffffffffffffffffffff82141561261f5761261e61265b565b5b600182019050919050565b600061263582612532565b915061264083612532565b9250826126505761264f61268a565b5b828206905092915050565b7f4e487b7100000000000000000000000000000000000000000000000000000000600052601160045260246000fd5b7f4e487b7100000000000000000000000000000000000000000000000000000000600052601260045260246000fd5b7f4e487b7100000000000000000000000000000000000000000000000000000000600052602260045260246000fd5b7f4e487b7100000000000000000000000000000000000000000000000000000000600052604160045260246000fd5b6000601f19601f8301169050919050565b7f4552433732313a207472616e7366657220746f206e6f6e20455243373231526560008201527f63656976657220696d706c656d656e7465720000000000000000000000000000602082015250565b7f4552433732313a20746f6b656e20616c7265616479206d696e74656400000000600082015250565b7f4552433732313a207472616e7366657220746f20746865207a65726f2061646460008201527f7265737300000000000000000000000000000000000000000000000000000000602082015250565b7f4552433732313a20617070726f766520746f2063616c6c657200000000000000600082015250565b7f4552433732313a206f70657261746f7220717565727920666f72206e6f6e657860008201527f697374656e7420746f6b656e0000000000000000000000000000000000000000602082015250565b7f4552433732313a20617070726f76652063616c6c6572206973206e6f74206f7760008201527f6e6572206e6f7220617070726f76656420666f7220616c6c0000000000000000602082015250565b7f4552433732313a2062616c616e636520717565727920666f7220746865207a6560008201527f726f206164647265737300000000000000000000000000000000000000000000602082015250565b7f4552433732313a206f776e657220717565727920666f72206e6f6e657869737460008201527f656e7420746f6b656e0000000000000000000000000000000000000000000000602082015250565b7f4552433732313a206d696e7420746f20746865207a65726f2061646472657373600082015250565b7f4552433732313a20617070726f76656420717565727920666f72206e6f6e657860008201527f697374656e7420746f6b656e0000000000000000000000000000000000000000602082015250565b7f4552433732313a207472616e73666572206f6620746f6b656e2074686174206960008201527f73206e6f74206f776e0000000000000000000000000000000000000000000000602082015250565b7f4552433732314d657461646174613a2055524920717565727920666f72206e6f60008201527f6e6578697374656e7420746f6b656e0000000000000000000000000000000000602082015250565b7f4552433732313a20617070726f76616c20746f2063757272656e74206f776e6560008201527f7200000000000000000000000000000000000000000000000000000000000000602082015250565b7f4552433732313a207472616e736665722063616c6c6572206973206e6f74206f60008201527f776e6572206e6f7220617070726f766564000000000000000000000000000000602082015250565b612b11816124c8565b8114612b1c57600080fd5b50565b612b28816124da565b8114612b3357600080fd5b50565b612b3f816124e6565b8114612b4a57600080fd5b50565b612b5681612532565b8114612b6157600080fd5b5056fea2646970667358221220cc930364dae8bb05f29190eece44e13484e1f75df618c0a78d74452f67948c5d64736f6c63430008010033",
  "immutableReferences": {},
  "source": "// SPDX-License-Identifier: MIT\r\n\r\npragma solidity >=0.6.0 <0.8.2;\r\n\r\nimport \"@openzeppelin/contracts/token/ERC721/ERC721.sol\";\r\n\r\ncontract MomentFactory is ERC721 {\r\n\tconstructor() ERC721(\"Moment\", \"MMT\") {}\r\n\t\r\n    struct Moment {\r\n\t\tstring name;\r\n\t\tstring url;\r\n\t\tstring meta_url;\r\n\t\tuint created_at;\r\n\t}\r\n\r\n\tMoment[] public moments;\r\n\r\n\tmodifier onlyOwnerOf(uint _tokenId) {\r\n\t\trequire(msg.sender == ownerOf(_tokenId));\r\n\t\t_;\r\n\t}\r\n\r\n\tfunction createMoment (string memory _url, string memory _meta_url, string memory _name) public {\r\n\t\tmoments.push(Moment(_name, _url, _meta_url, block.timestamp));\r\n\t\tuint id = moments.length - 1;\r\n\t\t_mint(msg.sender, id);\r\n\t}\r\n}",
  "sourcePath": "D:/workspace/node_project/moment/contracts/MomentFactory.sol",
  "compiler": {
    "name": "solc",
    "version": "0.8.1+commit.df193b15.Emscripten.clang"
  },
  "schemaVersion": "3.3.3",
  "updatedAt": "2021-04-07T10:27:26.769Z",
  "devdoc": {
    "kind": "dev",
    "methods": {
      "approve(address,uint256)": {
        "details": "See {IERC721-approve}."
      },
      "balanceOf(address)": {
        "details": "See {IERC721-balanceOf}."
      },
      "getApproved(uint256)": {
        "details": "See {IERC721-getApproved}."
      },
      "isApprovedForAll(address,address)": {
        "details": "See {IERC721-isApprovedForAll}."
      },
      "name()": {
        "details": "See {IERC721Metadata-name}."
      },
      "ownerOf(uint256)": {
        "details": "See {IERC721-ownerOf}."
      },
      "safeTransferFrom(address,address,uint256)": {
        "details": "See {IERC721-safeTransferFrom}."
      },
      "safeTransferFrom(address,address,uint256,bytes)": {
        "details": "See {IERC721-safeTransferFrom}."
      },
      "setApprovalForAll(address,bool)": {
        "details": "See {IERC721-setApprovalForAll}."
      },
      "supportsInterface(bytes4)": {
        "details": "See {IERC165-supportsInterface}."
      },
      "symbol()": {
        "details": "See {IERC721Metadata-symbol}."
      },
      "tokenURI(uint256)": {
        "details": "See {IERC721Metadata-tokenURI}."
      },
      "transferFrom(address,address,uint256)": {
        "details": "See {IERC721-transferFrom}."
      }
    },
    "version": 1
  },
  "userdoc": {
    "kind": "user",
    "methods": {},
    "version": 1
  }
}