{
  "contractName": "MomentFactory",
  "abi": [
    {
      "inputs": [],
      "stateMutability": "nonpayable",
      "type": "constructor"
    },
    {
      "anonymous": false,
      "inputs": [
        {
          "indexed": true,
          "internalType": "address",
          "name": "owner",
          "type": "address"
        },
        {
          "indexed": true,
          "internalType": "address",
          "name": "approved",
          "type": "address"
        },
        {
          "indexed": true,
          "internalType": "uint256",
          "name": "tokenId",
          "type": "uint256"
        }
      ],
      "name": "Approval",
      "type": "event"
    },
    {
      "anonymous": false,
      "inputs": [
        {
          "indexed": true,
          "internalType": "address",
          "name": "owner",
          "type": "address"
        },
        {
          "indexed": true,
          "internalType": "address",
          "name": "operator",
          "type": "address"
        },
        {
          "indexed": false,
          "internalType": "bool",
          "name": "approved",
          "type": "bool"
        }
      ],
      "name": "ApprovalForAll",
      "type": "event"
    },
    {
      "anonymous": false,
      "inputs": [
        {
          "indexed": true,
          "internalType": "address",
          "name": "from",
          "type": "address"
        },
        {
          "indexed": true,
          "internalType": "address",
          "name": "to",
          "type": "address"
        },
        {
          "indexed": true,
          "internalType": "uint256",
          "name": "tokenId",
          "type": "uint256"
        }
      ],
      "name": "Transfer",
      "type": "event"
    },
    {
      "inputs": [
        {
          "internalType": "address",
          "name": "to",
          "type": "address"
        },
        {
          "internalType": "uint256",
          "name": "tokenId",
          "type": "uint256"
        }
      ],
      "name": "approve",
      "outputs": [],
      "stateMutability": "nonpayable",
      "type": "function"
    },
    {
      "inputs": [
        {
          "internalType": "address",
          "name": "owner",
          "type": "address"
        }
      ],
      "name": "balanceOf",
      "outputs": [
        {
          "internalType": "uint256",
          "name": "",
          "type": "uint256"
        }
      ],
      "stateMutability": "view",
      "type": "function"
    },
    {
      "inputs": [
        {
          "internalType": "uint256",
          "name": "tokenId",
          "type": "uint256"
        }
      ],
      "name": "getApproved",
      "outputs": [
        {
          "internalType": "address",
          "name": "",
          "type": "address"
        }
      ],
      "stateMutability": "view",
      "type": "function"
    },
    {
      "inputs": [
        {
          "internalType": "address",
          "name": "owner",
          "type": "address"
        },
        {
          "internalType": "address",
          "name": "operator",
          "type": "address"
        }
      ],
      "name": "isApprovedForAll",
      "outputs": [
        {
          "internalType": "bool",
          "name": "",
          "type": "bool"
        }
      ],
      "stateMutability": "view",
      "type": "function"
    },
    {
      "inputs": [
        {
          "internalType": "uint256",
          "name": "",
          "type": "uint256"
        }
      ],
      "name": "moments",
      "outputs": [
        {
          "internalType": "string",
          "name": "url",
          "type": "string"
        },
        {
          "internalType": "uint256",
          "name": "created_at",
          "type": "uint256"
        }
      ],
      "stateMutability": "view",
      "type": "function"
    },
    {
      "inputs": [],
      "name": "name",
      "outputs": [
        {
          "internalType": "string",
          "name": "",
          "type": "string"
        }
      ],
      "stateMutability": "view",
      "type": "function"
    },
    {
      "inputs": [
        {
          "internalType": "uint256",
          "name": "tokenId",
          "type": "uint256"
        }
      ],
      "name": "ownerOf",
      "outputs": [
        {
          "internalType": "address",
          "name": "",
          "type": "address"
        }
      ],
      "stateMutability": "view",
      "type": "function"
    },
    {
      "inputs": [
        {
          "internalType": "address",
          "name": "from",
          "type": "address"
        },
        {
          "internalType": "address",
          "name": "to",
          "type": "address"
        },
        {
          "internalType": "uint256",
          "name": "tokenId",
          "type": "uint256"
        }
      ],
      "name": "safeTransferFrom",
      "outputs": [],
      "stateMutability": "nonpayable",
      "type": "function"
    },
    {
      "inputs": [
        {
          "internalType": "address",
          "name": "from",
          "type": "address"
        },
        {
          "internalType": "address",
          "name": "to",
          "type": "address"
        },
        {
          "internalType": "uint256",
          "name": "tokenId",
          "type": "uint256"
        },
        {
          "internalType": "bytes",
          "name": "_data",
          "type": "bytes"
        }
      ],
      "name": "safeTransferFrom",
      "outputs": [],
      "stateMutability": "nonpayable",
      "type": "function"
    },
    {
      "inputs": [
        {
          "internalType": "address",
          "name": "operator",
          "type": "address"
        },
        {
          "internalType": "bool",
          "name": "approved",
          "type": "bool"
        }
      ],
      "name": "setApprovalForAll",
      "outputs": [],
      "stateMutability": "nonpayable",
      "type": "function"
    },
    {
      "inputs": [
        {
          "internalType": "bytes4",
          "name": "interfaceId",
          "type": "bytes4"
        }
      ],
      "name": "supportsInterface",
      "outputs": [
        {
          "internalType": "bool",
          "name": "",
          "type": "bool"
        }
      ],
      "stateMutability": "view",
      "type": "function"
    },
    {
      "inputs": [],
      "name": "symbol",
      "outputs": [
        {
          "internalType": "string",
          "name": "",
          "type": "string"
        }
      ],
      "stateMutability": "view",
      "type": "function"
    },
    {
      "inputs": [
        {
          "internalType": "uint256",
          "name": "tokenId",
          "type": "uint256"
        }
      ],
      "name": "tokenURI",
      "outputs": [
        {
          "internalType": "string",
          "name": "",
          "type": "string"
        }
      ],
      "stateMutability": "view",
      "type": "function"
    },
    {
      "inputs": [
        {
          "internalType": "address",
          "name": "from",
          "type": "address"
        },
        {
          "internalType": "address",
          "name": "to",
          "type": "address"
        },
        {
          "internalType": "uint256",
          "name": "tokenId",
          "type": "uint256"
        }
      ],
      "name": "transferFrom",
      "outputs": [],
      "stateMutability": "nonpayable",
      "type": "function"
    },
    {
      "inputs": [
        {
          "internalType": "string",
          "name": "_url",
          "type": "string"
        }
      ],
      "name": "createMoment",
      "outputs": [],
      "stateMutability": "nonpayable",
      "type": "function"
    }
  ],
  "bytecode": "0x60806040523480156200001157600080fd5b506040518060400160405280600681526020017f4d6f6d656e7400000000000000000000000000000000000000000000000000008152506040518060400160405280600381526020017f4d4d540000000000000000000000000000000000000000000000000000000000815250816000908051906020019062000096929190620000b8565b508060019080519060200190620000af929190620000b8565b505050620001cd565b828054620000c69062000168565b90600052602060002090601f016020900481019282620000ea576000855562000136565b82601f106200010557805160ff191683800117855562000136565b8280016001018555821562000136579182015b828111156200013557825182559160200191906001019062000118565b5b50905062000145919062000149565b5090565b5b80821115620001645760008160009055506001016200014a565b5090565b600060028204905060018216806200018157607f821691505b602082108114156200019857620001976200019e565b5b50919050565b7f4e487b7100000000000000000000000000000000000000000000000000000000600052602260045260246000fd5b6129b380620001dd6000396000f3fe608060405234801561001057600080fd5b50600436106100f45760003560e01c80636352211e11610097578063a22cb46511610066578063a22cb46514610296578063b88d4fde146102b2578063c87b56dd146102ce578063e985e9c5146102fe576100f4565b80636352211e146101e757806370a082311461021757806395d89b41146102475780639c4ff9c714610265576100f4565b8063081812fc116100d3578063081812fc14610163578063095ea7b31461019357806323b872dd146101af57806342842e0e146101cb576100f4565b8062e7203e146100f957806301ffc9a71461011557806306fdde0314610145575b600080fd5b610113600480360381019061010e9190611b65565b61032e565b005b61012f600480360381019061012a9190611b13565b6103bb565b60405161013c9190611f14565b60405180910390f35b61014d61049d565b60405161015a9190611f2f565b60405180910390f35b61017d60048036038101906101789190611ba6565b61052f565b60405161018a9190611ead565b60405180910390f35b6101ad60048036038101906101a89190611ad7565b6105b4565b005b6101c960048036038101906101c491906119d1565b6106cc565b005b6101e560048036038101906101e091906119d1565b61072c565b005b61020160048036038101906101fc9190611ba6565b61074c565b60405161020e9190611ead565b60405180910390f35b610231600480360381019061022c919061196c565b6107fe565b60405161023e9190612141565b60405180910390f35b61024f6108b6565b60405161025c9190611f2f565b60405180910390f35b61027f600480360381019061027a9190611ba6565b610948565b60405161028d929190611f51565b60405180910390f35b6102b060048036038101906102ab9190611a9b565b610a04565b005b6102cc60048036038101906102c79190611a20565b610b85565b005b6102e860048036038101906102e39190611ba6565b610be7565b6040516102f59190611f2f565b60405180910390f35b61031860048036038101906103139190611995565b610c8e565b6040516103259190611f14565b60405180910390f35b60066040518060400160405280838152602001428152509080600181540180825580915050600190039060005260206000209060020201600090919091909150600082015181600001908051906020019061038a929190611790565b50602082015181600101555050600060016006805490506103ab91906122ad565b90506103b73382610d22565b5050565b60007f80ac58cd000000000000000000000000000000000000000000000000000000007bffffffffffffffffffffffffffffffffffffffffffffffffffffffff1916827bffffffffffffffffffffffffffffffffffffffffffffffffffffffff1916148061048657507f5b5e139f000000000000000000000000000000000000000000000000000000007bffffffffffffffffffffffffffffffffffffffffffffffffffffffff1916827bffffffffffffffffffffffffffffffffffffffffffffffffffffffff1916145b80610496575061049582610ef0565b5b9050919050565b6060600080546104ac90612397565b80601f01602080910402602001604051908101604052809291908181526020018280546104d890612397565b80156105255780601f106104fa57610100808354040283529160200191610525565b820191906000526020600020905b81548152906001019060200180831161050857829003601f168201915b5050505050905090565b600061053a82610f5a565b610579576040517f08c379a0000000000000000000000000000000000000000000000000000000008152600401610570906120a1565b60405180910390fd5b6004600083815260200190815260200160002060009054906101000a900473ffffffffffffffffffffffffffffffffffffffff169050919050565b60006105bf8261074c565b90508073ffffffffffffffffffffffffffffffffffffffff168373ffffffffffffffffffffffffffffffffffffffff161415610630576040517f08c379a000000000000000000000000000000000000000000000000000000000815260040161062790612101565b60405180910390fd5b8073ffffffffffffffffffffffffffffffffffffffff1661064f610fc6565b73ffffffffffffffffffffffffffffffffffffffff16148061067e575061067d81610678610fc6565b610c8e565b5b6106bd576040517f08c379a00000000000000000000000000000000000000000000000000000000081526004016106b490612021565b60405180910390fd5b6106c78383610fce565b505050565b6106dd6106d7610fc6565b82611087565b61071c576040517f08c379a000000000000000000000000000000000000000000000000000000000815260040161071390612121565b60405180910390fd5b610727838383611165565b505050565b61074783838360405180602001604052806000815250610b85565b505050565b6000806002600084815260200190815260200160002060009054906101000a900473ffffffffffffffffffffffffffffffffffffffff169050600073ffffffffffffffffffffffffffffffffffffffff168173ffffffffffffffffffffffffffffffffffffffff1614156107f5576040517f08c379a00000000000000000000000000000000000000000000000000000000081526004016107ec90612061565b60405180910390fd5b80915050919050565b60008073ffffffffffffffffffffffffffffffffffffffff168273ffffffffffffffffffffffffffffffffffffffff16141561086f576040517f08c379a000000000000000000000000000000000000000000000000000000000815260040161086690612041565b60405180910390fd5b600360008373ffffffffffffffffffffffffffffffffffffffff1673ffffffffffffffffffffffffffffffffffffffff168152602001908152602001600020549050919050565b6060600180546108c590612397565b80601f01602080910402602001604051908101604052809291908181526020018280546108f190612397565b801561093e5780601f106109135761010080835404028352916020019161093e565b820191906000526020600020905b81548152906001019060200180831161092157829003601f168201915b5050505050905090565b6006818154811061095857600080fd5b906000526020600020906002020160009150905080600001805461097b90612397565b80601f01602080910402602001604051908101604052809291908181526020018280546109a790612397565b80156109f45780601f106109c9576101008083540402835291602001916109f4565b820191906000526020600020905b8154815290600101906020018083116109d757829003601f168201915b5050505050908060010154905082565b610a0c610fc6565b73ffffffffffffffffffffffffffffffffffffffff168273ffffffffffffffffffffffffffffffffffffffff161415610a7a576040517f08c379a0000000000000000000000000000000000000000000000000000000008152600401610a7190611fe1565b60405180910390fd5b8060056000610a87610fc6565b73ffffffffffffffffffffffffffffffffffffffff1673ffffffffffffffffffffffffffffffffffffffff16815260200190815260200160002060008473ffffffffffffffffffffffffffffffffffffffff1673ffffffffffffffffffffffffffffffffffffffff16815260200190815260200160002060006101000a81548160ff0219169083151502179055508173ffffffffffffffffffffffffffffffffffffffff16610b34610fc6565b73ffffffffffffffffffffffffffffffffffffffff167f17307eab39ab6107e8899845ad3d59bd9653f200f220920489ca2b5937696c3183604051610b799190611f14565b60405180910390a35050565b610b96610b90610fc6565b83611087565b610bd5576040517f08c379a0000000000000000000000000000000000000000000000000000000008152600401610bcc90612121565b60405180910390fd5b610be1848484846113c1565b50505050565b6060610bf282610f5a565b610c31576040517f08c379a0000000000000000000000000000000000000000000000000000000008152600401610c28906120e1565b60405180910390fd5b6000610c3b61141d565b90506000815111610c5b5760405180602001604052806000815250610c86565b80610c6584611434565b604051602001610c76929190611e89565b6040516020818303038152906040525b915050919050565b6000600560008473ffffffffffffffffffffffffffffffffffffffff1673ffffffffffffffffffffffffffffffffffffffff16815260200190815260200160002060008373ffffffffffffffffffffffffffffffffffffffff1673ffffffffffffffffffffffffffffffffffffffff16815260200190815260200160002060009054906101000a900460ff16905092915050565b600073ffffffffffffffffffffffffffffffffffffffff168273ffffffffffffffffffffffffffffffffffffffff161415610d92576040517f08c379a0000000000000000000000000000000000000000000000000000000008152600401610d8990612081565b60405180910390fd5b610d9b81610f5a565b15610ddb576040517f08c379a0000000000000000000000000000000000000000000000000000000008152600401610dd290611fa1565b60405180910390fd5b610de7600083836115e1565b6001600360008473ffffffffffffffffffffffffffffffffffffffff1673ffffffffffffffffffffffffffffffffffffffff1681526020019081526020016000206000828254610e379190612226565b92505081905550816002600083815260200190815260200160002060006101000a81548173ffffffffffffffffffffffffffffffffffffffff021916908373ffffffffffffffffffffffffffffffffffffffff160217905550808273ffffffffffffffffffffffffffffffffffffffff16600073ffffffffffffffffffffffffffffffffffffffff167fddf252ad1be2c89b69c2b068fc378daa952ba7f163c4a11628f55a4df523b3ef60405160405180910390a45050565b60007f01ffc9a7000000000000000000000000000000000000000000000000000000007bffffffffffffffffffffffffffffffffffffffffffffffffffffffff1916827bffffffffffffffffffffffffffffffffffffffffffffffffffffffff1916149050919050565b60008073ffffffffffffffffffffffffffffffffffffffff166002600084815260200190815260200160002060009054906101000a900473ffffffffffffffffffffffffffffffffffffffff1673ffffffffffffffffffffffffffffffffffffffff1614159050919050565b600033905090565b816004600083815260200190815260200160002060006101000a81548173ffffffffffffffffffffffffffffffffffffffff021916908373ffffffffffffffffffffffffffffffffffffffff160217905550808273ffffffffffffffffffffffffffffffffffffffff166110418361074c565b73ffffffffffffffffffffffffffffffffffffffff167f8c5be1e5ebec7d5bd14f71427d1e84f3dd0314c0f7b2291e5b200ac8c7c3b92560405160405180910390a45050565b600061109282610f5a565b6110d1576040517f08c379a00000000000000000000000000000000000000000000000000000000081526004016110c890612001565b60405180910390fd5b60006110dc8361074c565b90508073ffffffffffffffffffffffffffffffffffffffff168473ffffffffffffffffffffffffffffffffffffffff16148061114b57508373ffffffffffffffffffffffffffffffffffffffff166111338461052f565b73ffffffffffffffffffffffffffffffffffffffff16145b8061115c575061115b8185610c8e565b5b91505092915050565b8273ffffffffffffffffffffffffffffffffffffffff166111858261074c565b73ffffffffffffffffffffffffffffffffffffffff16146111db576040517f08c379a00000000000000000000000000000000000000000000000000000000081526004016111d2906120c1565b60405180910390fd5b600073ffffffffffffffffffffffffffffffffffffffff168273ffffffffffffffffffffffffffffffffffffffff16141561124b576040517f08c379a000000000000000000000000000000000000000000000000000000000815260040161124290611fc1565b60405180910390fd5b6112568383836115e1565b611261600082610fce565b6001600360008573ffffffffffffffffffffffffffffffffffffffff1673ffffffffffffffffffffffffffffffffffffffff16815260200190815260200160002060008282546112b191906122ad565b925050819055506001600360008473ffffffffffffffffffffffffffffffffffffffff1673ffffffffffffffffffffffffffffffffffffffff16815260200190815260200160002060008282546113089190612226565b92505081905550816002600083815260200190815260200160002060006101000a81548173ffffffffffffffffffffffffffffffffffffffff021916908373ffffffffffffffffffffffffffffffffffffffff160217905550808273ffffffffffffffffffffffffffffffffffffffff168473ffffffffffffffffffffffffffffffffffffffff167fddf252ad1be2c89b69c2b068fc378daa952ba7f163c4a11628f55a4df523b3ef60405160405180910390a4505050565b6113cc848484611165565b6113d8848484846115e6565b611417576040517f08c379a000000000000000000000000000000000000000000000000000000000815260040161140e90611f81565b60405180910390fd5b50505050565b606060405180602001604052806000815250905090565b6060600082141561147c576040518060400160405280600181526020017f300000000000000000000000000000000000000000000000000000000000000081525090506115dc565b600082905060005b600082146114ae578080611497906123fa565b915050600a826114a7919061227c565b9150611484565b60008167ffffffffffffffff8111156114f0577f4e487b7100000000000000000000000000000000000000000000000000000000600052604160045260246000fd5b6040519080825280601f01601f1916602001820160405280156115225781602001600182028036833780820191505090505b5090505b600085146115d55760018261153b91906122ad565b9150600a8561154a9190612443565b60306115569190612226565b60f81b818381518110611592577f4e487b7100000000000000000000000000000000000000000000000000000000600052603260045260246000fd5b60200101907effffffffffffffffffffffffffffffffffffffffffffffffffffffffffffff1916908160001a905350600a856115ce919061227c565b9450611526565b8093505050505b919050565b505050565b60006116078473ffffffffffffffffffffffffffffffffffffffff1661177d565b15611770578373ffffffffffffffffffffffffffffffffffffffff1663150b7a02611630610fc6565b8786866040518563ffffffff1660e01b81526004016116529493929190611ec8565b602060405180830381600087803b15801561166c57600080fd5b505af192505050801561169d57506040513d601f19601f8201168201806040525081019061169a9190611b3c565b60015b611720573d80600081146116cd576040519150601f19603f3d011682016040523d82523d6000602084013e6116d2565b606091505b50600081511415611718576040517f08c379a000000000000000000000000000000000000000000000000000000000815260040161170f90611f81565b60405180910390fd5b805181602001fd5b63150b7a0260e01b7bffffffffffffffffffffffffffffffffffffffffffffffffffffffff1916817bffffffffffffffffffffffffffffffffffffffffffffffffffffffff191614915050611775565b600190505b949350505050565b600080823b905060008111915050919050565b82805461179c90612397565b90600052602060002090601f0160209004810192826117be5760008555611805565b82601f106117d757805160ff1916838001178555611805565b82800160010185558215611805579182015b828111156118045782518255916020019190600101906117e9565b5b5090506118129190611816565b5090565b5b8082111561182f576000816000905550600101611817565b5090565b600061184661184184612181565b61215c565b90508281526020810184848401111561185e57600080fd5b611869848285612355565b509392505050565b600061188461187f846121b2565b61215c565b90508281526020810184848401111561189c57600080fd5b6118a7848285612355565b509392505050565b6000813590506118be81612921565b92915050565b6000813590506118d381612938565b92915050565b6000813590506118e88161294f565b92915050565b6000815190506118fd8161294f565b92915050565b600082601f83011261191457600080fd5b8135611924848260208601611833565b91505092915050565b600082601f83011261193e57600080fd5b813561194e848260208601611871565b91505092915050565b60008135905061196681612966565b92915050565b60006020828403121561197e57600080fd5b600061198c848285016118af565b91505092915050565b600080604083850312156119a857600080fd5b60006119b6858286016118af565b92505060206119c7858286016118af565b9150509250929050565b6000806000606084860312156119e657600080fd5b60006119f4868287016118af565b9350506020611a05868287016118af565b9250506040611a1686828701611957565b9150509250925092565b60008060008060808587031215611a3657600080fd5b6000611a44878288016118af565b9450506020611a55878288016118af565b9350506040611a6687828801611957565b925050606085013567ffffffffffffffff811115611a8357600080fd5b611a8f87828801611903565b91505092959194509250565b60008060408385031215611aae57600080fd5b6000611abc858286016118af565b9250506020611acd858286016118c4565b9150509250929050565b60008060408385031215611aea57600080fd5b6000611af8858286016118af565b9250506020611b0985828601611957565b9150509250929050565b600060208284031215611b2557600080fd5b6000611b33848285016118d9565b91505092915050565b600060208284031215611b4e57600080fd5b6000611b5c848285016118ee565b91505092915050565b600060208284031215611b7757600080fd5b600082013567ffffffffffffffff811115611b9157600080fd5b611b9d8482850161192d565b91505092915050565b600060208284031215611bb857600080fd5b6000611bc684828501611957565b91505092915050565b611bd8816122e1565b82525050565b611be7816122f3565b82525050565b6000611bf8826121e3565b611c0281856121f9565b9350611c12818560208601612364565b611c1b81612530565b840191505092915050565b6000611c31826121ee565b611c3b818561220a565b9350611c4b818560208601612364565b611c5481612530565b840191505092915050565b6000611c6a826121ee565b611c74818561221b565b9350611c84818560208601612364565b80840191505092915050565b6000611c9d60328361220a565b9150611ca882612541565b604082019050919050565b6000611cc0601c8361220a565b9150611ccb82612590565b602082019050919050565b6000611ce360248361220a565b9150611cee826125b9565b604082019050919050565b6000611d0660198361220a565b9150611d1182612608565b602082019050919050565b6000611d29602c8361220a565b9150611d3482612631565b604082019050919050565b6000611d4c60388361220a565b9150611d5782612680565b604082019050919050565b6000611d6f602a8361220a565b9150611d7a826126cf565b604082019050919050565b6000611d9260298361220a565b9150611d9d8261271e565b604082019050919050565b6000611db560208361220a565b9150611dc08261276d565b602082019050919050565b6000611dd8602c8361220a565b9150611de382612796565b604082019050919050565b6000611dfb60298361220a565b9150611e06826127e5565b604082019050919050565b6000611e1e602f8361220a565b9150611e2982612834565b604082019050919050565b6000611e4160218361220a565b9150611e4c82612883565b604082019050919050565b6000611e6460318361220a565b9150611e6f826128d2565b604082019050919050565b611e838161234b565b82525050565b6000611e958285611c5f565b9150611ea18284611c5f565b91508190509392505050565b6000602082019050611ec26000830184611bcf565b92915050565b6000608082019050611edd6000830187611bcf565b611eea6020830186611bcf565b611ef76040830185611e7a565b8181036060830152611f098184611bed565b905095945050505050565b6000602082019050611f296000830184611bde565b92915050565b60006020820190508181036000830152611f498184611c26565b905092915050565b60006040820190508181036000830152611f6b8185611c26565b9050611f7a6020830184611e7a565b9392505050565b60006020820190508181036000830152611f9a81611c90565b9050919050565b60006020820190508181036000830152611fba81611cb3565b9050919050565b60006020820190508181036000830152611fda81611cd6565b9050919050565b60006020820190508181036000830152611ffa81611cf9565b9050919050565b6000602082019050818103600083015261201a81611d1c565b9050919050565b6000602082019050818103600083015261203a81611d3f565b9050919050565b6000602082019050818103600083015261205a81611d62565b9050919050565b6000602082019050818103600083015261207a81611d85565b9050919050565b6000602082019050818103600083015261209a81611da8565b9050919050565b600060208201905081810360008301526120ba81611dcb565b9050919050565b600060208201905081810360008301526120da81611dee565b9050919050565b600060208201905081810360008301526120fa81611e11565b9050919050565b6000602082019050818103600083015261211a81611e34565b9050919050565b6000602082019050818103600083015261213a81611e57565b9050919050565b60006020820190506121566000830184611e7a565b92915050565b6000612166612177565b905061217282826123c9565b919050565b6000604051905090565b600067ffffffffffffffff82111561219c5761219b612501565b5b6121a582612530565b9050602081019050919050565b600067ffffffffffffffff8211156121cd576121cc612501565b5b6121d682612530565b9050602081019050919050565b600081519050919050565b600081519050919050565b600082825260208201905092915050565b600082825260208201905092915050565b600081905092915050565b60006122318261234b565b915061223c8361234b565b9250827fffffffffffffffffffffffffffffffffffffffffffffffffffffffffffffffff0382111561227157612270612474565b5b828201905092915050565b60006122878261234b565b91506122928361234b565b9250826122a2576122a16124a3565b5b828204905092915050565b60006122b88261234b565b91506122c38361234b565b9250828210156122d6576122d5612474565b5b828203905092915050565b60006122ec8261232b565b9050919050565b60008115159050919050565b60007fffffffff0000000000000000000000000000000000000000000000000000000082169050919050565b600073ffffffffffffffffffffffffffffffffffffffff82169050919050565b6000819050919050565b82818337600083830152505050565b60005b83811015612382578082015181840152602081019050612367565b83811115612391576000848401525b50505050565b600060028204905060018216806123af57607f821691505b602082108114156123c3576123c26124d2565b5b50919050565b6123d282612530565b810181811067ffffffffffffffff821117156123f1576123f0612501565b5b80604052505050565b60006124058261234b565b91507fffffffffffffffffffffffffffffffffffffffffffffffffffffffffffffffff82141561243857612437612474565b5b600182019050919050565b600061244e8261234b565b91506124598361234b565b925082612469576124686124a3565b5b828206905092915050565b7f4e487b7100000000000000000000000000000000000000000000000000000000600052601160045260246000fd5b7f4e487b7100000000000000000000000000000000000000000000000000000000600052601260045260246000fd5b7f4e487b7100000000000000000000000000000000000000000000000000000000600052602260045260246000fd5b7f4e487b7100000000000000000000000000000000000000000000000000000000600052604160045260246000fd5b6000601f19601f8301169050919050565b7f4552433732313a207472616e7366657220746f206e6f6e20455243373231526560008201527f63656976657220696d706c656d656e7465720000000000000000000000000000602082015250565b7f4552433732313a20746f6b656e20616c7265616479206d696e74656400000000600082015250565b7f4552433732313a207472616e7366657220746f20746865207a65726f2061646460008201527f7265737300000000000000000000000000000000000000000000000000000000602082015250565b7f4552433732313a20617070726f766520746f2063616c6c657200000000000000600082015250565b7f4552433732313a206f70657261746f7220717565727920666f72206e6f6e657860008201527f697374656e7420746f6b656e0000000000000000000000000000000000000000602082015250565b7f4552433732313a20617070726f76652063616c6c6572206973206e6f74206f7760008201527f6e6572206e6f7220617070726f76656420666f7220616c6c0000000000000000602082015250565b7f4552433732313a2062616c616e636520717565727920666f7220746865207a6560008201527f726f206164647265737300000000000000000000000000000000000000000000602082015250565b7f4552433732313a206f776e657220717565727920666f72206e6f6e657869737460008201527f656e7420746f6b656e0000000000000000000000000000000000000000000000602082015250565b7f4552433732313a206d696e7420746f20746865207a65726f2061646472657373600082015250565b7f4552433732313a20617070726f76656420717565727920666f72206e6f6e657860008201527f697374656e7420746f6b656e0000000000000000000000000000000000000000602082015250565b7f4552433732313a207472616e73666572206f6620746f6b656e2074686174206960008201527f73206e6f74206f776e0000000000000000000000000000000000000000000000602082015250565b7f4552433732314d657461646174613a2055524920717565727920666f72206e6f60008201527f6e6578697374656e7420746f6b656e0000000000000000000000000000000000602082015250565b7f4552433732313a20617070726f76616c20746f2063757272656e74206f776e6560008201527f7200000000000000000000000000000000000000000000000000000000000000602082015250565b7f4552433732313a207472616e736665722063616c6c6572206973206e6f74206f60008201527f776e6572206e6f7220617070726f766564000000000000000000000000000000602082015250565b61292a816122e1565b811461293557600080fd5b50565b612941816122f3565b811461294c57600080fd5b50565b612958816122ff565b811461296357600080fd5b50565b61296f8161234b565b811461297a57600080fd5b5056fea26469706673582212205288dc5ebe600942332a3d3483bb17d467050e545fa6fef3b8ad008cc21eee6064736f6c63430008010033",
  "immutableReferences": {},
  "source": "// SPDX-License-Identifier: MIT\r\n\r\npragma solidity >=0.6.0 <0.8.2;\r\n\r\nimport \"@openzeppelin/contracts/token/ERC721/ERC721.sol\";\r\n\r\ncontract MomentFactory is ERC721 {\r\n\tconstructor() ERC721(\"Moment\", \"MMT\") {}\r\n\t\r\n    struct Moment {\r\n\t\tstring url;\r\n\t\tuint created_at;\r\n\t}\r\n\r\n\tMoment[] public moments;\r\n\r\n\tmodifier onlyOwnerOf(uint _tokenId) {\r\n\t\trequire(msg.sender == ownerOf(_tokenId));\r\n\t\t_;\r\n\t}\r\n\r\n\tfunction createMoment (string memory _url) public {\r\n\t\tmoments.push(Moment(_url, block.timestamp));\r\n\t\tuint id = moments.length - 1;\r\n\t\t_mint(msg.sender, id);\r\n\t}\r\n}",
  "sourcePath": "D:/workspace/node_project/moment/contracts/MomentFactory.sol",
  "compiler": {
    "name": "solc",
    "version": "0.8.1+commit.df193b15.Emscripten.clang"
  },
  "schemaVersion": "3.3.3",
  "updatedAt": "2021-03-30T09:17:45.089Z",
  "devdoc": {
    "kind": "dev",
    "methods": {
      "approve(address,uint256)": {
        "details": "See {IERC721-approve}."
      },
      "balanceOf(address)": {
        "details": "See {IERC721-balanceOf}."
      },
      "getApproved(uint256)": {
        "details": "See {IERC721-getApproved}."
      },
      "isApprovedForAll(address,address)": {
        "details": "See {IERC721-isApprovedForAll}."
      },
      "name()": {
        "details": "See {IERC721Metadata-name}."
      },
      "ownerOf(uint256)": {
        "details": "See {IERC721-ownerOf}."
      },
      "safeTransferFrom(address,address,uint256)": {
        "details": "See {IERC721-safeTransferFrom}."
      },
      "safeTransferFrom(address,address,uint256,bytes)": {
        "details": "See {IERC721-safeTransferFrom}."
      },
      "setApprovalForAll(address,bool)": {
        "details": "See {IERC721-setApprovalForAll}."
      },
      "supportsInterface(bytes4)": {
        "details": "See {IERC165-supportsInterface}."
      },
      "symbol()": {
        "details": "See {IERC721Metadata-symbol}."
      },
      "tokenURI(uint256)": {
        "details": "See {IERC721Metadata-tokenURI}."
      },
      "transferFrom(address,address,uint256)": {
        "details": "See {IERC721-transferFrom}."
      }
    },
    "version": 1
  },
  "userdoc": {
    "kind": "user",
    "methods": {},
    "version": 1
  }
}