{
  "contractName": "MomentMarket",
  "abi": [
    {
      "inputs": [],
      "stateMutability": "nonpayable",
      "type": "constructor"
    },
    {
      "anonymous": false,
      "inputs": [
        {
          "indexed": true,
          "internalType": "address",
          "name": "owner",
          "type": "address"
        },
        {
          "indexed": true,
          "internalType": "address",
          "name": "approved",
          "type": "address"
        },
        {
          "indexed": true,
          "internalType": "uint256",
          "name": "tokenId",
          "type": "uint256"
        }
      ],
      "name": "Approval",
      "type": "event"
    },
    {
      "anonymous": false,
      "inputs": [
        {
          "indexed": true,
          "internalType": "address",
          "name": "owner",
          "type": "address"
        },
        {
          "indexed": true,
          "internalType": "address",
          "name": "operator",
          "type": "address"
        },
        {
          "indexed": false,
          "internalType": "bool",
          "name": "approved",
          "type": "bool"
        }
      ],
      "name": "ApprovalForAll",
      "type": "event"
    },
    {
      "anonymous": false,
      "inputs": [
        {
          "indexed": true,
          "internalType": "address",
          "name": "_seller",
          "type": "address"
        },
        {
          "indexed": true,
          "internalType": "uint256",
          "name": "_tokenId",
          "type": "uint256"
        },
        {
          "indexed": false,
          "internalType": "uint256",
          "name": "_orderId",
          "type": "uint256"
        }
      ],
      "name": "OrderClosed",
      "type": "event"
    },
    {
      "anonymous": false,
      "inputs": [
        {
          "indexed": true,
          "internalType": "address",
          "name": "_seller",
          "type": "address"
        },
        {
          "indexed": true,
          "internalType": "uint256",
          "name": "_tokenId",
          "type": "uint256"
        },
        {
          "indexed": false,
          "internalType": "uint256",
          "name": "_orderId",
          "type": "uint256"
        }
      ],
      "name": "OrderCreated",
      "type": "event"
    },
    {
      "anonymous": false,
      "inputs": [
        {
          "indexed": true,
          "internalType": "address",
          "name": "_seller",
          "type": "address"
        },
        {
          "indexed": true,
          "internalType": "address",
          "name": "_buyer",
          "type": "address"
        },
        {
          "indexed": true,
          "internalType": "uint256",
          "name": "_tokenId",
          "type": "uint256"
        },
        {
          "indexed": false,
          "internalType": "uint256",
          "name": "_orderId",
          "type": "uint256"
        },
        {
          "indexed": false,
          "internalType": "uint256",
          "name": "_fee",
          "type": "uint256"
        }
      ],
      "name": "OrderSuccessful",
      "type": "event"
    },
    {
      "anonymous": false,
      "inputs": [
        {
          "indexed": true,
          "internalType": "address",
          "name": "previousOwner",
          "type": "address"
        },
        {
          "indexed": true,
          "internalType": "address",
          "name": "newOwner",
          "type": "address"
        }
      ],
      "name": "OwnershipTransferred",
      "type": "event"
    },
    {
      "anonymous": false,
      "inputs": [
        {
          "indexed": true,
          "internalType": "address",
          "name": "from",
          "type": "address"
        },
        {
          "indexed": true,
          "internalType": "address",
          "name": "to",
          "type": "address"
        },
        {
          "indexed": true,
          "internalType": "uint256",
          "name": "tokenId",
          "type": "uint256"
        }
      ],
      "name": "Transfer",
      "type": "event"
    },
    {
      "inputs": [
        {
          "internalType": "address",
          "name": "to",
          "type": "address"
        },
        {
          "internalType": "uint256",
          "name": "tokenId",
          "type": "uint256"
        }
      ],
      "name": "approve",
      "outputs": [],
      "stateMutability": "nonpayable",
      "type": "function"
    },
    {
      "inputs": [
        {
          "internalType": "address",
          "name": "owner",
          "type": "address"
        }
      ],
      "name": "balanceOf",
      "outputs": [
        {
          "internalType": "uint256",
          "name": "",
          "type": "uint256"
        }
      ],
      "stateMutability": "view",
      "type": "function",
      "constant": true
    },
    {
      "inputs": [
        {
          "internalType": "string",
          "name": "_url",
          "type": "string"
        }
      ],
      "name": "createMoment",
      "outputs": [],
      "stateMutability": "nonpayable",
      "type": "function"
    },
    {
      "inputs": [
        {
          "internalType": "uint256",
          "name": "tokenId",
          "type": "uint256"
        }
      ],
      "name": "getApproved",
      "outputs": [
        {
          "internalType": "address",
          "name": "",
          "type": "address"
        }
      ],
      "stateMutability": "view",
      "type": "function",
      "constant": true
    },
    {
      "inputs": [
        {
          "internalType": "address",
          "name": "owner",
          "type": "address"
        },
        {
          "internalType": "address",
          "name": "operator",
          "type": "address"
        }
      ],
      "name": "isApprovedForAll",
      "outputs": [
        {
          "internalType": "bool",
          "name": "",
          "type": "bool"
        }
      ],
      "stateMutability": "view",
      "type": "function",
      "constant": true
    },
    {
      "inputs": [
        {
          "internalType": "uint256",
          "name": "",
          "type": "uint256"
        }
      ],
      "name": "moments",
      "outputs": [
        {
          "internalType": "string",
          "name": "url",
          "type": "string"
        },
        {
          "internalType": "uint256",
          "name": "created_at",
          "type": "uint256"
        }
      ],
      "stateMutability": "view",
      "type": "function",
      "constant": true
    },
    {
      "inputs": [],
      "name": "name",
      "outputs": [
        {
          "internalType": "string",
          "name": "",
          "type": "string"
        }
      ],
      "stateMutability": "view",
      "type": "function",
      "constant": true
    },
    {
      "inputs": [
        {
          "internalType": "uint256",
          "name": "",
          "type": "uint256"
        }
      ],
      "name": "orders",
      "outputs": [
        {
          "internalType": "address",
          "name": "seller",
          "type": "address"
        },
        {
          "internalType": "uint256",
          "name": "price",
          "type": "uint256"
        },
        {
          "internalType": "uint256",
          "name": "createdAt",
          "type": "uint256"
        },
        {
          "internalType": "string",
          "name": "currency",
          "type": "string"
        },
        {
          "internalType": "uint256",
          "name": "tokenId",
          "type": "uint256"
        },
        {
          "internalType": "bool",
          "name": "successful",
          "type": "bool"
        },
        {
          "internalType": "bool",
          "name": "closed",
          "type": "bool"
        }
      ],
      "stateMutability": "view",
      "type": "function",
      "constant": true
    },
    {
      "inputs": [],
      "name": "owner",
      "outputs": [
        {
          "internalType": "address",
          "name": "",
          "type": "address"
        }
      ],
      "stateMutability": "view",
      "type": "function",
      "constant": true
    },
    {
      "inputs": [
        {
          "internalType": "uint256",
          "name": "tokenId",
          "type": "uint256"
        }
      ],
      "name": "ownerOf",
      "outputs": [
        {
          "internalType": "address",
          "name": "",
          "type": "address"
        }
      ],
      "stateMutability": "view",
      "type": "function",
      "constant": true
    },
    {
      "inputs": [],
      "name": "renounceOwnership",
      "outputs": [],
      "stateMutability": "nonpayable",
      "type": "function"
    },
    {
      "inputs": [
        {
          "internalType": "address",
          "name": "from",
          "type": "address"
        },
        {
          "internalType": "address",
          "name": "to",
          "type": "address"
        },
        {
          "internalType": "uint256",
          "name": "tokenId",
          "type": "uint256"
        }
      ],
      "name": "safeTransferFrom",
      "outputs": [],
      "stateMutability": "nonpayable",
      "type": "function"
    },
    {
      "inputs": [
        {
          "internalType": "address",
          "name": "from",
          "type": "address"
        },
        {
          "internalType": "address",
          "name": "to",
          "type": "address"
        },
        {
          "internalType": "uint256",
          "name": "tokenId",
          "type": "uint256"
        },
        {
          "internalType": "bytes",
          "name": "_data",
          "type": "bytes"
        }
      ],
      "name": "safeTransferFrom",
      "outputs": [],
      "stateMutability": "nonpayable",
      "type": "function"
    },
    {
      "inputs": [
        {
          "internalType": "address",
          "name": "operator",
          "type": "address"
        },
        {
          "internalType": "bool",
          "name": "approved",
          "type": "bool"
        }
      ],
      "name": "setApprovalForAll",
      "outputs": [],
      "stateMutability": "nonpayable",
      "type": "function"
    },
    {
      "inputs": [
        {
          "internalType": "bytes4",
          "name": "interfaceId",
          "type": "bytes4"
        }
      ],
      "name": "supportsInterface",
      "outputs": [
        {
          "internalType": "bool",
          "name": "",
          "type": "bool"
        }
      ],
      "stateMutability": "view",
      "type": "function",
      "constant": true
    },
    {
      "inputs": [],
      "name": "symbol",
      "outputs": [
        {
          "internalType": "string",
          "name": "",
          "type": "string"
        }
      ],
      "stateMutability": "view",
      "type": "function",
      "constant": true
    },
    {
      "inputs": [
        {
          "internalType": "uint256",
          "name": "tokenId",
          "type": "uint256"
        }
      ],
      "name": "tokenURI",
      "outputs": [
        {
          "internalType": "string",
          "name": "",
          "type": "string"
        }
      ],
      "stateMutability": "view",
      "type": "function",
      "constant": true
    },
    {
      "inputs": [
        {
          "internalType": "address",
          "name": "from",
          "type": "address"
        },
        {
          "internalType": "address",
          "name": "to",
          "type": "address"
        },
        {
          "internalType": "uint256",
          "name": "tokenId",
          "type": "uint256"
        }
      ],
      "name": "transferFrom",
      "outputs": [],
      "stateMutability": "nonpayable",
      "type": "function"
    },
    {
      "inputs": [
        {
          "internalType": "address",
          "name": "newOwner",
          "type": "address"
        }
      ],
      "name": "transferOwnership",
      "outputs": [],
      "stateMutability": "nonpayable",
      "type": "function"
    },
    {
      "inputs": [
        {
          "internalType": "uint256",
          "name": "_tokenId",
          "type": "uint256"
        },
        {
          "internalType": "uint256",
          "name": "_price",
          "type": "uint256"
        },
        {
          "internalType": "string",
          "name": "_currency",
          "type": "string"
        }
      ],
      "name": "createOrder",
      "outputs": [],
      "stateMutability": "nonpayable",
      "type": "function"
    },
    {
      "inputs": [
        {
          "internalType": "uint256",
          "name": "_orderId",
          "type": "uint256"
        }
      ],
      "name": "closeOrder",
      "outputs": [],
      "stateMutability": "nonpayable",
      "type": "function"
    },
    {
      "inputs": [
        {
          "internalType": "uint256",
          "name": "_orderId",
          "type": "uint256"
        }
      ],
      "name": "byeOrder",
      "outputs": [],
      "stateMutability": "payable",
      "type": "function",
      "payable": true
    },
    {
      "inputs": [
        {
          "internalType": "address",
          "name": "_to",
          "type": "address"
        },
        {
          "internalType": "uint256",
          "name": "_value",
          "type": "uint256"
        }
      ],
      "name": "transferMoney",
      "outputs": [],
      "stateMutability": "nonpayable",
      "type": "function"
    },
    {
      "inputs": [],
      "name": "kill",
      "outputs": [],
      "stateMutability": "nonpayable",
      "type": "function"
    }
  ],
  "bytecode": "0x60806040523480156200001157600080fd5b506040518060400160405280600681526020017f4d6f6d656e7400000000000000000000000000000000000000000000000000008152506040518060400160405280600381526020017f4d4d54000000000000000000000000000000000000000000000000000000000081525081600090805190602001906200009692919062000171565b508060019080519060200190620000af92919062000171565b5050506000620000c46200016960201b60201c565b905080600760006101000a81548173ffffffffffffffffffffffffffffffffffffffff021916908373ffffffffffffffffffffffffffffffffffffffff1602179055508073ffffffffffffffffffffffffffffffffffffffff16600073ffffffffffffffffffffffffffffffffffffffff167f8be0079c531659141344cd1fd0a4f28419497f9722a3daafe3b4186f6b6457e060405160405180910390a35062000286565b600033905090565b8280546200017f9062000221565b90600052602060002090601f016020900481019282620001a35760008555620001ef565b82601f10620001be57805160ff1916838001178555620001ef565b82800160010185558215620001ef579182015b82811115620001ee578251825591602001919060010190620001d1565b5b509050620001fe919062000202565b5090565b5b808211156200021d57600081600090555060010162000203565b5090565b600060028204905060018216806200023a57607f821691505b6020821081141562000251576200025062000257565b5b50919050565b7f4e487b7100000000000000000000000000000000000000000000000000000000600052602260045260246000fd5b613ec980620002966000396000f3fe60806040526004361061014a5760003560e01c806370a08231116100b6578063a85c38ef1161006f578063a85c38ef1461046b578063b88d4fde146104ae578063c87b56dd146104d7578063e985e9c514610514578063f2fde38b14610551578063fee666ad1461057a5761014a565b806370a082311461035a578063715018a6146103975780638da5cb5b146103ae57806395d89b41146103d95780639c4ff9c714610404578063a22cb465146104425761014a565b806323b872dd1161010857806323b872dd1461026f5780632850a3df1461029857806341c0e1b5146102b457806342842e0e146102cb5780636061f754146102f45780636352211e1461031d5761014a565b8062e7203e1461014f57806301ffc9a714610178578063069d6d1c146101b557806306fdde03146101de578063081812fc14610209578063095ea7b314610246575b600080fd5b34801561015b57600080fd5b5061017660048036038101906101719190612e56565b6105a3565b005b34801561018457600080fd5b5061019f600480360381019061019a9190612e04565b610630565b6040516101ac9190613337565b60405180910390f35b3480156101c157600080fd5b506101dc60048036038101906101d79190612e97565b610712565b005b3480156101ea57600080fd5b506101f3610948565b6040516102009190613352565b60405180910390f35b34801561021557600080fd5b50610230600480360381019061022b9190612e97565b6109da565b60405161023d919061325a565b60405180910390f35b34801561025257600080fd5b5061026d60048036038101906102689190612dc8565b610a5f565b005b34801561027b57600080fd5b5061029660048036038101906102919190612cc2565b610b77565b005b6102b260048036038101906102ad9190612e97565b610bd7565b005b3480156102c057600080fd5b506102c9610cfc565b005b3480156102d757600080fd5b506102f260048036038101906102ed9190612cc2565b610d9d565b005b34801561030057600080fd5b5061031b60048036038101906103169190612ec0565b610dbd565b005b34801561032957600080fd5b50610344600480360381019061033f9190612e97565b611063565b604051610351919061325a565b60405180910390f35b34801561036657600080fd5b50610381600480360381019061037c9190612c5d565b611115565b60405161038e91906135a4565b60405180910390f35b3480156103a357600080fd5b506103ac6111cd565b005b3480156103ba57600080fd5b506103c361130a565b6040516103d0919061325a565b60405180910390f35b3480156103e557600080fd5b506103ee611334565b6040516103fb9190613352565b60405180910390f35b34801561041057600080fd5b5061042b60048036038101906104269190612e97565b6113c6565b604051610439929190613374565b60405180910390f35b34801561044e57600080fd5b5061046960048036038101906104649190612d8c565b611482565b005b34801561047757600080fd5b50610492600480360381019061048d9190612e97565b611603565b6040516104a597969594939291906132c1565b60405180910390f35b3480156104ba57600080fd5b506104d560048036038101906104d09190612d11565b611717565b005b3480156104e357600080fd5b506104fe60048036038101906104f99190612e97565b611779565b60405161050b9190613352565b60405180910390f35b34801561052057600080fd5b5061053b60048036038101906105369190612c86565b611820565b6040516105489190613337565b60405180910390f35b34801561055d57600080fd5b5061057860048036038101906105739190612c5d565b6118b4565b005b34801561058657600080fd5b506105a1600480360381019061059c9190612dc8565b611a60565b005b6006604051806040016040528083815260200142815250908060018154018082558091505060019003906000526020600020906002020160009091909190915060008201518160000190805190602001906105ff929190612a41565b50602082015181600101555050600060016006805490506106209190613739565b905061062c3382611ab1565b5050565b60007f80ac58cd000000000000000000000000000000000000000000000000000000007bffffffffffffffffffffffffffffffffffffffffffffffffffffffff1916827bffffffffffffffffffffffffffffffffffffffffffffffffffffffff191614806106fb57507f5b5e139f000000000000000000000000000000000000000000000000000000007bffffffffffffffffffffffffffffffffffffffffffffffffffffffff1916827bffffffffffffffffffffffffffffffffffffffffffffffffffffffff1916145b8061070b575061070a82611c7f565b5b9050919050565b80600073ffffffffffffffffffffffffffffffffffffffff163373ffffffffffffffffffffffffffffffffffffffff161480156107ad57506009600082815260200190815260200160002060009054906101000a900473ffffffffffffffffffffffffffffffffffffffff1673ffffffffffffffffffffffffffffffffffffffff163373ffffffffffffffffffffffffffffffffffffffff16145b6107b657600080fd5b816000600882815481106107f3577f4e487b7100000000000000000000000000000000000000000000000000000000600052603260045260246000fd5b90600052602060002090600602016002015411801561086e5750600015156008828154811061084b577f4e487b7100000000000000000000000000000000000000000000000000000000600052603260045260246000fd5b906000526020600020906006020160050160019054906101000a900460ff161515145b61087757600080fd5b6000600884815481106108b3577f4e487b7100000000000000000000000000000000000000000000000000000000600052603260045260246000fd5b9060005260206000209060060201905060018160050160016101000a81548160ff0219169083151502179055506108ef30338360040154611ce9565b80600401543373ffffffffffffffffffffffffffffffffffffffff167fdd1bdc77e3cc244141600de256428e5a4fa93f9ba200229891d49111390692228660405161093a91906135a4565b60405180910390a350505050565b60606000805461095790613835565b80601f016020809104026020016040519081016040528092919081815260200182805461098390613835565b80156109d05780601f106109a5576101008083540402835291602001916109d0565b820191906000526020600020905b8154815290600101906020018083116109b357829003601f168201915b5050505050905090565b60006109e582611f45565b610a24576040517f08c379a0000000000000000000000000000000000000000000000000000000008152600401610a1b906134e4565b60405180910390fd5b6004600083815260200190815260200160002060009054906101000a900473ffffffffffffffffffffffffffffffffffffffff169050919050565b6000610a6a82611063565b90508073ffffffffffffffffffffffffffffffffffffffff168373ffffffffffffffffffffffffffffffffffffffff161415610adb576040517f08c379a0000000000000000000000000000000000000000000000000000000008152600401610ad290613564565b60405180910390fd5b8073ffffffffffffffffffffffffffffffffffffffff16610afa611fb1565b73ffffffffffffffffffffffffffffffffffffffff161480610b295750610b2881610b23611fb1565b611820565b5b610b68576040517f08c379a0000000000000000000000000000000000000000000000000000000008152600401610b5f90613464565b60405180910390fd5b610b728383611fb9565b505050565b610b88610b82611fb1565b82612072565b610bc7576040517f08c379a0000000000000000000000000000000000000000000000000000000008152600401610bbe90613584565b60405180910390fd5b610bd2838383611ce9565b505050565b80600060088281548110610c14577f4e487b7100000000000000000000000000000000000000000000000000000000600052603260045260246000fd5b906000526020600020906006020160020154118015610c8f57506000151560088281548110610c6c577f4e487b7100000000000000000000000000000000000000000000000000000000600052603260045260246000fd5b906000526020600020906006020160050160019054906101000a900460ff161515145b610c9857600080fd5b610ca28234612150565b610cf8303360088581548110610ce1577f4e487b7100000000000000000000000000000000000000000000000000000000600052603260045260246000fd5b906000526020600020906006020160040154611ce9565b5050565b610d04611fb1565b73ffffffffffffffffffffffffffffffffffffffff16610d2261130a565b73ffffffffffffffffffffffffffffffffffffffff1614610d78576040517f08c379a0000000000000000000000000000000000000000000000000000000008152600401610d6f90613504565b60405180910390fd5b6000610d8261130a565b90508073ffffffffffffffffffffffffffffffffffffffff16ff5b610db883838360405180602001604052806000815250611717565b505050565b82610dc781611063565b73ffffffffffffffffffffffffffffffffffffffff163373ffffffffffffffffffffffffffffffffffffffff1614610dfe57600080fd5b600033905060006040518060e001604052808373ffffffffffffffffffffffffffffffffffffffff168152602001868152602001428152602001858152602001878152602001600015158152602001600015158152509050600881908060018154018082558091505060019003906000526020600020906006020160009091909190915060008201518160000160006101000a81548173ffffffffffffffffffffffffffffffffffffffff021916908373ffffffffffffffffffffffffffffffffffffffff16021790555060208201518160010155604082015181600201556060820151816003019080519060200190610ef9929190612a41565b506080820151816004015560a08201518160050160006101000a81548160ff02191690831515021790555060c08201518160050160016101000a81548160ff021916908315150217905550505060006001600880549050610f5a9190613739565b9050826009600083815260200190815260200160002060006101000a81548173ffffffffffffffffffffffffffffffffffffffff021916908373ffffffffffffffffffffffffffffffffffffffff160217905550610fff81600a60008673ffffffffffffffffffffffffffffffffffffffff1673ffffffffffffffffffffffffffffffffffffffff16815260200190815260200160002061229b90919063ffffffff16565b5061100b833089611ce9565b868373ffffffffffffffffffffffffffffffffffffffff167fbb4cd350108fec46a02c87acb34a38f6c465fb2dc050687359c97229703bb8f48360405161105291906135a4565b60405180910390a350505050505050565b6000806002600084815260200190815260200160002060009054906101000a900473ffffffffffffffffffffffffffffffffffffffff169050600073ffffffffffffffffffffffffffffffffffffffff168173ffffffffffffffffffffffffffffffffffffffff16141561110c576040517f08c379a0000000000000000000000000000000000000000000000000000000008152600401611103906134a4565b60405180910390fd5b80915050919050565b60008073ffffffffffffffffffffffffffffffffffffffff168273ffffffffffffffffffffffffffffffffffffffff161415611186576040517f08c379a000000000000000000000000000000000000000000000000000000000815260040161117d90613484565b60405180910390fd5b600360008373ffffffffffffffffffffffffffffffffffffffff1673ffffffffffffffffffffffffffffffffffffffff168152602001908152602001600020549050919050565b6111d5611fb1565b73ffffffffffffffffffffffffffffffffffffffff166111f361130a565b73ffffffffffffffffffffffffffffffffffffffff1614611249576040517f08c379a000000000000000000000000000000000000000000000000000000000815260040161124090613504565b60405180910390fd5b600073ffffffffffffffffffffffffffffffffffffffff16600760009054906101000a900473ffffffffffffffffffffffffffffffffffffffff1673ffffffffffffffffffffffffffffffffffffffff167f8be0079c531659141344cd1fd0a4f28419497f9722a3daafe3b4186f6b6457e060405160405180910390a36000600760006101000a81548173ffffffffffffffffffffffffffffffffffffffff021916908373ffffffffffffffffffffffffffffffffffffffff160217905550565b6000600760009054906101000a900473ffffffffffffffffffffffffffffffffffffffff16905090565b60606001805461134390613835565b80601f016020809104026020016040519081016040528092919081815260200182805461136f90613835565b80156113bc5780601f10611391576101008083540402835291602001916113bc565b820191906000526020600020905b81548152906001019060200180831161139f57829003601f168201915b5050505050905090565b600681815481106113d657600080fd5b90600052602060002090600202016000915090508060000180546113f990613835565b80601f016020809104026020016040519081016040528092919081815260200182805461142590613835565b80156114725780601f1061144757610100808354040283529160200191611472565b820191906000526020600020905b81548152906001019060200180831161145557829003601f168201915b5050505050908060010154905082565b61148a611fb1565b73ffffffffffffffffffffffffffffffffffffffff168273ffffffffffffffffffffffffffffffffffffffff1614156114f8576040517f08c379a00000000000000000000000000000000000000000000000000000000081526004016114ef90613424565b60405180910390fd5b8060056000611505611fb1565b73ffffffffffffffffffffffffffffffffffffffff1673ffffffffffffffffffffffffffffffffffffffff16815260200190815260200160002060008473ffffffffffffffffffffffffffffffffffffffff1673ffffffffffffffffffffffffffffffffffffffff16815260200190815260200160002060006101000a81548160ff0219169083151502179055508173ffffffffffffffffffffffffffffffffffffffff166115b2611fb1565b73ffffffffffffffffffffffffffffffffffffffff167f17307eab39ab6107e8899845ad3d59bd9653f200f220920489ca2b5937696c31836040516115f79190613337565b60405180910390a35050565b6008818154811061161357600080fd5b90600052602060002090600602016000915090508060000160009054906101000a900473ffffffffffffffffffffffffffffffffffffffff169080600101549080600201549080600301805461166890613835565b80601f016020809104026020016040519081016040528092919081815260200182805461169490613835565b80156116e15780601f106116b6576101008083540402835291602001916116e1565b820191906000526020600020905b8154815290600101906020018083116116c457829003601f168201915b5050505050908060040154908060050160009054906101000a900460ff16908060050160019054906101000a900460ff16905087565b611728611722611fb1565b83612072565b611767576040517f08c379a000000000000000000000000000000000000000000000000000000000815260040161175e90613584565b60405180910390fd5b611773848484846122b5565b50505050565b606061178482611f45565b6117c3576040517f08c379a00000000000000000000000000000000000000000000000000000000081526004016117ba90613544565b60405180910390fd5b60006117cd612311565b905060008151116117ed5760405180602001604052806000815250611818565b806117f784612328565b604051602001611808929190613236565b6040516020818303038152906040525b915050919050565b6000600560008473ffffffffffffffffffffffffffffffffffffffff1673ffffffffffffffffffffffffffffffffffffffff16815260200190815260200160002060008373ffffffffffffffffffffffffffffffffffffffff1673ffffffffffffffffffffffffffffffffffffffff16815260200190815260200160002060009054906101000a900460ff16905092915050565b6118bc611fb1565b73ffffffffffffffffffffffffffffffffffffffff166118da61130a565b73ffffffffffffffffffffffffffffffffffffffff1614611930576040517f08c379a000000000000000000000000000000000000000000000000000000000815260040161192790613504565b60405180910390fd5b600073ffffffffffffffffffffffffffffffffffffffff168173ffffffffffffffffffffffffffffffffffffffff1614156119a0576040517f08c379a0000000000000000000000000000000000000000000000000000000008152600401611997906133c4565b60405180910390fd5b8073ffffffffffffffffffffffffffffffffffffffff16600760009054906101000a900473ffffffffffffffffffffffffffffffffffffffff1673ffffffffffffffffffffffffffffffffffffffff167f8be0079c531659141344cd1fd0a4f28419497f9722a3daafe3b4186f6b6457e060405160405180910390a380600760006101000a81548173ffffffffffffffffffffffffffffffffffffffff021916908373ffffffffffffffffffffffffffffffffffffffff16021790555050565b60008290508073ffffffffffffffffffffffffffffffffffffffff166108fc839081150290604051600060405180830381858888f19350505050158015611aab573d6000803e3d6000fd5b50505050565b600073ffffffffffffffffffffffffffffffffffffffff168273ffffffffffffffffffffffffffffffffffffffff161415611b21576040517f08c379a0000000000000000000000000000000000000000000000000000000008152600401611b18906134c4565b60405180910390fd5b611b2a81611f45565b15611b6a576040517f08c379a0000000000000000000000000000000000000000000000000000000008152600401611b61906133e4565b60405180910390fd5b611b76600083836124d5565b6001600360008473ffffffffffffffffffffffffffffffffffffffff1673ffffffffffffffffffffffffffffffffffffffff1681526020019081526020016000206000828254611bc691906136b2565b92505081905550816002600083815260200190815260200160002060006101000a81548173ffffffffffffffffffffffffffffffffffffffff021916908373ffffffffffffffffffffffffffffffffffffffff160217905550808273ffffffffffffffffffffffffffffffffffffffff16600073ffffffffffffffffffffffffffffffffffffffff167fddf252ad1be2c89b69c2b068fc378daa952ba7f163c4a11628f55a4df523b3ef60405160405180910390a45050565b60007f01ffc9a7000000000000000000000000000000000000000000000000000000007bffffffffffffffffffffffffffffffffffffffffffffffffffffffff1916827bffffffffffffffffffffffffffffffffffffffffffffffffffffffff1916149050919050565b8273ffffffffffffffffffffffffffffffffffffffff16611d0982611063565b73ffffffffffffffffffffffffffffffffffffffff1614611d5f576040517f08c379a0000000000000000000000000000000000000000000000000000000008152600401611d5690613524565b60405180910390fd5b600073ffffffffffffffffffffffffffffffffffffffff168273ffffffffffffffffffffffffffffffffffffffff161415611dcf576040517f08c379a0000000000000000000000000000000000000000000000000000000008152600401611dc690613404565b60405180910390fd5b611dda8383836124d5565b611de5600082611fb9565b6001600360008573ffffffffffffffffffffffffffffffffffffffff1673ffffffffffffffffffffffffffffffffffffffff1681526020019081526020016000206000828254611e359190613739565b925050819055506001600360008473ffffffffffffffffffffffffffffffffffffffff1673ffffffffffffffffffffffffffffffffffffffff1681526020019081526020016000206000828254611e8c91906136b2565b92505081905550816002600083815260200190815260200160002060006101000a81548173ffffffffffffffffffffffffffffffffffffffff021916908373ffffffffffffffffffffffffffffffffffffffff160217905550808273ffffffffffffffffffffffffffffffffffffffff168473ffffffffffffffffffffffffffffffffffffffff167fddf252ad1be2c89b69c2b068fc378daa952ba7f163c4a11628f55a4df523b3ef60405160405180910390a4505050565b60008073ffffffffffffffffffffffffffffffffffffffff166002600084815260200190815260200160002060009054906101000a900473ffffffffffffffffffffffffffffffffffffffff1673ffffffffffffffffffffffffffffffffffffffff1614159050919050565b600033905090565b816004600083815260200190815260200160002060006101000a81548173ffffffffffffffffffffffffffffffffffffffff021916908373ffffffffffffffffffffffffffffffffffffffff160217905550808273ffffffffffffffffffffffffffffffffffffffff1661202c83611063565b73ffffffffffffffffffffffffffffffffffffffff167f8c5be1e5ebec7d5bd14f71427d1e84f3dd0314c0f7b2291e5b200ac8c7c3b92560405160405180910390a45050565b600061207d82611f45565b6120bc576040517f08c379a00000000000000000000000000000000000000000000000000000000081526004016120b390613444565b60405180910390fd5b60006120c783611063565b90508073ffffffffffffffffffffffffffffffffffffffff168473ffffffffffffffffffffffffffffffffffffffff16148061213657508373ffffffffffffffffffffffffffffffffffffffff1661211e846109da565b73ffffffffffffffffffffffffffffffffffffffff16145b8061214757506121468185611820565b5b91505092915050565b60006008838154811061218c577f4e487b7100000000000000000000000000000000000000000000000000000000600052603260045260246000fd5b9060005260206000209060060201905080600101548210156121ad57600080fd5b60008160000160009054906101000a900473ffffffffffffffffffffffffffffffffffffffff1690506000826001015490506000836004015490506121f1866124da565b600085111561222a576122048383611a60565b600082866122129190613739565b90506000811115612228576122273382611a60565b5b505b803373ffffffffffffffffffffffffffffffffffffffff168473ffffffffffffffffffffffffffffffffffffffff167f09e188971dbdbef2aee7a6707aa7640ddbc064491d979f7b4d02b12e877e71b189600060405161228b9291906135bf565b60405180910390a4505050505050565b60006122ad836000018360001b612660565b905092915050565b6122c0848484611ce9565b6122cc848484846126d0565b61230b576040517f08c379a0000000000000000000000000000000000000000000000000000000008152600401612302906133a4565b60405180910390fd5b50505050565b606060405180602001604052806000815250905090565b60606000821415612370576040518060400160405280600181526020017f300000000000000000000000000000000000000000000000000000000000000081525090506124d0565b600082905060005b600082146123a257808061238b90613898565b915050600a8261239b9190613708565b9150612378565b60008167ffffffffffffffff8111156123e4577f4e487b7100000000000000000000000000000000000000000000000000000000600052604160045260246000fd5b6040519080825280601f01601f1916602001820160405280156124165781602001600182028036833780820191505090505b5090505b600085146124c95760018261242f9190613739565b9150600a8561243e91906138e1565b603061244a91906136b2565b60f81b818381518110612486577f4e487b7100000000000000000000000000000000000000000000000000000000600052603260045260246000fd5b60200101907effffffffffffffffffffffffffffffffffffffffffffffffffffffffffffff1916908160001a905350600a856124c29190613708565b945061241a565b8093505050505b919050565b505050565b60088181548110612514577f4e487b7100000000000000000000000000000000000000000000000000000000600052603260045260246000fd5b9060005260206000209060060201600080820160006101000a81549073ffffffffffffffffffffffffffffffffffffffff02191690556001820160009055600282016000905560038201600061256a9190612ac7565b60048201600090556005820160006101000a81549060ff02191690556005820160016101000a81549060ff0219169055505060006009600083815260200190815260200160002060009054906101000a900473ffffffffffffffffffffffffffffffffffffffff16905061262582600a60008473ffffffffffffffffffffffffffffffffffffffff1673ffffffffffffffffffffffffffffffffffffffff16815260200190815260200160002061286790919063ffffffff16565b506009600083815260200190815260200160002060006101000a81549073ffffffffffffffffffffffffffffffffffffffff02191690555050565b600061266c8383612881565b6126c55782600001829080600181540180825580915050600190039060005260206000200160009091909190915055826000018054905083600101600084815260200190815260200160002081905550600190506126ca565b600090505b92915050565b60006126f18473ffffffffffffffffffffffffffffffffffffffff166128a4565b1561285a578373ffffffffffffffffffffffffffffffffffffffff1663150b7a0261271a611fb1565b8786866040518563ffffffff1660e01b815260040161273c9493929190613275565b602060405180830381600087803b15801561275657600080fd5b505af192505050801561278757506040513d601f19601f820116820180604052508101906127849190612e2d565b60015b61280a573d80600081146127b7576040519150601f19603f3d011682016040523d82523d6000602084013e6127bc565b606091505b50600081511415612802576040517f08c379a00000000000000000000000000000000000000000000000000000000081526004016127f9906133a4565b60405180910390fd5b805181602001fd5b63150b7a0260e01b7bffffffffffffffffffffffffffffffffffffffffffffffffffffffff1916817bffffffffffffffffffffffffffffffffffffffffffffffffffffffff19161491505061285f565b600190505b949350505050565b6000612879836000018360001b6128b7565b905092915050565b600080836001016000848152602001908152602001600020541415905092915050565b600080823b905060008111915050919050565b60008083600101600084815260200190815260200160002054905060008114612a355760006001826128e99190613739565b90506000600186600001805490506129019190613739565b90506000866000018281548110612941577f4e487b7100000000000000000000000000000000000000000000000000000000600052603260045260246000fd5b906000526020600020015490508087600001848154811061298b577f4e487b7100000000000000000000000000000000000000000000000000000000600052603260045260246000fd5b90600052602060002001819055506001836129a691906136b2565b87600101600083815260200190815260200160002081905550866000018054806129f9577f4e487b7100000000000000000000000000000000000000000000000000000000600052603160045260246000fd5b60019003818190600052602060002001600090559055866001016000878152602001908152602001600020600090556001945050505050612a3b565b60009150505b92915050565b828054612a4d90613835565b90600052602060002090601f016020900481019282612a6f5760008555612ab6565b82601f10612a8857805160ff1916838001178555612ab6565b82800160010185558215612ab6579182015b82811115612ab5578251825591602001919060010190612a9a565b5b509050612ac39190612b07565b5090565b508054612ad390613835565b6000825580601f10612ae55750612b04565b601f016020900490600052602060002090810190612b039190612b07565b5b50565b5b80821115612b20576000816000905550600101612b08565b5090565b6000612b37612b328461360d565b6135e8565b905082815260208101848484011115612b4f57600080fd5b612b5a8482856137f3565b509392505050565b6000612b75612b708461363e565b6135e8565b905082815260208101848484011115612b8d57600080fd5b612b988482856137f3565b509392505050565b600081359050612baf81613e37565b92915050565b600081359050612bc481613e4e565b92915050565b600081359050612bd981613e65565b92915050565b600081519050612bee81613e65565b92915050565b600082601f830112612c0557600080fd5b8135612c15848260208601612b24565b91505092915050565b600082601f830112612c2f57600080fd5b8135612c3f848260208601612b62565b91505092915050565b600081359050612c5781613e7c565b92915050565b600060208284031215612c6f57600080fd5b6000612c7d84828501612ba0565b91505092915050565b60008060408385031215612c9957600080fd5b6000612ca785828601612ba0565b9250506020612cb885828601612ba0565b9150509250929050565b600080600060608486031215612cd757600080fd5b6000612ce586828701612ba0565b9350506020612cf686828701612ba0565b9250506040612d0786828701612c48565b9150509250925092565b60008060008060808587031215612d2757600080fd5b6000612d3587828801612ba0565b9450506020612d4687828801612ba0565b9350506040612d5787828801612c48565b925050606085013567ffffffffffffffff811115612d7457600080fd5b612d8087828801612bf4565b91505092959194509250565b60008060408385031215612d9f57600080fd5b6000612dad85828601612ba0565b9250506020612dbe85828601612bb5565b9150509250929050565b60008060408385031215612ddb57600080fd5b6000612de985828601612ba0565b9250506020612dfa85828601612c48565b9150509250929050565b600060208284031215612e1657600080fd5b6000612e2484828501612bca565b91505092915050565b600060208284031215612e3f57600080fd5b6000612e4d84828501612bdf565b91505092915050565b600060208284031215612e6857600080fd5b600082013567ffffffffffffffff811115612e8257600080fd5b612e8e84828501612c1e565b91505092915050565b600060208284031215612ea957600080fd5b6000612eb784828501612c48565b91505092915050565b600080600060608486031215612ed557600080fd5b6000612ee386828701612c48565b9350506020612ef486828701612c48565b925050604084013567ffffffffffffffff811115612f1157600080fd5b612f1d86828701612c1e565b9150509250925092565b612f308161376d565b82525050565b612f3f8161377f565b82525050565b6000612f508261366f565b612f5a8185613685565b9350612f6a818560208601613802565b612f73816139ce565b840191505092915050565b612f87816137e1565b82525050565b6000612f988261367a565b612fa28185613696565b9350612fb2818560208601613802565b612fbb816139ce565b840191505092915050565b6000612fd18261367a565b612fdb81856136a7565b9350612feb818560208601613802565b80840191505092915050565b6000613004603283613696565b915061300f826139df565b604082019050919050565b6000613027602683613696565b915061303282613a2e565b604082019050919050565b600061304a601c83613696565b915061305582613a7d565b602082019050919050565b600061306d602483613696565b915061307882613aa6565b604082019050919050565b6000613090601983613696565b915061309b82613af5565b602082019050919050565b60006130b3602c83613696565b91506130be82613b1e565b604082019050919050565b60006130d6603883613696565b91506130e182613b6d565b604082019050919050565b60006130f9602a83613696565b915061310482613bbc565b604082019050919050565b600061311c602983613696565b915061312782613c0b565b604082019050919050565b600061313f602083613696565b915061314a82613c5a565b602082019050919050565b6000613162602c83613696565b915061316d82613c83565b604082019050919050565b6000613185602083613696565b915061319082613cd2565b602082019050919050565b60006131a8602983613696565b91506131b382613cfb565b604082019050919050565b60006131cb602f83613696565b91506131d682613d4a565b604082019050919050565b60006131ee602183613696565b91506131f982613d99565b604082019050919050565b6000613211603183613696565b915061321c82613de8565b604082019050919050565b613230816137d7565b82525050565b60006132428285612fc6565b915061324e8284612fc6565b91508190509392505050565b600060208201905061326f6000830184612f27565b92915050565b600060808201905061328a6000830187612f27565b6132976020830186612f27565b6132a46040830185613227565b81810360608301526132b68184612f45565b905095945050505050565b600060e0820190506132d6600083018a612f27565b6132e36020830189613227565b6132f06040830188613227565b81810360608301526133028187612f8d565b90506133116080830186613227565b61331e60a0830185612f36565b61332b60c0830184612f36565b98975050505050505050565b600060208201905061334c6000830184612f36565b92915050565b6000602082019050818103600083015261336c8184612f8d565b905092915050565b6000604082019050818103600083015261338e8185612f8d565b905061339d6020830184613227565b9392505050565b600060208201905081810360008301526133bd81612ff7565b9050919050565b600060208201905081810360008301526133dd8161301a565b9050919050565b600060208201905081810360008301526133fd8161303d565b9050919050565b6000602082019050818103600083015261341d81613060565b9050919050565b6000602082019050818103600083015261343d81613083565b9050919050565b6000602082019050818103600083015261345d816130a6565b9050919050565b6000602082019050818103600083015261347d816130c9565b9050919050565b6000602082019050818103600083015261349d816130ec565b9050919050565b600060208201905081810360008301526134bd8161310f565b9050919050565b600060208201905081810360008301526134dd81613132565b9050919050565b600060208201905081810360008301526134fd81613155565b9050919050565b6000602082019050818103600083015261351d81613178565b9050919050565b6000602082019050818103600083015261353d8161319b565b9050919050565b6000602082019050818103600083015261355d816131be565b9050919050565b6000602082019050818103600083015261357d816131e1565b9050919050565b6000602082019050818103600083015261359d81613204565b9050919050565b60006020820190506135b96000830184613227565b92915050565b60006040820190506135d46000830185613227565b6135e16020830184612f7e565b9392505050565b60006135f2613603565b90506135fe8282613867565b919050565b6000604051905090565b600067ffffffffffffffff8211156136285761362761399f565b5b613631826139ce565b9050602081019050919050565b600067ffffffffffffffff8211156136595761365861399f565b5b613662826139ce565b9050602081019050919050565b600081519050919050565b600081519050919050565b600082825260208201905092915050565b600082825260208201905092915050565b600081905092915050565b60006136bd826137d7565b91506136c8836137d7565b9250827fffffffffffffffffffffffffffffffffffffffffffffffffffffffffffffffff038211156136fd576136fc613912565b5b828201905092915050565b6000613713826137d7565b915061371e836137d7565b92508261372e5761372d613941565b5b828204905092915050565b6000613744826137d7565b915061374f836137d7565b92508282101561376257613761613912565b5b828203905092915050565b6000613778826137b7565b9050919050565b60008115159050919050565b60007fffffffff0000000000000000000000000000000000000000000000000000000082169050919050565b600073ffffffffffffffffffffffffffffffffffffffff82169050919050565b6000819050919050565b60006137ec826137d7565b9050919050565b82818337600083830152505050565b60005b83811015613820578082015181840152602081019050613805565b8381111561382f576000848401525b50505050565b6000600282049050600182168061384d57607f821691505b6020821081141561386157613860613970565b5b50919050565b613870826139ce565b810181811067ffffffffffffffff8211171561388f5761388e61399f565b5b80604052505050565b60006138a3826137d7565b91507fffffffffffffffffffffffffffffffffffffffffffffffffffffffffffffffff8214156138d6576138d5613912565b5b600182019050919050565b60006138ec826137d7565b91506138f7836137d7565b92508261390757613906613941565b5b828206905092915050565b7f4e487b7100000000000000000000000000000000000000000000000000000000600052601160045260246000fd5b7f4e487b7100000000000000000000000000000000000000000000000000000000600052601260045260246000fd5b7f4e487b7100000000000000000000000000000000000000000000000000000000600052602260045260246000fd5b7f4e487b7100000000000000000000000000000000000000000000000000000000600052604160045260246000fd5b6000601f19601f8301169050919050565b7f4552433732313a207472616e7366657220746f206e6f6e20455243373231526560008201527f63656976657220696d706c656d656e7465720000000000000000000000000000602082015250565b7f4f776e61626c653a206e6577206f776e657220697320746865207a65726f206160008201527f6464726573730000000000000000000000000000000000000000000000000000602082015250565b7f4552433732313a20746f6b656e20616c7265616479206d696e74656400000000600082015250565b7f4552433732313a207472616e7366657220746f20746865207a65726f2061646460008201527f7265737300000000000000000000000000000000000000000000000000000000602082015250565b7f4552433732313a20617070726f766520746f2063616c6c657200000000000000600082015250565b7f4552433732313a206f70657261746f7220717565727920666f72206e6f6e657860008201527f697374656e7420746f6b656e0000000000000000000000000000000000000000602082015250565b7f4552433732313a20617070726f76652063616c6c6572206973206e6f74206f7760008201527f6e6572206e6f7220617070726f76656420666f7220616c6c0000000000000000602082015250565b7f4552433732313a2062616c616e636520717565727920666f7220746865207a6560008201527f726f206164647265737300000000000000000000000000000000000000000000602082015250565b7f4552433732313a206f776e657220717565727920666f72206e6f6e657869737460008201527f656e7420746f6b656e0000000000000000000000000000000000000000000000602082015250565b7f4552433732313a206d696e7420746f20746865207a65726f2061646472657373600082015250565b7f4552433732313a20617070726f76656420717565727920666f72206e6f6e657860008201527f697374656e7420746f6b656e0000000000000000000000000000000000000000602082015250565b7f4f776e61626c653a2063616c6c6572206973206e6f7420746865206f776e6572600082015250565b7f4552433732313a207472616e73666572206f6620746f6b656e2074686174206960008201527f73206e6f74206f776e0000000000000000000000000000000000000000000000602082015250565b7f4552433732314d657461646174613a2055524920717565727920666f72206e6f60008201527f6e6578697374656e7420746f6b656e0000000000000000000000000000000000602082015250565b7f4552433732313a20617070726f76616c20746f2063757272656e74206f776e6560008201527f7200000000000000000000000000000000000000000000000000000000000000602082015250565b7f4552433732313a207472616e736665722063616c6c6572206973206e6f74206f60008201527f776e6572206e6f7220617070726f766564000000000000000000000000000000602082015250565b613e408161376d565b8114613e4b57600080fd5b50565b613e578161377f565b8114613e6257600080fd5b50565b613e6e8161378b565b8114613e7957600080fd5b50565b613e85816137d7565b8114613e9057600080fd5b5056fea2646970667358221220ad5115ce082d72c7474588bf6bdf6ccad3db69382fb8ddbdcfc7f58c8acc280b64736f6c63430008010033",
  "immutableReferences": {},
  "source": "// SPDX-License-Identifier: MIT\r\n\r\npragma solidity >=0.6.0 <0.8.2;\r\n\r\nimport './MomentFactory.sol';\r\nimport \"@openzeppelin/contracts/utils/structs/EnumerableSet.sol\";\r\nimport \"@openzeppelin/contracts/access/Ownable.sol\";\r\n\r\ncontract MomentMarket is MomentFactory, Ownable {\r\n\tusing EnumerableSet for EnumerableSet.UintSet;\r\n\r\n\tconstructor() {}\r\n\r\n\tevent OrderCreated(\r\n\t\taddress indexed _seller,\r\n\t\tuint256 indexed _tokenId,\r\n\t\tuint256 _orderId\r\n\t);\r\n\r\n\tevent OrderClosed(\r\n\t\taddress indexed _seller,\r\n\t\tuint256 indexed _tokenId,\r\n\t\tuint256 _orderId\r\n\t);\r\n\r\n\tevent OrderSuccessful(\r\n\t\taddress indexed _seller,\r\n\t\taddress indexed _buyer,\r\n\t\tuint256 indexed _tokenId,\r\n\t\tuint256 _orderId,\r\n\t\tuint256 _fee\r\n\t);\r\n\r\n\tstruct Order {\r\n\t\taddress seller;\r\n\t\tuint256 price;\r\n\t\tuint256 createdAt;\r\n\t\tstring currency;\r\n\t\tuint tokenId;\r\n\t\tbool successful;\r\n\t\tbool closed;\r\n\t}\r\n\r\n\tOrder[] public orders;\r\n\r\n\tmapping (uint256 => address) private _orderToOwner;\r\n\tmapping (address => EnumerableSet.UintSet) private _ownerOrders;\r\n\r\n\tmodifier onlyOwnerOfOrder(uint _orderId) {\r\n\t\trequire(msg.sender == address(0) && msg.sender == _orderToOwner[_orderId]);\r\n\t\t_;\r\n\t}\r\n\tmodifier onlyOrderIsOpen(uint _orderId) {\r\n\t\trequire(orders[_orderId].createdAt > 0 && orders[_orderId].closed == false);\r\n\t\t_;\r\n\t}\r\n\r\n\tfunction createOrder(\r\n\t\tuint256 _tokenId, \r\n\t\tuint256 _price, \r\n\t\tstring memory _currency\r\n\t) \r\n\t\texternal \r\n\t\tonlyOwnerOf(_tokenId) \r\n\t{\r\n\t\taddress _seller = msg.sender;\r\n\t\tOrder memory _order = Order(\r\n\t\t\t_seller,\r\n\t\t\t_price,\r\n\t\t\tblock.timestamp,\r\n\t\t\t_currency,\r\n\t\t\t_tokenId,\r\n\t\t\tfalse,\r\n\t\t\tfalse\r\n\t\t);\r\n\r\n\t\torders.push(_order);\r\n\t\tuint _id = orders.length - 1;\r\n\r\n\t\t_orderToOwner[_id] = _seller;\r\n\t\t_ownerOrders[_seller].add(_id);\r\n\r\n\t\t_transfer(_seller, address(this), _tokenId);\r\n\t\t\r\n\t\tOrderCreated(\r\n\t\t\t_seller,\r\n\t\t\t_tokenId,\r\n\t\t\t_id\r\n\t\t);\r\n  \t}\r\n\r\n\tfunction closeOrder(\r\n\t\tuint256 _orderId\r\n\t)\r\n\t\texternal\r\n\t\tonlyOwnerOfOrder(_orderId)\r\n\t\tonlyOrderIsOpen(_orderId)\r\n\t{\r\n\t\tOrder storage _order = orders[_orderId];\r\n\t\t_order.closed = true;\r\n\r\n\t\t_transfer(address(this), msg.sender, _order.tokenId);\r\n\r\n\t\tOrderClosed(\r\n\t\t\tmsg.sender,\r\n\t\t\t_order.tokenId,\r\n\t\t\t_orderId\r\n\t\t);\r\n\t}\r\n\r\n\tfunction byeOrder(\r\n\t\tuint256 _orderId\r\n\t)\r\n\t\texternal\r\n\t\tpayable\r\n\t\tonlyOrderIsOpen(_orderId)\r\n\t{\r\n\t\t_byeOrder(_orderId, msg.value);\r\n\t\t_transfer(address(this), msg.sender, orders[_orderId].tokenId);\r\n\t}\r\n\r\n\tfunction _byeOrder(\r\n\t\tuint256 _orderId,\r\n\t\tuint256 _amount\r\n\t)\r\n\t\tinternal\r\n\t{\r\n\t\tOrder storage _order = orders[_orderId];\r\n\t\trequire(_amount >= _order.price);\r\n\r\n\t\taddress _seller = _order.seller;\r\n\t\tuint256 _price = _order.price;\r\n\t\tuint256 _tokenId = _order.tokenId;\r\n\r\n\t\t_removeOrder(_orderId);\r\n\r\n\t\t// _order.closed = true;\r\n\t\t// _order.successful = true;\r\n\r\n\r\n\t\tif (_amount > 0) {\r\n\t\t\t// We'll be able to add fee\r\n\t\t\ttransferMoney(_seller, _price);\r\n\r\n\t\t\tuint256 _difference = _amount - _price;\r\n\t\t\tif (_difference > 0) {\r\n\t\t\t\ttransferMoney(msg.sender, _difference);\r\n\t\t\t}\r\n\t\t}\r\n\r\n\t\tOrderSuccessful(\r\n\t\t\t_seller,\r\n\t\t\tmsg.sender,\r\n\t\t\t_tokenId,\r\n\t\t\t_orderId,\r\n\t\t\t0\r\n\t\t);\r\n\t}\r\n\r\n\tfunction _removeOrder(uint256 _orderId) internal {\r\n\t\tdelete orders[_orderId];\r\n\t\taddress owner = _orderToOwner[_orderId];\r\n\t\t_ownerOrders[owner].remove(_orderId);\r\n\t\tdelete _orderToOwner[_orderId];\r\n\t}\r\n\r\n\tfunction transferMoney(address _to, uint256 _value) public {\r\n\t\t// address(uint160(_to)).transfer(_value);\r\n\t\taddress payable wallet = payable(_to);\r\n\t\twallet.transfer(_value);\r\n\t\treturn;\r\n\t}\r\n\r\n\t// Temp\r\n\tfunction kill() public onlyOwner {\r\n\t\taddress payable wallet = payable(owner());\r\n\t\tselfdestruct(wallet);\r\n\t}\r\n}",
  "sourcePath": "D:/workspace/node_project/moment/contracts/MomentMarket.sol",
  "compiler": {
    "name": "solc",
    "version": "0.8.1+commit.df193b15.Emscripten.clang"
  },
  "schemaVersion": "3.3.3",
  "updatedAt": "2021-04-06T15:45:45.153Z",
  "networkType": "ethereum",
  "devdoc": {
    "kind": "dev",
    "methods": {
      "approve(address,uint256)": {
        "details": "See {IERC721-approve}."
      },
      "balanceOf(address)": {
        "details": "See {IERC721-balanceOf}."
      },
      "getApproved(uint256)": {
        "details": "See {IERC721-getApproved}."
      },
      "isApprovedForAll(address,address)": {
        "details": "See {IERC721-isApprovedForAll}."
      },
      "name()": {
        "details": "See {IERC721Metadata-name}."
      },
      "owner()": {
        "details": "Returns the address of the current owner."
      },
      "ownerOf(uint256)": {
        "details": "See {IERC721-ownerOf}."
      },
      "renounceOwnership()": {
        "details": "Leaves the contract without owner. It will not be possible to call `onlyOwner` functions anymore. Can only be called by the current owner. NOTE: Renouncing ownership will leave the contract without an owner, thereby removing any functionality that is only available to the owner."
      },
      "safeTransferFrom(address,address,uint256)": {
        "details": "See {IERC721-safeTransferFrom}."
      },
      "safeTransferFrom(address,address,uint256,bytes)": {
        "details": "See {IERC721-safeTransferFrom}."
      },
      "setApprovalForAll(address,bool)": {
        "details": "See {IERC721-setApprovalForAll}."
      },
      "supportsInterface(bytes4)": {
        "details": "See {IERC165-supportsInterface}."
      },
      "symbol()": {
        "details": "See {IERC721Metadata-symbol}."
      },
      "tokenURI(uint256)": {
        "details": "See {IERC721Metadata-tokenURI}."
      },
      "transferFrom(address,address,uint256)": {
        "details": "See {IERC721-transferFrom}."
      },
      "transferOwnership(address)": {
        "details": "Transfers ownership of the contract to a new account (`newOwner`). Can only be called by the current owner."
      }
    },
    "version": 1
  },
  "userdoc": {
    "kind": "user",
    "methods": {},
    "version": 1
  }
}