{
  "contractName": "MomentFactory",
  "abi": [
    {
      "inputs": [],
      "stateMutability": "nonpayable",
      "type": "constructor"
    },
    {
      "anonymous": false,
      "inputs": [
        {
          "indexed": true,
          "internalType": "address",
          "name": "owner",
          "type": "address"
        },
        {
          "indexed": true,
          "internalType": "address",
          "name": "approved",
          "type": "address"
        },
        {
          "indexed": true,
          "internalType": "uint256",
          "name": "tokenId",
          "type": "uint256"
        }
      ],
      "name": "Approval",
      "type": "event"
    },
    {
      "anonymous": false,
      "inputs": [
        {
          "indexed": true,
          "internalType": "address",
          "name": "owner",
          "type": "address"
        },
        {
          "indexed": true,
          "internalType": "address",
          "name": "operator",
          "type": "address"
        },
        {
          "indexed": false,
          "internalType": "bool",
          "name": "approved",
          "type": "bool"
        }
      ],
      "name": "ApprovalForAll",
      "type": "event"
    },
    {
      "anonymous": false,
      "inputs": [
        {
          "indexed": true,
          "internalType": "address",
          "name": "from",
          "type": "address"
        },
        {
          "indexed": true,
          "internalType": "address",
          "name": "to",
          "type": "address"
        },
        {
          "indexed": true,
          "internalType": "uint256",
          "name": "tokenId",
          "type": "uint256"
        }
      ],
      "name": "Transfer",
      "type": "event"
    },
    {
      "inputs": [
        {
          "internalType": "address",
          "name": "to",
          "type": "address"
        },
        {
          "internalType": "uint256",
          "name": "tokenId",
          "type": "uint256"
        }
      ],
      "name": "approve",
      "outputs": [],
      "stateMutability": "nonpayable",
      "type": "function"
    },
    {
      "inputs": [
        {
          "internalType": "address",
          "name": "owner",
          "type": "address"
        }
      ],
      "name": "balanceOf",
      "outputs": [
        {
          "internalType": "uint256",
          "name": "",
          "type": "uint256"
        }
      ],
      "stateMutability": "view",
      "type": "function"
    },
    {
      "inputs": [
        {
          "internalType": "uint256",
          "name": "tokenId",
          "type": "uint256"
        }
      ],
      "name": "getApproved",
      "outputs": [
        {
          "internalType": "address",
          "name": "",
          "type": "address"
        }
      ],
      "stateMutability": "view",
      "type": "function"
    },
    {
      "inputs": [
        {
          "internalType": "address",
          "name": "owner",
          "type": "address"
        },
        {
          "internalType": "address",
          "name": "operator",
          "type": "address"
        }
      ],
      "name": "isApprovedForAll",
      "outputs": [
        {
          "internalType": "bool",
          "name": "",
          "type": "bool"
        }
      ],
      "stateMutability": "view",
      "type": "function"
    },
    {
      "inputs": [
        {
          "internalType": "uint256",
          "name": "",
          "type": "uint256"
        }
      ],
      "name": "moments",
      "outputs": [
        {
          "internalType": "string",
          "name": "url",
          "type": "string"
        },
        {
          "internalType": "string",
          "name": "meta_url",
          "type": "string"
        },
        {
          "internalType": "uint256",
          "name": "created_at",
          "type": "uint256"
        }
      ],
      "stateMutability": "view",
      "type": "function"
    },
    {
      "inputs": [],
      "name": "name",
      "outputs": [
        {
          "internalType": "string",
          "name": "",
          "type": "string"
        }
      ],
      "stateMutability": "view",
      "type": "function"
    },
    {
      "inputs": [
        {
          "internalType": "uint256",
          "name": "tokenId",
          "type": "uint256"
        }
      ],
      "name": "ownerOf",
      "outputs": [
        {
          "internalType": "address",
          "name": "",
          "type": "address"
        }
      ],
      "stateMutability": "view",
      "type": "function"
    },
    {
      "inputs": [
        {
          "internalType": "address",
          "name": "from",
          "type": "address"
        },
        {
          "internalType": "address",
          "name": "to",
          "type": "address"
        },
        {
          "internalType": "uint256",
          "name": "tokenId",
          "type": "uint256"
        }
      ],
      "name": "safeTransferFrom",
      "outputs": [],
      "stateMutability": "nonpayable",
      "type": "function"
    },
    {
      "inputs": [
        {
          "internalType": "address",
          "name": "from",
          "type": "address"
        },
        {
          "internalType": "address",
          "name": "to",
          "type": "address"
        },
        {
          "internalType": "uint256",
          "name": "tokenId",
          "type": "uint256"
        },
        {
          "internalType": "bytes",
          "name": "_data",
          "type": "bytes"
        }
      ],
      "name": "safeTransferFrom",
      "outputs": [],
      "stateMutability": "nonpayable",
      "type": "function"
    },
    {
      "inputs": [
        {
          "internalType": "address",
          "name": "operator",
          "type": "address"
        },
        {
          "internalType": "bool",
          "name": "approved",
          "type": "bool"
        }
      ],
      "name": "setApprovalForAll",
      "outputs": [],
      "stateMutability": "nonpayable",
      "type": "function"
    },
    {
      "inputs": [
        {
          "internalType": "bytes4",
          "name": "interfaceId",
          "type": "bytes4"
        }
      ],
      "name": "supportsInterface",
      "outputs": [
        {
          "internalType": "bool",
          "name": "",
          "type": "bool"
        }
      ],
      "stateMutability": "view",
      "type": "function"
    },
    {
      "inputs": [],
      "name": "symbol",
      "outputs": [
        {
          "internalType": "string",
          "name": "",
          "type": "string"
        }
      ],
      "stateMutability": "view",
      "type": "function"
    },
    {
      "inputs": [
        {
          "internalType": "uint256",
          "name": "tokenId",
          "type": "uint256"
        }
      ],
      "name": "tokenURI",
      "outputs": [
        {
          "internalType": "string",
          "name": "",
          "type": "string"
        }
      ],
      "stateMutability": "view",
      "type": "function"
    },
    {
      "inputs": [
        {
          "internalType": "address",
          "name": "from",
          "type": "address"
        },
        {
          "internalType": "address",
          "name": "to",
          "type": "address"
        },
        {
          "internalType": "uint256",
          "name": "tokenId",
          "type": "uint256"
        }
      ],
      "name": "transferFrom",
      "outputs": [],
      "stateMutability": "nonpayable",
      "type": "function"
    },
    {
      "inputs": [
        {
          "internalType": "string",
          "name": "_url",
          "type": "string"
        },
        {
          "internalType": "string",
          "name": "_meta_url",
          "type": "string"
        }
      ],
      "name": "createMoment",
      "outputs": [],
      "stateMutability": "nonpayable",
      "type": "function"
    }
  ],
  "bytecode": "0x60806040523480156200001157600080fd5b506040518060400160405280600681526020017f4d6f6d656e7400000000000000000000000000000000000000000000000000008152506040518060400160405280600381526020017f4d4d540000000000000000000000000000000000000000000000000000000000815250816000908051906020019062000096929190620000b8565b508060019080519060200190620000af929190620000b8565b505050620001cd565b828054620000c69062000168565b90600052602060002090601f016020900481019282620000ea576000855562000136565b82601f106200010557805160ff191683800117855562000136565b8280016001018555821562000136579182015b828111156200013557825182559160200191906001019062000118565b5b50905062000145919062000149565b5090565b5b80821115620001645760008160009055506001016200014a565b5090565b600060028204905060018216806200018157607f821691505b602082108114156200019857620001976200019e565b5b50919050565b7f4e487b7100000000000000000000000000000000000000000000000000000000600052602260045260246000fd5b612aa780620001dd6000396000f3fe608060405234801561001057600080fd5b50600436106100f55760003560e01c80636352211e11610097578063a22cb46511610066578063a22cb46514610298578063b88d4fde146102b4578063c87b56dd146102d0578063e985e9c514610300576100f5565b80636352211e146101e857806370a082311461021857806395d89b41146102485780639c4ff9c714610266576100f5565b8063095ea7b3116100d3578063095ea7b31461017857806323b872dd1461019457806342842e0e146101b057806353c3a0ba146101cc576100f5565b806301ffc9a7146100fa57806306fdde031461012a578063081812fc14610148575b600080fd5b610114600480360381019061010f9190611bc7565b610330565b6040516101219190611ff3565b60405180910390f35b610132610412565b60405161013f919061200e565b60405180910390f35b610162600480360381019061015d9190611c85565b6104a4565b60405161016f9190611f8c565b60405180910390f35b610192600480360381019061018d9190611b8b565b610529565b005b6101ae60048036038101906101a99190611a85565b610641565b005b6101ca60048036038101906101c59190611a85565b6106a1565b005b6101e660048036038101906101e19190611c19565b6106c1565b005b61020260048036038101906101fd9190611c85565b610772565b60405161020f9190611f8c565b60405180910390f35b610232600480360381019061022d9190611a20565b610824565b60405161023f9190612235565b60405180910390f35b6102506108dc565b60405161025d919061200e565b60405180910390f35b610280600480360381019061027b9190611c85565b61096e565b60405161028f93929190612030565b60405180910390f35b6102b260048036038101906102ad9190611b4f565b610ab8565b005b6102ce60048036038101906102c99190611ad4565b610c39565b005b6102ea60048036038101906102e59190611c85565b610c9b565b6040516102f7919061200e565b60405180910390f35b61031a60048036038101906103159190611a49565b610d42565b6040516103279190611ff3565b60405180910390f35b60007f80ac58cd000000000000000000000000000000000000000000000000000000007bffffffffffffffffffffffffffffffffffffffffffffffffffffffff1916827bffffffffffffffffffffffffffffffffffffffffffffffffffffffff191614806103fb57507f5b5e139f000000000000000000000000000000000000000000000000000000007bffffffffffffffffffffffffffffffffffffffffffffffffffffffff1916827bffffffffffffffffffffffffffffffffffffffffffffffffffffffff1916145b8061040b575061040a82610dd6565b5b9050919050565b6060600080546104219061248b565b80601f016020809104026020016040519081016040528092919081815260200182805461044d9061248b565b801561049a5780601f1061046f5761010080835404028352916020019161049a565b820191906000526020600020905b81548152906001019060200180831161047d57829003601f168201915b5050505050905090565b60006104af82610e40565b6104ee576040517f08c379a00000000000000000000000000000000000000000000000000000000081526004016104e590612195565b60405180910390fd5b6004600083815260200190815260200160002060009054906101000a900473ffffffffffffffffffffffffffffffffffffffff169050919050565b600061053482610772565b90508073ffffffffffffffffffffffffffffffffffffffff168373ffffffffffffffffffffffffffffffffffffffff1614156105a5576040517f08c379a000000000000000000000000000000000000000000000000000000000815260040161059c906121f5565b60405180910390fd5b8073ffffffffffffffffffffffffffffffffffffffff166105c4610eac565b73ffffffffffffffffffffffffffffffffffffffff1614806105f357506105f2816105ed610eac565b610d42565b5b610632576040517f08c379a000000000000000000000000000000000000000000000000000000000815260040161062990612115565b60405180910390fd5b61063c8383610eb4565b505050565b61065261064c610eac565b82610f6d565b610691576040517f08c379a000000000000000000000000000000000000000000000000000000000815260040161068890612215565b60405180910390fd5b61069c83838361104b565b505050565b6106bc83838360405180602001604052806000815250610c39565b505050565b600660405180606001604052808481526020018381526020014281525090806001815401808255809150506001900390600052602060002090600302016000909190919091506000820151816000019080519060200190610723929190611844565b506020820151816001019080519060200190610740929190611844565b506040820151816002015550506000600160068054905061076191906123a1565b905061076d33826112a7565b505050565b6000806002600084815260200190815260200160002060009054906101000a900473ffffffffffffffffffffffffffffffffffffffff169050600073ffffffffffffffffffffffffffffffffffffffff168173ffffffffffffffffffffffffffffffffffffffff16141561081b576040517f08c379a000000000000000000000000000000000000000000000000000000000815260040161081290612155565b60405180910390fd5b80915050919050565b60008073ffffffffffffffffffffffffffffffffffffffff168273ffffffffffffffffffffffffffffffffffffffff161415610895576040517f08c379a000000000000000000000000000000000000000000000000000000000815260040161088c90612135565b60405180910390fd5b600360008373ffffffffffffffffffffffffffffffffffffffff1673ffffffffffffffffffffffffffffffffffffffff168152602001908152602001600020549050919050565b6060600180546108eb9061248b565b80601f01602080910402602001604051908101604052809291908181526020018280546109179061248b565b80156109645780601f1061093957610100808354040283529160200191610964565b820191906000526020600020905b81548152906001019060200180831161094757829003601f168201915b5050505050905090565b6006818154811061097e57600080fd5b90600052602060002090600302016000915090508060000180546109a19061248b565b80601f01602080910402602001604051908101604052809291908181526020018280546109cd9061248b565b8015610a1a5780601f106109ef57610100808354040283529160200191610a1a565b820191906000526020600020905b8154815290600101906020018083116109fd57829003601f168201915b505050505090806001018054610a2f9061248b565b80601f0160208091040260200160405190810160405280929190818152602001828054610a5b9061248b565b8015610aa85780601f10610a7d57610100808354040283529160200191610aa8565b820191906000526020600020905b815481529060010190602001808311610a8b57829003601f168201915b5050505050908060020154905083565b610ac0610eac565b73ffffffffffffffffffffffffffffffffffffffff168273ffffffffffffffffffffffffffffffffffffffff161415610b2e576040517f08c379a0000000000000000000000000000000000000000000000000000000008152600401610b25906120d5565b60405180910390fd5b8060056000610b3b610eac565b73ffffffffffffffffffffffffffffffffffffffff1673ffffffffffffffffffffffffffffffffffffffff16815260200190815260200160002060008473ffffffffffffffffffffffffffffffffffffffff1673ffffffffffffffffffffffffffffffffffffffff16815260200190815260200160002060006101000a81548160ff0219169083151502179055508173ffffffffffffffffffffffffffffffffffffffff16610be8610eac565b73ffffffffffffffffffffffffffffffffffffffff167f17307eab39ab6107e8899845ad3d59bd9653f200f220920489ca2b5937696c3183604051610c2d9190611ff3565b60405180910390a35050565b610c4a610c44610eac565b83610f6d565b610c89576040517f08c379a0000000000000000000000000000000000000000000000000000000008152600401610c8090612215565b60405180910390fd5b610c9584848484611475565b50505050565b6060610ca682610e40565b610ce5576040517f08c379a0000000000000000000000000000000000000000000000000000000008152600401610cdc906121d5565b60405180910390fd5b6000610cef6114d1565b90506000815111610d0f5760405180602001604052806000815250610d3a565b80610d19846114e8565b604051602001610d2a929190611f68565b6040516020818303038152906040525b915050919050565b6000600560008473ffffffffffffffffffffffffffffffffffffffff1673ffffffffffffffffffffffffffffffffffffffff16815260200190815260200160002060008373ffffffffffffffffffffffffffffffffffffffff1673ffffffffffffffffffffffffffffffffffffffff16815260200190815260200160002060009054906101000a900460ff16905092915050565b60007f01ffc9a7000000000000000000000000000000000000000000000000000000007bffffffffffffffffffffffffffffffffffffffffffffffffffffffff1916827bffffffffffffffffffffffffffffffffffffffffffffffffffffffff1916149050919050565b60008073ffffffffffffffffffffffffffffffffffffffff166002600084815260200190815260200160002060009054906101000a900473ffffffffffffffffffffffffffffffffffffffff1673ffffffffffffffffffffffffffffffffffffffff1614159050919050565b600033905090565b816004600083815260200190815260200160002060006101000a81548173ffffffffffffffffffffffffffffffffffffffff021916908373ffffffffffffffffffffffffffffffffffffffff160217905550808273ffffffffffffffffffffffffffffffffffffffff16610f2783610772565b73ffffffffffffffffffffffffffffffffffffffff167f8c5be1e5ebec7d5bd14f71427d1e84f3dd0314c0f7b2291e5b200ac8c7c3b92560405160405180910390a45050565b6000610f7882610e40565b610fb7576040517f08c379a0000000000000000000000000000000000000000000000000000000008152600401610fae906120f5565b60405180910390fd5b6000610fc283610772565b90508073ffffffffffffffffffffffffffffffffffffffff168473ffffffffffffffffffffffffffffffffffffffff16148061103157508373ffffffffffffffffffffffffffffffffffffffff16611019846104a4565b73ffffffffffffffffffffffffffffffffffffffff16145b8061104257506110418185610d42565b5b91505092915050565b8273ffffffffffffffffffffffffffffffffffffffff1661106b82610772565b73ffffffffffffffffffffffffffffffffffffffff16146110c1576040517f08c379a00000000000000000000000000000000000000000000000000000000081526004016110b8906121b5565b60405180910390fd5b600073ffffffffffffffffffffffffffffffffffffffff168273ffffffffffffffffffffffffffffffffffffffff161415611131576040517f08c379a0000000000000000000000000000000000000000000000000000000008152600401611128906120b5565b60405180910390fd5b61113c838383611695565b611147600082610eb4565b6001600360008573ffffffffffffffffffffffffffffffffffffffff1673ffffffffffffffffffffffffffffffffffffffff168152602001908152602001600020600082825461119791906123a1565b925050819055506001600360008473ffffffffffffffffffffffffffffffffffffffff1673ffffffffffffffffffffffffffffffffffffffff16815260200190815260200160002060008282546111ee919061231a565b92505081905550816002600083815260200190815260200160002060006101000a81548173ffffffffffffffffffffffffffffffffffffffff021916908373ffffffffffffffffffffffffffffffffffffffff160217905550808273ffffffffffffffffffffffffffffffffffffffff168473ffffffffffffffffffffffffffffffffffffffff167fddf252ad1be2c89b69c2b068fc378daa952ba7f163c4a11628f55a4df523b3ef60405160405180910390a4505050565b600073ffffffffffffffffffffffffffffffffffffffff168273ffffffffffffffffffffffffffffffffffffffff161415611317576040517f08c379a000000000000000000000000000000000000000000000000000000000815260040161130e90612175565b60405180910390fd5b61132081610e40565b15611360576040517f08c379a000000000000000000000000000000000000000000000000000000000815260040161135790612095565b60405180910390fd5b61136c60008383611695565b6001600360008473ffffffffffffffffffffffffffffffffffffffff1673ffffffffffffffffffffffffffffffffffffffff16815260200190815260200160002060008282546113bc919061231a565b92505081905550816002600083815260200190815260200160002060006101000a81548173ffffffffffffffffffffffffffffffffffffffff021916908373ffffffffffffffffffffffffffffffffffffffff160217905550808273ffffffffffffffffffffffffffffffffffffffff16600073ffffffffffffffffffffffffffffffffffffffff167fddf252ad1be2c89b69c2b068fc378daa952ba7f163c4a11628f55a4df523b3ef60405160405180910390a45050565b61148084848461104b565b61148c8484848461169a565b6114cb576040517f08c379a00000000000000000000000000000000000000000000000000000000081526004016114c290612075565b60405180910390fd5b50505050565b606060405180602001604052806000815250905090565b60606000821415611530576040518060400160405280600181526020017f30000000000000000000000000000000000000000000000000000000000000008152509050611690565b600082905060005b6000821461156257808061154b906124ee565b915050600a8261155b9190612370565b9150611538565b60008167ffffffffffffffff8111156115a4577f4e487b7100000000000000000000000000000000000000000000000000000000600052604160045260246000fd5b6040519080825280601f01601f1916602001820160405280156115d65781602001600182028036833780820191505090505b5090505b60008514611689576001826115ef91906123a1565b9150600a856115fe9190612537565b603061160a919061231a565b60f81b818381518110611646577f4e487b7100000000000000000000000000000000000000000000000000000000600052603260045260246000fd5b60200101907effffffffffffffffffffffffffffffffffffffffffffffffffffffffffffff1916908160001a905350600a856116829190612370565b94506115da565b8093505050505b919050565b505050565b60006116bb8473ffffffffffffffffffffffffffffffffffffffff16611831565b15611824578373ffffffffffffffffffffffffffffffffffffffff1663150b7a026116e4610eac565b8786866040518563ffffffff1660e01b81526004016117069493929190611fa7565b602060405180830381600087803b15801561172057600080fd5b505af192505050801561175157506040513d601f19601f8201168201806040525081019061174e9190611bf0565b60015b6117d4573d8060008114611781576040519150601f19603f3d011682016040523d82523d6000602084013e611786565b606091505b506000815114156117cc576040517f08c379a00000000000000000000000000000000000000000000000000000000081526004016117c390612075565b60405180910390fd5b805181602001fd5b63150b7a0260e01b7bffffffffffffffffffffffffffffffffffffffffffffffffffffffff1916817bffffffffffffffffffffffffffffffffffffffffffffffffffffffff191614915050611829565b600190505b949350505050565b600080823b905060008111915050919050565b8280546118509061248b565b90600052602060002090601f01602090048101928261187257600085556118b9565b82601f1061188b57805160ff19168380011785556118b9565b828001600101855582156118b9579182015b828111156118b857825182559160200191906001019061189d565b5b5090506118c691906118ca565b5090565b5b808211156118e35760008160009055506001016118cb565b5090565b60006118fa6118f584612275565b612250565b90508281526020810184848401111561191257600080fd5b61191d848285612449565b509392505050565b6000611938611933846122a6565b612250565b90508281526020810184848401111561195057600080fd5b61195b848285612449565b509392505050565b60008135905061197281612a15565b92915050565b60008135905061198781612a2c565b92915050565b60008135905061199c81612a43565b92915050565b6000815190506119b181612a43565b92915050565b600082601f8301126119c857600080fd5b81356119d88482602086016118e7565b91505092915050565b600082601f8301126119f257600080fd5b8135611a02848260208601611925565b91505092915050565b600081359050611a1a81612a5a565b92915050565b600060208284031215611a3257600080fd5b6000611a4084828501611963565b91505092915050565b60008060408385031215611a5c57600080fd5b6000611a6a85828601611963565b9250506020611a7b85828601611963565b9150509250929050565b600080600060608486031215611a9a57600080fd5b6000611aa886828701611963565b9350506020611ab986828701611963565b9250506040611aca86828701611a0b565b9150509250925092565b60008060008060808587031215611aea57600080fd5b6000611af887828801611963565b9450506020611b0987828801611963565b9350506040611b1a87828801611a0b565b925050606085013567ffffffffffffffff811115611b3757600080fd5b611b43878288016119b7565b91505092959194509250565b60008060408385031215611b6257600080fd5b6000611b7085828601611963565b9250506020611b8185828601611978565b9150509250929050565b60008060408385031215611b9e57600080fd5b6000611bac85828601611963565b9250506020611bbd85828601611a0b565b9150509250929050565b600060208284031215611bd957600080fd5b6000611be78482850161198d565b91505092915050565b600060208284031215611c0257600080fd5b6000611c10848285016119a2565b91505092915050565b60008060408385031215611c2c57600080fd5b600083013567ffffffffffffffff811115611c4657600080fd5b611c52858286016119e1565b925050602083013567ffffffffffffffff811115611c6f57600080fd5b611c7b858286016119e1565b9150509250929050565b600060208284031215611c9757600080fd5b6000611ca584828501611a0b565b91505092915050565b611cb7816123d5565b82525050565b611cc6816123e7565b82525050565b6000611cd7826122d7565b611ce181856122ed565b9350611cf1818560208601612458565b611cfa81612624565b840191505092915050565b6000611d10826122e2565b611d1a81856122fe565b9350611d2a818560208601612458565b611d3381612624565b840191505092915050565b6000611d49826122e2565b611d53818561230f565b9350611d63818560208601612458565b80840191505092915050565b6000611d7c6032836122fe565b9150611d8782612635565b604082019050919050565b6000611d9f601c836122fe565b9150611daa82612684565b602082019050919050565b6000611dc26024836122fe565b9150611dcd826126ad565b604082019050919050565b6000611de56019836122fe565b9150611df0826126fc565b602082019050919050565b6000611e08602c836122fe565b9150611e1382612725565b604082019050919050565b6000611e2b6038836122fe565b9150611e3682612774565b604082019050919050565b6000611e4e602a836122fe565b9150611e59826127c3565b604082019050919050565b6000611e716029836122fe565b9150611e7c82612812565b604082019050919050565b6000611e946020836122fe565b9150611e9f82612861565b602082019050919050565b6000611eb7602c836122fe565b9150611ec28261288a565b604082019050919050565b6000611eda6029836122fe565b9150611ee5826128d9565b604082019050919050565b6000611efd602f836122fe565b9150611f0882612928565b604082019050919050565b6000611f206021836122fe565b9150611f2b82612977565b604082019050919050565b6000611f436031836122fe565b9150611f4e826129c6565b604082019050919050565b611f628161243f565b82525050565b6000611f748285611d3e565b9150611f808284611d3e565b91508190509392505050565b6000602082019050611fa16000830184611cae565b92915050565b6000608082019050611fbc6000830187611cae565b611fc96020830186611cae565b611fd66040830185611f59565b8181036060830152611fe88184611ccc565b905095945050505050565b60006020820190506120086000830184611cbd565b92915050565b600060208201905081810360008301526120288184611d05565b905092915050565b6000606082019050818103600083015261204a8186611d05565b9050818103602083015261205e8185611d05565b905061206d6040830184611f59565b949350505050565b6000602082019050818103600083015261208e81611d6f565b9050919050565b600060208201905081810360008301526120ae81611d92565b9050919050565b600060208201905081810360008301526120ce81611db5565b9050919050565b600060208201905081810360008301526120ee81611dd8565b9050919050565b6000602082019050818103600083015261210e81611dfb565b9050919050565b6000602082019050818103600083015261212e81611e1e565b9050919050565b6000602082019050818103600083015261214e81611e41565b9050919050565b6000602082019050818103600083015261216e81611e64565b9050919050565b6000602082019050818103600083015261218e81611e87565b9050919050565b600060208201905081810360008301526121ae81611eaa565b9050919050565b600060208201905081810360008301526121ce81611ecd565b9050919050565b600060208201905081810360008301526121ee81611ef0565b9050919050565b6000602082019050818103600083015261220e81611f13565b9050919050565b6000602082019050818103600083015261222e81611f36565b9050919050565b600060208201905061224a6000830184611f59565b92915050565b600061225a61226b565b905061226682826124bd565b919050565b6000604051905090565b600067ffffffffffffffff8211156122905761228f6125f5565b5b61229982612624565b9050602081019050919050565b600067ffffffffffffffff8211156122c1576122c06125f5565b5b6122ca82612624565b9050602081019050919050565b600081519050919050565b600081519050919050565b600082825260208201905092915050565b600082825260208201905092915050565b600081905092915050565b60006123258261243f565b91506123308361243f565b9250827fffffffffffffffffffffffffffffffffffffffffffffffffffffffffffffffff0382111561236557612364612568565b5b828201905092915050565b600061237b8261243f565b91506123868361243f565b92508261239657612395612597565b5b828204905092915050565b60006123ac8261243f565b91506123b78361243f565b9250828210156123ca576123c9612568565b5b828203905092915050565b60006123e08261241f565b9050919050565b60008115159050919050565b60007fffffffff0000000000000000000000000000000000000000000000000000000082169050919050565b600073ffffffffffffffffffffffffffffffffffffffff82169050919050565b6000819050919050565b82818337600083830152505050565b60005b8381101561247657808201518184015260208101905061245b565b83811115612485576000848401525b50505050565b600060028204905060018216806124a357607f821691505b602082108114156124b7576124b66125c6565b5b50919050565b6124c682612624565b810181811067ffffffffffffffff821117156124e5576124e46125f5565b5b80604052505050565b60006124f98261243f565b91507fffffffffffffffffffffffffffffffffffffffffffffffffffffffffffffffff82141561252c5761252b612568565b5b600182019050919050565b60006125428261243f565b915061254d8361243f565b92508261255d5761255c612597565b5b828206905092915050565b7f4e487b7100000000000000000000000000000000000000000000000000000000600052601160045260246000fd5b7f4e487b7100000000000000000000000000000000000000000000000000000000600052601260045260246000fd5b7f4e487b7100000000000000000000000000000000000000000000000000000000600052602260045260246000fd5b7f4e487b7100000000000000000000000000000000000000000000000000000000600052604160045260246000fd5b6000601f19601f8301169050919050565b7f4552433732313a207472616e7366657220746f206e6f6e20455243373231526560008201527f63656976657220696d706c656d656e7465720000000000000000000000000000602082015250565b7f4552433732313a20746f6b656e20616c7265616479206d696e74656400000000600082015250565b7f4552433732313a207472616e7366657220746f20746865207a65726f2061646460008201527f7265737300000000000000000000000000000000000000000000000000000000602082015250565b7f4552433732313a20617070726f766520746f2063616c6c657200000000000000600082015250565b7f4552433732313a206f70657261746f7220717565727920666f72206e6f6e657860008201527f697374656e7420746f6b656e0000000000000000000000000000000000000000602082015250565b7f4552433732313a20617070726f76652063616c6c6572206973206e6f74206f7760008201527f6e6572206e6f7220617070726f76656420666f7220616c6c0000000000000000602082015250565b7f4552433732313a2062616c616e636520717565727920666f7220746865207a6560008201527f726f206164647265737300000000000000000000000000000000000000000000602082015250565b7f4552433732313a206f776e657220717565727920666f72206e6f6e657869737460008201527f656e7420746f6b656e0000000000000000000000000000000000000000000000602082015250565b7f4552433732313a206d696e7420746f20746865207a65726f2061646472657373600082015250565b7f4552433732313a20617070726f76656420717565727920666f72206e6f6e657860008201527f697374656e7420746f6b656e0000000000000000000000000000000000000000602082015250565b7f4552433732313a207472616e73666572206f6620746f6b656e2074686174206960008201527f73206e6f74206f776e0000000000000000000000000000000000000000000000602082015250565b7f4552433732314d657461646174613a2055524920717565727920666f72206e6f60008201527f6e6578697374656e7420746f6b656e0000000000000000000000000000000000602082015250565b7f4552433732313a20617070726f76616c20746f2063757272656e74206f776e6560008201527f7200000000000000000000000000000000000000000000000000000000000000602082015250565b7f4552433732313a207472616e736665722063616c6c6572206973206e6f74206f60008201527f776e6572206e6f7220617070726f766564000000000000000000000000000000602082015250565b612a1e816123d5565b8114612a2957600080fd5b50565b612a35816123e7565b8114612a4057600080fd5b50565b612a4c816123f3565b8114612a5757600080fd5b50565b612a638161243f565b8114612a6e57600080fd5b5056fea2646970667358221220c0cf69dbb83d2c68a40a7a511770c102586bbd1a374d83c7b3ff9a96efd8980c64736f6c63430008010033",
  "immutableReferences": {},
  "source": "// SPDX-License-Identifier: MIT\r\n\r\npragma solidity >=0.6.0 <0.8.2;\r\n\r\nimport \"@openzeppelin/contracts/token/ERC721/ERC721.sol\";\r\n\r\ncontract MomentFactory is ERC721 {\r\n\tconstructor() ERC721(\"Moment\", \"MMT\") {}\r\n\t\r\n    struct Moment {\r\n\t\tstring url;\r\n\t\tstring meta_url;\r\n\t\tuint created_at;\r\n\t}\r\n\r\n\tMoment[] public moments;\r\n\r\n\tmodifier onlyOwnerOf(uint _tokenId) {\r\n\t\trequire(msg.sender == ownerOf(_tokenId));\r\n\t\t_;\r\n\t}\r\n\r\n\tfunction createMoment (string memory _url, string memory _meta_url) public {\r\n\t\tmoments.push(Moment(_url, _meta_url, block.timestamp));\r\n\t\tuint id = moments.length - 1;\r\n\t\t_mint(msg.sender, id);\r\n\t}\r\n}",
  "sourcePath": "D:/workspace/node_project/moment/contracts/MomentFactory.sol",
  "compiler": {
    "name": "solc",
    "version": "0.8.1+commit.df193b15.Emscripten.clang"
  },
  "schemaVersion": "3.3.3",
  "updatedAt": "2021-04-07T11:06:53.948Z",
  "devdoc": {
    "kind": "dev",
    "methods": {
      "approve(address,uint256)": {
        "details": "See {IERC721-approve}."
      },
      "balanceOf(address)": {
        "details": "See {IERC721-balanceOf}."
      },
      "getApproved(uint256)": {
        "details": "See {IERC721-getApproved}."
      },
      "isApprovedForAll(address,address)": {
        "details": "See {IERC721-isApprovedForAll}."
      },
      "name()": {
        "details": "See {IERC721Metadata-name}."
      },
      "ownerOf(uint256)": {
        "details": "See {IERC721-ownerOf}."
      },
      "safeTransferFrom(address,address,uint256)": {
        "details": "See {IERC721-safeTransferFrom}."
      },
      "safeTransferFrom(address,address,uint256,bytes)": {
        "details": "See {IERC721-safeTransferFrom}."
      },
      "setApprovalForAll(address,bool)": {
        "details": "See {IERC721-setApprovalForAll}."
      },
      "supportsInterface(bytes4)": {
        "details": "See {IERC165-supportsInterface}."
      },
      "symbol()": {
        "details": "See {IERC721Metadata-symbol}."
      },
      "tokenURI(uint256)": {
        "details": "See {IERC721Metadata-tokenURI}."
      },
      "transferFrom(address,address,uint256)": {
        "details": "See {IERC721-transferFrom}."
      }
    },
    "version": 1
  },
  "userdoc": {
    "kind": "user",
    "methods": {},
    "version": 1
  }
}