{
  "contractName": "OmentToken",
  "abi": [
    {
      "inputs": [],
      "stateMutability": "nonpayable",
      "type": "constructor"
    },
    {
      "anonymous": false,
      "inputs": [
        {
          "indexed": true,
          "internalType": "address",
          "name": "owner",
          "type": "address"
        },
        {
          "indexed": true,
          "internalType": "address",
          "name": "spender",
          "type": "address"
        },
        {
          "indexed": false,
          "internalType": "uint256",
          "name": "value",
          "type": "uint256"
        }
      ],
      "name": "Approval",
      "type": "event"
    },
    {
      "anonymous": false,
      "inputs": [
        {
          "indexed": true,
          "internalType": "address",
          "name": "previousOwner",
          "type": "address"
        },
        {
          "indexed": true,
          "internalType": "address",
          "name": "newOwner",
          "type": "address"
        }
      ],
      "name": "OwnershipTransferred",
      "type": "event"
    },
    {
      "anonymous": false,
      "inputs": [
        {
          "indexed": true,
          "internalType": "address",
          "name": "from",
          "type": "address"
        },
        {
          "indexed": true,
          "internalType": "address",
          "name": "to",
          "type": "address"
        },
        {
          "indexed": false,
          "internalType": "uint256",
          "name": "value",
          "type": "uint256"
        }
      ],
      "name": "Transfer",
      "type": "event"
    },
    {
      "inputs": [],
      "name": "DOMAIN_SEPARATOR",
      "outputs": [
        {
          "internalType": "bytes32",
          "name": "",
          "type": "bytes32"
        }
      ],
      "stateMutability": "view",
      "type": "function",
      "constant": true
    },
    {
      "inputs": [],
      "name": "PERMIT_TYPEHASH",
      "outputs": [
        {
          "internalType": "bytes32",
          "name": "",
          "type": "bytes32"
        }
      ],
      "stateMutability": "view",
      "type": "function",
      "constant": true
    },
    {
      "inputs": [
        {
          "internalType": "address",
          "name": "owner",
          "type": "address"
        },
        {
          "internalType": "address",
          "name": "spender",
          "type": "address"
        }
      ],
      "name": "allowance",
      "outputs": [
        {
          "internalType": "uint256",
          "name": "",
          "type": "uint256"
        }
      ],
      "stateMutability": "view",
      "type": "function",
      "constant": true
    },
    {
      "inputs": [
        {
          "internalType": "address",
          "name": "spender",
          "type": "address"
        },
        {
          "internalType": "uint256",
          "name": "amount",
          "type": "uint256"
        }
      ],
      "name": "approve",
      "outputs": [
        {
          "internalType": "bool",
          "name": "",
          "type": "bool"
        }
      ],
      "stateMutability": "nonpayable",
      "type": "function"
    },
    {
      "inputs": [
        {
          "internalType": "address",
          "name": "account",
          "type": "address"
        }
      ],
      "name": "balanceOf",
      "outputs": [
        {
          "internalType": "uint256",
          "name": "",
          "type": "uint256"
        }
      ],
      "stateMutability": "view",
      "type": "function",
      "constant": true
    },
    {
      "inputs": [],
      "name": "decimals",
      "outputs": [
        {
          "internalType": "uint8",
          "name": "",
          "type": "uint8"
        }
      ],
      "stateMutability": "view",
      "type": "function",
      "constant": true
    },
    {
      "inputs": [
        {
          "internalType": "address",
          "name": "spender",
          "type": "address"
        },
        {
          "internalType": "uint256",
          "name": "subtractedValue",
          "type": "uint256"
        }
      ],
      "name": "decreaseAllowance",
      "outputs": [
        {
          "internalType": "bool",
          "name": "",
          "type": "bool"
        }
      ],
      "stateMutability": "nonpayable",
      "type": "function"
    },
    {
      "inputs": [
        {
          "internalType": "address",
          "name": "spender",
          "type": "address"
        },
        {
          "internalType": "uint256",
          "name": "addedValue",
          "type": "uint256"
        }
      ],
      "name": "increaseAllowance",
      "outputs": [
        {
          "internalType": "bool",
          "name": "",
          "type": "bool"
        }
      ],
      "stateMutability": "nonpayable",
      "type": "function"
    },
    {
      "inputs": [],
      "name": "name",
      "outputs": [
        {
          "internalType": "string",
          "name": "",
          "type": "string"
        }
      ],
      "stateMutability": "view",
      "type": "function",
      "constant": true
    },
    {
      "inputs": [
        {
          "internalType": "address",
          "name": "",
          "type": "address"
        }
      ],
      "name": "nonces",
      "outputs": [
        {
          "internalType": "uint256",
          "name": "",
          "type": "uint256"
        }
      ],
      "stateMutability": "view",
      "type": "function",
      "constant": true
    },
    {
      "inputs": [],
      "name": "owner",
      "outputs": [
        {
          "internalType": "address",
          "name": "",
          "type": "address"
        }
      ],
      "stateMutability": "view",
      "type": "function",
      "constant": true
    },
    {
      "inputs": [
        {
          "internalType": "address",
          "name": "holder",
          "type": "address"
        },
        {
          "internalType": "address",
          "name": "spender",
          "type": "address"
        },
        {
          "internalType": "uint256",
          "name": "nonce",
          "type": "uint256"
        },
        {
          "internalType": "uint256",
          "name": "expiry",
          "type": "uint256"
        },
        {
          "internalType": "uint256",
          "name": "amount",
          "type": "uint256"
        },
        {
          "internalType": "uint8",
          "name": "v",
          "type": "uint8"
        },
        {
          "internalType": "bytes32",
          "name": "r",
          "type": "bytes32"
        },
        {
          "internalType": "bytes32",
          "name": "s",
          "type": "bytes32"
        }
      ],
      "name": "permit",
      "outputs": [],
      "stateMutability": "nonpayable",
      "type": "function"
    },
    {
      "inputs": [],
      "name": "renounceOwnership",
      "outputs": [],
      "stateMutability": "nonpayable",
      "type": "function"
    },
    {
      "inputs": [],
      "name": "symbol",
      "outputs": [
        {
          "internalType": "string",
          "name": "",
          "type": "string"
        }
      ],
      "stateMutability": "view",
      "type": "function",
      "constant": true
    },
    {
      "inputs": [],
      "name": "totalSupply",
      "outputs": [
        {
          "internalType": "uint256",
          "name": "",
          "type": "uint256"
        }
      ],
      "stateMutability": "view",
      "type": "function",
      "constant": true
    },
    {
      "inputs": [
        {
          "internalType": "address",
          "name": "recipient",
          "type": "address"
        },
        {
          "internalType": "uint256",
          "name": "amount",
          "type": "uint256"
        }
      ],
      "name": "transfer",
      "outputs": [
        {
          "internalType": "bool",
          "name": "",
          "type": "bool"
        }
      ],
      "stateMutability": "nonpayable",
      "type": "function"
    },
    {
      "inputs": [
        {
          "internalType": "address",
          "name": "sender",
          "type": "address"
        },
        {
          "internalType": "address",
          "name": "recipient",
          "type": "address"
        },
        {
          "internalType": "uint256",
          "name": "amount",
          "type": "uint256"
        }
      ],
      "name": "transferFrom",
      "outputs": [
        {
          "internalType": "bool",
          "name": "",
          "type": "bool"
        }
      ],
      "stateMutability": "nonpayable",
      "type": "function"
    },
    {
      "inputs": [
        {
          "internalType": "address",
          "name": "newOwner",
          "type": "address"
        }
      ],
      "name": "transferOwnership",
      "outputs": [],
      "stateMutability": "nonpayable",
      "type": "function"
    },
    {
      "inputs": [],
      "name": "version",
      "outputs": [
        {
          "internalType": "string",
          "name": "",
          "type": "string"
        }
      ],
      "stateMutability": "pure",
      "type": "function",
      "constant": true
    },
    {
      "inputs": [
        {
          "internalType": "address",
          "name": "_to",
          "type": "address"
        },
        {
          "internalType": "uint256",
          "name": "_amount",
          "type": "uint256"
        }
      ],
      "name": "mint",
      "outputs": [],
      "stateMutability": "nonpayable",
      "type": "function"
    },
    {
      "inputs": [],
      "name": "kill",
      "outputs": [],
      "stateMutability": "nonpayable",
      "type": "function"
    }
  ],
  "bytecode": "0x60a06040523480156200001157600080fd5b506040518060400160405280600581526020017f4f4d454e540000000000000000000000000000000000000000000000000000008152506040518060400160405280600581526020017f4f4d454e54000000000000000000000000000000000000000000000000000000815250610ad3828281600390805190602001906200009b929190620003de565b508060049080519060200190620000b4929190620003de565b5050507f8b73c3c69bb8fe3d512ecc4cf759cc79239f7b179b0ffacaa9a75d522b39400f8380519060200120620000f06200022660201b60201c565b8051906020012083306040516020016200010f959493929190620004e8565b60405160208183030381529060405280519060200120608081815250505050506000620001416200026360201b60201c565b905080600660006101000a81548173ffffffffffffffffffffffffffffffffffffffff021916908373ffffffffffffffffffffffffffffffffffffffff1602179055508073ffffffffffffffffffffffffffffffffffffffff16600073ffffffffffffffffffffffffffffffffffffffff167f8be0079c531659141344cd1fd0a4f28419497f9722a3daafe3b4186f6b6457e060405160405180910390a3506200022033620001f56200026b60201b60201c565b600a6200020391906200064d565b6308f0d1806200021491906200078a565b6200027460201b60201c565b6200090a565b60606040518060400160405280600181526020017f3100000000000000000000000000000000000000000000000000000000000000815250905090565b600033905090565b60006012905090565b600073ffffffffffffffffffffffffffffffffffffffff168273ffffffffffffffffffffffffffffffffffffffff161415620002e7576040517f08c379a0000000000000000000000000000000000000000000000000000000008152600401620002de9062000545565b60405180910390fd5b620002fb60008383620003d960201b60201c565b80600260008282546200030f919062000595565b92505081905550806000808473ffffffffffffffffffffffffffffffffffffffff1673ffffffffffffffffffffffffffffffffffffffff168152602001908152602001600020600082825462000366919062000595565b925050819055508173ffffffffffffffffffffffffffffffffffffffff16600073ffffffffffffffffffffffffffffffffffffffff167fddf252ad1be2c89b69c2b068fc378daa952ba7f163c4a11628f55a4df523b3ef83604051620003cd919062000567565b60405180910390a35050565b505050565b828054620003ec9062000840565b90600052602060002090601f0160209004810192826200041057600085556200045c565b82601f106200042b57805160ff19168380011785556200045c565b828001600101855582156200045c579182015b828111156200045b5782518255916020019190600101906200043e565b5b5090506200046b91906200046f565b5090565b5b808211156200048a57600081600090555060010162000470565b5090565b6200049981620007eb565b82525050565b620004aa81620007ff565b82525050565b6000620004bf601f8362000584565b9150620004cc82620008e1565b602082019050919050565b620004e28162000829565b82525050565b600060a082019050620004ff60008301886200049f565b6200050e60208301876200049f565b6200051d60408301866200049f565b6200052c6060830185620004d7565b6200053b60808301846200048e565b9695505050505050565b600060208201905081810360008301526200056081620004b0565b9050919050565b60006020820190506200057e6000830184620004d7565b92915050565b600082825260208201905092915050565b6000620005a28262000829565b9150620005af8362000829565b9250827fffffffffffffffffffffffffffffffffffffffffffffffffffffffffffffffff03821115620005e757620005e662000876565b5b828201905092915050565b6000808291508390505b600185111562000644578086048111156200061c576200061b62000876565b5b60018516156200062c5780820291505b80810290506200063c85620008d4565b9450620005fc565b94509492505050565b60006200065a8262000829565b9150620006678362000833565b9250620006967fffffffffffffffffffffffffffffffffffffffffffffffffffffffffffffffff84846200069e565b905092915050565b600082620006b0576001905062000783565b81620006c0576000905062000783565b8160018114620006d95760028114620006e4576200071a565b600191505062000783565b60ff841115620006f957620006f862000876565b5b8360020a91508482111562000713576200071262000876565b5b5062000783565b5060208310610133831016604e8410600b8410161715620007545782820a9050838111156200074e576200074d62000876565b5b62000783565b620007638484846001620005f2565b925090508184048111156200077d576200077c62000876565b5b81810290505b9392505050565b6000620007978262000829565b9150620007a48362000829565b9250817fffffffffffffffffffffffffffffffffffffffffffffffffffffffffffffffff0483118215151615620007e057620007df62000876565b5b828202905092915050565b6000620007f88262000809565b9050919050565b6000819050919050565b600073ffffffffffffffffffffffffffffffffffffffff82169050919050565b6000819050919050565b600060ff82169050919050565b600060028204905060018216806200085957607f821691505b6020821081141562000870576200086f620008a5565b5b50919050565b7f4e487b7100000000000000000000000000000000000000000000000000000000600052601160045260246000fd5b7f4e487b7100000000000000000000000000000000000000000000000000000000600052602260045260246000fd5b60008160011c9050919050565b7f45524332303a206d696e7420746f20746865207a65726f206164647265737300600082015250565b6080516126796200092d600039600081816105fe0152610bc101526126796000f3fe608060405234801561001057600080fd5b50600436106101375760003560e01c806354fd4d50116100b857806395d89b411161007c57806395d89b411461032e578063a457c2d71461034c578063a9059cbb1461037c578063dbaef5e0146103ac578063dd62ed3e146103c8578063f2fde38b146103f857610137565b806354fd4d501461028857806370a08231146102a6578063715018a6146102d65780637ecebe00146102e05780638da5cb5b1461031057610137565b8063313ce567116100ff578063313ce567146101f65780633644e51514610214578063395093511461023257806340c10f191461026257806341c0e1b51461027e57610137565b806306fdde031461013c578063095ea7b31461015a57806318160ddd1461018a57806323b872dd146101a857806330adf81f146101d8575b600080fd5b610144610414565b6040516101519190611c29565b60405180910390f35b610174600480360381019061016f9190611817565b6104a6565b6040516101819190611b4d565b60405180910390f35b6101926104c4565b60405161019f9190611e0b565b60405180910390f35b6101c260048036038101906101bd9190611716565b6104ce565b6040516101cf9190611b4d565b60405180910390f35b6101e06105cf565b6040516101ed9190611b68565b60405180910390f35b6101fe6105f3565b60405161020b9190611e26565b60405180910390f35b61021c6105fc565b6040516102299190611b68565b60405180910390f35b61024c60048036038101906102479190611817565b610620565b6040516102599190611b4d565b60405180910390f35b61027c60048036038101906102779190611817565b6106cc565b005b610286610774565b005b610290610815565b60405161029d9190611c29565b60405180910390f35b6102c060048036038101906102bb91906116b1565b610852565b6040516102cd9190611e0b565b60405180910390f35b6102de61089a565b005b6102fa60048036038101906102f591906116b1565b6109d7565b6040516103079190611e0b565b60405180910390f35b6103186109ef565b6040516103259190611b32565b60405180910390f35b610336610a19565b6040516103439190611c29565b60405180910390f35b61036660048036038101906103619190611817565b610aab565b6040516103739190611b4d565b60405180910390f35b61039660048036038101906103919190611817565b610b9f565b6040516103a39190611b4d565b60405180910390f35b6103c660048036038101906103c19190611765565b610bbd565b005b6103e260048036038101906103dd91906116da565b610e7f565b6040516103ef9190611e0b565b60405180910390f35b610412600480360381019061040d91906116b1565b610f06565b005b6060600380546104239061214f565b80601f016020809104026020016040519081016040528092919081815260200182805461044f9061214f565b801561049c5780601f106104715761010080835404028352916020019161049c565b820191906000526020600020905b81548152906001019060200180831161047f57829003601f168201915b5050505050905090565b60006104ba6104b36110b2565b84846110ba565b6001905092915050565b6000600254905090565b60006104db848484611285565b6000600160008673ffffffffffffffffffffffffffffffffffffffff1673ffffffffffffffffffffffffffffffffffffffff16815260200190815260200160002060006105266110b2565b73ffffffffffffffffffffffffffffffffffffffff1673ffffffffffffffffffffffffffffffffffffffff168152602001908152602001600020549050828110156105a6576040517f08c379a000000000000000000000000000000000000000000000000000000000815260040161059d90611ceb565b60405180910390fd5b6105c3856105b26110b2565b85846105be9190612089565b6110ba565b60019150509392505050565b7f3cc8b7c780987c4b5a6eaea1f7f4ab862a6b1e040ae0f37e556d8a79fce08b1381565b60006012905090565b7f000000000000000000000000000000000000000000000000000000000000000081565b60006106c261062d6110b2565b84846001600061063b6110b2565b73ffffffffffffffffffffffffffffffffffffffff1673ffffffffffffffffffffffffffffffffffffffff16815260200190815260200160002060008873ffffffffffffffffffffffffffffffffffffffff1673ffffffffffffffffffffffffffffffffffffffff168152602001908152602001600020546106bd9190611e68565b6110ba565b6001905092915050565b6106d46110b2565b73ffffffffffffffffffffffffffffffffffffffff166106f26109ef565b73ffffffffffffffffffffffffffffffffffffffff1614610748576040517f08c379a000000000000000000000000000000000000000000000000000000000815260040161073f90611d0b565b60405180910390fd5b610770826107546105f3565b600a6107609190611f11565b8361076b919061202f565b611504565b5050565b61077c6110b2565b73ffffffffffffffffffffffffffffffffffffffff1661079a6109ef565b73ffffffffffffffffffffffffffffffffffffffff16146107f0576040517f08c379a00000000000000000000000000000000000000000000000000000000081526004016107e790611d0b565b60405180910390fd5b60006107fa6109ef565b90508073ffffffffffffffffffffffffffffffffffffffff16ff5b60606040518060400160405280600181526020017f3100000000000000000000000000000000000000000000000000000000000000815250905090565b60008060008373ffffffffffffffffffffffffffffffffffffffff1673ffffffffffffffffffffffffffffffffffffffff168152602001908152602001600020549050919050565b6108a26110b2565b73ffffffffffffffffffffffffffffffffffffffff166108c06109ef565b73ffffffffffffffffffffffffffffffffffffffff1614610916576040517f08c379a000000000000000000000000000000000000000000000000000000000815260040161090d90611d0b565b60405180910390fd5b600073ffffffffffffffffffffffffffffffffffffffff16600660009054906101000a900473ffffffffffffffffffffffffffffffffffffffff1673ffffffffffffffffffffffffffffffffffffffff167f8be0079c531659141344cd1fd0a4f28419497f9722a3daafe3b4186f6b6457e060405160405180910390a36000600660006101000a81548173ffffffffffffffffffffffffffffffffffffffff021916908373ffffffffffffffffffffffffffffffffffffffff160217905550565b60056020528060005260406000206000915090505481565b6000600660009054906101000a900473ffffffffffffffffffffffffffffffffffffffff16905090565b606060048054610a289061214f565b80601f0160208091040260200160405190810160405280929190818152602001828054610a549061214f565b8015610aa15780601f10610a7657610100808354040283529160200191610aa1565b820191906000526020600020905b815481529060010190602001808311610a8457829003601f168201915b5050505050905090565b60008060016000610aba6110b2565b73ffffffffffffffffffffffffffffffffffffffff1673ffffffffffffffffffffffffffffffffffffffff16815260200190815260200160002060008573ffffffffffffffffffffffffffffffffffffffff1673ffffffffffffffffffffffffffffffffffffffff16815260200190815260200160002054905082811015610b77576040517f08c379a0000000000000000000000000000000000000000000000000000000008152600401610b6e90611dcb565b60405180910390fd5b610b94610b826110b2565b858584610b8f9190612089565b6110ba565b600191505092915050565b6000610bb3610bac6110b2565b8484611285565b6001905092915050565b60007f00000000000000000000000000000000000000000000000000000000000000007f3cc8b7c780987c4b5a6eaea1f7f4ab862a6b1e040ae0f37e556d8a79fce08b138a8a8a8a8a604051602001610c1b96959493929190611b83565b60405160208183030381529060405280519060200120604051602001610c42929190611afb565b604051602081830303815290604052805190602001209050600073ffffffffffffffffffffffffffffffffffffffff168973ffffffffffffffffffffffffffffffffffffffff161415610cca576040517f08c379a0000000000000000000000000000000000000000000000000000000008152600401610cc190611ccb565b60405180910390fd5b60018185858560405160008152602001604052604051610ced9493929190611be4565b6020604051602081039080840390855afa158015610d0f573d6000803e3d6000fd5b5050506020604051035173ffffffffffffffffffffffffffffffffffffffff168973ffffffffffffffffffffffffffffffffffffffff1614610d86576040517f08c379a0000000000000000000000000000000000000000000000000000000008152600401610d7d90611d2b565b60405180910390fd5b6000861480610d955750854211155b610dd4576040517f08c379a0000000000000000000000000000000000000000000000000000000008152600401610dcb90611dab565b60405180910390fd5b600560008a73ffffffffffffffffffffffffffffffffffffffff1673ffffffffffffffffffffffffffffffffffffffff1681526020019081526020016000206000815480929190610e2490612181565b919050558714610e69576040517f08c379a0000000000000000000000000000000000000000000000000000000008152600401610e6090611d6b565b60405180910390fd5b610e748989876110ba565b505050505050505050565b6000600160008473ffffffffffffffffffffffffffffffffffffffff1673ffffffffffffffffffffffffffffffffffffffff16815260200190815260200160002060008373ffffffffffffffffffffffffffffffffffffffff1673ffffffffffffffffffffffffffffffffffffffff16815260200190815260200160002054905092915050565b610f0e6110b2565b73ffffffffffffffffffffffffffffffffffffffff16610f2c6109ef565b73ffffffffffffffffffffffffffffffffffffffff1614610f82576040517f08c379a0000000000000000000000000000000000000000000000000000000008152600401610f7990611d0b565b60405180910390fd5b600073ffffffffffffffffffffffffffffffffffffffff168173ffffffffffffffffffffffffffffffffffffffff161415610ff2576040517f08c379a0000000000000000000000000000000000000000000000000000000008152600401610fe990611c6b565b60405180910390fd5b8073ffffffffffffffffffffffffffffffffffffffff16600660009054906101000a900473ffffffffffffffffffffffffffffffffffffffff1673ffffffffffffffffffffffffffffffffffffffff167f8be0079c531659141344cd1fd0a4f28419497f9722a3daafe3b4186f6b6457e060405160405180910390a380600660006101000a81548173ffffffffffffffffffffffffffffffffffffffff021916908373ffffffffffffffffffffffffffffffffffffffff16021790555050565b600033905090565b600073ffffffffffffffffffffffffffffffffffffffff168373ffffffffffffffffffffffffffffffffffffffff16141561112a576040517f08c379a000000000000000000000000000000000000000000000000000000000815260040161112190611d8b565b60405180910390fd5b600073ffffffffffffffffffffffffffffffffffffffff168273ffffffffffffffffffffffffffffffffffffffff16141561119a576040517f08c379a000000000000000000000000000000000000000000000000000000000815260040161119190611c8b565b60405180910390fd5b80600160008573ffffffffffffffffffffffffffffffffffffffff1673ffffffffffffffffffffffffffffffffffffffff16815260200190815260200160002060008473ffffffffffffffffffffffffffffffffffffffff1673ffffffffffffffffffffffffffffffffffffffff168152602001908152602001600020819055508173ffffffffffffffffffffffffffffffffffffffff168373ffffffffffffffffffffffffffffffffffffffff167f8c5be1e5ebec7d5bd14f71427d1e84f3dd0314c0f7b2291e5b200ac8c7c3b925836040516112789190611e0b565b60405180910390a3505050565b600073ffffffffffffffffffffffffffffffffffffffff168373ffffffffffffffffffffffffffffffffffffffff1614156112f5576040517f08c379a00000000000000000000000000000000000000000000000000000000081526004016112ec90611d4b565b60405180910390fd5b600073ffffffffffffffffffffffffffffffffffffffff168273ffffffffffffffffffffffffffffffffffffffff161415611365576040517f08c379a000000000000000000000000000000000000000000000000000000000815260040161135c90611c4b565b60405180910390fd5b611370838383611658565b60008060008573ffffffffffffffffffffffffffffffffffffffff1673ffffffffffffffffffffffffffffffffffffffff168152602001908152602001600020549050818110156113f6576040517f08c379a00000000000000000000000000000000000000000000000000000000081526004016113ed90611cab565b60405180910390fd5b81816114029190612089565b6000808673ffffffffffffffffffffffffffffffffffffffff1673ffffffffffffffffffffffffffffffffffffffff16815260200190815260200160002081905550816000808573ffffffffffffffffffffffffffffffffffffffff1673ffffffffffffffffffffffffffffffffffffffff16815260200190815260200160002060008282546114929190611e68565b925050819055508273ffffffffffffffffffffffffffffffffffffffff168473ffffffffffffffffffffffffffffffffffffffff167fddf252ad1be2c89b69c2b068fc378daa952ba7f163c4a11628f55a4df523b3ef846040516114f69190611e0b565b60405180910390a350505050565b600073ffffffffffffffffffffffffffffffffffffffff168273ffffffffffffffffffffffffffffffffffffffff161415611574576040517f08c379a000000000000000000000000000000000000000000000000000000000815260040161156b90611deb565b60405180910390fd5b61158060008383611658565b80600260008282546115929190611e68565b92505081905550806000808473ffffffffffffffffffffffffffffffffffffffff1673ffffffffffffffffffffffffffffffffffffffff16815260200190815260200160002060008282546115e79190611e68565b925050819055508173ffffffffffffffffffffffffffffffffffffffff16600073ffffffffffffffffffffffffffffffffffffffff167fddf252ad1be2c89b69c2b068fc378daa952ba7f163c4a11628f55a4df523b3ef8360405161164c9190611e0b565b60405180910390a35050565b505050565b60008135905061166c816125e7565b92915050565b600081359050611681816125fe565b92915050565b60008135905061169681612615565b92915050565b6000813590506116ab8161262c565b92915050565b6000602082840312156116c357600080fd5b60006116d18482850161165d565b91505092915050565b600080604083850312156116ed57600080fd5b60006116fb8582860161165d565b925050602061170c8582860161165d565b9150509250929050565b60008060006060848603121561172b57600080fd5b60006117398682870161165d565b935050602061174a8682870161165d565b925050604061175b86828701611687565b9150509250925092565b600080600080600080600080610100898b03121561178257600080fd5b60006117908b828c0161165d565b98505060206117a18b828c0161165d565b97505060406117b28b828c01611687565b96505060606117c38b828c01611687565b95505060806117d48b828c01611687565b94505060a06117e58b828c0161169c565b93505060c06117f68b828c01611672565b92505060e06118078b828c01611672565b9150509295985092959890939650565b6000806040838503121561182a57600080fd5b60006118388582860161165d565b925050602061184985828601611687565b9150509250929050565b61185c816120bd565b82525050565b61186b816120cf565b82525050565b61187a816120db565b82525050565b61189161188c826120db565b6121ca565b82525050565b60006118a282611e41565b6118ac8185611e4c565b93506118bc81856020860161211c565b6118c581612232565b840191505092915050565b60006118dd602383611e4c565b91506118e882612250565b604082019050919050565b6000611900602683611e4c565b915061190b8261229f565b604082019050919050565b6000611923602283611e4c565b915061192e826122ee565b604082019050919050565b6000611946600283611e5d565b91506119518261233d565b600282019050919050565b6000611969602683611e4c565b915061197482612366565b604082019050919050565b600061198c601183611e4c565b9150611997826123b5565b602082019050919050565b60006119af602883611e4c565b91506119ba826123de565b604082019050919050565b60006119d2602083611e4c565b91506119dd8261242d565b602082019050919050565b60006119f5600e83611e4c565b9150611a0082612456565b602082019050919050565b6000611a18602583611e4c565b9150611a238261247f565b604082019050919050565b6000611a3b600d83611e4c565b9150611a46826124ce565b602082019050919050565b6000611a5e602483611e4c565b9150611a69826124f7565b604082019050919050565b6000611a81600e83611e4c565b9150611a8c82612546565b602082019050919050565b6000611aa4602583611e4c565b9150611aaf8261256f565b604082019050919050565b6000611ac7601f83611e4c565b9150611ad2826125be565b602082019050919050565b611ae681612105565b82525050565b611af58161210f565b82525050565b6000611b0682611939565b9150611b128285611880565b602082019150611b228284611880565b6020820191508190509392505050565b6000602082019050611b476000830184611853565b92915050565b6000602082019050611b626000830184611862565b92915050565b6000602082019050611b7d6000830184611871565b92915050565b600060c082019050611b986000830189611871565b611ba56020830188611853565b611bb26040830187611853565b611bbf6060830186611add565b611bcc6080830185611add565b611bd960a0830184611add565b979650505050505050565b6000608082019050611bf96000830187611871565b611c066020830186611aec565b611c136040830185611871565b611c206060830184611871565b95945050505050565b60006020820190508181036000830152611c438184611897565b905092915050565b60006020820190508181036000830152611c64816118d0565b9050919050565b60006020820190508181036000830152611c84816118f3565b9050919050565b60006020820190508181036000830152611ca481611916565b9050919050565b60006020820190508181036000830152611cc48161195c565b9050919050565b60006020820190508181036000830152611ce48161197f565b9050919050565b60006020820190508181036000830152611d04816119a2565b9050919050565b60006020820190508181036000830152611d24816119c5565b9050919050565b60006020820190508181036000830152611d44816119e8565b9050919050565b60006020820190508181036000830152611d6481611a0b565b9050919050565b60006020820190508181036000830152611d8481611a2e565b9050919050565b60006020820190508181036000830152611da481611a51565b9050919050565b60006020820190508181036000830152611dc481611a74565b9050919050565b60006020820190508181036000830152611de481611a97565b9050919050565b60006020820190508181036000830152611e0481611aba565b9050919050565b6000602082019050611e206000830184611add565b92915050565b6000602082019050611e3b6000830184611aec565b92915050565b600081519050919050565b600082825260208201905092915050565b600081905092915050565b6000611e7382612105565b9150611e7e83612105565b9250827fffffffffffffffffffffffffffffffffffffffffffffffffffffffffffffffff03821115611eb357611eb26121d4565b5b828201905092915050565b6000808291508390505b6001851115611f0857808604811115611ee457611ee36121d4565b5b6001851615611ef35780820291505b8081029050611f0185612243565b9450611ec8565b94509492505050565b6000611f1c82612105565b9150611f278361210f565b9250611f547fffffffffffffffffffffffffffffffffffffffffffffffffffffffffffffffff8484611f5c565b905092915050565b600082611f6c5760019050612028565b81611f7a5760009050612028565b8160018114611f905760028114611f9a57611fc9565b6001915050612028565b60ff841115611fac57611fab6121d4565b5b8360020a915084821115611fc357611fc26121d4565b5b50612028565b5060208310610133831016604e8410600b8410161715611ffe5782820a905083811115611ff957611ff86121d4565b5b612028565b61200b8484846001611ebe565b92509050818404811115612022576120216121d4565b5b81810290505b9392505050565b600061203a82612105565b915061204583612105565b9250817fffffffffffffffffffffffffffffffffffffffffffffffffffffffffffffffff048311821515161561207e5761207d6121d4565b5b828202905092915050565b600061209482612105565b915061209f83612105565b9250828210156120b2576120b16121d4565b5b828203905092915050565b60006120c8826120e5565b9050919050565b60008115159050919050565b6000819050919050565b600073ffffffffffffffffffffffffffffffffffffffff82169050919050565b6000819050919050565b600060ff82169050919050565b60005b8381101561213a57808201518184015260208101905061211f565b83811115612149576000848401525b50505050565b6000600282049050600182168061216757607f821691505b6020821081141561217b5761217a612203565b5b50919050565b600061218c82612105565b91507fffffffffffffffffffffffffffffffffffffffffffffffffffffffffffffffff8214156121bf576121be6121d4565b5b600182019050919050565b6000819050919050565b7f4e487b7100000000000000000000000000000000000000000000000000000000600052601160045260246000fd5b7f4e487b7100000000000000000000000000000000000000000000000000000000600052602260045260246000fd5b6000601f19601f8301169050919050565b60008160011c9050919050565b7f45524332303a207472616e7366657220746f20746865207a65726f206164647260008201527f6573730000000000000000000000000000000000000000000000000000000000602082015250565b7f4f776e61626c653a206e6577206f776e657220697320746865207a65726f206160008201527f6464726573730000000000000000000000000000000000000000000000000000602082015250565b7f45524332303a20617070726f766520746f20746865207a65726f20616464726560008201527f7373000000000000000000000000000000000000000000000000000000000000602082015250565b7f1901000000000000000000000000000000000000000000000000000000000000600082015250565b7f45524332303a207472616e7366657220616d6f756e742065786365656473206260008201527f616c616e63650000000000000000000000000000000000000000000000000000602082015250565b7f696e76616c69642d616464726573732d30000000000000000000000000000000600082015250565b7f45524332303a207472616e7366657220616d6f756e742065786365656473206160008201527f6c6c6f77616e6365000000000000000000000000000000000000000000000000602082015250565b7f4f776e61626c653a2063616c6c6572206973206e6f7420746865206f776e6572600082015250565b7f696e76616c69642d7065726d6974000000000000000000000000000000000000600082015250565b7f45524332303a207472616e736665722066726f6d20746865207a65726f20616460008201527f6472657373000000000000000000000000000000000000000000000000000000602082015250565b7f696e76616c69642d6e6f6e636500000000000000000000000000000000000000600082015250565b7f45524332303a20617070726f76652066726f6d20746865207a65726f2061646460008201527f7265737300000000000000000000000000000000000000000000000000000000602082015250565b7f7065726d69742d65787069726564000000000000000000000000000000000000600082015250565b7f45524332303a2064656372656173656420616c6c6f77616e63652062656c6f7760008201527f207a65726f000000000000000000000000000000000000000000000000000000602082015250565b7f45524332303a206d696e7420746f20746865207a65726f206164647265737300600082015250565b6125f0816120bd565b81146125fb57600080fd5b50565b612607816120db565b811461261257600080fd5b50565b61261e81612105565b811461262957600080fd5b50565b6126358161210f565b811461264057600080fd5b5056fea2646970667358221220b0ac6ff97c5d66bd50c4c50561ea69c0203387e4edffc6dabde45d46640bcd3264736f6c63430008010033",
  "immutableReferences": {
    "15": [
      {
        "length": 32,
        "start": 1534
      },
      {
        "length": 32,
        "start": 3009
      }
    ]
  },
  "source": "// SPDX-License-Identifier: MIT\r\n\r\npragma solidity >=0.6.0 <0.8.2;\r\n\r\nimport \"@openzeppelin/contracts/access/Ownable.sol\";\r\nimport \"./ERC20Permit.sol\";\r\n\r\ncontract OmentToken is ERC20Permit, Ownable {\r\n    constructor() ERC20Permit(\"OMENT\", \"OMENT\", 2771) {\r\n        _mint(msg.sender, 150000000 * 10 ** decimals());\r\n    }\r\n\r\n    function mint(address _to, uint256 _amount) public onlyOwner {\r\n        _mint(_to, _amount * 10 ** decimals());\r\n    }\r\n\r\n    // Temp\r\n\tfunction kill() public onlyOwner {\r\n        address payable wallet = payable(owner());\r\n\t\tselfdestruct(wallet);\r\n\t}\r\n}",
  "sourcePath": "D:/workspace/node_project/moment/contracts/OmentToken.sol",
  "compiler": {
    "name": "solc",
    "version": "0.8.1+commit.df193b15.Emscripten.clang"
  },
  "schemaVersion": "3.3.3",
  "updatedAt": "2021-04-07T14:32:58.322Z",
  "networkType": "ethereum",
  "devdoc": {
    "kind": "dev",
    "methods": {
      "allowance(address,address)": {
        "details": "See {IERC20-allowance}."
      },
      "approve(address,uint256)": {
        "details": "See {IERC20-approve}. Requirements: - `spender` cannot be the zero address."
      },
      "balanceOf(address)": {
        "details": "See {IERC20-balanceOf}."
      },
      "decimals()": {
        "details": "Returns the number of decimals used to get its user representation. For example, if `decimals` equals `2`, a balance of `505` tokens should be displayed to a user as `5,05` (`505 / 10 ** 2`). Tokens usually opt for a value of 18, imitating the relationship between Ether and Wei. This is the value {ERC20} uses, unless this function is overloaded; NOTE: This information is only used for _display_ purposes: it in no way affects any of the arithmetic of the contract, including {IERC20-balanceOf} and {IERC20-transfer}."
      },
      "decreaseAllowance(address,uint256)": {
        "details": "Atomically decreases the allowance granted to `spender` by the caller. This is an alternative to {approve} that can be used as a mitigation for problems described in {IERC20-approve}. Emits an {Approval} event indicating the updated allowance. Requirements: - `spender` cannot be the zero address. - `spender` must have allowance for the caller of at least `subtractedValue`."
      },
      "increaseAllowance(address,uint256)": {
        "details": "Atomically increases the allowance granted to `spender` by the caller. This is an alternative to {approve} that can be used as a mitigation for problems described in {IERC20-approve}. Emits an {Approval} event indicating the updated allowance. Requirements: - `spender` cannot be the zero address."
      },
      "name()": {
        "details": "Returns the name of the token."
      },
      "owner()": {
        "details": "Returns the address of the current owner."
      },
      "renounceOwnership()": {
        "details": "Leaves the contract without owner. It will not be possible to call `onlyOwner` functions anymore. Can only be called by the current owner. NOTE: Renouncing ownership will leave the contract without an owner, thereby removing any functionality that is only available to the owner."
      },
      "symbol()": {
        "details": "Returns the symbol of the token, usually a shorter version of the name."
      },
      "totalSupply()": {
        "details": "See {IERC20-totalSupply}."
      },
      "transfer(address,uint256)": {
        "details": "See {IERC20-transfer}. Requirements: - `recipient` cannot be the zero address. - the caller must have a balance of at least `amount`."
      },
      "transferFrom(address,address,uint256)": {
        "details": "See {IERC20-transferFrom}. Emits an {Approval} event indicating the updated allowance. This is not required by the EIP. See the note at the beginning of {ERC20}. Requirements: - `sender` and `recipient` cannot be the zero address. - `sender` must have a balance of at least `amount`. - the caller must have allowance for ``sender``'s tokens of at least `amount`."
      },
      "transferOwnership(address)": {
        "details": "Transfers ownership of the contract to a new account (`newOwner`). Can only be called by the current owner."
      },
      "version()": {
        "details": "Setting the version as a function so that it can be overriden"
      }
    },
    "version": 1
  },
  "userdoc": {
    "kind": "user",
    "methods": {},
    "version": 1
  }
}